:020000040800F2
:1000000040040020ED01000855130008C912000843
:10001000511300085902000889140008000000006C
:10002000000000000000000000000000ED130008C8
:100030005D0200080000000059130008F1130008D9
:10004000070200080702000807020008070200086C
:10005000070200080702000807020008070200085C
:10006000070200080702000807020008070200084C
:10007000070200080702000807020008070200083C
:10008000070200080702000807020008070200082C
:10009000070200080702000807020008070200081C
:1000A000070200080702000807020008070200080C
:1000B00007020008070200080702000807020008FC
:1000C00007020008070200080702000807020008EC
:1000D00007020008070200080702000807020008DC
:1000E00007020008070200080702000807020008CC
:1000F00007020008070200080702000807020008BC
:1001000007020008070200080702000807020008AB
:10011000070200080702000807020008070200089B
:10012000070200080702000807020008070200088B
:10013000070200080702000807020008070200087B
:10014000070200080702000807020008070200086B
:10015000070200080702000807020008070200085B
:10016000070200080702000807020008070200084B
:10017000070200080702000807020008070200083B
:10018000070200080702000807020008070200082B
:10019000070200080000000007020008070200082C
:1001A000070200080702000807020008070200080B
:1001B00007020008070200080702000807020008FB
:1001C00007020008070200080702000807020008EB
:1001D0000702000807020008DFF80CD000F02AF838
:1001E00000480047491500084004002006488047A1
:1001F00006480047FEE7FEE7FEE7FEE7FEE7FEE70C
:10020000FEE7FEE7FEE7FEE775140008D9010008E7
:10021000D2B201E000F8012B491EFBD27047002248
:10022000F6E710B513460A4604461946FFF7F0FFF5
:10023000204610BD064C074D06E0E06840F0010383
:1002400094E8070098471034AC42F6D3FFF7C8FF94
:10025000BC150008DC150008FEE700007047000030
:10026000EFF3108072B600BFFEE700002DE9F04FFB
:1002700082B00D68002D00F0CB8041F2004400F107
:100280003847C4F6000406224FEAB726A04208BF4A
:100290000522052E38BF4FEAB722002401274FF070
:1002A000000E0026009209E00D68013635FA06F2CC
:1002B0000EF1040E04F1020400F0AA8007FA06FB16
:1002C00015EA0B08F0D0D1F804A003220AF0030CC1
:1002D000ACF10105A240012D6FEA020910D8826835
:1002E000CD6802EA0902A5402A4382604268CAF347
:1002F000001522EA0B02B5402A43426006E000BF27
:10030000BCF1030F02D14FF0030C21E0C2688D68ED
:1003100002EA0902A5402A43BCF1020FC26017D1CC
:100320006FF0030202EA560202440EF01C030F258E
:10033000D2F820C005FA03FA0D692CEA0A0C05FA76
:1003400003F343EA0C031362D1F804A00AF0030C90
:1003500002680CFA04F302EA09021A431AF4403F55
:100360000260A1D041F26003C4F202031A6840F2B5
:10037000004942F001021A601A68C4F2010902F051
:1003800001020192019A26F003024FF6084A4A44FC
:10039000CFF6FF7A52F80AC00EF00C050F23009F2B
:1003A000AB402CEA030307FA05F52B4342F80A3069
:1003B000D9F808C04B684CEA0805DA0258BF2CEAA5
:1003C000080540F20C4CC9F80850C4F2010CDCF8E6
:1003D00000209F0242EA080558BF22EA0805CCF82F
:1003E0000050D9F804209D0342EA080758BF22EACA
:1003F0000807C9F80470D9F80020DB0342EA0807AF
:1004000058BF22EA0807C9F8007001274CE700BF6F
:1004100002B0BDE8F08F00000069084018BF01205D
:1004200070470000426902EA0103914341EA034137
:10043000816170471823002A08BF2823C1507047E4
:1004400040F23800C2F200000068704740F200003D
:1004500040F23801C2F20000C2F2000140680A68AE
:10046000104408607047000080B5032000F078F861
:100470000F2000F009F800281CBF012080BD00F00B
:1004800029F8002080BD000070B540F20006C2F2DD
:1004900000067168E1B1044640F20800C2F20000B3
:1004A0004FF47A720068B2FBF1F1B0FBF1F000F0AA
:1004B000F5FE0F2C4FF0010508D838B94FF0FF308A
:1004C00021460022002500F01FF83460284670BD48
:1004D000012070BD82B041F25800C4F20200816870
:1004E00041F001018160816801F0010101910199F0
:1004F000016841F080510160006800F08050009078
:10050000009802B000F0D0B810B54EF60C5CCEF2F8
:10051000000CDCF80030C3F3022E8EF00704042C2C
:1005200028BF0424BEF103034FF0FF3E0EFA04F48B
:1005300038BF0023A14399400EFA03F39A431143B5
:1005400000F00F0200F160430901043A03F564432F
:100550006244002848BF02F10C03197010BD00006E
:100560004EF60C51CEF200010A684FF6FF031A4016
:1005700060F30A2242F0806040F0FD70086070472E
:10058000B0F5007F42D0002840F0808047F2140090
:10059000C4F2000050F8141CC26E01F4C06122F4D1
:1005A0008072B1F5806FC2662ED150F8141C012202
:1005B00062F34A2140F8141C40F20801C2F2000123
:1005C0000968322251434DF68362C4F21B32A1FB0B
:1005D0000212910C0268520511D54A1C0FD0026814
:1005E00052050CD559B10268520508D5012906D02B
:1005F0000268520503D50229A1F10401EAD100687D
:10060000400544BF032070470020704747F21400A4
:10061000C4F2000050F8141CC26E01F4C06142F430
:100620008072B1F5806FC266EED150F8141C0122C1
:1006300062F34A2140F8141C40F20801C2F20001A2
:100640000968322251434DF68362C4F21B32A1FB8A
:100650000212910C0268520511D54A1C0FD0026893
:1006600052050CD559B10268520508D5012906D0AA
:100670000268520503D50229A1F10401EAD10068FC
:10068000400544BF03207047BEE700BF47F2140097
:10069000C4F2000050F8141C022262F34A2140F810
:1006A000141C00207047000047F20800C4F200004C
:1006B000016841F4804101607047000047F200008A
:1006C000C4F20000016841F48071016070470000CD
:1006D0002DE9F04182B00446807841F28806000797
:1006E000C4F2020602D400202FE000BF56F8300CFE
:1006F00010F080580BD156F8300C40F0805046F87E
:10070000300C56F8300C00F080500190019847F200
:100710000007C4F20007386840F480703860FFF7C3
:100720008FFE05463868C00500F10C81FFF788FE92
:10073000401B0228F6D90320B8F1000F05D156F866
:10074000301C21F0805146F8301C2168CA0717D1AF
:100750008A071DD44A0723D40A0729D4CA062FD4EE
:100760008A0635D44A063BD40A0641D4CA0547D482
:100770008A034DD48A0553D44A0559D467E000BF93
:100780003268636822F003021A4332608A07E1D5B7
:100790003268A36822F00C021A4332604A07DBD5A4
:1007A0003268E36822F030021A4332600A07D5D576
:1007B0003268236922F0C0021A433260CA06CFD5DC
:1007C0003268636922F440721A4332608A06C9D5DE
:1007D0003268A36922F440621A4332604A06C3D5E4
:1007E0003268E36922F440521A4332600A06BDD5EA
:1007F0003268236A22F440421A433260CA05B7D5F0
:100800003268636A22F440321A4332608A03B1D5F7
:100810007269A36A22F003021A4372618A05ABD59A
:100820003268E36A22F440221A4332604A050ED548
:100830003268236B22F440121A43B3F5801F3260F2
:1008400005D156F87C2C42F4801246F87C2C0A051F
:100850000ED53268636B22F440021A43B3F5800F61
:10086000326005D156F87C2C42F4801246F87C2C7C
:10087000CA040ED53268A36B22F040721A43B3F15A
:10088000807F326005D156F87C2C42F4801246F805
:100890007C2C8A040ED53268E36B22F040621A4346
:1008A000B3F1006F326005D156F87C2C42F480120F
:1008B00046F87C2C4A040ED53268236C22F0406244
:1008C0001A43B3F1006F326005D156F87C2C42F424
:1008D000801246F87C2C0A040ED53268636C22F034
:1008E00040521A43B3F1805F326005D156F87C2C38
:1008F00042F4803246F87C2CCA030ED53268A36CD1
:1009000022F040421A43B3F1804F326005D156F8CD
:100910007C2C42F4803246F87C2C49030ED5716958
:10092000E26C21F440111143B2F5001F716105D151
:1009300056F87C1C41F4801146F87C1C02B0BDE8DE
:10094000F08100BFB06810F4407010D0216D884273
:100950000BD0B068B16820F4407041F48031B160D0
:10096000B16821F48031B160B060C0070CD1B068CB
:10097000216D20F440700843B0600020B8F1000FF2
:100980007FF4E3AEDBE600BFFFF75AFD054641F218
:10099000883700BFB0688007E9D4FFF751FD401BDE
:1009A000B842F7D9C7E600002DE9F04700286DD01E
:1009B00042F2000AC4F2020A0446DAF800000D46C8
:1009C00000F00F0088420CD2DAF8000020F00F008F
:1009D0002843CAF80000DAF8000000F00F00A8422F
:1009E00054D1216841F20808C807C4F2020803D1B3
:1009F000880740F1D880BDE0606802283AD003281B
:100A000040D158F8082C920140D5D8F80420D8F8E5
:100A1000043042F20046C3F3031302F00302D8F895
:100A200004700133C0F2F406032A04BF41F2002629
:100A3000C0F27A06B6FBF3F2D8F80430C7F3062703
:100A40007A43C3F34163022707EB4303B2FBF3F29C
:100A50004BF20043C0F2C4439A4261D9D8F8002057
:100A600012F0F00F51D089075AD5A168002957D14B
:100A70004BE000BF58F8081C89035CBF0120BDE8AB
:100A8000F08707E058F8081C490503D40120BDE8A9
:100A9000F08700BFD8F8001001F00C0104293FD006
:100AA000D8F8001001F00C01082939D0D8F800104E
:100AB00001F00C010C2933D1D8F80410D8F8042027
:100AC00042F20047C2F3031201F00301D8F80430E8
:100AD0000132C0F2F407032904BF41F20027C0F23B
:100AE0007A07B7FBF2F1D8F80420C3F30623594381
:100AF000C2F34162022303EB4202B1FBF2F14BF27B
:100B00000042C0F2C44291420AD9D8F8001008222B
:100B100062F307114FF00109C8F8001002E000BFAE
:100B20004FF00009D8F8001021F003010843C8F87D
:100B30000000FFF785FC064641F28837D8F8000030
:100B4000616800F00C00B0EB810F07D0FFF778FC74
:100B5000801BB842F2D90320BDE8F08721688807DE
:100B600008D4B9F1000F1ED0D8F8000020F0F00032
:100B700017E000BF480705D5D8F8000040F4E06052
:100B8000C8F80000080706D5D8F80000072262F36D
:100B90000D20C8F80000D8F80000A26820F0F0008E
:100BA0001043C8F80000DAF8000000F00F00A84277
:100BB0001BD9DAF8000020F00F002843CAF8000023
:100BC000FFF73EFC064641F2883700BFDAF8000026
:100BD00000F00F00A84207D0FFF732FC801BB8429C
:100BE000F4D90320BDE8F0872168480707D5D8F875
:100BF0000000E26820F4E0601043C8F80000080735
:100C000008D5D8F80000216920F4605040EAC100FE
:100C1000C8F80000D8F8000042F20041C0F2F40128
:100C200000F00C00042808462DD0D8F8000000F091
:100C30000C00082841F20020C0F27A0023D0D8F836
:100C4000002002F00C020C2A1CD1D8F80420D8F89D
:100C5000043002F00302C3F30313D8F80470013325
:100C6000032A08BF0146B1FBF3F0D8F80410C7F31C
:100C70000627C1F341610222784302EB4101B0FB38
:100C8000F1F000E00020D8F8001041F2AC52C1F3BE
:100C90000311C0F60002515C40F2080201F01F018E
:100CA00020FA01F140F20000C2F200000068C2F236
:100CB00000021160BDE8F047FFF7E6BB2DE9F04107
:100CC00082B0002800F006810446007841F2000658
:100CD000C007C4F2020655D12078800774D420786A
:100CE000000700F197802078400700F1B780207856
:100CF000800600F10781E069002840D0B16801F06A
:100D00000C010C2940F05681012800F0E380F068C6
:100D1000216A00F003028A4240F0DC80626A6FF0D0
:100D20000F0300F0F00103EB0212914240F0D28079
:100D3000A16A00F4FE42B2EB012F40F0CB80E16AE1
:100D400000F07842B2EBC16F40F0C480226B002308
:100D5000CFF6E07303EA025200F4C001A2F50012DC
:100D6000914240F0B780616B4FF07E4202EA016130
:100D700000F0C06001F17E41884240F0AB8000206D
:100D8000F1E100BFB06800F00C01F06808295BD009
:100D9000032281F00C0122EA00000844B0FA80F03E
:100DA000400951D16068B0F5803F07D0B0F5A02F61
:100DB00040F0D680306840F480203060306840F4E5
:100DC00080303060D7E000BFB068F16800F00C0000
:100DD000042869D001F0030180F00C0081F00201C9
:100DE0000844B0FA80F040095ED1E168306800291B
:100DF00000F0CE8040F480703060FFF721FB0546A4
:100E00003068400500F1EC80FFF71AFB401B022818
:100E1000F6D920E16169D6F89400002900F08C80B1
:100E200040F00100C6F89400FFF70AFB054600BF3A
:100E3000D6F8940080073FF556AFFFF701FB401B43
:100E40000228F5D907E100BF306880037FF544AF81
:100E5000606800287FF440AF3CE000BFB06D10F048
:100E6000805808D1B06D40F08050B065B06D00F092
:100E700080500190019847F20007C4F200073868DB
:100E8000C0052BD4386840F480703860FFF7D8FA7A
:100E9000054600BF3868C00520D4FFF7D1FA401BD3
:100EA0000228F7D9D7E000BF3068400501D5E068D7
:100EB00080B17068216920F0FE4040EA01607060F6
:100EC00040F20000C2F200000068FFF7DDFA0028DF
:100ED0003FF405AF012002B0BDE8F081A068012811
:100EE00008D0052840F09A80D6F8900040F0040021
:100EF000C6F89000D6F8900040F00100C6F89000C7
:100F00009AE000BFA169D6F89800002970D040F09F
:100F10000100C6F89800FFF793FA0546D6F8980046
:100F200080073FF5E8AEFFF78BFA401B02284FF031
:100F30000300F3D917E100BF20F00100C6F89400C8
:100F4000FFF77EFA054600BFD6F8940080077FF5CC
:100F5000CAAEFFF775FA401B0228F5D97BE000BF47
:100F60003168002821F480313160316821F480211A
:100F7000316000F08F80FFF763FA05463068800328
:100F80003FF5AAAEFFF75CFA401B6428F6D962E091
:100F900020F480703060FFF753FA05463068400552
:100FA0007FF59DAEFFF74CFA401B02284FF003007F
:100FB000F4D9D8E03168022821F0807131604FD136
:100FC000FFF73EFA054600BF3068800140F18E8091
:100FD000FFF736FA401B02284FF00300F4D9C2E0B5
:100FE0007068216920F0FE4040EA0160706076E69A
:100FF00020F00100C6F89800FFF722FA054600BF6E
:10100000D6F8980080077FF576AEFFF719FA401BF7
:1010100002284FF00300F3D9A5E000BFD6F89010E6
:10102000002821F00101C6F89010D6F8901021F0A8
:101030000401C6F890103DD0FFF702FA054641F2D0
:10104000883700BFD6F89000800745D4FFF7F8F93D
:10105000401BB842F6D9032002B0BDE8F08100BFC2
:10106000F0684FF6FF7120F00300F060F068CFF6F3
:10107000EE610840F060FFF7E3F904463068800154
:101080007FF57DAEFFF7DCF9001B02284FF003006F
:10109000F4D968E0FFF7D4F9054600BF3068800353
:1010A0007FF51AAEFFF7CCF9401B64284FF0030020
:1010B000F4D958E0FFF7C4F9054641F2883700BF7C
:1010C000D6F89000800707D5FFF7BAF9401BB84261
:1010D0004FF00300F4D946E0B8F1000F7FF407AEFB
:1010E000B06D20F08050B06501E600BFF06848F2B6
:1010F0000C01C0F29F1104F1200700EA010C8ECF11
:101100006FF00F00D4E90C5400EB02100022CFF670
:10111000E07241EA0C0102EA05520843A2F500120E
:101120004FF07E4540EA032005EA0465104305F1CF
:101130007E4540EAC7602843F060306840F0807028
:101140003060F06840F08070F060FFF779F9044695
:10115000306880013FF513AEFFF772F9001B0228DB
:101160004FF00300F4D902B0BDE8F081B0B500281B
:1011700046D0044690F8250028B9002084F82400C1
:10118000204600F059F8022084F825002168CA2082
:10119000486253204862C868400615D4C86840F0C9
:1011A0008000C860FFF74CF92168CA6852060BD46A
:1011B000054600BFFFF744F9401BB0F57A7F33D8EE
:1011C0002168C8684006F5D588694FF6BF72CFF62A
:1011D0008F3210408861D4E9010CD4E903531843DD
:1011E000A3698A6918431043886145EA0C40086185
:1011F000204600F0B3F8216820B1FF224A62B0BD5A
:101200000120B0BD8869D4E9075320F060406269CD
:101210001843284310438861FF204862012084F866
:1012200025000020B0BD00BF032084F82500216800
:10123000CA68FF224A62B0BD10B596B0044601A844
:1012400004304C21FEF7EBFF206842F60001C4F2A7
:101250000001884202D016B010BD00BF4FF400203C
:1012600001904FF48070159001A8FFF731FA002823
:1012700018BFFEF7F5FF41F25800C4F20200816B7F
:1012800041F400418163016841F4806101600068BC
:1012900000F480600090009816B010BD411E002040
:1012A000B0EB116F1CBF012070474EF21002CEF25E
:1012B000000251604EF62351CEF20001F0230B7074
:1012C0000721906011607047FEE7000083B041F293
:1012D0004C00C4F20200016841F0040101600168A1
:1012E00001F0040102910299016841F020010160BE
:1012F000016801F0200101910199016841F00101AB
:101300000160006800F001000090009803B0704791
:1013100080B540F2100042F60001C2F20000C4F2B3
:10132000000100224FF0804E7F234FF0FF0C80E839
:101330000E10C0E90422C0E9062E0262FFF716FF74
:10134000002808BF80BDBDE88040FEF789BF0000CF
:10135000FEE70000FEE7000070470000B0B504465D
:101360000068C16821F08001C1608169890615D4D7
:10137000C16821F02001C160FFF762F8054600BF97
:101380002068C068800629D4FFF75AF8401BB0F5E2
:101390007A7FF5D9032084F82500B0BD816921F05A
:1013A00020018161C16821F02001C160FFF748F888
:1013B000054600BF2168C868800611D4FFF740F8D1
:1013C000401BB0F57A7FF5D9032084F82500216809
:1013D0008A6942F020028A61B0BD00BF0020B0BD22
:1013E00000208A6942F020028A61B0BD7047000087
:1013F000FFF72CB8B0B594B000240020CDE90B4421
:10140000CDE90944FFF7BCF8FFF758F941F2900025
:10141000C4F202000168032521F0180101600520D3
:1014200006904FF48030079001200890022055214B
:101430000D90CDE90E50CDE91010CDE9120006A8AF
:10144000FFF73CFC20B1EFF3108072B6FEE700BF5F
:101450000F20CDE9010501A80421CDE9034405943D
:10146000FFF7A2FA20B1EFF3108072B6FEE700BFDB
:1014700014B0B0BD4EF68850CEF20000016841F4C1
:101480007001016070470000FEE7000080B540F683
:101490000000C4F600004FF40051FEF7BDFF013814
:1014A000B0FA80F0400980BD80B586B0002041F2DE
:1014B0004C01CDE90400C4F202010A6842F00402C2
:1014C0000A60096801F00401009100994FF400518D
:1014D000CDE901100220039040F60000C4F60000A0
:1014E00001A9FEF7C3FE06B080BD000070B586B04E
:1014F000002541F24C000595C4F20200016840F657
:10150000000441F0040101600068C4F6000400F02A
:101510000400009000982046402100224026FEF75B
:1015200089FF0120CDE9020501A920460196049515
:10153000FEF79CFE06B070BD40F60000C4F6000049
:101540004021FEF76FBF0000FEF78EFFFFF752FF4E
:10155000FFF7BCFEFFF7DCFEFFF7A6FFFFF7C6FFB5
:10156000FEF76EFF00F1C805FEF76AFFFEF768FFA1
:101570000446FFF78BFFAC42F8D300284FF0C800B9
:1015800008BF4FF4FA702518FFF7D6FFEEE702E028
:1015900008C8121F08C1002AFAD1704770470020FE
:1015A00001E001C1121F002AFBD1704700000000BA
:1015B000000000000102030406070809E015000806
:1015C00000000020100000008E150008F015000833
:1015D00010000020300400009E15000800000000EC
:1015E00010000000010000000024F40000000000D2
:04000005080001D915
:00000001FF
