:020000040800F2
:1000000040040020ED01000879130008ED120008FB
:1000100075130008650200082D1400080000000098
:1000200000000000000000000000000011140008A3
:1000300069020008000000007D1300081514000884
:10004000070200080702000807020008070200086C
:10005000070200080702000807020008070200085C
:10006000070200080702000807020008070200084C
:10007000070200080702000807020008070200083C
:10008000070200080702000807020008070200082C
:10009000070200080702000807020008070200081C
:1000A000070200080702000807020008070200080C
:1000B00007020008070200080702000807020008FC
:1000C00007020008070200080702000807020008EC
:1000D00007020008070200080702000807020008DC
:1000E00007020008070200080702000807020008CC
:1000F00007020008070200080702000807020008BC
:1001000007020008070200080702000807020008AB
:10011000070200080702000807020008070200089B
:10012000070200080702000807020008070200088B
:10013000070200080702000807020008070200087B
:10014000070200080702000807020008070200086B
:10015000070200080702000807020008070200085B
:10016000070200080702000807020008070200084B
:10017000070200080702000807020008070200083B
:10018000070200080702000807020008070200082B
:10019000070200080000000007020008070200082C
:1001A000070200080702000807020008070200080B
:1001B00007020008070200080702000807020008FB
:1001C00007020008070200080702000807020008EB
:1001D0000702000807020008DFF80CD000F02AF838
:1001E00000480047E9140008400400200648804702
:1001F00006480047FEE7FEE7FEE7FEE7FEE7FEE70C
:10020000FEE7FEE7FEE7FEE719140008D901000843
:10021000D2B201E000F8012B491EFBD27047002248
:10022000F6E710B513460A4604461946FFF7F0FFF5
:10023000204610BD1CB509480090094801900546AC
:10024000009C06E0E06840F0010394E8070098474E
:100250001034AC42F6D3FFF7C3FF0000D4150008FA
:10026000F4150008FEE7000070470000EFF310806F
:1002700072B600BFFEE700002DE9F04F82B00D68B6
:10028000002D00F0C58000F13847860546EA972723
:1002900041F20046C4F60006062240F2004EB0428B
:1002A00008BF0522C4F2010E052F38BF3A464FF0B1
:1002B000000C012400270026009209E00D68013699
:1002C00035FA06F207F102070CF1040C00F0A080E9
:1002D00004FA06FB15EA0B08F0D0D1F804A00323BA
:1002E0000AF003056A1EBB40012A6FEA03090FD812
:1002F0008268CB6802EA0902BB401A438260426806
:10030000CAF3001322EA0B02B3401A43426003E02F
:10031000032D01D103251FE0C2688B6802EA0902A0
:10032000BB401A43022DC26016D16FF0030202EAED
:10033000560202440CF01C050F23D2F820A003FA49
:1003400005FB0B692AEA0B0AAB4043EA0A03136276
:10035000D1F804A00AF00305026805FA07F302EADF
:1003600009021A431AF4403F0260A7D041F2600329
:10037000C4F202031A684FF6084A42F001021A60FA
:100380001A68CFF6FF7A02F001020192019A26F074
:100390000302724452F80A900CF00C050F23009CE3
:1003A000AB4029EA030304FA05F52B4342F80A306F
:1003B000DEF808204B6842EA080540F20C49DC02EE
:1003C00058BF22EA0805CEF80850C4F20109D9F84E
:1003D00000209D0242EA080458BF22EA0804C9F836
:1003E0000040DEF804209D0342EA080458BF22EAD8
:1003F0000804CEF80440DEF80020DB0342EA0804DB
:1004000058BF22EA0804CEF80040012456E700BF96
:1004100002B0BDE8F08F00000069084018BF01205D
:1004200070470000426902EA0103914341EA034137
:10043000816170471823002A08BF2823C1507047E4
:1004400040F23800C2F200000068704740F200003D
:1004500040F23801C2F20000C2F2000140680A68AE
:10046000104408607047000080B5032000F078F861
:100470000F2000F009F800281CBF012080BD00F00B
:1004800029F8002080BD000070B540F20006C2F2DD
:1004900000067168E1B1044640F20800C2F20000B3
:1004A0004FF47A720068B2FBF1F1B0FBF1F000F0AA
:1004B00007FF0F2C4FF0010508D838B94FF0FF3077
:1004C00021460022002500F01FF83460284670BD48
:1004D000012070BD82B041F25800C4F20200816870
:1004E00041F001018160816801F0010101910199F0
:1004F000016841F080510160006800F08050009078
:10050000009802B000F0D0B810B54EF60C5CCEF2F8
:10051000000CDCF80030C3F3022E8EF00704042C2C
:1005200028BF0424BEF103034FF0FF3E0EFA04F48B
:1005300038BF0023A14399400EFA03F39A431143B5
:1005400000F00F0200F160430901043A03F564432F
:100550006244002848BF02F10C03197010BD00006E
:100560004EF60C51CEF200010A684FF6FF031A4016
:1005700060F30A2242F0806040F0FD70086070472E
:10058000B0F5007F42D0002840F0808047F2140090
:10059000C4F2000050F8141CC26E01F4C06122F4D1
:1005A0008072B1F5806FC2662ED150F8141C012202
:1005B00062F34A2140F8141C40F20801C2F2000123
:1005C0000968322251434DF68362C4F21B32A1FB0B
:1005D0000212910C0268520511D54A1C0FD0026814
:1005E00052050CD559B10268520508D5012906D02B
:1005F0000268520503D50229A1F10401EAD100687D
:10060000400544BF032070470020704747F21400A4
:10061000C4F2000050F8141CC26E01F4C06142F430
:100620008072B1F5806FC266EED150F8141C0122C1
:1006300062F34A2140F8141C40F20801C2F20001A2
:100640000968322251434DF68362C4F21B32A1FB8A
:100650000212910C0268520511D54A1C0FD0026893
:1006600052050CD559B10268520508D5012906D0AA
:100670000268520503D50229A1F10401EAD10068FC
:10068000400544BF03207047BEE700BF47F2140097
:10069000C4F2000050F8141C022262F34A2140F810
:1006A000141C00207047000047F20800C4F200004C
:1006B000016841F4804101607047000047F200008A
:1006C000C4F20000016841F48071016070470000CD
:1006D0002DE9F04182B00446807841F28806000797
:1006E000C4F2020602D400202FE000BF56F8300CFE
:1006F0005FEAC0080BD456F8300C40F0805046F842
:10070000300C56F8300C00F080500190019847F200
:100710000007C4F20007386840F480703860FFF7C3
:100720008FFE05463868C00500F10C81FFF788FE92
:10073000401B0228F6D90320B8F1000F05D456F863
:10074000301C21F0805146F8301C2168CA0717D1AF
:100750008A071DD44A0723D40A0729D4CA062FD4EE
:100760008A0635D44A063BD40A0641D4CA0547D482
:100770008A034DD48A0553D44A0559D467E000BF93
:100780003268636822F003021A4332608A07E1D5B7
:100790003268A36822F00C021A4332604A07DBD5A4
:1007A0003268E36822F030021A4332600A07D5D576
:1007B0003268236922F0C0021A433260CA06CFD5DC
:1007C0003268636922F440721A4332608A06C9D5DE
:1007D0003268A36922F440621A4332604A06C3D5E4
:1007E0003268E36922F440521A4332600A06BDD5EA
:1007F0003268236A22F440421A433260CA05B7D5F0
:100800003268636A22F440321A4332608A03B1D5F7
:100810007269A36A22F003021A4372618A05ABD59A
:100820003268E36A22F440221A4332604A050ED548
:100830003268236B22F440121A43B3F5801F3260F2
:1008400005D156F87C2C42F4801246F87C2C0A051F
:100850000ED53268636B22F440021A43B3F5800F61
:10086000326005D156F87C2C42F4801246F87C2C7C
:10087000CA040ED53268A36B22F040721A43B3F15A
:10088000807F326005D156F87C2C42F4801246F805
:100890007C2C8A040ED53268E36B22F040621A4346
:1008A000B3F1006F326005D156F87C2C42F480120F
:1008B00046F87C2C4A040ED53268236C22F0406244
:1008C0001A43B3F1006F326005D156F87C2C42F424
:1008D000801246F87C2C0A040ED53268636C22F034
:1008E00040521A43B3F1805F326005D156F87C2C38
:1008F00042F4803246F87C2CCA030ED53268A36CD1
:1009000022F040421A43B3F1804F326005D156F8CD
:100910007C2C42F4803246F87C2C49030ED5716958
:10092000E26C21F440111143B2F5001F716105D151
:1009300056F87C1C41F4801146F87C1C02B0BDE8DE
:10094000F08100BFB06810F4407010D0216D884273
:100950000BD0B068B16820F4407041F48031B160D0
:10096000B16821F48031B160B060C0070CD1B068CB
:10097000216D20F440700843B0600020B8F1000FF2
:100980003FF5E3AEDBE600BFFFF75AFD054641F257
:10099000883700BFB0688007E9D4FFF751FD401BDE
:1009A000B842F7D9C7E600002DE9F047002865D026
:1009B00042F2000AC4F2020A0446DAF800000D46C8
:1009C00000F00F0088420CD2DAF8000020F00F008F
:1009D0002843CAF80000DAF8000000F00F00A8422F
:1009E0004CD1216841F20808C807C4F2020803D1BB
:1009F000880740F1D480B9E0606802283AD0032823
:100A000040D158F8082C920138D5D8F80420D8F8ED
:100A1000043042F20046C3F3031302F00302D8F895
:100A200004700133C0F2F406032A04BF41F2002629
:100A3000C0F27A06B6FBF3F2D8F80430C7F3062703
:100A40007A43C3F34163022707EB4303B2FBF3F29C
:100A50004BF20043C0F2C4439A425DD9D8F800205B
:100A600012F0F00F4DD0890756D5A168002953D157
:100A700047E000BF58F8081C890307D40120BDE8EF
:100A8000F08700BF58F8081C4905F7D5D8F80010C2
:100A900001F00C0104293FD0D8F8001001F00C013E
:100AA000082939D0D8F8001001F00C010C2933D1F5
:100AB000D8F80410D8F8042042F20047C2F3031219
:100AC00001F00301D8F804300132C0F2F407032921
:100AD00004BF41F20027C0F27A07B7FBF2F1D8F861
:100AE0000420C3F306235943C2F34162022303EBFC
:100AF0004202B1FBF2F14BF20042C0F2C442914219
:100B00000AD9D8F80010082262F307114FF0010942
:100B1000C8F8001002E000BF4FF00009D8F800103C
:100B200021F003010843C8F80000FFF789FC0646DE
:100B300041F28837D8F80000616800F00C00B0EB93
:100B4000810F07D0FFF77CFC801BB842F2D903204D
:100B5000BDE8F0872168880708D4B9F1000F1ED0DE
:100B6000D8F8000020F0F00017E000BF480705D5D6
:100B7000D8F8000040F4E060C8F80000080706D587
:100B8000D8F80000072262F30D20C8F80000D8F85A
:100B90000000A26820F0F0001043C8F80000DAF866
:100BA000000000F00F00A8421BD9DAF8000020F086
:100BB0000F002843CAF80000FFF742FC064641F246
:100BC000883700BFDAF8000000F00F00A84207D015
:100BD000FFF736FC801BB842F4D90320BDE8F0874C
:100BE0002168480707D5D8F80000E26820F4E060E3
:100BF0001043C8F80000080708D5D8F8000021699C
:100C000020F4605040EAC100C8F80000D8F80000A5
:100C100042F20041C0F2F40100F00C000428084642
:100C20002DD0D8F8000000F00C00082841F2002078
:100C3000C0F27A0023D0D8F8002002F00C020C2A6F
:100C40001CD1D8F80420D8F8043002F00302C3F312
:100C50000313D8F804700133032A08BF0146B1FB1F
:100C6000F3F0D8F80410C7F30627C1F3416102225C
:100C7000784302EB4101B0FBF1F000E00020D8F82E
:100C8000001041F2C452C1F30311C0F60002515CDE
:100C900040F2080201F01F0120FA01F140F20000C9
:100CA000C2F200000068C2F200021160BDE8F04725
:100CB000FFF7EABB002804BF012070472DE9F0418F
:100CC00082B00446007841F20006C007C4F2020672
:100CD0001ED1207880073DD42078000764D4207886
:100CE000400700F187802078800600F1D980E06914
:100CF000002800F0C581B16801F00C010C2940F01A
:100D00003181012840F08481012002B0BDE8F081EA
:100D1000B06800F00C01F068082961D0032281F06E
:100D20000C0122EA00000844B0FA80F0400957D1D3
:100D30006068B0F5803F07D0B0F5A02F40F0E480A8
:100D4000306840F480203060306840F4803030609B
:100D5000E5E000BFB068F16800F00C00042871D035
:100D600001F0030180F00C0081F002010844B0FAA8
:100D700080F0400966D1E1683068002900F0E08029
:100D800040F480703060FFF75BFB0546306840053B
:100D900000F1FE80FFF754FB401B0228F6D9032028
:100DA00002B0BDE8F08100BF6169D6F89400002967
:100DB00000F0948040F00100C6F89400FFF740FB7B
:100DC000054600BFD6F8940080073FF588AFFFF7CF
:100DD00037FB401B0228F5D9032002B0BDE8F081A3
:100DE000306880037FF575AF606800287FF471AFCD
:100DF0003EE000BFB06D5FEAC00808D4B06D40F0BF
:100E00008050B065B06D00F080500190019847F2BD
:100E10000007C4F200073868C0052DD4386840F4D4
:100E200080703860FFF70CFB054600BF3868C005CE
:100E300022D4FFF705FB401B0228F7D9032002B09C
:100E4000BDE8F0813068400501D5E06880B1706888
:100E5000216920F0FE4040EA0160706040F200002D
:100E6000C2F200000068FFF70FFB00283FF434AF28
:100E7000012002B0BDE8F081A068012808D0052853
:100E800040F0A480D6F8900040F00400C6F890002E
:100E9000D6F8900040F00100C6F89000A4E000BF32
:100EA000A169D6F89800002900F07A8040F001008E
:100EB000C6F89800FFF7C4FA054600BFD6F89800B8
:100EC00080073FF514AFFFF7BBFA401B02284FF035
:100ED0000300F3D902B0BDE8F08100BF20F00100AB
:100EE000C6F89400FFF7ACFA054600BFD6F89400A8
:100EF00080077FF5F4AEFFF7A3FA401B0228F5D96F
:100F0000032002B0BDE8F0813168002821F480316F
:100F10003160316821F48021316000F0CF80FFF72B
:100F20008FFA0546306880033FF5D3AEFFF788FAA5
:100F3000401B6428F6D9032002B0BDE8F08100BF51
:100F400020F480703060FFF77BFA0546306840057A
:100F50007FF5C2AEFFF774FA401B02284FF0030082
:100F6000F4D9B7E73168022821F08071316040F090
:100F70008B80FFF765FA05463068800140F1CA8032
:100F8000FFF75EFA401B02284FF00300F4D9A1E7F7
:100F90007068216920F0FE4040EA016070609BE6C5
:100FA00020F00100C6F89800FFF74AFA054600BF96
:100FB000D6F8980080077FF59AAEFFF741FA401BFC
:100FC00002284FF00300F3D984E700BFD6F8901051
:100FD000002821F00101C6F89010D6F8901021F0F9
:100FE0000401C6F8901079D0FFF72AFA054641F2BD
:100FF000883700BFD6F89000800700F18180FFF7A6
:101000001FFA401BB842F5D9032002B0BDE8F081B9
:10101000F068216A00F003028A427FF429AF626A15
:101020006FF00F0300F0F00103EB021291427FF426
:101030001FAFA16A00F4FE42B2EB012F7FF418AF9C
:10104000E16A00F07842B2EBC16F7FF411AF226B1E
:101050000023CFF6E07303EA025200F4C001A2F5C8
:10106000001291427FF404AF616B4FF07E4202EABE
:10107000016100F0C06001F17E4188427FF4F8AE6A
:10108000002002B0BDE8F081F0684FF6FF7120F05B
:101090000300F060F068CFF6EE610840F060FFF703
:1010A000CFF9044630688001EAD5FFF7C9F9001B83
:1010B00002284FF00300F5D90CE700BFFFF7C0F995
:1010C000054600BF306880037FF503AEFFF7B8F92F
:1010D000401B64284FF00300F4D9FBE6FFF7B0F99A
:1010E000054641F2883700BFD6F89000800707D543
:1010F000FFF7A6F9401BB8424FF00300F4D9E9E628
:10110000B8F1000F3FF5EFADB06D20F08050B06545
:10111000E9E500BFF06848F20C01C0F29F1104F14C
:10112000200700EA010C8ECF6FF00F00D4E90C54B9
:1011300000EB02100022CFF6E07241EA0C0102EA55
:1011400005520843A2F500124FF07E4540EA032005
:1011500005EA0465104305F17E4540EAC76028436F
:10116000F060306840F080703060F06840F080706F
:10117000F060FFF765F90446306880013FF580AF05
:10118000FFF75EF9001B02284FF00300F4D9A1E637
:10119000002804BF01207047B0B5044690F8250030
:1011A00028B9002084F82400204600F057F80220D7
:1011B00084F825002168CA20486253204862C86824
:1011C000400615D4C86840F08000C860FFF738F9C1
:1011D0002168CA6852060BD4054600BFFFF730F9F4
:1011E000401BB0F57A7F31D82168C8684006F5D534
:1011F00088694FF6BF72CFF68F3210408861D4E90C
:10120000010CD4E903531843A3698A6918431043B6
:10121000886145EA0C400861204600F0B1F8216879
:1012200010B1FF224A62B0BD8869D4E9072320F0DB
:10123000604065691843104328438861FF20486275
:10124000012084F825000020B0BD00BF032084F8F1
:1012500025002168CA68FF224A62B0BD10B596B069
:10126000044601A804304C21FEF7D9FF206842F65D
:101270000001C4F20001884202D016B010BD00BFC8
:101280004FF4002001904FF48070159001A8FFF7F3
:101290001FFA002818BFFEF7E9FF41F25800C4F218
:1012A0000200816B41F400418163016841F4806177
:1012B0000160006800F480600090009816B010BDD6
:1012C000411E0020B0EB116F1CBF012070474EF291
:1012D0001002CEF2000251604EF62351CEF2000110
:1012E000F0230B700721906011607047FEE700004B
:1012F00083B041F24C00C4F20200016841F00401E5
:101300000160016801F0040102910299016841F055
:1013100020010160016801F020010191019901683B
:1013200041F001010160006800F0010000900098A8
:1013300003B0704780B540F2100042F60001C2F2DF
:101340000000C4F2000100224FF0804E7F234FF0D6
:10135000FF0C80E80E10C0E90422C0E9062E0262EC
:10136000FFF716FF002808BF80BDBDE88040FEF7EC
:101370007DBF0000FEE70000FEE7000070470000B0
:10138000B0B504460068C16821F08001C160816980
:10139000890615D4C16821F02001C160FFF750F81B
:1013A000054600BF2068C068800629D4FFF748F8CA
:1013B000401BB0F57A7FF5D9032084F82500B0BD35
:1013C000816921F020018161C16821F02001C160A3
:1013D000FFF736F8054600BF2168C868800611D4BB
:1013E000FFF72EF8401BB0F57A7FF5D9032084F87B
:1013F000250021688A6942F020028A61B0BD00BFE1
:101400000020B0BD00208A6942F020028A61B0BD90
:1014100070470000FFF71AB84EF68850CEF2000071
:10142000016841F47001016070470000FEE70000B0
:1014300080B540F60000C4F600004FF40051FEF7FE
:10144000EBFF0138B0FA80F0400980BD80B586B06E
:10145000002041F24C01CDE90400C4F202010A6807
:1014600042F004020A60096801F004010091009949
:101470004FF40051CDE901100220039040F6000026
:10148000C4F6000001A9FEF7F7FE06B080BD00001B
:10149000B0B586B0002441F24C000594C4F20200BD
:1014A0000168002241F00101016000684FF4807181
:1014B00000F00100009000984FF090404FF48075CC
:1014C000FEF7B8FF0120CDE9020401A94FF09040DA
:1014D00001950494FEF7D0FE06B0B0BD4FF09040E9
:1014E0004FF48071FEF79EBF94B0FEF7BDFF00245D
:1014F0000020CDE90B44CDE90944FFF741F8FFF79F
:10150000DDF841F29000C4F202000168032521F0E9
:1015100018010160052006904FF4803007900120EB
:101520000890022055210D90CDE90E50CDE9101004
:10153000CDE9120006A8FFF7BDFB28B1EFF310803C
:1015400072B600BFFEE700BF0F20CDE9010501A87C
:101550000421CDE903440594FFF726FA20B1EFF307
:10156000108072B6FEE700BFFFF7C2FEFFF7E2FE93
:10157000FFF76CFFFFF78CFFFEF762FF00F1C80575
:10158000FEF75EFFFEF75CFF0446FFF751FFAC423B
:10159000F8D300284FF0C80008BF4FF4FA702518A0
:1015A000FFF79CFFEEE702E008C8121F08C1002AFF
:1015B000FAD170477047002001E001C1121F002AD4
:1015C000FBD170470000000000000000010203048E
:1015D00006070809F81500080000002010000000A8
:1015E000A6150008081600081000002030040000AE
:1015F000B615000800000000100000000100000007
:081600000024F40000000000CA
:04000005080001D915
:00000001FF
