:020000040800F2
:10000000A81F0020ED0100088927000839260008F4
:1000100085270008E90200083547000800000000B5
:10002000000000000000000000000000212800087F
:1000300079030008000000008D270008252800082B
:10004000070200080702000807020008070200086C
:10005000070200080702000807020008070200085C
:10006000070200080702000807020008070200084C
:10007000070200080702000807020008070200083C
:10008000070200080702000807020008D14500081F
:10009000DD45000807020008070200080702000803
:1000A000070200080702000807020008070200080C
:1000B00007020008070200080702000807020008FC
:1000C00007020008070200080702000807020008EC
:1000D00007020008070200080702000807020008DC
:1000E00007020008070200080702000807020008CC
:1000F00007020008070200080702000807020008BC
:1001000007020008070200080702000807020008AB
:10011000070200080702000807020008070200089B
:10012000070200080702000807020008070200088B
:10013000070200080702000807020008070200087B
:10014000070200080702000807020008070200086B
:10015000070200080702000807020008070200085B
:10016000070200080702000807020008070200084B
:10017000070200080702000807020008070200083B
:10018000070200080702000807020008070200082B
:10019000070200080000000007020008070200082C
:1001A000070200080702000807020008070200080B
:1001B00007020008070200080702000807020008FB
:1001C00007020008070200080702000807020008EB
:1001D0000702000807020008DFF80CD000F040F822
:1001E0000048004705480008A81F0020064880472F
:1001F00006480047FEE7FEE7FEE7FEE7FEE7FEE70C
:10020000FEE7FEE7FEE7FEE7A9280008D90100089F
:10021000D2B201E000F8012B491EFBD27047002248
:10022000F6E710B513460A4604461946FFF7F0FFF5
:10023000204610BD30B50B46014600202022012487
:1002400009E021FA02F59D4205D303FA02F5491BA4
:1002500004FA02F52844151EA2F10102F1DC30BDBA
:100260001CB509480090094801900546009C06E02D
:10027000E06840F0010394E8070098471034AC426E
:10028000F6D3FFF7ADFF00009C4C0008BC4C000803
:1002900070B58C1810F8015B15F0070301D110F848
:1002A000013B2A1106D110F8012B03E010F8016B75
:1002B00001F8016B5B1EF9D12B0705D40023521EF8
:1002C0000DD401F8013BFAE710F8013BCB1A921C60
:1002D00003E013F8015B01F8015B521EF9D5A1425E
:1002E000D8D3002070BD0000FEE70000002070475A
:1002F0000020704710B541F2B454C2F2000440F639
:10030000B451C2F200012046002202F00FFD40F27B
:10031000B451C2F20001204602F0FEFC002010BDE4
:1003200010B541F2B454C2F200040146204602F076
:10033000F3FC204602F01AFC002010BD002070479C
:1003400041F2B452C2F20002D2F8BC22D2F8143206
:10035000002B1CBF0120704710B541F2B454C2F20B
:1003600000040A460146204602F0E0FC2046BDE8B3
:10037000104002F059BD000070470000EFF31080FC
:1003800072B600BFFEE700002DE9F04F82B00D68A5
:10039000002D00F0C58000F13847860546EA972712
:1003A00041F20046C4F60006062240F2004EB0427A
:1003B00008BF0522C4F2010E052F38BF3A464FF0A0
:1003C000000C012400270026009209E00D68013688
:1003D00035FA06F207F102070CF1040C00F0A080D8
:1003E00004FA06FB15EA0B08F0D0D1F804A00323A9
:1003F0000AF003056A1EBB40012A6FEA03090FD801
:100400008268CB6802EA0902BB401A4382604268F4
:10041000CAF3001322EA0B02B3401A43426003E01E
:10042000032D01D103251FE0C2688B6802EA09028F
:10043000BB401A43022DC26016D16FF0030202EADC
:10044000560202440CF01C050F23D2F820A003FA38
:1004500005FB0B692AEA0B0AAB4043EA0A03136265
:10046000D1F804A00AF00305026805FA07F302EACE
:1004700009021A431AF4403F0260A7D041F2600318
:10048000C4F202031A684FF6084A42F001021A60E9
:100490001A68CFF6FF7A02F001020192019A26F063
:1004A0000302724452F80A900CF00C050F23009CD2
:1004B000AB4029EA030304FA05F52B4342F80A305E
:1004C000DEF808204B6842EA080540F20C49DC02DD
:1004D00058BF22EA0805CEF80850C4F20109D9F83D
:1004E00000209D0242EA080458BF22EA0804C9F825
:1004F0000040DEF804209D0342EA080458BF22EAC7
:100500000804CEF80440DEF80020DB0342EA0804C9
:1005100058BF22EA0804CEF80040012456E700BF85
:1005200002B0BDE8F08F00000069084018BF01204C
:1005300070470000426902EA0103914341EA034126
:10054000816170471823002A08BF2823C1507047D3
:1005500041F6A430C2F200000068704740F200008B
:1005600041F6A431C2F20000C2F2000140680A68FC
:10057000104408607047000080B5032000F08AF83E
:100580000F2000F009F800281CBF012080BD00F0FA
:1005900029F8002080BD000070B540F20006C2F2CC
:1005A00000067168E1B1044640F22800C2F2000082
:1005B0004FF47A720068B2FBF1F1B0FBF1F002F097
:1005C00025F80F2C4FF0010508D838B94FF0FF304F
:1005D00021460022002500F031F83460284670BD25
:1005E000012070BD82B041F25800C4F2020081685F
:1005F00041F001018160816801F0010101910199DF
:10060000016841F080510160006800F08050009066
:10061000009802B001F01AB8002848BF704700F0F7
:100620001F01012202FA01F11C2202EAD0004EF25F
:100630000012CEF2000281507047000010B54EF655
:100640000C5CCEF2000CDCF80030C3F3022E8EF00E
:100650000704042C28BF0424BEF103034FF0FF3E1F
:100660000EFA04F438BF0023A14399400EFA03F3B5
:100670009A43114300F00F0200F160430901043A6C
:1006800003F564436244002848BF02F10C0319706B
:1006900010BD00004EF60C51CEF200010A684FF674
:1006A000FF031A4060F30A2242F0806040F0FD70C0
:1006B0000860704701220168C0F8E822002280F833
:1006C000E022B1F8540040F00100A1F85400B1F864
:1006D000540040F002020020A1F8542070470000AE
:1006E00010B50129044613D011BBA06948B102F02E
:1006F0009BF84EF61050CEF20000016821F0060182
:100700000160D4F8F002BDE8104002F0F3BD00BF74
:10071000D4F8F00202F076FEA069002808BF10BDF0
:100720004EF61050CEF20000016841F00601016063
:1007300010BD000080B501F0070C0CEB8C0C00EB39
:10074000CC0C01EB810E0CF1280C00EBCE0009065D
:1007500058BF00F5B47C0020002A19BFCCF808303F
:100760000121ACF8063000218CF80C1080BD00008F
:1007700001EB8102D0F8F03200EBC200C26B1846E8
:1007800002F076BC01EB8102D0F8F03200EBC2003F
:10079000D0F87C21184602F0BFBC000010B504461A
:1007A00048B2B0F1FF3F01F0070000EB800104EB1D
:1007B000C10205DD02F5B471002382F8693104E05D
:1007C000012302F1280182F8293094F8A822087048
:1007D000012A04BF022010BD2068012284F8A8224B
:1007E00003F004FA002084F8A80210BDB0B5044656
:1007F000406801F00F02824284BF0120B0BD48B2C0
:10080000B0F1FF3F01F0070000EB800104EBC102F3
:1008100006DD02F5B471002382F8693105E000BFFE
:10082000012302F1280182F8293094F8A82200253A
:10083000012A8D70087004BF0220B0BD206801221B
:1008400084F8A82203F066FA284684F8A852B0BDBE
:1008500001F0070101EB810100EBC100D0F8840138
:100860007047000070B5064648B2B0F1FF3F01F096
:10087000070000EB800107DD06EBC10404F5B4714D
:10088000002584F8695106E006EBC10C01240CF147
:1008900028018CF829404D780870002D0A61CB7032
:1008A00018BFC881022B04BF0020087196F8A80267
:1008B000012804BF022070BD3068012286F8A822FA
:1008C00003F060F8002086F8A80270BD10B501F0B2
:1008D000070C0CEB8C0100EBC10E00680EF5B47137
:1008E0000024CEF87C21CEF88031CEF884418EF8F9
:1008F00069418EF868C103F067FA002010BD00005E
:1009000010B54268044601F00700904284BF012000
:1009100010BD4AB2B2F1FF3F0ADD01EB810104EBE9
:10092000C10202F5B471002382F8693109E000BF09
:1009300000EB800104EBC102012302F1280182F8DF
:10094000293094F8A8320122012B8A70087004BF64
:10095000022010BD206884F8A82203F01BFA0020B2
:1009600084F8A80210BD000080B501F0070C0CEB64
:100970008C0100EBC10101F828CF00684FF0010C99
:1009800001F1140781F824C04FF0000E87E80C40F5
:100990000B6281F801C003F017FA002080BD00004F
:1009A0002DE9F04F81B00446006803F01DFE0104FC
:1009B00022D4410500F1F683410400F1058481044D
:1009C00000F11C84C10400F12384010500F1468478
:1009D000010600F15D84810500F16A84C00540F1E3
:1009E000EF832068B0F8441021F48071A0F844101F
:1009F00001B0BDE8F08F00BF2068B0F94410B1F13C
:100A0000FF3F00F3DD8304F52C7140F60F7B00916E
:100A100023E000BFB0F8501094F86821014401EBC6
:100A2000C201B1F80634B4F86E2100996FF39F2328
:100A3000C4F8843103F0DCFD2068018801EA0B0171
:100A400080310180204600F03BFD00BF2068B0F9F6
:100A50004410B1F1FF3F00F3B383B0F8442012F02B
:100A60000F090DD030F929104FEA490AB1F1FF3FC3
:100A70001FFA81F832DD5FEA0860E7D55AE100BF6E
:100A80000188D2066CD401EA0B0101F50041018016
:100A9000B0F8501094F82820084400EBC200B0F8D9
:100AA0000204E16B6FF39F2060640844E06320461A
:100AB0000021FFF75DFE94F824000028C6D0206CCA
:100AC0000028C3D194F82400216840F08000C0B20F
:100AD000A1F84C00002084F82400B7E730F81A1081
:100AE00040F60F7C01EA0B01803120F81A1009EB67
:100AF000890104EBC10B9BF874110BF5B476002946
:100B000078D09BF86B11022940F08680B0F85070C5
:100B10003178DBF8803107440BF5C0725FEA484555
:100B200007EBC10700F19280B7F8067400256FF358
:100B30009F27DB1B38BF2B46136040F29D805FEA86
:100B4000486200F1A98030F8212048F2C00302EA8F
:100B50000C021A4320F82120002F40F09E80C3E0B1
:100B60000A053FF557AF09B2B1F1FF3F3FF76EAF4E
:100B7000018801EA0B0180310180B0F8501094F82F
:100B80006821014401EBC201B1F806346FF39F23E1
:100B9000C4F8843193B1D4F87C1179B1B4F86E21E2
:100BA00003F026FDD4F87C01D4F884110844C4F87D
:100BB0007C0120460021FFF7E5FD2068018809053A
:100BC0003FF544AFB0F85010D4F8783100F2064247
:100BD0003F2BC0F00D825F09DE064FF0FF3608BFE5
:100BE00006EB531748F20003CFF6FF7343EA87235F
:100BF0007AE200BFB0F850103278014401EBC20134
:100C0000B1F806746FF39F27002F6DD0DBF87C11CD
:100C1000BBF86E2163E000BF327848F2C00330F8C1
:100C2000221001EA0C01194320F8221030F822307A
:100C3000B0F8501000EBC2025B04114416D4B1F8B6
:100C400006746FF39F2747BB4EE000BFB7F80274EE
:100C500000256FF39F27DB1B38BF2B46136021D97C
:100C60005FEA48622DD4B7BB3EE000BFB1F8027422
:100C70006FF39F277FBB37E030F8212043F60F73D7
:100C80001A404CF28003A3F500535A4020F821206B
:100C90005FEA48627FF557AF37B3DBF87C11BBF8EA
:100CA00072211CE030F8212043F60F731A404CF2F9
:100CB0008003A3F500535A4020F821205FEA4862E0
:100CC000D1D530F8212048F2C00302EA0C021A43C1
:100CD00020F8212047B1DBF87C11BBF870213B469E
:100CE00003F086FC01E000BF0027DBF88411DBE99C
:100CF0005F0239443844CBF88411CBF87C011AB137
:100D0000DBF87801B8420BD931782046FFF73AFD7D
:100D100040F60F7B5FEA08607FF598AE0AE000BFFF
:100D20002068314603F050F840F60F7B5FEA086018
:100D30007FF58CAE206809EB890130F81A2004EBAE
:100D4000C10502EA0B0101F5004120F81A1095F8DF
:100D50002B1005F12809022920D15FEAC85143D49C
:100D6000B0F8502099F80010024402EBC102B2F82A
:100D700002242B6C6FF39F229B1A4FF0000738BFA1
:100D80003B462B6440F23081E96B6B6C1144E963A4
:100D900099186964494603F017F857E695F8341036
:100DA00000294FF00001296400F01C815FEA4861CE
:100DB00068D495F82910012900F0FE80002940F040
:100DC0001181B0F8501099F80020084400EBC200DF
:100DD000B0F8061421F4F841A0F80614B0F806148F
:100DE00041F40041F0E000BFB0F8507099F80010F5
:100DF0002A4652F8406F5FEA486300EBC10C5BD4AF
:100E00000CF2064E3EF8077000236FF39F27F61B87
:100E100038BF1E46166040F287805FEA484208D419
:100E200030F821204CF2800302EA0B021A4320F82A
:100E300021202A4612F84C1F012940F0A2812B469E
:100E400053F8488F53E904C153F8046C39443E44C5
:100E5000E04543F80C1C43F8046C80F0FF80B8F1C7
:100E6000000F00F053810027C4461F60177095F8EB
:100E70002920012A40F0FA80B0F850202EF802C054
:100E80006CE100BF95F82910012900F0A18000292C
:100E900040F0A880B0F8501099F80020084400EB0A
:100EA000C200B0F8021421F4F841A0F80214B0F81E
:100EB000021441F4004193E00CF2024E3EF8077038
:100EC00000236FF39F27F61B38BF1E4616604FD9CD
:100ED0005FEA484208D530F821204CF2800302EA4C
:100EE0000B021A4320F821202B4613F84C1F01292E
:100EF00040F047812A4652F848CF52E9046152F83F
:100F0000048C3944B844B44542F80C1C42F8048CB3
:100F100080F0C2804FF00008BCF1000F83F8008021
:100F200040F0BD80BC46BCE095F82920012A67D07E
:100F3000002A6ED1B0F850206244B2F8023423F493
:100F4000F843A2F80234B2F8023443F40043A2F8A2
:100F50000234B0F850003EF8002022F4F8422EF897
:100F600000203EF8002042F400422EF8002050E01D
:100F700095F82920012A53D0002A5AD1B0F85020E0
:100F80003EF8027027F4F8472EF802703EF802701F
:100F900047F400472EF80270B0F850006044B0F8F3
:100FA000062422F4F842A0F80624B0F8062442F4FD
:100FB0000042A0F806243CE0B0F8501099F8002058
:100FC000084400EBC2000021A0F806140AE000BFAC
:100FD000B0F8501099F80020084400EBC20000213E
:100FE000A0F8021499F800102046FFF7C1FB2DE588
:100FF000002B6FD003F0010707EB53039B0273E054
:10100000B0F850206244A2F80234B0F850002EF834
:1010100000302046FFF7ACFB5FEA484010D5B0E057
:10102000B0F850202EF80230B0F850006044A0F81C
:1010300006342046FFF79CFB5FEA484040F1A18060
:10104000206899F800104CF2800330F8212002EA61
:101050000B021A4320F8212093E000BFA8EB0C02FA
:101060001A6095F82920012A3FF406AF002A75D1AD
:10107000B0F85070BCF13F0F50D35FEACC634FEA39
:101080005C124FF0FF3308BF03EB5C124FF40043D8
:1010900043EA822260E000BFACEB0608B446C2F827
:1010A000008095F82920012A2AD0002A64D1B0F8BE
:1010B0005070BCF13F0F3BD35FEACC634FEA5C1248
:1010C0004FF0FF3308BF03EB5C124FF4004343EAD9
:1010D00082224FE08B5A48F2000723F4F8438B52E8
:1010E0008B5ACFF6FF773B438B52018843F60F7242
:1010F00011404CF28002A2F5805251400180A5E4DB
:10110000B0F850202EF802C036E000BF0023137064
:10111000BC4695F82920012AA8D1ADE6BCF1000F04
:1011200010D00CF0010202EB5C02920214E000BF4E
:10113000BCF1000F14D00CF0010202EB5C02920231
:1011400018E000BF3EF8072022F4F8422EF80720EE
:101150003EF8072042F400422EF807206A8E0CE089
:101160003EF8072022F4F8422EF807203EF8072028
:1011700042F400422EF807202A8E1FFA8CF303F067
:101180008DFA206899F8001040F63F7330F821205E
:101190001A4048F2C003103B5A4020F82120FFF7C4
:1011A00055BC00BF2068B0F8441021F48061A0F85D
:1011B0004410204600F046F994F8A80201280DD109
:1011C00001B0BDE8F08F00BF2068B0F8441021F4F2
:1011D0008041A0F8441001B0BDE8F08F0120002547
:1011E00084F8A80284F824502068002103F04EFA05
:1011F00084F8A85201B0BDE8F08F00BF2068B0F8B5
:10120000441021F40051A0F8441001B0BDE8F08F63
:101210002068B0F8401021F00401A0F84010B0F8A8
:10122000401021F00801A0F8401094F8E0020128D5
:1012300006D1002084F8E00220460021FFF750FA92
:10124000204600F011F92068B0F8441021F48051D4
:10125000A0F8441001B0BDE8F08F00BF2168B1F8DC
:10126000400040F00800A1F84000B1F8440020F42C
:101270000060A1F84400B1F8400040F004022046AC
:10128000A1F8402001B0BDE8F04F00F037B900BF31
:101290002068B0F8441021F08001A0F8441094F8C0
:1012A000E01299B1204601B0BDE8F04F00F026B938
:1012B0002168B1F8440020F400722046A1F84420CF
:1012C00001B0BDE8F04F00F0E3B800BFB0F8401047
:1012D00041F00401A0F84010B0F8401041F00801BE
:1012E000A0F84010012184F8E012B0F854003C212D
:1012F00001EA900220460121C4F8E42201B0BDE8D1
:10130000F04FFFF7EDB90000002804BF012070473F
:10131000F0B585B0054690F8A90228B9002085F8F7
:10132000A802284600F052F8032085F8A902286890
:1013300002F0E6FC696869B300204FF0010C00225E
:10134000002300BF02EB820205EBC20484F82830C0
:10135000DAB20133E286DAB2914284F829C084F825
:101360002B00C4E90E002064ECD8002000230022EA
:1013700003EB830305EBC30484F868210132D3B285
:10138000994284F8690184F86B01C4E95E00C4F8ED
:101390008001EDD805F1080E28689EE81C50D5E9BB
:1013A00007678DE81050CDE9036702F09BFC002031
:1013B000012185F8240085F8A912E969012903D1E2
:1013C0002846FFF777F9002005B0F0BD10B596B0BC
:1013D000044601A804305021FEF721FF206845F69D
:1013E0000041C4F20001884202D016B010BD00BF17
:1013F0004FF40050019001A800F03CF9002818BFFC
:10140000FEF7BCFF41F25800C4F20200016800225E
:1014100041F4000101600068002100F40000009028
:1014200000981320FFF70AF91320FFF7F5F81420AE
:1014300000210022FFF702F91420FFF7EDF816B0A3
:1014400010BD000010B504468068022818BFFEF7E2
:1014500095FFD4F8F002012101F068FFD4F8F00202
:10146000BDE8104001F012BF10B50446806948B1D4
:101470004EF61050CEF20000016821F00601016026
:1014800001F0D2F9D4F8F002BDE8104001F032BF0B
:10149000D0F8F00201F038BF10B5044690F8A80269
:1014A000012804BF022010BD012084F8A80284F89E
:1014B0002410206803F0EAF8002084F8A80210BD88
:1014C000D0F8F02200F52C71104601F045BF000065
:1014D00010B5044690F8A802012804BF022010BDF0
:1014E0002068012184F8A81203F068F8206802F04F
:1014F000EFFB002084F8A80210BD000010B50446E0
:10150000D0F8F00201F07EFFA069002808BF10BDEE
:101510004EF61050CEF20000016841F00601016065
:1015200010BD0000B0F5007F42D0002840F0808060
:1015300047F21400C4F2000050F8141CC26E01F40B
:10154000C06122F48072B1F5806FC2662ED150F86E
:10155000141C012262F34A2140F8141C40F22801B5
:10156000C2F200010968322251434DF68362C4F28F
:101570001B32A1FB0212910C0268520511D54A1CC4
:101580000FD0026852050CD559B10268520508D532
:10159000012906D00268520503D50229A1F10401F0
:1015A000EAD10068400544BF03207047002070471F
:1015B00047F21400C4F2000050F8141CC26E01F48B
:1015C000C06142F48072B1F5806FC266EED150F80E
:1015D000141C012262F34A2140F8141C40F2280135
:1015E000C2F200010968322251434DF68362C4F20F
:1015F0001B32A1FB0212910C0268520511D54A1C44
:101600000FD0026852050CD559B10268520508D5B1
:10161000012906D00268520503D50229A1F104016F
:10162000EAD10068400544BF03207047BEE700BF11
:1016300047F21400C4F2000050F8141C022262F3B6
:101640004A2140F8141C00207047000047F20800AF
:10165000C4F20000016841F480410160704700005D
:1016600047F20000C4F20000016841F4807101609B
:10167000704700002DE9F04182B00446807841F2C5
:1016800088060007C4F2020602D400202FE000BF43
:1016900056F8300C5FEAC0080BD456F8300C40F016
:1016A000805046F8300C56F8300C00F08050019015
:1016B000019847F20007C4F20007386840F48070D0
:1016C0003860FEF745FF05463868C00500F10C811B
:1016D000FEF73EFF401B0228F6D90320B8F1000FA9
:1016E00005D456F8301C21F0805146F8301C216892
:1016F000CA0717D18A071DD44A0723D40A0729D459
:10170000CA062FD48A0635D44A063BD40A0641D4E9
:10171000CA0547D48A034DD48A0553D44A0559D4FF
:1017200067E000BF3268636822F003021A43326048
:101730008A07E1D53268A36822F00C021A433260AE
:101740004A07DBD53268E36822F030021A43326080
:101750000A07D5D53268236922F0C0021A433260E5
:10176000CA06CFD53268636922F440721A433260E8
:101770008A06C9D53268A36922F440621A433260EE
:101780004A06C3D53268E36922F440521A433260F4
:101790000A06BDD53268236A22F440421A433260F9
:1017A000CA05B7D53268636A22F440321A43326000
:1017B0008A03B1D57269A36A22F003021A437261E7
:1017C0008A05ABD53268E36A22F440221A433260BC
:1017D0004A050ED53268236B22F440121A43B3F542
:1017E000801F326005D156F87C2C42F4801246F8F6
:1017F0007C2C0A050ED53268636B22F440021A4332
:10180000B3F5800F326005D156F87C2C42F480127B
:1018100046F87C2CCA040ED53268A36B22F04072C5
:101820001A43B3F1807F326005D156F87C2C42F424
:10183000801246F87C2C8A040ED53268E36B22F0C5
:1018400040621A43B3F1006F326005D156F87C2C28
:1018500042F4801246F87C2C4A040ED53268236C80
:1018600022F040621A43B3F1006F326005D156F89E
:101870007C2C42F4801246F87C2C0A040ED5326887
:10188000636C22F040521A43B3F1805F326005D19D
:1018900056F87C2C42F4803246F87C2CCA030ED5D4
:1018A0003268A36C22F040421A43B3F1804F326099
:1018B00005D156F87C2C42F4803246F87C2C490342
:1018C0000ED57169E26C21F440111143B2F5001F8D
:1018D000716105D156F87C1C41F4801146F87C1CDE
:1018E00002B0BDE8F08100BFB06810F4407010D0C5
:1018F000216D88420BD0B068B16820F4407041F48B
:101900008031B160B16821F48031B160B060C0074E
:101910000CD1B068216D20F440700843B060002005
:10192000B8F1000F3FF5E3AEDBE600BFFEF710FEB7
:10193000054641F2883700BFB0688007E9D4FEF75A
:1019400007FE401BB842F7D9C7E600002DE9F04773
:10195000002865D042F2000AC4F2020A0446DAF80E
:1019600000000D4600F00F0088420CD2DAF80000AB
:1019700020F00F002843CAF80000DAF8000000F059
:101980000F00A8424CD1216841F20808C807C4F2F0
:10199000020803D1880740F1D480B9E060680228CA
:1019A0003AD0032840D158F8082C920138D5D8F8FD
:1019B0000420D8F8043042F20046C3F3031302F0C7
:1019C0000302D8F804700133C0F2F406032A04BFFE
:1019D00041F20026C0F27A06B6FBF3F2D8F80430E2
:1019E000C7F306277A43C3F34163022707EB430398
:1019F000B2FBF3F24BF20043C0F2C4439A425DD90A
:101A0000D8F8002012F0F00F4DD0890756D5A16804
:101A1000002953D147E000BF58F8081C890307D4B8
:101A20000120BDE8F08700BF58F8081C4905F7D52C
:101A3000D8F8001001F00C0104293FD0D8F80010AC
:101A400001F00C01082939D0D8F8001001F00C0180
:101A50000C2933D1D8F80410D8F8042042F20047FA
:101A6000C2F3031201F00301D8F804300132C0F2CE
:101A7000F407032904BF41F20027C0F27A07B7FB3D
:101A8000F2F1D8F80420C3F306235943C2F34162AC
:101A9000022303EB4202B1FBF2F14BF20042C0F22F
:101AA000C44291420AD9D8F80010082262F3071103
:101AB0004FF00109C8F8001002E000BF4FF0000924
:101AC000D8F8001021F003010843C8F80000FEF721
:101AD0003FFD064641F28837D8F80000616800F003
:101AE0000C00B0EB810F07D0FEF732FD801BB8422F
:101AF000F2D90320BDE8F0872168880708D4B9F13E
:101B0000000F1ED0D8F8000020F0F00017E000BF52
:101B1000480705D5D8F8000040F4E060C8F8000098
:101B2000080706D5D8F80000072262F30D20C8F890
:101B30000000D8F80000A26820F0F0001043C8F8B8
:101B40000000DAF8000000F00F00A8421BD9DAF814
:101B5000000020F00F002843CAF80000FEF7F8FC50
:101B6000064641F2883700BFDAF8000000F00F00A7
:101B7000A84207D0FEF7ECFC801BB842F4D9032042
:101B8000BDE8F0872168480707D5D8F80000E2686B
:101B900020F4E0601043C8F80000080708D5D8F822
:101BA0000000216920F4605040EAC100C8F800003C
:101BB000D8F8000042F20041C0F2F40100F00C003D
:101BC000042808462DD0D8F8000000F00C000828A2
:101BD00041F20020C0F27A0023D0D8F8002002F0B1
:101BE0000C020C2A1CD1D8F80420D8F8043002F0DA
:101BF0000302C3F30313D8F804700133032A08BFA8
:101C00000146B1FBF3F0D8F80410C7F30627C1F37F
:101C100041610222784302EB4101B0FBF1F000E0A8
:101C20000020D8F8001044F68C42C1F30311C0F62E
:101C30000002515C40F2280201F01F0120FA01F17C
:101C400040F20000C2F200000068C2F2000211601F
:101C5000BDE8F047FEF7A0BC002804BF0120704794
:101C60002DE9F04182B00446007841F20006C00739
:101C7000C4F202061ED1207880073DD420780007E8
:101C800064D42078400700F187802078800600F136
:101C9000D980E069002800F0C581B16801F00C012D
:101CA0000C2940F03181012840F08481012002B0EC
:101CB000BDE8F081B06800F00C01F068082961D03F
:101CC000032281F00C0122EA00000844B0FA80F0FF
:101CD000400957D16068B0F5803F07D0B0F5A02F1C
:101CE00040F0E480306840F480203060306840F498
:101CF00080303060E5E000BFB068F16800F00C00B3
:101D0000042871D001F0030180F00C0081F0020181
:101D10000844B0FA80F0400966D1E16830680029D3
:101D200000F0E08040F480703060FEF711FC054662
:101D30003068400500F1FE80FEF70AFC401B0228D7
:101D4000F6D9032002B0BDE8F08100BF6169D6F882
:101D50009400002900F0948040F00100C6F894003F
:101D6000FEF7F6FB054600BFD6F8940080073FF566
:101D700088AFFEF7EDFB401B0228F5D9032002B027
:101D8000BDE8F081306880037FF575AF606800289A
:101D90007FF471AF3EE000BFB06D5FEAC00808D4C9
:101DA000B06D40F08050B065B06D00F08050019093
:101DB000019847F20007C4F200073868C0052DD427
:101DC000386840F480703860FEF7C2FB054600BFFB
:101DD0003868C00522D4FEF7BBFB401B0228F7D9A8
:101DE000032002B0BDE8F0813068400501D5E0680D
:101DF00080B17068216920F0FE4040EA01607060A7
:101E000040F20000C2F200000068FEF7C5FB0028A7
:101E10003FF434AF012002B0BDE8F081A068012892
:101E200008D0052840F0A480D6F8900040F00400C7
:101E3000C6F89000D6F8900040F00100C6F8900077
:101E4000A4E000BFA169D6F89800002900F07A80CC
:101E500040F00100C6F89800FEF77AFB054600BF87
:101E6000D6F8980080073FF514AFFEF771FB401BD2
:101E700002284FF00300F3D902B0BDE8F08100BFA3
:101E800020F00100C6F89400FEF762FB054600BF93
:101E9000D6F8940080077FF5F4AEFEF759FB401B9F
:101EA0000228F5D9032002B0BDE8F081316800288E
:101EB00021F480313160316821F48021316000F0FB
:101EC000CF80FEF745FB0546306880033FF5D3AE73
:101ED000FEF73EFB401B6428F6D9032002B0BDE8A4
:101EE000F08100BF20F480703060FEF731FB0546C2
:101EF000306840057FF5C2AEFEF72AFB401B022882
:101F00004FF00300F4D9B7E73168022821F080715F
:101F1000316040F08B80FEF71BFB05463068800186
:101F200040F1CA80FEF714FB401B02284FF003006B
:101F3000F4D9A1E77068216920F0FE4040EA016011
:101F400070609BE620F00100C6F89800FEF700FBE9
:101F5000054600BFD6F8980080077FF59AAEFEF7D9
:101F6000F7FA401B02284FF00300F3D984E700BFC3
:101F7000D6F89010002821F00101C6F89010D6F88C
:101F8000901021F00401C6F8901079D0FEF7E0FA25
:101F9000054641F2883700BFD6F89000800700F16F
:101FA0008180FEF7D5FA401BB842F5D9032002B074
:101FB000BDE8F081F068216A00F003028A427FF4F4
:101FC00029AF626A6FF00F0300F0F00103EB021219
:101FD00091427FF41FAFA16A00F4FE42B2EB012FE1
:101FE0007FF418AFE16A00F07842B2EBC16F7FF482
:101FF00011AF226B0023CFF6E07303EA025200F424
:10200000C001A2F5001291427FF404AF616B4FF062
:102010007E4202EA016100F0C06001F17E41884227
:102020007FF4F8AE002002B0BDE8F081F0684FF612
:10203000FF7120F00300F060F068CFF6EE61084019
:10204000F060FEF785FA044630688001EAD5FEF7B5
:102050007FFA001B02284FF00300F5D90CE700BF00
:10206000FEF776FA054600BF306880037FF503AEC1
:10207000FEF76EFA401B64284FF00300F4D9FBE62C
:10208000FEF766FA054641F2883700BFD6F89000A1
:10209000800707D5FEF75CFA401BB8424FF00300FB
:1020A000F4D9E9E6B8F1000F3FF5EFADB06D20F0DF
:1020B0008050B065E9E500BFF06848F20C01C0F25D
:1020C0009F1104F1200700EA010C8ECF6FF00F0082
:1020D000D4E90C5400EB02100022CFF6E07241EA82
:1020E0000C0102EA05520843A2F500124FF07E45AA
:1020F00040EA032005EA0465104305F17E4540EA05
:10210000C7602843F060306840F080703060F0684D
:1021100040F08070F060FEF71BFA044630688001E2
:102120003FF580AFFEF714FA001B02284FF00300C2
:10213000F4D9A1E610B5006840684FEA1043C0F337
:10214000042E00F03F0CC0F34234CB7081F801E064
:1021500081F802C00C700AB1002010BDDCB2240965
:1021600004EB840403F00F0303EB4403020ACB7077
:102170004FEA1E1343EA830302F00F0202EB43020D
:102180004A704FEA1C1242EA820200F00F0000EB94
:1021900042008870002010BD10B5006883684B6055
:1021A00003696FF3DF338B600068C0F30543C0F34E
:1021B000062E00F07F0CC0F380540B7081F801E014
:1021C00081F802C0CC700AB1002010BD020C1B09BE
:1021D00043EA830302F00F0202EB4302040A0A708F
:1021E0004FEA1E1202EB820204F00F0303EB4202DD
:1021F0004A704FEA1C1202EB820200F00F0000EB63
:1022000042008870002010BD002804BF01207047E4
:10221000B0B5044690F8250028B9002084F82400C1
:10222000204600F057F8022084F825002168CA20D3
:10223000486253204862C868400615D4C86840F018
:102240008000C860FEF784F92168CA6852060BD482
:10225000054600BFFEF77CF9401BB0F57A7F31D808
:102260002168C8684006F5D588694FF6BF72CFF679
:102270008F3210408861D4E9010CD4E9035318432C
:10228000A3698A6918431043886145EA0C400861D4
:10229000204600F07DFA216810B1FF224A62B0BDED
:1022A0008869D4E9072320F060406569184310432A
:1022B00028438861FF204862012084F8250000201F
:1022C000B0BD00BF032084F825002168CA68FF2242
:1022D0004A62B0BD10B596B0044601A804304C2146
:1022E000FDF79DFF206842F60001C4F2000188421C
:1022F00002D016B010BD00BF4FF4002001904FF483
:102300008070159001A8FFF7B5F9002818BFFEF7F7
:1023100035F841F25800C4F20200816B41F40041EB
:102320008163016841F480610160006800F48060AD
:102330000090009816B010BD2DE9F04381B004461E
:1023400090F8240001284FF0020000F08F80012354
:1023500084F8243084F8250032B14878CA788E7821
:10236000000240EA024845E048784FF0CD0CC20632
:1023700042BF00F0EF000A304870CA784FF0010900
:10238000A2F10A07FDB205FB0CF5EB0A03EB830390
:102390005FFA82FEA7EB43038E7809EBD525BEF1E9
:1023A000090F88BF43EA0512A0F10A03DDB205FB5D
:1023B0000CF5EF0A07EB8707A3EB470309EBD527DB
:1023C000092888BF43EA0710C0B2D2B2000240EA2F
:1023D0000248A6F10A02D3B203FB0CF3DF0AF0B203
:1023E00007EB8707A2EB470209EBD323092888BF35
:1023F00042EA03160F782168CA20486253204862D7
:10240000C868400614D4C86840F08000C860FEF771
:102410009FF82168CA6852060AD40546FEF798F864
:10242000401BB0F57A7F17D82168C8684006F5D5FB
:10243000F0B240EA08007A0320F0C0001043486080
:10244000204600F0A5F92168FF224A6258B9012010
:1024500084F82500002006E0032084F82500216888
:10246000CA68FF224A62002184F8241001B0BDE846
:10247000F08300002DE9F047044690F8240001287D
:102480004FF0020008BFBDE8F0870D46012184F837
:10249000241084F825002168CA204862532048622D
:1024A000C8681646400616D4C86840F08000C86068
:1024B000FEF74EF82168CA6852060CD4074600BFE2
:1024C000FEF746F8C01BB0F57A7F00F293802168D2
:1024D000C8684006F4D5886936B140060CD44FF080
:1024E000000885F803800AE040060FD44FF000088A
:1024F00085F803800DE000BFE8784FEA80586B78DC
:102500002878AA781B0243EA004749E0E8784FEAB6
:1025100080582F784FF0CD0CA7F10A095FFA89F0A7
:1025200000FB0CF0C30A03EB83036E785FFA87FEAF
:10253000A9EB43034FF00109AA7809EBD020BEF1C3
:10254000090F88BF43EA00175FFA87FEA6F10A0762
:10255000F8B200FB0CF0C30A03EB83035FFA86FAC0
:10256000A7EB430309EBD020BAF1090F88BF43EA78
:102570000016A2F10A03F0B2DEB2000206FB0CF66E
:1025800040EA0E47F00A5FFA82FE00EB8000A3EB00
:10259000400009EBD623BEF1090F88BF40EA0312C1
:1025A000D0B2384347F67F7240EA0800C0F27F029B
:1025B00010400860886920F480208861D5E9030212
:1025C0008B69104318438861204600F0E1F82168C8
:1025D000FF224A6220B1002184F82410BDE8F08770
:1025E000012084F825000020002184F82410BDE893
:1025F000F08700BF032084F825002168CA68FF2205
:102600004A62002184F82410BDE8F087411E0020B2
:10261000B0EB116F1CBF012070474EF21002CEF2DA
:10262000000251604EF62351CEF20001F0230B70F0
:102630000721906011607047FEE7000083B041F20F
:102640004C00C4F20200016841F00401016001681D
:1026500001F0040102910299016841F0200101603A
:10266000016801F0200101910199016841F0010127
:102670000160006800F001000090009803B070470E
:1026800010B586B041F6783042F600010024C2F25F
:102690000000C4F200017F224FF0804CC0E900141A
:1026A00000F10801CDE90244CDE90044FF231CC13B
:1026B000C0E90544C0E907C4FFF7A6FD002818BF1C
:1026C000FDF75CFE41F67830C2F2000001A901225C
:1026D000ADF804408DF806400294CDE90444FFF7BC
:1026E000C9FE002818BFFDF749FE40F20110C2F2F2
:1026F0000130009041F67830C2F2000069460122B4
:10270000FFF71AFE002818BFFDF738FE06B010BD0F
:1027100080B541F2B45040F20801C2F20000C2F2AA
:102720000001002200F06AFC002818BFFDF726FE19
:1027300041F2B45040F22C01C2F20000C2F200019A
:1027400000F088FE002818BFFDF718FE41F2B450D3
:1027500040F25C11C2F20000C2F2000100F01CFA6B
:10276000002818BFFDF70AFE41F2B450C2F2000083
:1027700000F090FE002808BF80BDBDE88040FDF756
:10278000FDBD0000FEE70000FEE70000704700000E
:10279000B0B504460068C16821F08001C16081695C
:1027A000890615D4C16821F02001C160FDF7D0FE73
:1027B000054600BF2068C068800629D4FDF7C8FE22
:1027C000401BB0F57A7FF5D9032084F82500B0BD11
:1027D000816921F020018161C16821F02001C1607F
:1027E000FDF7B6FE054600BF2168C868800611D413
:1027F000FDF7AEFE401BB0F57A7FF5D9032084F8D3
:10280000250021688A6942F020028A61B0BD00BFBC
:102810000020B0BD00208A6942F020028A61B0BD6C
:1028200070470000FDF79ABEB0B594B000240020B8
:102830000B94CDE90944FEF775FEFEF711FF41F256
:102840009000C4F202000168032521F01801016024
:10285000252006904FF480300790012008900C90BE
:10286000022055210D90CDE90E50CDE91010CDE993
:10287000120006A8FFF7F0F920B1EFF3108072B64E
:10288000FEE700BF0F20CDE9010501A80421CDE935
:1028900003440594FFF75AF820B1EFF3108072B6A5
:1028A000FEE700BF14B0B0BD4EF68850CEF2000077
:1028B000016841F4700101607047000010B540F2FA
:1028C0009414C2F200040A4602A0214600F02CFB38
:1028D000204610BD43444320436F6E666967000085
:1028E00010B5D0F8BC323BB38E4601EB810100EB52
:1028F000810151F8184F64B1D0F8C4C20EEB8E02BA
:102900000CEBC202D2F838C0B4FBFCF202FB1C4252
:10291000A2B10024C3F81442D0F8C002D0F810C00D
:10292000BCF1000F06D0D3F8080203F5047172461B
:10293000E0470024204610BD032010BD00240C6099
:1029400071460022002300F067FD204610BD000004
:10295000B0B5D0F8BC527DB1044600F015FCD4F8F7
:10296000C02205F50371D368D5F80422C5F80C021E
:10297000104698470020B0BD0320B0BDB0B58121FE
:10298000044600F063FB002520460121258700F066
:102990005DFB20468221A4F8785100F057FBD4F863
:1029A000BC02E56448B1D4F8C00240688047D4F85E
:1029B000BC0200F0DFFFC4F8BC520020B0BD000034
:1029C00040F2EC001222C2F200000A8070470000C0
:1029D00010B5D0F8BC428CB1D0F8C01259B194F8FF
:1029E0000002FF2807D08B6894F8012221469847FF
:1029F000FF2084F80002002010BD00BF032010BD9E
:102A0000014640F200100A22C2F200000A8070471C
:102A1000014640F264004322C2F200000A8070477F
:102A2000014640F2A8004322C2F200000A8070472B
:102A3000014640F20C104322C2F200000A807047A7
:102A4000F0B581B004464FF4077000F095FFE8B38D
:102A50000546C4F8BC02207C4026002808BF4FF47D
:102A60000076204681210222334600F0E9FB01274F
:102A70002046012102223346278700F0E1FB102087
:102A8000A4F84E002046822103220823A4F878717E
:102A900000F0D6FBD4F8C002A4F84C700068804760
:102AA0000020C5F81402C5F81802207CD5F80422CD
:102AB000002820464FF0010114BF40234FF400735B
:102AC00000F0D2FB002001B0F0BD00BF0020C4F830
:102AD000BC02022001B0F0BD10B540F29414C2F265
:102AE00000040A4602A0214600F01EFA204610BD4E
:102AF00043444320496E746572666163650000005B
:102B000040F270100422C2F200000A8070470000F8
:102B100010B540F29414C2F200040A4602A0214605
:102B200000F002FA204610BD53544D6963726F6580
:102B30006C656374726F6E696373000010B540F268
:102B40009414C2F200040A4602A0214600F0ECF9F7
:102B5000204610BD53544D3332205669727475614E
:102B60006C20436F6D506F7274000000D0F8BC127F
:102B7000002904BF0320704780B590F810C0D1F839
:102B8000042240230121BCF1000F08BF4FF4007361
:102B900000F06AFB002080BD00290EBF0320C0F8B2
:102BA000C01200207047000047F29050C1F6FF703D
:102BB000026883684FF01A0C9B18A1F800C000F05F
:102BC000A680B0B54FF0370C1A0F0CEB13714068AC
:102BD000B3F1204F38BF02F1300140F27412C2F25B
:102BE0000002917019014FF0000E0CEB117582F884
:102BF00003E0C3F30364B1F1204F38BF04F13005A3
:102C0000190215710CEB117582F805E0C3F303543A
:102C1000B1F1204F38BF04F13005190395710CEB69
:102C2000117582F807E0C3F30344B1F1204F38BFB8
:102C300004F13005190415720CEB117582F809E0E6
:102C4000C3F30334B1F1204F38BF04F13005190547
:102C500095720CEB117582F80BE0C3F30324B1F10C
:102C6000204F38BF04F1300519061573C3F3031460
:102C70000CEB1175B1F1204F4FEA037103F00F0314
:102C800082F80DE038BF04F1300503F13704957385
:102C900082F80FE0B1F1204F38BF03F13004010F8B
:102CA0000CEB1073147482F811E0B0F1204F38BFB0
:102CB00001F1300301010CEB1174937482F813E0FD
:102CC000C0F30363B1F1204F38BF03F130040102B8
:102CD0001475C0F303530CEB1174B1F1204F4FEA9C
:102CE000003182F815E038BF03F130040CEB1173AA
:102CF000947582F817E0C0F30340B1F1204F38BF5C
:102D000000F13003137682F819E0BDE8B04040F2DC
:102D10007410C2F200007047D0F8BC0200280EBF49
:102D20000320C0F80412002070470000D0F8BC0255
:102D300000280FBF0320C0F80812C0F8102200209E
:102D40007047000070B582B0D0F8BC620446002025
:102D5000002E8DF80700ADF8040061D008780D460C
:102D600010F0600116D0202956D1EA88002A27D019
:102D700040B2B0F1FF3F2FDD6878314686F800029F
:102D8000204686F8012200F09BF80026304602B06B
:102D900070BD00BF68780B283ED80026DFE800F041
:102DA00008063C3C3C3C3C3C3C3C2A38EEE700BF3F
:102DB00094F89C0203282FD101A92046022221E089
:102DC000D4F8C00229468368687800220026984714
:102DD000304602B070BD00BFD4F8C00231468368EF
:102DE00068789847EA882046072A28BF0722314694
:102DF00008E000BF94F89C0203280DD10DF10701F3
:102E00002046012200F076F80026304602B070BD60
:102E100094F89C020328B9D02046294600F044F8D3
:102E20000326304602B070BDD0F8BC22002A04BF91
:102E300003207047D2F8141200294FF0010101D08D
:102E40000846704780B5C2F81412D2F81032D2F892
:102E500008228121C36200F0DFFA0021BDE8804032
:102E60000846704740F250100C22C2F200000A805F
:102E700070470000D0F8B82222B180B55268904760
:102E8000BDE880400020704780B513460A46002107
:102E900000F0EAF9002080BD80B513460A46002103
:102EA00000F0BAFA002080BD10B58021044600F081
:102EB00085FA20460021BDE8104000F07FBA0000EE
:102EC00080B513460A460321C0F894120021C0E9D8
:102ED000563300F0C9F9002080BD000080B50521FF
:102EE000C0F8941200210022002300F0BDF9002058
:102EF00080BD000080B513460A460221C0F8941236
:102F00000021C0E9063300F087FA002080BD0000F0
:102F100080B50421C0F8941200210022002300F0A3
:102F20007BFA002080BD0000002808BF704710B564
:102F30000378ABB100F1020E4FF0000C1EF8013C1B
:102F400093B19EF800309BB19EF80130A3B19EF87A
:102F500002300CF1040C002B0EF1040EEED10DE04A
:102F60004FF0000C0AE000BF4CF0010C06E000BF7F
:102F70004CF0020C02E000BF4CF0030C5FFA8CFC3A
:102F8000022303EB4C03138003220B704A7090F86A
:102F900000E0BEF1000F2ED0841C02224FF0000C86
:102FA000D3B201F803E043F0010301F803C014F8C1
:102FB000013C03B3901CC0B20B5440F0010001F877
:102FC00000C02378BBB1101DC0B20B5440F001000B
:102FD00001F800C0637873B1901DC0B20B5440F08B
:102FE000010001F800C094F802E00832BEF1000FC1
:102FF00004F10404D4D1BDE810407047002804BF98
:10300000032070470023C0F8B832C0F8C03200294E
:10301000C0F8CC3218BFC0F8B412012180F89C125D
:10302000027000F0B5B8000080B5D0F8C402FDF71A
:10303000DDFB40F20032C100C0F2013222FA01F1A0
:10304000032888BF0321C8B280BD000080B5D0F836
:10305000C402FDF7A3FB40F20032C100C0F201320E
:1030600022FA01F1032888BF0321C8B280BD000005
:10307000B0B5044671B194F89C0203284AD1D4F843
:10308000B8024269002A45D020469047002808BF70
:103090000020B0BDD4F89402022834D1D4E907014D
:1030A00088420DD9431A204611461A46E361FFF7BC
:1030B000F3FE204600210022002300F0D5F822E094
:1030C00010D1A16981420DD3D4F89802814209D26E
:1030D0002046002100220025FFF7DEFEC4F89852AA
:1030E000E7E700BF94F89C02032805D1D4F8B802A2
:1030F000C16809B1204688472046802100F05EF96A
:103100002046FFF7EBFE94F8A002012804BF002040
:1031100084F8A0020020B0BD10B5044671B194F847
:103120009C0203281DD1D4F8B8028269CAB1204696
:103130009047002808BF002010BD00BFD4F89402BB
:1031400003280ED1D4E9570398420DD9C01AC4F808
:103150005C01984238BF0346204611461A46FFF7E5
:1031600093FE002010BD00BF94F89C02032805D1F7
:10317000D4F8B802016909B1204688472046FFF714
:10318000C7FE002010BD0000D0F8C402FDF760BBF0
:1031900010B5044641F6840045F60041C2F2000035
:1031A000C4F200010822022380E80E00002101225F
:1031B000C0F8F042C4F8C402C0E90431C0E9061204
:1031C0000162FEF7A1F8002818BFFDF7D7F8D4F880
:1031D000C402002100221823FDF7ACFAD4F8C4027F
:1031E000802100225823FDF7A5FAD4F8C4028121DA
:1031F0000022C023FDF79EFAD4F8C4020121002268
:103200004FF48873FDF796FAD4F8C40282210022A5
:103210004FF48073FDF78EFA002010BD4AB2D0F84B
:10322000C40201F07F0101EB810100EBC10000F558
:10323000B571002A48BF00F12A01087870470000E4
:1032400080B59446D0F8C4021A466346FDF70AFBDF
:1032500040F20032C100C0F2013222FA01F103282B
:1032600088BF0321C8B280BD80B5D0F8C402FDF785
:103270002DFB40F20032C100C0F2013222FA01F10E
:10328000032888BF0321C8B280BD0000F0B581B01B
:1032900004460120002184F89C02C4F89412D4F85A
:1032A000B8026160C4F8A41200B3D4F8BC1221B112
:1032B000426812B12046002190472046002100229A
:1032C000402300254026FFF7BBFF01272046802131
:1032D00000224023A4F86471C4F86061FFF7B0FFD6
:1032E000A7842662284601B0F0BD00BF032528460A
:1032F00001B0F0BD90F89C12042904BF90F89D1213
:1033000080F89C1200207047D0F8B812002904BF42
:103310000320704790F89C22032A05D1C96919B18E
:1033200080B58847002080BD0020704702460020FD
:103330001174704780B5D0F8C402FEF7ADF840F2C2
:103340000032C100C0F2013222FA01F1032888BF25
:103350000321C8B280BD0000B0B500F2AA25044622
:10336000284600F06BF80120C4F8940294F8AA02F1
:10337000B4F8B02200F01F010229C4F8982209D045
:1033800001290DD091B920462946BDE8B04000F092
:1033900083B800BF20462946BDE8B04000F01CBA03
:1033A00020462946BDE8B04000F0B0BA00F08001E8
:1033B0002046BDE8B04000F001B8000080B5D0F86C
:1033C000C402FDF79DFA40F20032C100C0F20132A2
:1033D00022FA01F1032888BF0321C8B280BD000092
:1033E00080B5D0F8C402FEF773F840F20032C10095
:1033F000C0F2013222FA01F1032888BF0321C8B2CA
:1034000080BD0000014690F89C02042281F89D02D4
:10341000002081F89C22704780B5D0F8C402FDF7E7
:10342000A3FA40F20032C100C0F2013222FA01F1E7
:10343000032888BF0321C8B280BD00000A7802704B
:103440004A7842704A8842808A888280C988C180CE
:103450007047000010B582B004460020ADF80600A9
:1034600061B1CA6AC4F8B8122AB10DF106009047DA
:10347000C4F8CC02002002B010BD00BF032002B08F
:1034800010BD0000D0F8B822002A04BF0320704706
:1034900012681047FFF7A4BFB0B582B00D46097897
:1034A000044611F060010DD0402902D0202940F0DF
:1034B000CF80D4F8B80229468268204602B0BDE821
:1034C000B04010476878092800F2C280DFE800F0B9
:1034D000061CC030C06480C0384E00BF94F89C0207
:1034E0000138022800F2B480E888022840F0B08059
:1034F000D4F8A4020322002808BF0122214641F883
:103500000C2F20460222F3E094F89C020138022896
:1035100000F29E8068880025012840F0A280C4F84F
:10352000A4522046FFF7F4FC284602B0B0BD00BF0D
:103530006888012840F066800120C4F8A4020BE1ED
:10354000E888012840F0848094F89C02411E0229FA
:1035500080F078800025214641F8085F204601224E
:10356000FFF7C8FC284602B0B0BD00BF688840F233
:103570009015C2F2000510F0FE0F287046D02046CC
:103580008021FFF71BFF20460021FFF717FF0325CF
:10359000284602B0B0BD00BFA888002858D1E888EE
:1035A000002855D168887F2852D894F89C120329A6
:1035B0004ED0C5B284F89E0220462946FFF7BAFED7
:1035C0002046FFF7A5FC002D14BF02200120E9E0F2
:1035D00068884FF0FF3101EB102100220E29ADF871
:1035E000062000F28B80DFE801F009553F898963EE
:1035F0006D898989898989894B0000BFD4F8B40213
:10360000026841E00025284602B0B0BD94F89C2233
:10361000C1B2032A00F07E80022A40F0A580002972
:1036200000F09A8020466160FFF72CFF002800F030
:10363000B580054620468021FFF7C0FE20460021C8
:103640000DE000BF032803D1211D204601224FE0D9
:1036500020468021FFF7B2FE204600210025FFF71B
:10366000ADFE284602B0B0BDC0B2052846D8DFE89E
:1036700000F0039FA3A7ABAFD4F8B402426802E006
:10368000D4F8B402C269CAB3207C0DF10601904798
:10369000014622E0217CD4F8B80200290CBF816ADF
:1036A000C16A0DF1060088470146022014E000BF00
:1036B000207C18BBD4F8B802416B0DF10600884796
:1036C00001460AE0207CC8B9D4F8B802016B0DF1BC
:1036D00006008847014607204870EA88E2B3BDF833
:1036E000060058B1904238BF0246ADF80620204689
:1036F000FFF700FC0025284602B0B0BD204680211F
:10370000FFF75CFE20460021FFF758FE0025284603
:1037100002B0B0BDC1B3606888421DD0C1B22046BE
:10372000FFF7A8FB297820466160FFF7ABFE98B150
:10373000054620468021FFF741FE20460021FFF785
:103740003DFE21792046FFF795FB022084F89C027C
:10375000284602B0B0BD00BF2046FFF7D9FB0025C8
:10376000284602B0B0BD00BF20468021FFF726FEEC
:1037700020460021FFF722FE29782046FFF77AFB3A
:103780000325284602B0B0BD022084F89C02616087
:10379000204600210025FFF76DFBC2E62046FFF71B
:1037A000B7FB032084F89C020025284602B0B0BD78
:1037B000D4F8B402826866E7D4F8B402C26862E75B
:1037C000D4F8B40202695EE7D4F8B40242695AE759
:1037D000D4F8B402826956E7B0B50D4609780446BC
:1037E00011F060010CD0402901D020296ED1D4F80D
:1037F000B802294682682046BDE8B040104700BFA5
:1038000068782979B0B101282CD003285ED194F8CA
:103810009C0203282AD1688838B911F07F0004D0AF
:10382000E88810B92046FFF7C9FD2046FFF770FB76
:103830000020B0BD94F89C02032825D0022808BFC0
:103840005FEA416042D111F0800004F114014FF0B1
:10385000140004BF4FF4AA7004F5AA71002222508C
:1038600020464DE094F89C02032839D002282DD13F
:1038700048062BD02046FFF7A1FD20468021FFF708
:103880009DFD0020B0BD00BF01F00F0000EB8000E7
:10389000802904EB80002CBF808CB0F86401A8B1B3
:1038A00001F07F0000EB800004EB800000F11405C4
:1038B000802938BF00F5AA7548061DD02046FFF7BD
:1038C000ADFC002818BF012017E000BF2046802172
:1038D000FFF774FD20460021FFF770FD0020B0BD0A
:1038E000688880B9480602D02046FFF79DFB204635
:1038F000FFF70EFB7BE700BF00202860204629462B
:103900000222FFF7F7FA0020B0BD0000B0B50D4667
:103910000978044611F0600118BF402916D194F8C7
:103920009C020138022813D8A88810F0FE0F0FD18E
:10393000D4F8B8022946826820469047E9880546AF
:10394000002908BF002D0FD02846B0BD2029E6D0A1
:1039500020468021FFF732FD204600210025FFF799
:103960002DFD2846B0BD00BF2046FFF7D1FA00204C
:10397000B0BD00007047000040F29430C2F2000079
:1039800070470000F0B50C78024691F803E030F87B
:10399000240047F270636700BEF1030F20EA0303BF
:1039A00008D80020DFE80EF002080E0C43F4007384
:1039B00008E000BF012005E043F4806302E000BF9F
:1039C00043F4C06348F28006CFF6FF76334322F813
:1039D000173032F8173040F60F752B40234333432E
:1039E00022F817300B7B48F2800C002B54D032F8B1
:1039F000173040F60F652B4048F28005BEF1020FEC
:103A000008BF05F580752B4322F81730B2F8503007
:103A10000D8902EBC404234425F00105A3F80054EA
:103A2000B2F850304D89234425F00104A3F8044432
:103A30004B7832F81710002B58D0490409D532F8CA
:103A4000171040F60F7319400CF58043194322F804
:103A5000171032F81710490609D532F8171040F63A
:103A60000F7319400CF14003194322F8171032F874
:103A7000171040F63F7319400CF120034B40BEF184
:103A8000010F08BF41EA0C0322F8173032F8171073
:103A900043F60F7352E000BF4D78B2F85030E600A5
:103AA000CC88002D24F001044ED091191944A1F8BE
:103AB000004432F81710490609D532F8171040F6BD
:103AC0000F7319400CF14003194322F8171032F814
:103AD000171040F63F73BEF1010F01EA03012ED02B
:103AE0000CF12003594022F81710F0BD490409D504
:103AF00032F8171040F60F7319400CF58043194344
:103B000022F8171032F81710490609D532F81710A5
:103B100040F60F7319400CF14003194322F81710B7
:103B200032F8171043F60F7319400CF54053594003
:103B300022F8171032F8171040F63F73194041EA87
:103B40000C0122F81710F0BD16443344A3F80444C6
:103B5000B2F850300C6906F206413F2C14D3E5064A
:103B600048F200054FEA5416CFF6FF754FF0FF3EBE
:103B700008BF0EEB541645EA8624CC5232F81710D3
:103B800049040CD415E000BFF4B104F0010606EBC3
:103B90005406B402CC5232F81710490409D532F851
:103BA000171040F60F7319400CF58043194322F8A3
:103BB000171032F8171043F60F7319400CF54053E5
:103BC000594022F81710F0BD5E5A48F2000526F45D
:103BD000F8465E525E5ACFF6FF7546EA0504CC52AF
:103BE00032F817104904DAD4E3E70000B0B50C78D6
:103BF0004B78097B024630F824004CF2800C4CF2E2
:103C0000800500294FEA44013AD0002B42D04004FD
:103C100008D532F8110040F60F73184040EA0C0046
:103C200022F8110032F8110043F60F7E400640F6EC
:103C30003F7009D532F8113040F60F742340ACF5CF
:103C40007F54234322F8113032F8113040F60F74BC
:103C500023402B43ACF5804522F8113032F8113067
:103C60001840284322F8110032F81100ACF58043C7
:103C700000EA0E000343002022F81130B0BD00BF5F
:103C8000F3B1400640F63F7EEED5ACF57F5540F6E9
:103C90000F70E3E7400408D532F8110040F60F73C7
:103CA000184040EA0C0022F8110032F81100ACF57F
:103CB0007F55400640F63F7E43F60F70BAD4C3E707
:103CC000400443F60F7ECFD540F60F70C6E70000E4
:103CD0000146B0F8580040F400420020A1F85820F6
:103CE0007047000001460120A1F84000002200209A
:103CF000A1F84020A1F84420A1F85020704700000E
:103D00000146B0F8400044F27F0202400020A1F8D2
:103D1000402070470A7B0AB10020704780B50A78BE
:103D20004B7830F822C04FEA4202BBB15FEA4C63E5
:103D300048F2A00E0BD530F812C040F60F730CEA13
:103D4000030C0EF1200343EA0C0320F81230C9786B
:103D500001291BD040F63F7111E000BF5FEA4C41E2
:103D60004BF2800E09D530F8121040F60F7319404F
:103D70000EF58053194320F8121043F60F7130F8F6
:103D80001230194081EA0E0120F81210BDE880407F
:103D90000020704702460B78487832F823C040F67E
:103DA0003F71002848F2900008BF43F60F71CFF62C
:103DB000FF7008BF00F57F6001EA0C014140002060
:103DC00022F82310704700002DE9F04F82B04F78A1
:103DD000012F5FD18B690A690F7B934228BF13467D
:103DE000002F00F08580CF780C6A022F40F0C08051
:103DF0000D7840F60F6630F825704FEA450E944274
:103E000006EA070648F2B00C40F2208148F2B007FB
:103E1000CFF6FF77D0373E43A4EB030A20F81E60AD
:103E2000C1F820A030F81E60B0F85070ED007606A2
:103E30009EB200EB050800F15F8108EB0704A4F8CF
:103E40000234D1F814B0002E00F0E6820D8901365C
:103E5000054405F580694FF0FF3505EB5604C6F3C0
:103E60004105002D4FEA560700F0EA815E46CDE994
:103E7000004836F8028B5C46CB46012D2BF8028BAE
:103E800040F0E281D946DDF80480A346009C013F62
:103E9000B1E200BF0A7B002A4ED0CA78012A00F0A6
:103EA0009D80022A40F0C4800A78002F40F00782EB
:103EB000B0F850300E6903443E2E03F2024340F244
:103EC000538177094FF0FF35F40608BF05EB56170D
:103ED00048F20006CFF6FF7646EA872723F83270CD
:103EE000B0F85030034403EBC203A3F80674E6E1D4
:103EF0001A0400F07781CA88D1F814E0024402F570
:103F00008068012212FA83F24FF0FF37C2F34104B6
:103F100007EB520C002C4FEA520200F0508177461A
:103F200037F8025B4646012C26F8025B40F0108110
:103F3000013ABE46B04642E18A690B69D71A3CBFD6
:103F4000002713468F61B0F850700A78C1193F2BD3
:103F500001F2064170D35F094FF0FF36DD0608BF5E
:103F600006EB53174FF4004343EA8723D9E100BF20
:103F7000E21A0F780A6230F82720B0F85040FD00AE
:103F8000520605444FEA470E9AB248F2B00C2C4450
:103F900000F18E80002AA4F8023400F0ED820B8933
:103FA0000132496903444FF0FF34C2F3410503F580
:103FB000806304EB5208002D4FEA520200F0C381E7
:103FC0000E4636F8024B1F46012D27F8024B40F0F3
:103FD0001981013A31463B46B5E100BF8A690B6958
:103FE000D61A3CBF002613460A78002F8E6140F097
:103FF0009A81B0F850103E2B014401F2024140F288
:10400000C5805F094FF0FF36DD0608BF06EB53178A
:1040100048F20003CFF6FF7343EA872321F83230DA
:10402000B0F85010014401EBC201A1F806347AE166
:10403000012002B0BDE8F08F002B00F0688103F092
:10404000010707EB53039B026BE100BF48F2B0028C
:10405000CFF6FF72303A324320F81E20B0F85020DD
:1040600000EBC5031A442304A2F8024400F0848242
:104070000A894969024402F58063012212FA84F236
:104080004FF0FF34C2F3410504EB5208002D4FEA14
:10409000520200F074810E4636F8024B1F46012D85
:1040A00027F8024B40F0B880013A31463B4666E1C2
:1040B000002AA4F8063400F05F824B890132496976
:1040C00003444FF0FF34C2F3410503F5806304EB72
:1040D0005208002D4FEA520200F06D810E4636F86C
:1040E000024B1F46012D27F8024B40F09F80013AFA
:1040F00031463B465FE100BF08EB0705A5F80634F3
:10410000D1F814B0002E00F0DB814D890136054452
:1041100005F580694FF0FF3505EB5604C6F3410500
:10412000002D4FEA560700F08D805E46CDE900482D
:1041300036F8028B5C46CB46012D2BF8028B40F003
:104140009380D946DDF80480A346009C013FA6E198
:10415000BEF80250022CA8F8025027D108F104083A
:104160000EF1040E023A2AE0002E00F2064700F09B
:104170008B8006F0010505EB5606B60223F8326087
:10418000B0F850303B4423F8326098E0002B00F246
:10419000064700F0AD8003F0010606EB53039B02D7
:1041A00021F83230B0F850103944BAE0BEF804407B
:1041B0000EF1060EA8F8044008F10608033ABCF117
:1041C000030F0FD3AEF10807A8F1080637F8085F10
:1041D000043A26F8085F7D887580BD88B580FD8823
:1041E000F580F3D1B0F850200978024402EBC10207
:1041F00048F2B00CA2F802344FEA410E40F63F718B
:10420000BCE100BF4C88022D5C8040F097800433F5
:104210000431023A97E000BF4C88022D5C8040F0E8
:10422000A98004330431023AA9E000BF4C88022D72
:104230005C8040F0BB8004330431023ABBE000BF35
:104240005E46D8E05E462AE16688A346A9F8026089
:10425000DDF80480009C022D40F0C48009F10409BF
:104260000BF10406023FC6E06688A346A9F8026087
:10427000DDF80480009C022D40F0088109F104095A
:104280000BF10406023F0AE133F8326026F4F846E7
:1042900023F8326033F8326046F4004623F8326087
:1042A000B0F850303B4433F8327027F4F84723F825
:1042B000327033F8327047F4004723F83270C9691E
:1042C00089B330F8221044F240031940994200D0DB
:1042D00049BB510030F8113040F60F773B4048F2AF
:1042E000B007CFF6FF773B43103320F811301AE0C8
:1042F00031F8323023F4F84321F8323031F83230DB
:1043000043F4004321F83230B0F85010394431F80A
:10431000323023F4F84321F8323031F8323043F4AC
:10432000004321F8323042F6D071A1F5E0414FEA66
:10433000420EA1F5756C43F60F711FE18C880631B2
:104340009C800633033AB8F1030FC0F01581A1F148
:104350000804083B34F8081F043A23F8081F618852
:104360005980A1889980E188D98040F63F71F1D1C8
:1043700004E100BF8C8806319C800633033AB8F113
:10438000030FC0F0F980A1F10804083B34F8081FBE
:10439000043A23F8081F61885980A1889980E18830
:1043A000D98040F63F71F1D1E8E000BF8C8806313A
:1043B0009C800633033AB8F1030FC0F0DD80A1F111
:1043C0000804083B34F8081F043A23F8081F6188E2
:1043D0005980A1889980E188D98040F63F71F1D158
:1043E000CCE000BFBBF804500BF10606A9F804505E
:1043F00009F10609033F032C0ED3083EA9F1080575
:1044000036F8084F043F25F8084F74886C80B4884C
:10441000AC80F488EC80F3D10BEB030600244E61F2
:10442000924588BFAAEB03040C62B0F8502088BF05
:104430009A4608EB02031FFA8AF2002AA3F806A4A0
:1044400000F09A804989013201444FF0FF33C2F3F2
:10445000410401F5806103EB5208002C4FEA52023F
:104460006BD0354635F8023B0F46012C27F8023B4E
:1044700004D1013A2E4639465FE000BF7388022C12
:104480004B8055D104310436023A56E0BBF8045053
:104490000BF10606A9F8045009F10609033F032CA5
:1044A0000ED3083EA9F1080536F8084F043F25F859
:1044B000084F74886C80B488AC80F488EC80F3D1A9
:1044C0000BEB030600244E61924588BFAAEB030460
:1044D0000C62B0F8502088BF9A4608EB02031FFA1E
:1044E0008AF2002AA3F802A446D0098901320144C5
:1044F0004FF0FF33C2F3410401F5806103EB520832
:104500004FEA5202ACB3354635F8023B0F46012C58
:1045100027F8023B04D1013A2E46394629E000BF74
:104520007388022C4B801FD104310436023A20E0FC
:10453000B38806368B800631033AB8F1030F1BD3DC
:10454000A6F10803A1F1080433F8081F043A24F87F
:10455000081F598861809988A180D988E18040F638
:104560003F71F1D10AE000BFB38806368B80063177
:10457000033AB8F1030F0DD240F63F7130F81E2018
:10458000114081EA0C0120F81E10002002B0BDE8A5
:10459000F08F00BFA6F10803A1F1080433F8081F4B
:1045A000043A24F8081F598861809988A180D98825
:1045B000E18040F63F71F1D1E0E7000001460020C4
:1045C0004BF68072A1F84400A1F84020704700002B
:1045D00041F68400C2F20000FCF7E2B941F6840023
:1045E000C2F20000FCF7DCB9B0F8440070470000EC
:1045F00070B51044022B00F5806440D34FF0FF32B9
:10460000C3F34105580802EB530C4DB1224632F872
:10461000026B8E46012D2EF8026B07D1013815E092
:104620002246BCF1030F144616D229E06288022DFF
:104630004A8005D1221D01F1040E023806E000BFB8
:10464000A688A21D01F1060E03388E807146BCF1CA
:10465000030F144614D300BF32F8086B043821F856
:10466000086B32F8066C21F8066C32F8046C21F8FD
:10467000046C32F8026C21F8026CEDD114468E46BF
:10468000D8071CBF20888EF8000070BD002904BF29
:104690008021A0F84C10002070470000002B08BFBC
:1046A0007047B0B5104400F5806E581C4FF0FF32D3
:1046B000C0F3410302EB500C4FEA5000BBB10A4675
:1046C00032F8025B7446012B24F8025B06D10138F4
:1046D0001146A646BCF1030F0CD21BE04A88022B00
:1046E000AEF802201AD10EF1040E04310238BCF1EA
:1046F000030F0FD30839AEF1080200BF31F8083FAD
:10470000043822F8083F4B8853808B889380CB88ED
:10471000D380F3D1BDE8B040704700BF8A8806312E
:10472000AEF804200EF1060E0338BCF1030FE1D2FF
:10473000F0E70000FEE7000080B540F60000C4F698
:1047400000004FF40051FBF7EFFE0138B0FA80F0A3
:10475000400980BD80B586B0002041F24C01CDE912
:104760000400C4F202010A6842F004020A60096807
:1047700001F00401009100994FF40051CDE90110BE
:104780000220039040F60000C4F6000001A9FBF7E8
:10479000FBFD06B080BD0000B0B586B0002441F23C
:1047A0004C000594C4F202000168002241F00101AE
:1047B000016000684FF4807100F0010000900098E3
:1047C0004FF090404FF48075FBF7BCFE0120CDE91F
:1047D000020401A94FF0904001950494FBF7D4FD29
:1047E00006B0B0BD024600284FF090404FF48071F3
:1047F00018BF0122FBF7A6BE4FF090404FF4807126
:10480000FBF798BE92B0FBF7B7FEFEF70DF8FDF789
:1048100015FFFDF735FFFDF77BFFFFF79BFFFFF768
:10482000BBFFFBF795FE00F1C806FBF791FE41F6D2
:10483000783441F6A038C2F200040DF130090DF1D0
:10484000440AC2F200080DF1120B01E0B5420DD28C
:10485000FBF77EFE0546FFF76FFF0028F6D0B54256
:10486000F6D305F1C806FFF7C7FFF1E72046494632
:10487000002205F5FA76FDF78FFC2046514600220E
:10488000FDF758FC98F800109DF83200814203D1E2
:104890000020FFF7A7FFDBE788F800000120FFF703
:1048A000A1FF9DF846009DF845309DF847209DF8F2
:1048B00030109DF832709DF831508DE82300584635
:1048C00004A1039700F018F881B25846FBF738FDB1
:1048D000BEE700BF3230253032642E253032642EE0
:1048E0002530326420253032643A25303264202568
:1048F0003032640D0A0000000FB4084B10B504A953
:1049000002AA039800F01CF8044602A9002000F057
:10491000B8F9204610BC5DF814FB0000834C000879
:1049200002E008C8121F08C1002AFAD17047704778
:10493000002001E001C1121F002AFBD170470000D6
:104940002DE9FF4F8BB088460546002606E0252856
:104950000BD0DDE90D1290476D1C761C28780028DD
:10496000F5D10FB03046BDE8F08F0024A146A24635
:104970000122AE4900E0044315F8013F203B02FA52
:1049800003F00842F7D128782A2810D06FF02F02C0
:104990002878A0F13001092915D809EB890102EB2B
:1049A000410144F0020400EB01096D1CF0E758F8E6
:1049B000041B5FEA010903D544F40054C9F100095E
:1049C00044F002046D1C28782E2817D115F8010F29
:1049D00044F004042A280ED06FF02F022878A0F1AA
:1049E000300109290AD80AEB8A0102EB410100EBE8
:1049F000010A6D1CF2E758F804AB6D1C28786C288E
:104A00000FD006DC4C2817D068280DD06A2814D1A6
:104A100004E0742810D07A280FD10DE044F400147B
:104A20000AE044F4801401E044F4401469788142BF
:104A300002D104F580146D1C6D1C2878692865D09E
:104A400006DC00288DD0632827D0642806D15DE0DD
:104A50006E2808D073282AD0752877D0DDE90D128A
:104A60009047761CE0E0C4F30250022809D00328E6
:104A70000DD0D8F8001004280DD00E6008F10408FD
:104A8000D2E0D8F80010F217C1E90062F6E7D8F8D2
:104A900000100E80F2E70E70F0E718F8041B8DF896
:104AA000001000208DF80100EB46012003E058F8CB
:104AB00004BB4FF0FF3061074FF0000701D40AE05C
:104AC0007F1C57450DDA8742FADB1BF807100029D7
:104AD000F6D106E07F1C8742FCDB1BF8071000299B
:104AE000F8D1DDE90D23A9EB07008146214600F04E
:104AF000B1F83044C61904E0DDE90D121BF8010BD2
:104B000090477F1EF8D22146484688E058F8040BAB
:104B1000C4F302514FF00A0B032900D100B204295B
:104B200000D140B2002802DA40422D2102E02105E6
:104B300005D52B218DF82410012104E006E0E107C2
:104B400010D02021F6E708AF089113E058F8040BC5
:104B5000C4F302514FF00A0B032900D180B204299B
:104B600000D1C0B20021EEE75946FBF763FB3031BC
:104B700007F8011D0028F7D1ADEB070000F1200B6D
:104B8000600702D524F4803401E04FF0010ADA45D1
:104B900002DDAAEB0B0000E00020824600EB0B01D7
:104BA00008980144A9EB01000A90E00306D4DDE96E
:104BB0000D2321460A9800F04DF806444FF00009F5
:104BC00008E009A911F80900DDE90D12904709F183
:104BD0000109761C08998945F3DBE0030CD5DDE972
:104BE0000D2321460A9800F035F8064404E0DDE97B
:104BF0000D1230209047761CBAF10001AAF1010A8B
:104C0000F5DC05E0DDE90D1217F8010B9047761C85
:104C1000BBF10001ABF1010BF4DC0A982146DDE9A0
:104C20000D2300F005F806446D1C97E609280100E5
:104C30002DE9F041044600251E461746880404D499
:104C400005E039462020B0476D1C641EF9D5284682
:104C5000BDE8F0812DE9F041044600251E4690464E
:104C6000C80301D5302700E02027880404D505E0DB
:104C700041463846B0476D1C641EF9D52846BDE84C
:104C8000F0810A68531C0B60107070470000000030
:104C9000000000000102030406070809C04C0008D8
:104CA000000000209001000090020008984D0008CC
:104CB00090010020181E000030490008000000008C
:104CC0003210320113C1291408012B1B0811041AD8
:104CD0003D041AA90413BD281408D92A1408652E06
:104CE00012081324F41A410C1A7D281B452D10318B
:104CF0001AD10C1AE1241A5108C11A21281A1104D8
:104D00001A31041A0104140902431302011DC032AE
:104D100009046D1A020B1305241610010524011055
:104D2000090104240202052406170107058203086D
:104D3000151009040133020A2E0705010240072A53
:104D4000810711093744113A02441907111B120156
:104D50003912021E40830440574D1B0203F92B0AEF
:104D6000061A111A400B112B0907640A3B04A81CF0
:104D7000050F0C241A10672113F5021B08F1041A01
:104D8000ED041321031B083D04071A040309041A48
:084D9000030000000000000018
:04000005080001D915
:00000001FF
