:020000040800F2
:10000000F8150020F1010008E3240008E3200008AF
:10001000E1240008D70200084F4800080000000053
:100020000000000000000000000000007132000825
:10003000D9020008000000005F2800087D32000897
:100040000B0200080B0200080B0200080B0200085C
:100050000B0200080B0200080B0200080B0200084C
:100060000B0200080B0200080B0200080B0200083C
:100070000B0200080B0200080B0200080B0200082C
:100080000B0200080B0200080B0200080B0200081C
:10009000E14700080B0200080B0200080B020008F1
:1000A0000B0200080B0200080B0200080B020008FC
:1000B0000B0200080B0200080B0200080B020008EC
:1000C0000B0200080B0200080B0200080B020008DC
:1000D0000B0200080B0200080B0200080B020008CC
:1000E0000B0200080B0200080B0200080B020008BC
:1000F0000B0200080B0200080B0200080B020008AC
:100100000B0200080B0200080B0200080B0200089B
:100110000B0200080B0200080B0200080B0200088B
:100120000B0200080B0200080B0200080B0200087B
:100130000B0200080B0200080B0200080B0200086B
:100140000B0200080B0200080B0200080B0200085B
:100150000B0200080B0200080B0200080B0200084B
:100160000B0200080B0200080B0200080B0200083B
:100170000B0200080B0200080B0200080B0200082B
:100180000B0200080B0200080B0200080B0200081B
:100190000B020008000000000B0200080B02000820
:1001A0000B0200080B0200080B0200080B020008FB
:1001B0000B0200080B0200080B0200080B020008EB
:1001C0000B0200080B0200080B0200080B020008DB
:1001D0000B0200080B020008DFF810D000F03EF818
:1001E00000480047F1490008AFF30080F8150020EF
:1001F0000648804706480047FEE7FEE7FEE7FEE7C1
:10020000FEE7FEE7FEE7FEE7FEE7FEE70133000854
:10021000D901000840EA01039B0703D009E008C99F
:10022000121F08C0042AFAD203E011F8013B00F8BB
:10023000013B521EF9D27047D2B201E000F8012B07
:10024000491EFBD270470022F6E710B513460A4656
:1002500004461946FFF7F0FF204610BD064C074D37
:1002600006E0E06840F0010394E807009847103486
:10027000AC42F6D3FFF7B4FFA84A0008C84A00080A
:1002800070B58C1810F8015B15F0070301D110F858
:10029000013B2A1106D110F8012B03E010F8016B85
:1002A00001F8016B5B1EF9D12B0705D40023521E08
:1002B0000DD401F8013BFAE710F8013BCB1A921C70
:1002C00003E013F8015B01F8015B521EF9D5A1426E
:1002D000D8D3002070BDFEE7704772B6FEE700007D
:1002E000144A117F1448012901D003290FD1036852
:1002F00023F400730360036843F40063036003683E
:1003000023F400630360036843F40073036002296D
:1003100001D003290BD1016841F4805101600168CB
:1003200021F480510160016841F480610160002086
:100330001077704784000020002002400C490A6AB0
:10034000520210D5C20703D04A6942F004024A6142
:10035000800703D5486940F400404861486940F48B
:10036000803048617047486948F204021043F4E75E
:10037000002002400E4A136A5B0201D5C90703D070
:10038000516921F4006102E0516941F40061516159
:100390005169C0B221F47E7141EAC00050615069D8
:1003A00040F002005061506940F480305061704765
:1003B00000200240054910B54C6944F001044C612D
:1003C0000260BFF36F8F436010BD00000020024049
:1003D000094A10B55469402344F480245461EFF372
:1003E000108272B610C95B1E10C013F0FF03F9D162
:1003F00082F3108810BD00000020024070B5064650
:1004000000F022FA0546134C07E000BF00F01CFA8A
:10041000401BB04201D9032070BD2069C003F5D450
:1004200020694CF2FA3108400CD00B494A6802436B
:100430004A60010F01D0A169A161010100D02061D2
:10044000012070BD2069C00701D00120206100207B
:1004500070BD000000200240840000202DE9F05F04
:10046000054633488946017801290CD0012680468B
:1004700006704FF47A7B5846FFF7C0FF07004FF035
:10048000000A03D04FE00220BDE8F09F51464046ED
:10049000C8F804A0274C226892050AD521684905AE
:1004A00005D5216821F480612160032109E00677E8
:1004B00008E02268520504D5216821F4806121609A
:1004C000022101772868012807D04FF0FF31C9F8D1
:1004D000001040F2FA3BAE681EE06868FFF72EFF9E
:1004E0005846FFF78BFF0746606948F204018843CE
:1004F000606116E030466968FFF73CFF4FF47A70A0
:10050000FFF77CFF0700606920EA0B00606102D002
:10051000C9F8006005E0761CD5E902010844B04244
:10052000E8D8FFF7DDFE88F800A03846ACE7000009
:1005300084000020002002402DE9F0471B4D0446B6
:100540001646287898468A46012809D00120287046
:100550004FF47A794846FFF751FF002718B119E0A8
:100560000220BDE8F0876F6024B1012C09D0022C75
:1005700007D00CE0324643465046FFF71BFF0124EC
:100580000CE031465046FFF723FF022C04D04846CA
:10059000FFF734FF2F70E4E74FF480244846FFF75D
:1005A0002DFF03494A69A2434A61F3E78400002012
:1005B00000200240064900204A69002A07DA054A5D
:1005C0008A60054A8A604969002900DA012070477B
:1005D0000020024023016745AB89EFCD2DE9F04FA4
:1005E000DFF82092002301260324A9F1040B85B033
:1005F0000F2709F1040AABF1040EFAE006FA03F53D
:100600002A407CD091F804C00CF0030CBCF1010F1F
:1006100002D0BCF1020F26D1D0F808C0CDF800C03E
:100620004FEA430C04FA0CF8CDF810C0DDF800C016
:100630002CEA080CCDF800C0D1F80C80DDF810C011
:1006400008FA0CF8DDF800C048EA0C08C0F8088089
:10065000D0F804C02CEA050C0D79C5F300159D40B7
:1006600045EA0C0545600D79ED43AD070ED0C56830
:100670004FEA430804FA08FC25EA0C05D1F808C043
:100680000CFA08FC4CEA050CC0F80CC00D7905F01A
:100690000305022D16D1DD0800EB850CCDF808C04E
:1006A000DCF820805D074FEAD56C07FA0CF528EAE4
:1006B00005080D6905FA0CF5DDF808C045EA0805DE
:1006C000CCF8205005684FEA430CCDF808C004FA76
:1006D0000CFC25EA0C0591F804C00CF00308DDF8C9
:1006E00008C008FA0CF848EA0508C0F800804D6810
:1006F00015F4403F7CD0444DD5F860C000E077E071
:100700004CF0010CC5F860C02D6E23F0030C05F011
:10071000010500953D4D65440295AD684FEA837C27
:100720004FEA1C7807FA08FC25EA0C05B0F1904F57
:1007300006D0DFF8DCC0604505D14FF0010C20E0A9
:100740004FF0000C1DE0DFF8CCC0604502D14FF047
:10075000020C16E0DFF8C0C0604502D14FF0030C78
:100760000FE0DFF8B8C0604502D14FF0040C08E09C
:10077000DFF8ACC0604502D14FF0050C01E04FF04E
:10078000060C0CFA08FC4CEA050C029DC5F808C0E2
:10079000D9F80050CC46D1F8048095435FEAC828C8
:1007A00000D51543CCF80050DAF80050D446D1F803
:1007B000048095435FEA882800D51543CCF80050A3
:1007C000DBF80050DC46D1F8048095435FEA8838B6
:1007D00000D51543CCF80050DEF80050F446D1F8AF
:1007E000048095435FEAC83800D51543CCF8005023
:1007F0005B1C0A6832FA03F57FF400AF05B0BDE870
:10080000F08F000008040140001002400000014089
:100810000004004800080048000C00480010004890
:10082000001400480069084000D001207047426968
:1008300021EA02030A4043EA0241816170470AB19A
:10084000816170478162704701488068704700008D
:100850007800002002488168426811448160704736
:100860007800002010B50024032000F073F80F205A
:1008700000F008F808B1012401E000F025F8204656
:1008800010BD000070B50E4E05460024706898B18A
:100890004FF47A71B1FBF0F00A490968B1FBF0F04E
:1008A00001F00BFC40B9102D06D200222946501E43
:1008B00000F030F8356000E00124204670BD0000F3
:1008C00078000020A40000200A4882B0016E41F0A8
:1008D00001010166016E01F001010091816D41F09D
:1008E00080518165806D00F08050009002B000F072
:1008F00097BD000000100240002809DB00F01F0235
:10090000012191404009800000F1E020C0F8001171
:1009100070470000F0B40E4B1B680C46C3F3022373
:10092000C3F10705042D00D90425191D072901D29B
:10093000002300E0DB1E012606FA05F1491E2140D6
:1009400099409E40761E16403143F0BC03F080BFB4
:100950000CED00E0064900F0070208684FF6FF03BF
:10096000184040EA0220034A104308607047000024
:100970000CED00E00000FA0501220168C0F8E82251
:10098000002280F8E02231F8540F40F00100088086
:10099000088840F0020008801046704770B50F4D7F
:1009A000044669B101290AD1D4F8F00202F054FFDB
:1009B000A069002803D0286840F00600286070BDB8
:1009C000A06928B102F05CFC286820F006002860CD
:1009D000D4F8F002BDE8704002F0D6BE10ED00E0A1
:1009E00010B50C0607D501F0070101EB810100EB02
:1009F000C100283005E001EB810100EBC10000F5EA
:100A0000B47099B232B1012202730181190C418193
:100A1000002010BD00220273C180F9E701EB8102C2
:100A200000EBC202D0F8F002D26B02F089BD01EBFC
:100A3000810200EBC202D0F8F002D2F87C2102F071
:100A4000D3BD70B504460B0601F0070000EB800132
:100A500004EBC1014FF001024FF0000503D581F80E
:100A60002920283103E081F8695101F5B47108703B
:100A700094F8A802012808D084F8A822206803F07E
:100A80006FFB84F8A852002070BD022070BD70B5C5
:100A9000044601F00F006268904201D9012070BD48
:100AA0000B0601F0070000EB800104EBC1014FF0E1
:100AB00001024FF0000503D581F82920283103E019
:100AC00081F8695101F5B4718D70087094F8A8022D
:100AD000012808D084F8A822206803F0E0FB84F8FD
:100AE000A852002070BD022070BD2DE9F0470468B7
:100AF0005FEA42480B788D69B4F850804FF0000CE3
:100B00004BF68F7748F2800648F68F7948F2C00A94
:100B1000444428D540F2024808EBC30834F80840A2
:100B2000C4F30904A54203D32D1B8D6102D00BE051
:100B3000C1F818C0D0F800C03CF823503D4085F4FF
:100B4000005535432CF82350520609D50B7805681B
:100B500035F8232002EA090242EA0A0225F8232096
:100B600074B30A8927E040F2064808EBC30834F85A
:100B70000840C4F30904A54203D32D1B8D6102D0A4
:100B80000BE0C1F818C0D0F800C03CF823503D403D
:100B900085F4005535432CF82350520609D40D78BE
:100BA000036833F8252002EA090242EA0A0223F820
:100BB00025202CB14A8949690068234603F019FEB3
:100BC0002046BDE8F0872DE9F047054600680C4651
:100BD0005FEA42681646D1F818C02278B0F8508013
:100BE00048F68F774CF280094FF400434FF6FF7AB6
:100BF0004FF0000140447BD540F2024808EBC208A8
:100C000030F80800C0F30900844514D9BCEB000C8F
:100C1000C4F818C010D0760408D5D5F800C03CF848
:100C200022603E4046EA09062CF8226094F824200F
:100C3000012A50D04EE1A161607810B1012813D093
:100C40001AE02868B0F85030184400EBC200B0F841
:100C5000022422F4F842A0F80224B0F8022442F45C
:100C60000042A0F8022407E02868B0F85030184489
:100C700000EBC200A0F802146278286812B1012AC1
:100C800011D018E0B0F850100844217800EBC100F2
:100C9000B0F8061421F4F841A0F80614B0F80614D0
:100CA00041F4004105E0B0F850201044227800EBF8
:100CB000C200A0F8061421782846FFF7AFFE7004A2
:100CC000B8D521782A6832F82100384040EA090076
:100CD00022F82100FEE0626902446261E269024496
:100CE000E2612669226AB24203D33046111A04E057
:100CF00038E084F824100AB110462162617811B1FD
:100D0000012923D02BE02968B1F850203E28114456
:100D1000227801EBC20101F2024106D94209C6065E
:100D200000D1521E43EA82220EE030B14208C307CE
:100D300000D0521C0AEA822206E00A8822F4F84215
:100D40000A800A8842F400420A8008E02968B1F863
:100D500050201144227801EBC201A1F8020483B2B1
:100D60002289B3E040F2064808EBC20830F80800D8
:100D7000C0F30900844514D3BCEB000CC4F818C0C0
:100D800010D0760408D4D5F800C03CF822603E406C
:100D900046EA09062CF8226094F82420012A50D053
:100DA00098E0A161607810B1012813D01AE028689A
:100DB000B0F85030184400EBC200B0F8022422F41E
:100DC000F842A0F80224B0F8022442F40042A0F84D
:100DD000022407E02868B0F85030184400EBC20045
:100DE000A0F802146278286812B1012A11D018E024
:100DF000B0F850100844217800EBC100B0F8061498
:100E000021F4F841A0F80614B0F8061441F40041AA
:100E100005E0B0F850201044227800EBC200A0F8A2
:100E2000061421782846FFF7F9FD700452D4227881
:100E3000296831F82200384040EA090021F82200F0
:100E400048E0626902446261E2690244E261266943
:100E5000226AB24203D33046111A216204E00AB179
:100E60001046216284F824106278296812B1012AA0
:100E700022D029E0B1F850203E281144227801EB1D
:100E8000C20101F2064106D94209C60600D1521E2E
:100E900043EA82220EE030B14208C30700D0521C60
:100EA0000AEA822206E00A8822F4F8420A800A88C6
:100EB00042F400420A8007E0B1F850201144227841
:100EC00001EBC201A1F80604628983B26169286856
:100ED00003F0AAFC2278296831F8220048F6BF7393
:100EE000184080F0300048F28003184321F82200B7
:100EF0000020BDE8F0870020704701F0070101EBFA
:100F0000810100EBC100D0F8840170472DE9F04168
:100F100004460F0601F0070000EB800104EBC1015D
:100F20004FF001064FF0000503D581F82960283104
:100F300003E081F8695101F5B47108700A61CB7062
:100F40004A7802B1C881022B00D10D7194F8A80231
:100F5000012809D084F8A862206802F0CDFF284655
:100F600084F8A852BDE8F0810220FBE770B50C467A
:100F700001F0070505EB850100EBC101C1E95F2325
:100F80000022C1F8842181F8692181F8685101F5B6
:100F9000B4716207006803F0D7F9002070BD70B526
:100FA000044601F007006268904201D9012070BD3B
:100FB0000B064FF000054FF0010207D500EB800152
:100FC00004EBC10181F82920283107E001EB810100
:100FD00004EBC10181F8695101F5B4718A700870A0
:100FE00094F8A802012808D084F8A822206803F009
:100FF00092F984F8A852002070BD022070BD70B52F
:101000000C4601F0070505EB850100EBC101C1E9C4
:101010000F23012281F84C208B6400234B6481F85C
:10102000292001F8285F6207006803F08DF900208D
:1010300070BD10B50446006803F0D8FB010404D568
:101040002046BDE8104001F04DBA41050ED520689C
:1010500030F8441F21F480610180204600F014F92B
:101060002046BDE81040002100F03AB9410405D502
:10107000206830F8441F21F480417DE0810405D5CB
:10108000206830F8441F21F4005175E0C1041FD5D9
:10109000206830F8401F21F004010180206830F8FA
:1010A000401F21F00801018094F8E002012806D1D8
:1010B000002084F8E00201462046FFF76FFC20463E
:1010C00000F0F6F8206830F8441F21F4805153E016
:1010D000010512D5206830F8401F41F00801018059
:1010E000206830F8441F21F400610180206830F846
:1010F000401F41F0040101800AE0010629D5206863
:1011000030F8441F21F08001018094F8E00218B10A
:10111000204600F015F910BD206830F8401F41F05E
:1011200004010180206830F8401F41F0080101806F
:10113000012084F8E0022068B0F854003C2101EA64
:101140009000C4F8E4022046BDE810400121FFF7FA
:1011500025BC810509D5206830F8441F21F40071B1
:101160000180204600F0B8F810BDC005FCD520680D
:1011700030F8441F21F48071018010BD70B586B035
:10118000040004D094F8A902002518B107E001205A
:1011900006B070BD84F8A852204600F049F803203C
:1011A00084F8A902206803F072F8002001260EE0FE
:1011B00000EB800104EBC10181F8296001F8280FE0
:1011C000C881CD700D614D61401CC0B28D616168F8
:1011D0008142EDD8002011E000EB800104EBC10159
:1011E00081F8695181F8680181F86B51C1F8785133
:1011F000C1F87C51401CC0B2C1F880516168814285
:10120000EAD8142204F110016846FFF703F894E8C5
:101210000F0003F033F884F8245084F8A962E069E1
:10122000012802D12046FFF7A7FB0020B0E700000D
:1012300010B596B0044654216846FFF704F81049EB
:10124000206888421AD14014009000200F90684610
:1012500000F0F6F808B1FFF740F80A48816D41F454
:1012600000018165806D002200F400001590114698
:101270001420FFF74FFB1420FFF73EFB16B010BD04
:10128000005C00400010024070B5044680680125F3
:10129000022801D0FFF721F82946D4F8F00202F025
:1012A0008DFAD4F8F002BDE8704002F040BA0000B8
:1012B00010B50446806930B10648016821F0060186
:1012C000016001F0DDFFD4F8F002BDE8104002F04B
:1012D0005BBA000010ED00E0D0F8F00202F05EBA58
:1012E00010B5044690F8A80201280BD0012084F81C
:1012F000A80284F82410206803F08FFA002084F8F4
:10130000A80210BD022010BDD0F8F02200F52C710B
:10131000104602F05FBA10B5044690F8A802012802
:101320000CD0012084F8A802206803F050FA20684D
:1013300002F09DFF002084F8A80210BD022010BD1D
:1013400010B50446D0F8F00202F086FAA069002831
:1013500004D00348016841F00601016010BD00009F
:1013600010ED00E02B492C4B0A6832214A432B49EF
:1013700040B1B0F5007F086829D020F4C06040F487
:1013800080602CE00868C0F34120022804D051F8A6
:10139000800F20F4807022E0D1F8800020F480706B
:1013A000C1F88000086820F4C06040F40070086054
:1013B000B2FBF3F0401C00E0401E4A69520501D523
:1013C0000028F9D1486940050AD503207047C0F3C9
:1013D0004120022806D051F8800F40F48070086048
:1013E00000207047D1F8800040F48070C1F8800080
:1013F000086820F4C06040F400700860B2FBF3F0AD
:10140000401C00E0401E4A695205DBD50028F9D196
:10141000D8E70000A400002040420F000070004008
:101420000248816841F4804181607047007000404B
:101430000248016841F4807101607047007000400B
:101440002DE9F843044600680026BB4D00035ED535
:10145000A86D0027C00008D4A86D40F08050A86592
:10146000A86D012700F080500090DFF8D092D9F8E5
:10147000001041F48071C9F80010FFF7E5F98046CB
:1014800006E000BFFFF7E0F9A0EB080002282BD828
:10149000D9F80000C005F5D5D5F8900010F44070DB
:1014A00014D0216D814211D0D5F89000D5F890105C
:1014B00020F4407041F48031C5F89010D5F89010B8
:1014C00021F48031C5F89010C5F89000C00711D004
:1014D000FFF7BAF9804641F2883907E0FFF7B4F91F
:1014E000A0EB0801494501D903260BE0D5F890008F
:1014F0008007F3D5D5F89000216D20F440700843A3
:10150000C5F890001FB1A86D20F08050A865207824
:10151000C00707D0D5F88800616820F003000843B1
:10152000C5F888002078800707D5D5F88800A1681D
:1015300020F00C000843C5F888002078400707D544
:10154000D5F88800E16820F030000843C5F888002D
:101550002078000707D5D5F88800216920F0C00061
:101560000843C5F888002078C00607D5D5F888005C
:10157000616920F440700843C5F88800207880062F
:1015800007D5D5F88800A16920F440600843C5F864
:1015900088002078400607D5D5F88800E16920F456
:1015A00040500843C5F888002078000607D5D5F8D4
:1015B0008800216A20F440400843C5F8880020884C
:1015C000C00507D5D5F88800616A20F4403008438B
:1015D000C5F888002068800307D5D5F89C00A16A6B
:1015E00020F003000843C5F89C002088800507D53B
:1015F000D5F88800E16A20F440200843C5F8880047
:10160000208840050FD5D5F88800216B20F44010C4
:101610000843C5F88800206BB0F5801F03D1E86847
:1016200040F48010E860208800050FD5D5F88800C8
:10163000616B20F440000843C5F88800606BB0F58A
:10164000800F03D1E86840F48010E8602088C0046F
:101650000FD5D5F88800A16B20F040700843C5F87D
:101660008800A06BB0F1807F03D1E86840F480105F
:10167000E86020884FF0006180040ED5D5F888001E
:10168000E26B20F040601043C5F88800E06B8842B0
:1016900003D1E86840F48010E860208840040ED54B
:1016A000D5F88800226C20F040601043C5F888000F
:1016B000206C884203D1E86840F48010E8602088FC
:1016C00000040FD5D5F88800616C20F04050084325
:1016D000C5F88800606CB0F1805F03D1E86840F421
:1016E0008030E8602068C0030FD5D5F88800A16C71
:1016F00020F040400843C5F88800A06CB0F1804F4E
:1017000003D1E86840F48030E860206840030FD5DA
:10171000D5F89C00E16C20F440100843C5F89C000B
:10172000E06CB0F5001F03D1E86840F48010E86079
:101730003046BDE8F8830000001002400070004011
:101740002DE9F0470E4605004FF0000725D0DFF8E1
:10175000AC81D8F8000000F00F00B0420CD2D8F8ED
:10176000001021F00F013143C8F80010D8F8000034
:1017700000F00F00B04210D12968614CC80741F257
:10178000883A5AD06868DFF87C91032808D002288C
:1017900020682DD0400500282CDB0120BDE8F08713
:1017A00020688001F9D5E06800F00302E068C0F32A
:1017B0000310401C032A19D0534A00BFB2FBF0F0BB
:1017C000E268C2F306225043E268C2F34162521C4F
:1017D0005200B0FBF2F0484517D9A06810F0F00FA6
:1017E0000CD0880711D5A86840B10EE0474AE5E75C
:1017F0008003D0E700F092F8484506D9A06820F0B1
:10180000F00040F08000A0608027A068696820F0A8
:1018100003000843A060FFF717F8814606E000BF09
:10182000FFF712F8A0EB090151453AD8A0686968A2
:1018300000F00C00B0EB810FF2D12868810714D5BD
:10184000400703D5A06840F4E060A0602878000756
:1018500005D5A06820F4605040F4E060A060A06866
:10186000A96820F0F000084304E0802F03D1A068AD
:1018700020F0F000A060D8F80010404601F00F0101
:10188000B14216D9016821F00F0131430160FEF722
:10189000DBFF074607E000BFFEF7D6FFC11B51453F
:1018A00001D903207AE7D8F8000000F00F00B04219
:1018B000F2D12878400705D5A068E96820F4E060F7
:1018C0000843A0602878000706D5A068296920F49D
:1018D000605040EAC100A06000F020F8A1680C4A06
:1018E000C1F30311515C01F01F01C84009490860B0
:1018F00009480068BDE8F047FEF7C4BF0020024079
:101900000010024000B4C4040024F40000127A0065
:10191000984A0008A400002078000020184910B55B
:101920008868C0F381021748012A0BD08A684310E7
:10193000C2F38102022A06D08A68C2F38102032A16
:1019400003D0002010BD184610BDCA6802F0030481
:10195000CA68C2F30312521C032C02D0B0FBF2F08F
:1019600001E0B3FBF2F0CA68C968C2F30622504333
:10197000C1F34161491C4900B0FBF1F010BD00000A
:10198000001002400024F4002DE9F84304007AD04E
:101990002078FA4DC00747D0A868E96800F00C002D
:1019A00001F003010C2802D0082817D001E0032918
:1019B00014D06068B0F5803F17D0B0F5A02F28682C
:1019C00017D020F480302860286820F48020286018
:1019D0006068E0B1FEF738FF064614E0286880032F
:1019E00022D560680028D2D01EE0286840F48030FC
:1019F000EDE740F480202860F7E700BFFEF724FF02
:101A0000801B642870D828688003F7D50CE0FEF7A7
:101A10001BFF064605E000BFFEF716FF801B64288B
:101A2000F0D828688003F7D4207880074CD5A868C0
:101A3000E96800F00C0001F003010C2802D0042832
:101A40000DD001E002290AD0E068002828682BD0D8
:101A500040F480702860FEF7F7FE064619E028681B
:101A6000400502D5E068002891D06868217C20F00C
:101A7000FE4040EA01606860C1480068FEF702FF6E
:101A8000002800D120E076E1FEF7DEFE801B022870
:101A9000B8D828684005F7D56868217C20F0FE405A
:101AA00040EA016068600FE020F480702860FEF773
:101AB000CBFE064605E000BFFEF7C6FE801B0228EF
:101AC000A0D828684005F7D42078000729D5606998
:101AD0000028D5F8940013D040F00100C5F8940018
:101AE000FEF7B2FE064606E090E000BFFEF7ACFE51
:101AF000801B022886D8D5F894008007F6D510E020
:101B000020F00100C5F89400FEF79EFE064604E0B2
:101B1000FEF79AFE801B022878D8D5F8940080073B
:101B2000F6D42078400761D5A86D0026C00008D4FF
:101B3000A86D40F08050A865A86D012600F0805087
:101B4000009090480168C90511D40168804641F4AD
:101B500080710160FEF778FE074604E0FEF774FE30
:101B6000C01B022852D8D8F80000C005F6D5A068DE
:101B7000012815D00528D5F8900016D020F00100D6
:101B8000C5F89000D5F8900020F00400C5F890004A
:101B9000A06841F28838B8B1FEF756FE07460EE05D
:101BA000D5F8900040F00100F0E740F00400C5F8DF
:101BB0009000F5E7FEF748FEC11B414526D8D5F851
:101BC00090008007F6D50CE0FEF73EFE074604E0E5
:101BD000FEF73AFEC11B414518D8D5F890008007A2
:101BE000F6D41EB1A86D20F08050A865207880063C
:101BF00029D5A0690028D5F8980013D040F001003D
:101C0000C5F89800FEF720FE064606E077E000BF24
:101C1000FEF71AFE801B022877D8D5F898008007B7
:101C2000F6D510E020F00100C5F89800FEF70CFE94
:101C3000064604E0FEF708FE801B022865D8D5F8AA
:101C400098008007F6D4E069F0B3A968C1F3810178
:101C5000032961D00228286820F0807028600BD00A
:101C6000E86820F00300E860E86847490840E86059
:101C7000FEF7EAFD04464BE0FEF7E6FD064604E00B
:101C8000FEF7E2FD801B02283FD828688001F7D4C8
:101C9000F4E908016FF00F0202EB01110843218AF9
:101CA0005204490802EB4151A26841EA022108436B
:101CB000217D4FF07E42490802EB41610843217BC0
:101CC00040EAC160E96800E062E0304A1140084340
:101CD000E860286840F080702860E86840F0807014
:101CE000E860FEF7B1FD044605E000BFFEF7ACFD7D
:101CF000001B022809D828688001F7D548E004E0D5
:101D0000FEF7A2FD001B022802D90320BDE8F883DC
:101D100028688001F4D43BE00128F7D0E868226A03
:101D200000F00301914226D1616A00F0F00209013E
:101D3000103991421FD1A26A00F4FE41B1EB022F8B
:101D400019D194F82C2000F07841B1EBC26F12D178
:101D5000218E00F4C00249084905A1F50011914205
:101D600009D194F8341000F0C06049084906A1F187
:101D7000007181420CD00120C8E700000010024031
:101D80007800002000700040FFFFEEFE0C809F01F5
:101D90000020BBE710B500680B4641680D480140C4
:101DA000080CD870C1F304245C7001F03F049C70EF
:101DB000C1F34231197052B900F052FDD870587811
:101DC00000F04EFD5870987800F04AFD98700020A1
:101DD00010BD00003FFFFF0010B50B460168896889
:101DE000596001680969C1F30E01996000680168D2
:101DF0000D480140C1F305401870C1F306245C7022
:101E000001F07F049C70890DD97052B900F028FD53
:101E10001870587800F024FD5870987800F020FD74
:101E20009870002010BD00007F7F7F0070B5040017
:101E30004FF0010040D094F8250028B9002084F824
:101E40002400204600F03CF8022084F82500216898
:101E5000CA204862216853204862204600F016FDDF
:101E600010BB20688169154A114081612168886929
:101E70006268A369104322691A431043886121896B
:101E8000E06840EA014021680861204600F023FD37
:101E900050B9D4E90721114322686369956925F097
:101EA00060452B43194391612268FF21516200284C
:101EB00002D1012184F8251070BD0000BFFF8FFB07
:101EC00010B596B0044654216846FEF7BCF9104997
:101ED0002068884219D14FF400200090C01214905D
:101EE0006846FFF7ADFA08B1FEF7F7F9094850F870
:101EF000901F41F4004140F83819016841F48061B5
:101F00000160006800F48060159016B010BD0000FC
:101F1000002800400010024070B5044690F82400EC
:101F20000B4601281BD0012684F82460022084F887
:101F30002500B2B19878D97840EA014558781978E7
:101F4000000240EA413005432168CA204862216806
:101F500053204862204600F099FCD0B120E00220D6
:101F600070BD5878C10603D500F0EF000A305870F4
:101F7000D87800F07EFC0504587800F07AFC45EA39
:101F80000025987800F075FC0543187845EA40353F
:101F9000DAE70848054020684560204600F09BFCD1
:101FA0002268FF21516208B984F82560002184F875
:101FB000241070BD3FFFFF002DE9F041044690F86A
:101FC000240090460D46012811D0012784F8247082
:101FD000022084F825002168CA2048622168532025
:101FE0004862204600F052FC002618B129E0022089
:101FF000BDE8F0812068B8F1000F80694FEA4060C9
:1020000024D0002800DBEE70A8782978EA7840EA2E
:1020100001406978090241EA8251084318490840A1
:10202000216808602068816921F480218161D5E9F7
:102030000301084321688A6910438861204600F043
:102040004AFC2268FF215162A0B115E0002800DBA4
:10205000EE70287800F00DFC0304687800F009FCAD
:1020600043EA0023A87800F004FC0343E87843EA3D
:102070008050D3E784F8257084F82460B8E7000026
:102080007F7F7F0070B504460068C16821F02001A1
:10209000C160FEF7D9FB05464FF47A7607E000BF32
:1020A000FEF7D2FB401BB04201D9032070BD20686F
:1020B000C0688006F4D5002070BD10B5401EB0F198
:1020C000807F01D3012010BD4FF0E02460610F211B
:1020D000601702F0BDFB0020A061072020610020F6
:1020E00010BDFEE7F0B500230A24302537261F4631
:1020F00011E000BFB4EB107F02D905EB107C01E0CA
:1021000006EB107C01F813C001EB430C00015B1CD3
:102110008CF80170DBB29342ECD3F0BD70B5D0F80F
:10212000BC420546002C1CD094F81C0840B9D4F8D9
:10213000180828B1607A18B90121284601F07AFB05
:102140008121284601F076FB607A022809D181219D
:10215000284601F06FFB2846BDE87040012101F0E0
:1021600069BB70BD70B5D0F8BC420546002C5FD08D
:10217000D4F81408C4F83408D4F81808C4F8380897
:102180000121284601F06FFA1F280DD12949D4F802
:102190001008884208D194F81D18012904D894F831
:1021A0001E0808B1102809D994F81D18202305220B
:1021B000284600F009FF0220607209E004F61F02C1
:1021C000284600F0FDFB0028207A08DA052804D014
:1021D0002846BDE87040FFF7A1BF012123E0022897
:1021E00026D0012824D0032822D0E668D6B1D5F81D
:1021F000BC12284604F11002D1F81838B34200D3BB
:102200003346002914D0D1F83848A41BC1F8384807
:10221000002481F83C4804240C72BDE87040812100
:1022200001F023BB00212846BDE8704000F0AAB8A9
:1022300070BD00005553424310B5D0F8BC2204468F
:10224000002A16D0507A022809D0090611D5012893
:102250000FD02046BDE81040012100F093B8812145
:10226000204601F0E7FA2046BDE81040012101F0C8
:10227000E1BA10BD10B5D0F8BC220446002A17D030
:10228000107A022805D0032801D0042810D100219B
:1022900009E092F81D18204602F61F0200F090FB9C
:1022A000002805DA01212046BDE8104000F06AB898
:1022B00010BD10B5D0F8BC220446002A17D0107A01
:1022C00080B1012813D192F81D18204602F61F0292
:1022D00000F076FB00280ADA2046BDE81040012114
:1022E00000F050B82046BDE81040FFF73BBF10BDDE
:1022F000D0F8BC02002801D000210172704770B5EF
:10230000D0F8BC420546002C1ED00021217261721B
:1023100084F8611884F8601884F86218D5F8C0024F
:102320000168002088470121284601F093F98121A6
:10233000284601F08FF904F501622846BDE8704097
:102340001F23012101F0EAB970BD70B5D0F8BC427D
:102350000546002C14D000202072012060728121DB
:10236000284601F0DBF80121284601F0D7F804F5F2
:1023700001622846BDE870401F23012101F0CEB95B
:1023800070BD000070B5D0F8BC420546002C16D0D8
:102390000B48C4F8300884F83C18002020720D2344
:1023A00004F503628121284601F05FFA04F5016219
:1023B0002846BDE870401F23012101F0AFB970BD70
:1023C000555342530D4808B5C16C41F00401C16436
:1023D000C16C01F004010091C16C41F02001C164A5
:1023E000C16C01F020010091C16C41F00101C16498
:1023F000C06C00F00100009008BD00000010024019
:1024000010B586B014216846FDF71DFF1E48002454
:102410001C490594C0E900147F218160FF21C0E9B7
:1024200003144FF080414461C0E906410462FFF7A4
:10243000FDFC08B1FDF751FF8DF800408DF801401B
:102440008DF8024001940394012269460E480494D9
:10245000FFF7B2FD08B1FDF740FF01208DF8140031
:102460008DF815008DF8160002468DF8174005A965
:102470000548FFF751FD002801D0FDF72EFF06B0FB
:1024800010BD0000002800409001002010B500227F
:102490000F49104801F02FF808B1FDF71EFF0E4953
:1024A0000C4801F055FB08B1FDF717FF0B4909482F
:1024B00001F0AAFA08B1FDF710FF064801F0C2FBCF
:1024C000002803D0BDE81040FDF707BF10BD000095
:1024D00004000020240D0020AC0000205800002043
:1024E000FEE7FEE72DE9F84F044640F68F7A40F20A
:1024F000064B48F60F784FF00009A7E1B0F84410FA
:1025000011F00F0539D030F8256031047ED530F850
:10251000251001EA0A0141F0800120F8251005EBA1
:10252000850004EBC00797F8740107F5B47700281D
:102530006DD0F87802286BD03A78216831F8220003
:1025400048F68F73184048F2C003184321F8220060
:102550003978206830F821205204B0F8502002EB7E
:1025600000037DD540F2024202EBC101595A8905B0
:10257000890D009175D03A89C7E0C9062CD401882D
:1025800001EA080141F400410180206804F12805B6
:10259000B0F850102A78014440F2024000EBC2002B
:1025A000085AC0F309006064E16B0144E163002153
:1025B0002046FEF733FA94F8240000289DD0A8693D
:1025C00000289AD194F8240040F080012068A0F8F7
:1025D0004C1084F8249039E1018804F5B4750A059B
:1025E0001ED5B0F850102A7801440BEBC200085AEF
:1025F00004F52C71C0F30903EB61EA88206802F04E
:10260000F8F82168088800EA0A0002E098E05FE034
:102610006CE040F0800008802046FEF775FE15E172
:102620000904D8D5018801EA0A0141F0800101803E
:102630002068B0F850102A7801440BEBC200085A09
:1026400083059B0DEB6110D0696971B1EA88206840
:1026500002F0CFF8E969686908440021686101E087
:102660004BE049E02046FEF7E2F9206801880905C1
:10267000B1D4B0F850100844296900F206403E2950
:1026800008D94A09C90600D1521E4FF4004141EA57
:10269000822108E0A1B14A08C90700D0521C4FF6B8
:1026A000FF7101EA82210180216808884BF68F7250
:1026B000104080F4405048F2800210430880C5E08A
:1026C000018821F4F8410180018841F40041EAE7E2
:1026D0002068B0F850103B780A180BEBC301515A30
:1026E0008905890D009114D0FA880EE032463946EA
:1026F0002046FEF7FAF900900BE00BEBC101595AA6
:102700008905890D009104D07A897969009B02F0CE
:1027100070F8F96900980844F861796900980844EC
:102720007861B86918B139690098814204D939785B
:102730002046FEF77CF903E03946206801F004FEEC
:10274000300677D505EB850004EBC001206830F832
:10275000252002EA080242F4004220F8252091F8E0
:102760002B002831022848D0C1F81890087B4A462F
:1027700008B3700620D5487810B1012812D03AE08D
:102780002068B0F8502010440A7800EBC200B0F87E
:10279000022422F4F842A0F80224B0F8022442F401
:1027A000004206E02068B0F8503018440B7800EB87
:1027B000C300A0F802241EE04B78206813B1012B5F
:1027C00011D018E0B0F8502010440A7800EBC20095
:1027D000B0F8062422F4F842A0F80624B0F8062443
:1027E00042F4004205E0B0F8503018440B7800EB9A
:1027F000C300A0F80624097820E0F00522D4206860
:10280000B0F850200B78104440F2024202EBC302B1
:10281000805A8A69C0F3090082420CD9121A8A616F
:102820000BD04A6902444A61CA691044C8612068F1
:1028300001F08AFD0AE0C1F81890D9B22046FEF7EF
:10284000EDF803E032462046FEF7BDF92068B0F807
:10285000441009043FF552AE0020BDE8F88F7047E0
:10286000010901EB810100F00F0000EB4100C0B253
:1028700070470022014602E00A39C9B2521C0A29F7
:10288000FAD2100741EA1060704700002DE9F041CC
:10289000044600680025C168490619D4C16841F0A2
:1028A0008001C160FDF7D0FF06464FF47A78032718
:1028B00008E000BFFDF7C8FF801B404502D9032593
:1028C00084F825702068C068400601D4032DF1D13A
:1028D0002846BDE8F08170B5044600680025C1684F
:1028E00021F08001C160206881694FF003068906EC
:1028F00007D42046FFF7C6FB98B184F8256003256E
:102900000FE0816921F0200181612046FFF7BAFBC9
:1029100010B184F8256003252068816941F0200109
:102920008161284670BD30B5D0F8BC424FF0FF350C
:1029300044B11A44D4F868389A4205D921230522B3
:1029400000F042FB284630BD002030BD70B5044683
:10295000D0F8BC0213464FF0FF3580B1D0F81828EC
:102960007AB15A78D20716D0997871B180290FD0F0
:1029700090F81D1824230522204600F025FB284648
:1029800070BD90F81D182023F5E706220A490FE0D4
:1029900008220A490CE0D4F8C02201EBC1011B79DE
:1029A000D26902EB81010A79521D934200D81A467E
:1029B00000F05BFB002070BD4E01002054010020A0
:1029C0002DE9F041D0F8BC524FF0FF3655B31378E3
:1029D00002270024252B70D00FDC1A2B53D005DCE6
:1029E0000BB3032B23D0122B17D124E01B2B26D0A3
:1029F0001E2B3FD0232B10D15BE05A2B4ED006DC90
:102A0000282B62D02A2B68D02F2B06D16DE09E2B6D
:102A100057D0A82B5DD0AA2B63D02023052200F02D
:102A2000D3FA6F7220E0BDE8F04100F0EFBABDE8E4
:102A3000F04100F089BABDE8F041FFF787BF95F893
:102A40006238012B04D1137903F00303022B4FD01A
:102A5000107900F00301012912D0022907D0C043E8
:102A600080070DD0EC6017E03046BDE8F08185F8B6
:102A70006278F7E7107918B1012085F86208F1E76C
:102A800085F86248EEE7127917212846172A00D800
:102A900011460A461E4909E02046E6E7127A1B2144
:102AA00028461B2A00D811460A461A4900F0DDFACA
:102AB000F2E7BDE8F04100F008BABDE8F04100F0EF
:102AC0007CB9BDE8F04100F0AFB9BDE8F04100F0DD
:102AD000C3B8BDE8F04100F015B9BDE8F04100F021
:102AE000D4BABDE8F04100F034BB5278920704D567
:102AF0002423052200F068FAB6E705F66C020CCA3A
:102B0000FFF711FF0028AFDB2046EC60ADE70000C7
:102B10005C010020730100202DE9F047D0F8BC4291
:102B200006468846B4F86408D4F870584FF0FF376A
:102B30004543D4B14FF400618D4200D30D46B5FB3F
:102B4000F0F083B2D6F8C00204F11001D4F86C287A
:102B5000D0F810C089464046E047002808DA112323
:102B600004224146304600F02FFA3846BDE8F0878F
:102B70002B464A468121304600F077FEB4F86408BF
:102B8000D4F86C28B5FBF0F1B5FBF0F01144C4F8B3
:102B90006C18D4F87018081AC4F87008D4F83818EB
:102BA000A1EB0501C4F8381801D1032020720020E0
:102BB000DCE72DE9F047D0F8BC4206468946B4F878
:102BC0006408D4F870584FF0FF384543D4B14FF43F
:102BD0000067BD4200D33D46B5FBF0F083B2D6F8A6
:102BE000C00204F11001D4F86C28D0F814C08A4651
:102BF0004846E047002808DA0323042249463046C5
:102C000000F0E2F94046BDE8F087B4F86408D4F873
:102C10006C28B5FBF0F11144C4F86C18B5FBF0F169
:102C2000D4F87028531AC4F87038D4F83818A1EBC7
:102C30000501C4F838180AD04343BB4200D33B46D1
:102C400052460121304600F069FD0020DBE70021FB
:102C50003046FFF797FBF8E72DE9F041D0F8BC428A
:102C60001546064688464FF0FF3774B3207A78BB86
:102C700094F81C08000635D594F86208022809D09B
:102C8000D6F8C00281684046884748B13A230222FC
:102C9000414601E03A230222304600F095F914E063
:102CA0006888297940BA000440EA012268794146DF
:102CB0000243C4F86C28B5F8070043BA3046C4F89C
:102CC0007038FFF730FE002803DA3846BDE8F0819F
:102CD0000FE0B4F86418D4F870084843D4F8181812
:102CE000884204D0202394F81D180522D4E702203E
:102CF00020724FF40060E06041463046BDE8F0418C
:102D0000FFF70ABF2DE9F041D0F8BC421546064650
:102D100088464FF0FF379CB3207AA0BB94F81C087C
:102D200000063AD594F86208022809D0D6F8C00205
:102D300081684046884748B13A230222414601E073
:102D40003A230222304600F03FF919E068882979D9
:102D500040BA000440EA012268790243C4F86C28B2
:102D6000E888297A40BA000440EA0123687A41469B
:102D700003433046C4F87038FFF7D5FD002803DA66
:102D80003846BDE8F0810FE0B4F86418D4F8700854
:102D90004843D4F81818884204D0202394F81D180A
:102DA0000522CFE7022020724FF40060E060414628
:102DB0003046BDE8F041FFF7AFBE2DE9F041D0F855
:102DC000BC420F4605464FF0FF364CB1D5F8C00265
:102DD00004F66402111D436838469847E8B902E0DA
:102DE0003046BDE8F08194F86208022815D0D4F886
:102DF0006808401E010E2174010C6174010AA1745F
:102E0000E074002020756075B4F86408010AA175AB
:102E1000E0750820E0600020E3E73A23022239460B
:102E2000284600F0D1F8DBE72DE9F041D0F8BC42AC
:102E30001546884606464FF0FF374CB1D6F8C0021B
:102E400004F66402111D43684046984798B902E0B1
:102E50003846BDE8F08194F8620802280BD06889F2
:102E6000297B40BA000440EA0120697B0843E06006
:102E7000002001460AE03A2302224146304600F093
:102E8000A3F8E5E72218401C1174C0B2E268824240
:102E9000F8D8D4F86808401E020E2275020C62753C
:102EA000020AA275E07521766176B4F86408010A19
:102EB000A176E0766889297B40BA000440EA0120C7
:102EC000697B0843E0600020C3E72DE9FC41D0F8AE
:102ED000BC420F4605464FF0FF3644B1D5F8C0025C
:102EE0006A4601A943683846984730BB02E030463D
:102EF000BDE8FC8194F8620802281ED0002001463B
:102F00002218401C80B211740C28F9D30820E074F8
:102F10000198401E020E2275020C6275020AA2750B
:102F2000E075022020766176BDF80000010AA176E6
:102F3000E0760C20E0600020DAE73A2302223946EE
:102F4000284600F041F8D2E730B5D0F8BC124FF077
:102F5000FF3431B3D1F818382BB3002004460B18D6
:102F6000401CC0B21C741228F9D3702008740C20C5
:102F7000C87591F8600891F8613898421CD001EB4F
:102F8000C003401C93F840588D7493F844580D7753
:102F900093F84538C0B24B7781F86008042809D00F
:102FA0000AE0204630BD91F81D182023052200F0CC
:102FB0000BF8F6E781F860481220C86010791228F3
:102FC00000D8C860002030BDD0F8BC0200281CD05A
:102FD00090F8611800EBC10181F8402890F8611861
:102FE00000EBC10181F8443890F86128002100EB22
:102FF000C20282F8451890F86128521CD2B280F8BB
:103000006128042A01D180F8611870472DE9F04148
:10301000D0F8BC42884605464FF0FF37E4B1D4F8FB
:10302000180838B194F81D18202305222846FFF708
:10303000CBFF11E094F86208052602280FD0D5F8DE
:10304000C00281684046884760B13A230222414667
:103050002846FFF7B9FF26723846BDE8F0813A23CB
:103060000222F5E70020E060F7E710B508B1C26082
:1030700007E04FF0FF3010BD521E92B284188B5CF7
:103080002374002AF8D1002010BD2DE9F041D0F8BA
:10309000BC421546064688464FF0FF37C4B3207A37
:1030A00020B13046BDE8F041FFF783BDD4F81808E1
:1030B00088B394F81C08000637D4D6F8C00281689B
:1030C0004046884728B13A230AE03046FFF77CFFA4
:1030D0001EE0D6F8C002C1684046884718B12723D1
:1030E00002224146F1E76888297940BA000440EAA3
:1030F0000122687941460243C4F86C28B5F80700FC
:1031000043BA3046C4F87038FFF70DFC002803DAE4
:103110003846BDE8F08108E0B4F86408D4F87038A7
:103120004343D4F81808984204D0202394F81D187B
:103130000522CAE74FF40060834200D30346012012
:103140002072014604F11002304600F0E7FA002038
:10315000DFE72DE9F047D0F8BC4215460646894620
:103160004FF0FF385CB3207A20B13046BDE8F0471D
:10317000FFF71FBDD4F8180818B194F81C08000612
:1031800007D594F81D18202305223046FFF71CFFB1
:1031900030E0D6F8C002816848468847052708B164
:1031A0003A2306E0D6F8C002C1684846884738B1DD
:1031B0002723022249463046FFF706FF277219E00F
:1031C0006888297940BA000440EA012268790243FC
:1031D000C4F86C28E888297A40BA000440EA012340
:1031E000687A494603433046C4F87038FFF79BFBC2
:1031F000002802DA4046BDE8F087B4F86408D4F845
:1032000070384343D4F818089842BAD14FF400609C
:10321000834200D3034601202072014604F11002CC
:10322000304600F07BFA0020E5E710200860C0017E
:103230001080002070470020704710B501F08BFB14
:10324000002010BD0020704700207047084610B5D0
:10325000D1024FF4006201F083FB002010BD08464C
:1032600010B5D1024FF4006201F08EFB002010BDBA
:1032700070470178407841EA00207047FDF7EABACC
:1032800010B594B038216846FCF7DDFF14210EA874
:10329000FCF7D9FF0020FEF765F8FEF7C9F81748DC
:1032A00050F8901F21F018010160252000904FF484
:1032B0008030019001200290069002200324CDE985
:1032C00007045521CDE909010B900C900D9068463B
:1032D000FEF75AFB08B172B6FEE70F20CDE90E04E7
:1032E000002010901190129004210EA8FEF728FAE9
:1032F000002801D072B6FEE714B010BD00100240E5
:103300000248016841F470010160704788ED00E0F7
:1033100010B5D0F8B8220AB152689047002010BD0D
:10332000134610B50A46002100F0F8F9002010BD40
:10333000134610B50A46002100F097FA002010BD90
:1033400010B50446802100F075FA2046BDE8104013
:10335000002100F06FBA10B50521C0F894120023C7
:103360001A46194600F0DAF9002010BD10B5022304
:10337000C0F8943282611346C2610A46002100F00F
:1033800074FA002010BD10B50421C0F89412002377
:103390001A46194600F069FA002010BDF8B5044637
:1033A0000020ADF8000048880D46010A062947D0E4
:1033B00006DC01290FD0022912D0032962D11DE0B9
:1033C000072946D00F295DD1D4F8B402C26920E0A4
:1033D000694690473BE0D4F8B412207C0A68F7E7CE
:1033E000207C02260028D4F8B80205D0C16A6846BD
:1033F00088470146467036E0816AF8E7C0B2062881
:1034000040D2DFE800F003090D111519D4F8B40219
:103410004268B2B3207CDBE7D4F8B4028268F8E7F4
:10342000D4F8B402C268F4E7D4F8B4020269F0E751
:10343000D4F8B4024269ECE7D4F8B4028269E8E750
:10344000207CF0B9D4F8B802416B68468847014641
:1034500009E0207CA8B9D4F8B802016B6846884717
:10346000014607204870EA888AB1BDF8000040B1E3
:10347000824200D90246ADF800202046FFF776FFD1
:10348000F8BDFFE729462046FFF75AFFF8E7204638
:10349000FFF779FFF4E770B5002300281ED0002560
:1034A000044602E06D1CEDB2641C2678002EF9D1B2
:1034B000022404EB450414801278CA545B1C0322D6
:1034C000CA5400245B1C06E0CA545B1CDAB28C545C
:1034D000521CD3B2401C0278002AF5D170BD010005
:1034E0004FF0000004D0012901D0022901D00320AF
:1034F00070470120704778B10023C0F8B832C0F897
:10350000C032C0F8CC3209B1C0F8B412012180F841
:103510009C12027000F0ACB80320704710B5D0F8D0
:10352000C402FDF7B4FABDE81040FFF7D8BF10B5EC
:10353000D0F8C402FDF785FABDE81040FFF7CFBF11
:1035400070B51646044621B194F89C02032841D078
:1035500048E0D4F8941204F114000025022932D175
:10356000D0E902318B4206D95A1A82603146204690
:10357000FFF7DEFE0FE0994214D14068884211D374
:10358000D4F8981288420DD2002211462046FFF747
:10359000CFFEC4F8985200231A461946204600F080
:1035A000BDF810E094F89C02032805D1D4F8B802C5
:1035B000C16809B1204688478021204600F03AF9C9
:1035C0002046FFF7C8FE94F8A00201280AD184F82B
:1035D000A05207E0D4F8B80242691AB120469047D9
:1035E000002800D1002070BD10B51346044621B15B
:1035F00094F89C02032823D02AE0D4F8941204F50E
:10360000AA70032924D1D0E9021291420AD98A1A58
:103610008260C068824200D3024619462046FFF706
:103620007FFE15E094F89C02032805D1D4F8B80277
:10363000016909B1204688472046FFF7A4FE07E04C
:10364000D4F8B80282691AB120469047002800D108
:10365000002010BD10B5D0F8C402FDF74CFCBDE849
:103660001040FFF73CBFD0F8C402FDF746BC000095
:1036700010B51A490446C1F8F002C0F8C41218483F
:1036800008600820486002208860086100204861C6
:103690008861C86108620846FDF770FD08B1FCF753
:1036A0001CFE0022D4F8C4021823114604F531741C
:1036B000FDF796F95823002280212068FDF790F944
:1036C0009823002281212068FDF78AF9D82300225F
:1036D00001212068FDF784F9002010BD300A002088
:1036E000005C00400A0601F07F01D0F8C40201EB43
:1036F000810100EBC10002D590F82A00704790F8D4
:103700006A01704710B51C461346D0F8C402224621
:10371000FDF7FCFBBDE81040FFF7E1BE10B5D0F8A7
:10372000C402FDF723FCBDE81040FFF7D8BE70B51A
:103730000125044680F89C520020C4F89402606081
:10374000C4F8A402D4F8B802E0B1D4F8BC1221B194
:10375000426812B1002120469047002240231146C2
:103760002046FFF7CFFF4026A4F8645133460022DD
:1037700080212046C4F86061FFF7C4FFA5840020C3
:10378000266270BD032070BD90F89C12042903D1FD
:1037900090F89D1280F89C120020704710B5D0F868
:1037A000B81221B190F89C22032A02D004E0032031
:1037B00010BDC96901B18847002010BD0174002007
:1037C000704710B5D0F8C402FDF78AFDBDE810407F
:1037D000FFF785BE70B5044600F2AA20054600F04A
:1037E000A1F90120C4F89402B4F8B002C4F8980218
:1037F00094F8AA0210F01F010AD001290ED0022964
:1038000012D000F080012046BDE8704000F012B8F0
:1038100029462046BDE8704000F016BA29462046E9
:10382000BDE8704000F03ABB29462046BDE8704034
:1038300000F094BA10B5D0F8C402FDF7B0FBBDE8B3
:103840001040FFF74CBE10B5D0F8C402FDF763FD81
:10385000BDE81040FFF743BE90F89C1280F89D121F
:10386000042180F89C120020704710B5D0F8C402E3
:10387000FDF7C5FBBDE81040FFF731BE10B50A46A5
:10388000024903A0FFF707FE004810BDF40F002017
:103890004D534320436F6E666967000010B5FEF715
:1038A000E9FC002010BD10B5FEF703FD002010BD9F
:1038B00070B504460121FFF73AFE0025A4F87851BF
:1038C00081212046FFF733FE2587D4F8BC0240B1A2
:1038D0002046FEF70DFDD4F8BC0200F008FBC4F84A
:1038E000BC52002070BD00001220088000487047C4
:1038F000280000200A210180004870474401002070
:10390000202101800048704704010020202101800F
:1039100000487047E40000202021018000487047E3
:103920002401002070B5044640F6740000F0E0FA6F
:10393000C0B1C4F8BC02207C0125C0B140230222E2
:1039400001212046FFF7DEFEA4F878514023022231
:1039500081212046FFF7D6FE25872046FEF7CFFCC3
:10396000002070BD0020C4F8BC02022070BD4FF4DE
:1039700000763346022201212046FFF7C3FEA4F859
:1039800078513346E3E7000010B50A46024903A028
:10399000FFF781FD004810BDF40F00204D53432078
:1039A000496E7465726661636500000004200880DA
:1039B000004870472400002010B50A46024903A0C1
:1039C000FFF769FD004810BDF40F002053544D6906
:1039D00063726F656C656374726F6E696373000008
:1039E00010B50A46024903A0FFF755FD004810BD77
:1039F000F40F002053544D3332204D617373205324
:103A0000746F72616765000019B1C0F8C0120020C0
:103A1000704703207047000010B51A2008800A483C
:103A20000168001D0468001D0068081809D00822FC
:103A30000649FEF757FB0549042210312046FEF7E0
:103A400051FB0248801E10BD9075FF1F3E000020F4
:103A5000F8B50025D0F8BC720C460646ADF800500B
:103A600037B1207810F0600123D0202940D101E047
:103A70000320F8BD6178FE2902D0FF2938D10EE07D
:103A8000618881BBE188012932D1000630D5D6F8A2
:103A9000C002806980470122394638601FE0618892
:103AA00009BBE188F9B9000622D43046FEF74DFC87
:103AB00023E0607830B1012824D00A2809D00B28EF
:103AC00016D111E096F89C02032811D10222694612
:103AD00005E096F89C0203280AD10122391D3046E0
:103AE000FFF744FC09E003E096F89C02032806D0A7
:103AF00021463046FFF724FC03252846F8BDA07870
:103B00007860FAE796F89C020328F6D160880028CE
:103B1000F3D121793046FFF79DFD21793046FEF73C
:103B20008BFBEAE770B5054611F8010B28700878A1
:103B300068704C1C2046FFF79CFB6880A41C204644
:103B4000FFF797FBA880A01CFFF793FBE88070BDF0
:103B500038B504460020ADF8000049B1C4F8B812E9
:103B6000C96A19B168468847C4F8CC02002038BD3C
:103B7000032038BD02460320D2F8B832002B02D011
:103B80001B681046184770472DE9F0410F462C4E30
:103B90008978002504463170012906D93946204626
:103BA000FFF7CEFB0320BDE8F08194F89C020228C9
:103BB0000CD003281DD039462046FFF7C1FB3178D1
:103BC0002046FFF7A5FB03252846ECE799B32046DE
:103BD0006160FFF7CFFF050004D039462046FFF7AC
:103BE000AFFBF1E72046FFF7CEFB032084F89C02F1
:103BF000EAE74FF00208C1B1606888421BD0C1B249
:103C00002046FFF785FB317820466160FFF7B2FF61
:103C1000050010D039462046FFF792FB2179204657
:103C2000FFF776FB84F89C82CEE784F89C822046DE
:103C30006160FFF76DFB2046FFF7A5FBC4E70000BE
:103C4000A8000020FFF7FFBD2DE9F0410A7800250C
:103C500012F0600208D0202A01D0402A71D1D0F899
:103C6000B8229268904731E04B78002201260A2B57
:103C700067D2DFE803F0415E6658660805662D29C5
:103C8000FFF78CFB5FE004468888D8B9C888C8B9BC
:103C90004888802816D200F07F0794F89C020328F9
:103CA00010D084F89E7239462046FFF78AFD2046E0
:103CB000FFF769FB1FB1022084F89C0243E084F8FF
:103CC0009C6240E020463CE0FFF75EFF05463AE09C
:103CD000CB88012B35D190F89C32012B04D0022BDC
:103CE00002D0032B2DD104E08260012200F10801F3
:103CF00016E00122011D13E090F89C22012A03D056
:103D0000022A01D0032A1CD1CA88022A19D1C6600E
:103D1000D0F8A41209B10321C160022200F10C0104
:103D2000FFF724FB0FE0498801290CD1C0F8A462F9
:103D300011E090F89C32012B08D0022B06D0032B07
:103D400004D0FFF7FDFA2846BDE8F0814988012933
:103D5000F9D1C0F8A422FFF716FBF4E72DE9F041F2
:103D60000D46044628780026097910F060000BD033
:103D7000202801D040286DD1D4F8B80229468268A5
:103D800020469047064686E06878A8B3012822D0EE
:103D900003287CD194F89C02022802D0032876D113
:103DA0000BE0002973D0802971D02046FFF742FD37
:103DB00080212046FFF73EFD6DE0688838B931B1BB
:103DC000802904D0E88810B92046FFF733FD20464B
:103DD000FFF7D9FA5FE094F89C020228E1D00328AB
:103DE00055D16888A8BB480602D02046FFF796FB4D
:103DF0002046FFF7C8FABFE7FFE794F89C020027C8
:103E0000022802D0032842D111E009B180293ED115
:103E1000080601F07F0000EB800004EB800101D573
:103E2000143101E001F5AA7102220F602BE00806AF
:103E300001F00F0000EB800004EB80000BD5808CBC
:103E400040B101F07F0000EB800004EB80051435E9
:103E50000CE020E01BE0B0F86401C0B101F07F008D
:103E600000EB800004EB800505F5AA7541B18029BF
:103E700006D02046FFF736FC10B10120286000E094
:103E80002F60022229462046FFF770FA03E02946F8
:103E90002046FFF755FA3046BDE8F08170B506467A
:103EA000087800240D4610F0600003D0202801D0CF
:103EB000402817D196F89C02012803D0022801D08F
:103EC00003280FD1287901280CD8D6F8B8028268C7
:103ED000304690470446E888204306D13046FFF735
:103EE00052FA02E03046FFF72BFA204670BD7047C9
:103EF00000487047B80100202DE9F0470C780026F3
:103F000030F8243048F68F121340CA78002A7DD04A
:103F1000012A7CD0022A02D0032A79D0012648F255
:103F20008002134320F824300D7830F8254048F6FD
:103F30008F731C402C43144320F825400D7B48F21E
:103F4000C00748F6BF744CF2800C4BF68F79E5B38E
:103F5000CD7891F80080022DC24630F828507CD0F0
:103F600048F68F6805EA080555EA020520F82A5048
:103F7000B0F8505091F80080054405EBC805B1F841
:103F8000088028F00108A5F80084B0F8505091F896
:103F90000080054405EBC805B1F80A8028F0010847
:103FA000A5F804844D7891F80080002D30F8285051
:103FB0004FEA45457ED0002D06DA30F828501D40E6
:103FC00045EA0C0520F8285000E030E091F800C0E8
:103FD00030F82C506D0605D530F82C501D403D436F
:103FE00020F82C50CB780D78012B30F8253003EADF
:103FF000040301D083F02003134320F825300B780D
:1040000030F8231001EA0901114302E006E00BE059
:1040100007E020F823103046BDE8F08743F4007332
:104020007DE743F4C0637AE743F4806377E74D7834
:104030004DB3B0F8505091F800C0054405EBCC05E5
:10404000B1F806C02CF0010CA5F800C491F800C02E
:1040500030F82C506D0607D500E05BE030F82C50AE
:104060001D403D4320F82C50CB78012B06D00B7817
:1040700030F82310214081F02001C5E70B7830F89B
:1040800023102140C0E7B0F850400D78044404EB01
:10409000C504CD8825F00105A4F80454B0F85040BB
:1040A0000D78044404EBC5040D6904F206443E2D6A
:1040B0000AD900E034E06F09ED0600D17F1E4FF40D
:1040C000004545EA872508E0E5B16F08ED0700D017
:1040D0007F1C4FF6FF7505EA872525800D7830F89F
:1040E0002540640406D530F825401C4044EA0C0401
:1040F00020F825400B7830F8231001EA090181F4FB
:10410000405181E7258825F4F8452580258845F428
:104110000045E2E71D4048F2801845EA080525E71A
:10412000002D06DA30F828501D4045EA0C0520F82D
:10413000285091F800C030F82C506D0605D530F8A5
:104140002C501D403D4320F82C500D7830F8253080
:1041500003EA090383F44053134320F825308DE725
:104160002DE9F04391F80C804F780A7848F6BF7C2F
:104170004BF68F7948F2800348F2C0054CF2800676
:1041800048F68F74B8F1000F28D0002F30F8227055
:104190004FEA474748D0002F05DA30F82270274011
:1041A000374320F822700A7830F822707F0605D550
:1041B00030F8227027402F4320F822700D7830F815
:1041C00025202240324320F825200C7830F8242086
:1041D00002EA0C021A4320F824201AE07FB130F8DA
:1041E0002260760605D530F8226026402E4320F85E
:1041F00022600A7830F8221001EA0C010EE030F853
:1042000022506D0405D530F822502540354320F862
:1042100022500A7830F8221001EA0901194320F8E7
:1042200022100020BDE8F083002F05DA30F822705C
:104230002740374320F822700A7830F8226076064B
:1042400005D530F8226026402E4320F822600E78F3
:1042500030F8262022402A4320F826200C7830F817
:10426000242002EA09021A4320F82420C1E730F88A
:10427000581F41F40041018000207047012120F8BF
:10428000401F00210180818001820846704730F87C
:10429000401F4BF68072914301800020704730B57B
:1042A0000A7BB2BB4A7848F68F7548F28004C2B1E7
:1042B0000B7830F82320520607D530F823202A4007
:1042C00048F2C0052A4320F82320CA78012A20D0CA
:1042D0000A7830F8221048F6BF73194081F02001A7
:1042E00014E00A7830F822305B0407D530F8223029
:1042F0002B404CF280052B4320F822300A7830F80E
:1043000022104BF68F73194081F44051214320F85D
:104310002210002030BD10B54A780978002A48F2F2
:10432000800330F8212005D048F6BF74224082F087
:10433000100204E04BF68F74224082F480521A433C
:1043400020F82120002010BD2DE9F0470D464B78C4
:10435000097B04464FF0000948F68F7248F2800A44
:104360004FF400474FF6FF78012B09D000297DD08C
:10437000E87802287BD001287AD00120BDE8F087B8
:10438000AE692869864200D9064691B1E9780229CA
:104390001ED0286A801B2862287834F8201049062D
:1043A000B4F85010214401EBC0006ED5A0F80664AB
:1043B000FFE0B3B2EA882046696900F035FAB4F844
:1043C00050002978204400EBC100A0F80264F6E018
:1043D000296A814273D9297834F82100104048F2C3
:1043E0008012104324F82100286A801B2862287854
:1043F00034F820104906697876D511B1012921D009
:1044000027E0B4F850103E2E214401EBC00000F22A
:10441000064006D97109F20600D1491E47EA8121FA
:104420000EE036B17108F20700D0491C08EA81217C
:1044300006E0018821F4F8410180018841F400413F
:10444000018006E0B4F85020111901EBC000A0F87B
:1044500006646A89B3B22046696900F0E5F96869C3
:10446000304468612969286A884202E0CCE0EBE0C8
:1044700054E102D9801B286202E00646C5F820906C
:10448000687818B1012824D02BE028E0B4F8500057
:104490002978204400EBC10000F202403E2E06D9EC
:1044A0007109F20600D1491E47EA81210FE03EB1B1
:1044B0007108F20700D0491C08EA812107E08EE06C
:1044C000018821F4F8410180018841F40041018014
:1044D00007E0B4F850002978204400EBC100A0F8B0
:1044E00002642A8966E0FFE711B1012921D027E0A3
:1044F000B4F850103E2E214401EBC00000F20240FF
:1045000006D97109F20600D1491E47EA81210EE061
:1045100036B17108F20700D0491C08EA812106E093
:10452000018821F4F8410180018841F400410180B3
:1045300006E0B4F85010214401EBC000A0F802647A
:104540002A89B3B22046696900F06EF9686930447F
:1045500068612969286A884202D9801B286202E0C2
:104560000646C5F82090687810B1012830D020E0C8
:10457000B4F850002978204400EBC10000F2064056
:104580003E2E06D97109F20600D1491E47EA812163
:104590000EE036B17108F20700D0491C08EA81210B
:1045A00006E0018821F4F8410180018841F40041CE
:1045B00001806A89B3B22046696900F035F929782B
:1045C00034F8210048F6BF72104080F03000F8E067
:1045D000B4F850100819297800EBC100E6E62A78F3
:1045E00034F8220048F68F63184040EA0A0024F8A5
:1045F0002200B4F850002A78204400EBC2008BB2AD
:10460000A0F802342A89D6E7A9692869814202D92B
:10461000091AA961B4E00846C5F81890B0E000BFD7
:1046200047EA82200EE030B14208C00700D0521C99
:1046300008EA822006E0088820F4F840088008880C
:1046400040F400400880B4E00BBBB4F85000297877
:10465000204400EBC100296900F202403E2906D93E
:104660004B09C90600D15B1E47EA83210EE031B138
:104670004B08C90700D05B1C08EA832106E00188CB
:1046800021F4F8410180018841F4004101806878FB
:1046900010B1012823D02BE0B4F850002978204431
:1046A00000EBC100296900F206403E2906D94B09FA
:1046B000C90600D15B1E47EA83210EE031B14B08E9
:1046C000C90700D05B1C08EA832106E0018821F4B9
:1046D000F8410180018841F40041018008E0B4F80C
:1046E00050100819297800EBC100298AA0F8061497
:1046F000E86978B3297834F82100430401D54306EA
:1047000003D444F24003184253D134F8210010403E
:1047100048F2C002104324F821004AE0A969286940
:10472000814202D9091AA96102E00846C5F8189029
:104730000BBBB4F850102A78214401EBC20101F2FE
:1047400002413E2807D94209C30600D1521E47EA5A
:1047500082220FE02DE030B14208C30700D0521C86
:1047600008EA822206E00A8822F4F8420A800A88CF
:1047700042F400420A80697811B1012911D018E091
:10478000B4F850102A78214401EBC20101F206412D
:104790003E287FF648AF4209C0067FF441AF521E63
:1047A0003EE7B4F8502011192A7801EBC201A1F8B4
:1047B0000604297834F821004BF68F72104080F4FB
:1047C000405040EA0A0024F821000020D6E50021EC
:1047D000A0F844104BF68071A0F8401000207047FC
:1047E0000148FCF726BC0000300A0020B0F8440065
:1047F000704710B510445C0800F5806008D030F8B0
:10480000022B01F8012B120A01F8012B641EF6D1CC
:10481000DA0701D00088087010BD11B98021A0F816
:104820004C1000207047000010B55B1C10445B0862
:1048300000F580600AD000BF11F8012B11F8014B80
:1048400042EA042220F8022B5B1EF5D110BDFEE7E0
:104850000907090E002804DB00F1E02080F80014AD
:10486000704700F00F0000F1E02080F8141D704741
:1048700002E008C8121F08C1002AFAD17047704729
:10488000002001E001C1121F002AFBD17047000087
:1048900010B54FF400510348FBF7C4FF012800D0C6
:1048A000002010BD0008004800B587B014216846FC
:1048B000FBF7C9FC0A48C16C41F00401C164C06C3B
:1048C000694600F0040005904FF40050009000206D
:1048D0000190022002900348FBF780FE07B000BD64
:1048E000001002400008004830B587B01421684627
:1048F000FBF7A9FC0E48C16C41F00101C164C06C1A
:104900004FF4807400F001004FF0904505900022B4
:1049100021462846FBF793FF012000210094CDE9B2
:104920000101039169462846FBF758FE07B030BDE8
:10493000001002404FF480714FF0904308B1012203
:1049400000E000221846FBF77ABF4FF480714FF069
:104950009040FBF76CBF10B5FBF72CFE002010BD9C
:1049600030B5084C0C4408E0002104E014F8015B69
:1049700000F8015B491C9142F8D35B1EF4D2002081
:1049800030BD0000008000082DE9F0419046B1FBE9
:10499000F8F5154A86B005FB082605461144B1FB1B
:1049A000F8F0CDE902030120019000200F490090AA
:1049B0004FF400401C46086104A96846FBF74EFD11
:1049C0006CB10027F5E8022331460020FBF7B4FD67
:1049D00008367F1CB7EBD80FF4D3641EF1D106B0B4
:1049E0000020BDE8F08100000080000800200240A7
:1049F00086B0FBF737FFFEF743FCFDF7E3FCFDF75E
:104A000045FDFDF7FDFCFFF74FFFFFF76DFFFBF7DF
:104A10001BFF0446FBF718FF144E00BFFBF714FF03
:104A20000546FFF735FF30B1A542F7D305F1640421
:104A3000FFF78BFFF2E7A542F0D305F10A0400224D
:104A400069460B48FDF7C8F9002205A90848FDF79B
:104A5000A1F99DF802003178884202D0307001201F
:104A600000E00020FFF766FFD8E70000000000200C
:104A700090010020008002021F00000053544D20CE
:104A80002020202050726F64756374202020202025
:104A900020202020302E30310000000000000000D7
:104AA0000102030406070809C84A000800000020A4
:104AB0009001000080020008884B0008900100204F
:104AC00068140000804800084113E9381408AD3923
:104AD0001B08B9041AE10413193A1B087D141A893A
:104AE0000C41170403090412013202164083042A00
:104AF00057260201020301031A1A03133B321B0853
:104B00002B041A45041A49041A4D041A5F041A3773
:104B10000413744A33081019430115F9185324F487
:104B20001A25901AB1981A51A0811A9D101AA7043B
:104B3000C11A0D282A01C819041AF51C14090220EB
:104B40002008010104C0320904180A0208065005B1
:104B500007058102D02C07050107091420224029EE
:104B60002019070B1C0907201B0A0645213A40B8EB
:104B700012021A80021B082001322203120812625C
:084B80002609121B11000000C0
:04000005080001D915
:00000001FF
