:020000040800F2
:1000000070240020ED0100082D190008891800084F
:100010002919000859020008451B000800000000CB
:10002000000000000000000000000000291B000884
:100030005D02000800000000311900082D1B0008B7
:10004000070200080702000807020008070200086C
:10005000070200080702000807020008070200085C
:10006000070200080702000807020008070200084C
:10007000070200080702000807020008070200083C
:10008000070200080702000807020008070200082C
:10009000070200080702000807020008070200081C
:1000A000070200080702000807020008070200080C
:1000B00007020008070200080702000807020008FC
:1000C00007020008070200080702000807020008EC
:1000D00007020008070200080702000807020008DC
:1000E00007020008070200080702000807020008CC
:1000F00007020008070200080702000807020008BC
:1001000007020008070200080702000807020008AB
:10011000070200080702000807020008070200089B
:10012000070200080702000807020008070200088B
:10013000070200080702000807020008070200087B
:10014000070200080702000807020008070200086B
:10015000070200080702000807020008070200085B
:10016000070200080702000807020008070200084B
:10017000070200080702000807020008070200083B
:10018000070200080702000807020008070200082B
:10019000070200080000000007020008070200082C
:1001A000070200080702000807020008070200080B
:1001B00007020008070200080702000807020008FB
:1001C00007020008070200080702000807020008EB
:1001D0000702000807020008DFF80CD000F02AF838
:1001E00000480047B11F00087024002006488047DF
:1001F00006480047FEE7FEE7FEE7FEE7FEE7FEE70C
:10020000FEE7FEE7FEE7FEE7311B0008D901000824
:10021000D2B201E000F8012B491EFBD27047002248
:10022000F6E710B513460A4604461946FFF7F0FFF5
:10023000204610BD064C074D06E0E06840F0010383
:1002400094E8070098471034AC42F6D3FFF7C8FF94
:100250000C4400082C440008FEE700007047000032
:10026000EFF3108072B600BFFEE70000B0B50446A1
:1002700000F0FAF8054640F20000C2F200004068C3
:10028000611C18BF044400BF00F0EEF8401BA04200
:10029000FAD3B0BD2DE9F04F82B00D68002D00F00B
:1002A000CB8041F2004400F13847C4F60004062236
:1002B0004FEAB726A04208BF0522052E38BF4FEAF5
:1002C000B722002401274FF0000E0026009209E01B
:1002D0000D68013635FA06F20EF1040E04F102043F
:1002E00000F0AA8007FA06FB15EA0B08F0D0D1F857
:1002F00004A003220AF0030CACF10105A240012D79
:100300006FEA020910D88268CD6802EA0902A540A6
:100310002A4382604268CAF3001522EA0B02B54004
:100320002A43426006E000BFBCF1030F02D14FF048
:10033000030C21E0C2688D6802EA0902A5402A4345
:10034000BCF1020FC26017D16FF0030202EA56023D
:1003500002440EF01C030F25D2F820C005FA03FA60
:100360000D692CEA0A0C05FA03F343EA0C03136245
:10037000D1F804A00AF0030C02680CFA04F302EAB4
:1003800009021A431AF4403F0260A1D041F260030F
:10039000C4F202031A6840F2004942F001021A60F6
:1003A0001A68C4F2010902F001020192019A26F0D2
:1003B00003024FF6084A4A44CFF6FF7A52F80AC0C1
:1003C0000EF00C050F23009FAB402CEA030307FA45
:1003D00005F52B4342F80A30D9F808C04B684CEABF
:1003E0000805DA0258BF2CEA080540F20C4CC9F89F
:1003F0000850C4F2010CDCF800209F0242EA080514
:1004000058BF22EA0805CCF80050D9F804209D0313
:1004100042EA080758BF22EA0807C9F80470D9F869
:100420000020DB0342EA080758BF22EA0807C9F8A0
:10043000007001274CE700BF02B0BDE8F08F00005C
:100440000069084018BF012070470000426902EAB5
:100450000103914341EA0341816170471823002A57
:1004600008BF2823C150704741F26400C2F2000067
:100470000068704740F2000041F26401C2F20000DF
:10048000C2F2000140680A6810440860704700002A
:1004900080B5032000F078F80F2000F009F800285C
:1004A0001CBF012080BD00F029F8002080BD0000A5
:1004B00070B540F20006C2F200067168E1B1044670
:1004C00040F20800C2F200004FF47A720068B2FBFA
:1004D000F1F1B0FBF1F001F0C1F90F2C4FF0010583
:1004E00008D838B94FF0FF3021460022002500F02F
:1004F0001FF83460284670BD012070BD82B041F203
:100500005800C4F20200816841F0010181608168F5
:1005100001F0010101910199016841F080510160F0
:10052000006800F080500090009802B000F0D0B851
:1005300010B54EF60C5CCEF2000CDCF80030C3F3C4
:10054000022E8EF00704042C28BF0424BEF10303FE
:100550004FF0FF3E0EFA04F438BF0023A143994048
:100560000EFA03F39A43114300F00F0200F16043C7
:100570000901043A03F564436244002848BF02F1CC
:100580000C03197010BD00004EF60C51CEF20001A4
:100590000A684FF6FF031A4060F30A2242F08060B7
:1005A00040F0FD7008607047B0F5007F42D0002831
:1005B00040F0808047F21400C4F2000050F8141C90
:1005C000C26E01F4C06122F48072B1F5806FC26620
:1005D0002ED150F8141C012262F34A2140F8141C59
:1005E00040F20801C2F200010968322251434DF67F
:1005F0008362C4F21B32A1FB0212910C0268520505
:1006000011D54A1C0FD0026852050CD559B10268A9
:10061000520508D5012906D00268520503D50229E2
:10062000A1F10401EAD10068400544BF03207047EE
:100630000020704747F21400C4F2000050F8141C68
:10064000C26E01F4C06142F48072B1F5806FC2667F
:10065000EED150F8141C012262F34A2140F8141C18
:1006600040F20801C2F200010968322251434DF6FE
:100670008362C4F21B32A1FB0212910C0268520584
:1006800011D54A1C0FD0026852050CD559B1026829
:10069000520508D5012906D00268520503D5022962
:1006A000A1F10401EAD10068400544BF032070476E
:1006B000BEE700BF47F21400C4F2000050F8141C5B
:1006C000022262F34A2140F8141C00207047000007
:1006D00047F20800C4F20000016841F48041016063
:1006E000704700002DE9F0411D4617468846044634
:1006F000FFF7BAFE94F84010012904BF0220BDE8BC
:10070000F0810646012084F8400094F84100012859
:1007100048D100206064422084F84100206881684C
:10072000890645D497E80E1081624262C36201686F
:100730003A6921F44001114341F4800101602046EF
:1007400041464FF00062C8F828C001F0F3F8206875
:10075000816809071BD4002D46D0691C0ED1816821
:10076000090714D4816809075CBF81685FEA0171D9
:100770000DD481680907F2D509E000BFFFF774FEC8
:10078000801BA84232D8206881680907F6D5082165
:10079000C160012084F841000020002184F840104D
:1007A000BDE8F0810220002184F84010BDE8F0810E
:1007B000D5B1691C0ED181688906B3D581688906D7
:1007C00044BF81685FEA8161ACD581688906F2D453
:1007D000A8E700BFFFF748FE801BA84206D82068A4
:1007E00081688906F6D49DE7FFF73EFE042084F871
:1007F0004100606C40F0010060640120002184F839
:100800004010BDE8F0810000F0B581B015460F46FC
:100810000446FFF729FE94F84010012902D1022076
:1008200001B0F0BD0646012084F8400094F8410074
:1008300001284FF0020034D10021616484F84100A6
:1008400020688168890631D420463946002201F0AB
:1008500071F8786A08BB2068816889071BD4002D6D
:1008600040D0691C0ED18168890714D4816889073A
:100870005CBF81685FEA81710DD481688907F2D518
:1008800009E000BFFFF7F0FD801BA8422CD82068CC
:1008900081688907F6D50221C160012084F84100F2
:1008A0000020002184F8401001B0F0BDD5B1691CD2
:1008B00012D181688906C7D58168890644BF8168DD
:1008C0005FEA8161C0D581688906F2D4BCE700BFC8
:1008D000206880688006B7D5FFF7C6FD801BA84258
:1008E000F6D901E0FFF7C0FD042084F84100606CF8
:1008F00040F0010060640120002184F8401001B044
:10090000F0BD000070B50446FFF7AEFD002C49D0E5
:10091000054694F8410040B9002084F84000204684
:1009200000F06CF841F28830A0642068A168A66CE1
:1009300002686FF0FF0322F4706203EB01211143A0
:100940000160816889062FD401684FF62F7204F187
:100950000C0EC0F2FF029EE8205011406668D4E9F8
:100960000723294341EA06611143194301604168A5
:100970004FF6FE02CFF6E0721140A26941EA0E0185
:1009800041EA0C4111434160016841F001010160FD
:1009900000200121606484F84110002184F8401097
:1009A00070BD00BF012070BDD6B1711C0ED1816831
:1009B0008906C9D58168890644BF81685FEA81617B
:1009C000C2D581688906F2D4BEE700BFFFF74CFDAF
:1009D000401BB04206D8206881688906F6D4B3E788
:1009E000FFF742FD042084F84100606C40F00100F4
:1009F00060640120002184F8401070BDF0B59BB008
:100A0000044601A804305021FFF709FC206841F298
:100A10000001CAF20001884202D01BB0F0BD00BF45
:100A20004FF48020019001A800F0CAF9002818BFF7
:100A3000FFF716FC41F24C00C4F20200416816AC0C
:100A400041F4807141604168022501F48071169182
:100A500016990168002641F00101016001680A272A
:100A600001F0010116911699016841F0020101603F
:100A70000068214600F0020016901698C0201690DB
:100A80004FF090401795CDE918651A97FFF702FCD3
:100A900040F6034016A961C140F20040C4F60000D0
:100AA0002146CDE91957FFF7F5FB1BB0F0BD00005B
:100AB0002DE9F04115460F460446FFF7D5FC2668A0
:100AC000B16994F84020012A04BF0220BDE8F081FA
:100AD0008046012084F8400094F8410001286FD13D
:100AE0000020002F606400F09180222084F84100F3
:100AF000306901220130A0633069013060632763EF
:100B0000706962F39B607061B161A06BB0B1681CE9
:100B100036D0002D66D100BF2068806810F0060F27
:100B200000F07E8096F820003870206BA16B471C87
:100B3000481E2763A063A06B0028EDD12068816860
:100B4000890739D4002D6BD0691C2BD181688907A6
:100B500032D4816889075CBF81685FEA81712BD4D8
:100B600081688907F2D527E096F820003870206B5D
:100B7000A16B471C481E2763A063A06B0028DDD033
:100B80002068816811F0060FEED1816811F0060F20
:100B9000EAD1816811F0060FE6D1816811F0060FE5
:100BA000EFD0E1E7FFF760FCA0EB0800A84239D8DE
:100BB000206881688907F5D50221C160002039E0ED
:100BC0000220002184F84010BDE8F08196F8200052
:100BD0003870206BA16B471C481E2763A063A06B75
:100BE0000028ABD02068806810F0060FEED100BF5F
:100BF000FFF73AFCA0EB0800A84213D820688068F1
:100C000010F0060FF4D0276BE0E700BF606C40F0F7
:100C1000080060640120002184F84010BDE8F081E4
:100C2000FFF722FC042084F84100606C40F00100D2
:100C300060640120012184F84110002184F84010F3
:100C4000BDE8F0812DE9F04115460F460446FFF757
:100C50000BFC266894F84010012904BF0220BDE86F
:100C6000F0818046012084F8400094F8410001287A
:100C700068D10020002F60646AD0122084F84100FF
:100C800030690130E06230690130A06267627069EA
:100C900020F040607061E06AA0B1681C34D0002D83
:100CA0006CD100BF20688068400777D5387886F817
:100CB0002000606AE16A471C481E6762E062E06AE1
:100CC0000028EFD120688168890737D4002D65D0CE
:100CD000691C29D18168890730D4816889075CBF84
:100CE00081685FEA817129D481688907F2D525E09E
:100CF000387886F82000606AE16A471C481E6762FF
:100D0000E062E06A0028DDD0206881684907EFD4FE
:100D1000816849075CBF81685FEA4171E8D48168F6
:100D20004907F2D5E4E700BFFFF79EFBA0EB080000
:100D3000A84235D8206881688907F5D50221C160AD
:100D4000002035E00220002184F84010BDE8F08149
:100D5000606C40F0080060640120002184F84010BD
:100D6000BDE8F081387886F82000606AE16A471CA7
:100D7000481E6762E062E06A0028A3D020688068AD
:100D80004007EFD4FFF770FBA0EB0800A84207D89C
:100D9000206880684007F5D5676AE3E7FFF764FBE2
:100DA000042084F84100606C40F001006064012080
:100DB000012184F84110002184F84010BDE8F08141
:100DC0002DE9F04182B00446807841F288060007A0
:100DD000C4F2020602D400202FE000BF56F8300C07
:100DE00010F080580BD156F8300C40F0805046F887
:100DF000300C56F8300C00F080500190019847F20A
:100E00000007C4F20007386840F480703860FFF7CC
:100E10002BFB05463868C00500F10C81FFF724FB69
:100E2000401B0228F6D90320B8F1000F05D156F86F
:100E3000301C21F0805146F8301C2168CA0717D1B8
:100E40008A071DD44A0723D40A0729D4CA062FD4F7
:100E50008A0635D44A063BD40A0641D4CA0547D48B
:100E60008A034DD48A0553D44A0559D467E000BF9C
:100E70003268636822F003021A4332608A07E1D5C0
:100E80003268A36822F00C021A4332604A07DBD5AD
:100E90003268E36822F030021A4332600A07D5D57F
:100EA0003268236922F0C0021A433260CA06CFD5E5
:100EB0003268636922F440721A4332608A06C9D5E7
:100EC0003268A36922F440621A4332604A06C3D5ED
:100ED0003268E36922F440521A4332600A06BDD5F3
:100EE0003268236A22F440421A433260CA05B7D5F9
:100EF0003268636A22F440321A4332608A03B1D501
:100F00007269A36A22F003021A4372618A05ABD5A3
:100F10003268E36A22F440221A4332604A050ED551
:100F20003268236B22F440121A43B3F5801F3260FB
:100F300005D156F87C2C42F4801246F87C2C0A0528
:100F40000ED53268636B22F440021A43B3F5800F6A
:100F5000326005D156F87C2C42F4801246F87C2C85
:100F6000CA040ED53268A36B22F040721A43B3F163
:100F7000807F326005D156F87C2C42F4801246F80E
:100F80007C2C8A040ED53268E36B22F040621A434F
:100F9000B3F1006F326005D156F87C2C42F4801218
:100FA00046F87C2C4A040ED53268236C22F040624D
:100FB0001A43B3F1006F326005D156F87C2C42F42D
:100FC000801246F87C2C0A040ED53268636C22F03D
:100FD00040521A43B3F1805F326005D156F87C2C41
:100FE00042F4803246F87C2CCA030ED53268A36CDA
:100FF00022F040421A43B3F1804F326005D156F8D7
:101000007C2C42F4803246F87C2C49030ED5716961
:10101000E26C21F440111143B2F5001F716105D15A
:1010200056F87C1C41F4801146F87C1C02B0BDE8E7
:10103000F08100BFB06810F4407010D0216D88427C
:101040000BD0B068B16820F4407041F48031B160D9
:10105000B16821F48031B160B060C0070CD1B068D4
:10106000216D20F440700843B0600020B8F1000FFB
:101070007FF4E3AEDBE600BFFFF7F6F9054641F289
:10108000883700BFB0688007E9D4FFF7EDF9401B4F
:10109000B842F7D9C7E600002DE9F04700286DD027
:1010A00042F2000AC4F2020A0446DAF800000D46D1
:1010B00000F00F0088420CD2DAF8000020F00F0098
:1010C0002843CAF80000DAF8000000F00F00A84238
:1010D00054D1216841F20808C807C4F2020803D1BC
:1010E000880740F1D880BDE0606802283AD0032824
:1010F00040D158F8082C920140D5D8F80420D8F8EF
:10110000043042F20046C3F3031302F00302D8F89E
:1011100004700133C0F2F406032A04BF41F2002632
:10112000C0F27A06B6FBF3F2D8F80430C7F306270C
:101130007A43C3F34163022707EB4303B2FBF3F2A5
:101140004BF20043C0F2C4439A4261D9D8F8002060
:1011500012F0F00F51D089075AD5A168002957D154
:101160004BE000BF58F8081C89035CBF0120BDE8B4
:10117000F08707E058F8081C490503D40120BDE8B2
:10118000F08700BFD8F8001001F00C0104293FD00F
:10119000D8F8001001F00C01082939D0D8F8001057
:1011A00001F00C010C2933D1D8F80410D8F8042030
:1011B00042F20047C2F3031201F00301D8F80430F1
:1011C0000132C0F2F407032904BF41F20027C0F244
:1011D0007A07B7FBF2F1D8F80420C3F3062359438A
:1011E000C2F34162022303EB4202B1FBF2F14BF284
:1011F0000042C0F2C44291420AD9D8F80010082235
:1012000062F307114FF00109C8F8001002E000BFB7
:101210004FF00009D8F8001021F003010843C8F886
:101220000000FFF721F9064641F28837D8F80000A0
:10123000616800F00C00B0EB810F07D0FFF714F9E4
:10124000801BB842F2D90320BDE8F08721688807E7
:1012500008D4B9F1000F1ED0D8F8000020F0F0003B
:1012600017E000BF480705D5D8F8000040F4E0605B
:10127000C8F80000080706D5D8F80000072262F376
:101280000D20C8F80000D8F80000A26820F0F00097
:101290001043C8F80000DAF8000000F00F00A84280
:1012A0001BD9DAF8000020F00F002843CAF800002C
:1012B000FFF7DAF8064641F2883700BFDAF8000097
:1012C00000F00F00A84207D0FFF7CEF8801BB8420D
:1012D000F4D90320BDE8F0872168480707D5D8F87E
:1012E0000000E26820F4E0601043C8F8000008073E
:1012F00008D5D8F80000216920F4605040EAC10008
:10130000C8F80000D8F8000042F20041C0F2F40131
:1013100000F00C00042808462DD0D8F8000000F09A
:101320000C00082841F20020C0F27A0023D0D8F83F
:10133000002002F00C020C2A1CD1D8F80420D8F8A6
:10134000043002F00302C3F30313D8F8047001332E
:10135000032A08BF0146B1FBF3F0D8F80410C7F325
:101360000627C1F341610222784302EB4101B0FB41
:10137000F1F000E00020D8F8001044F2FA32C1F396
:101380000311C0F60002515C40F2080201F01F0197
:1013900020FA01F140F20000C2F200000068C2F23F
:1013A00000021160BDE8F047FFF782B82DE9F04177
:1013B00082B0002800F006810446007841F2000661
:1013C000C007C4F2020655D12078800774D4207873
:1013D000000700F197802078400700F1B78020785F
:1013E000800600F10781E069002840D0B16801F073
:1013F0000C010C2940F05681012800F0E380F068D0
:10140000216A00F003028A4240F0DC80626A6FF0D9
:101410000F0300F0F00103EB0212914240F0D28082
:10142000A16A00F4FE42B2EB012F40F0CB80E16AEA
:1014300000F07842B2EBC16F40F0C480226B002311
:10144000CFF6E07303EA025200F4C001A2F50012E5
:10145000914240F0B780616B4FF07E4202EA016139
:1014600000F0C06001F17E41884240F0AB80002076
:10147000F1E100BFB06800F00C01F06808295BD012
:10148000032281F00C0122EA00000844B0FA80F047
:10149000400951D16068B0F5803F07D0B0F5A02F6A
:1014A00040F0D680306840F480203060306840F4EE
:1014B00080303060D7E000BFB068F16800F00C0009
:1014C000042869D001F0030180F00C0081F00201D2
:1014D0000844B0FA80F040095ED1E1683068002924
:1014E00000F0CE8040F480703060FEF7BDFF05460E
:1014F0003068400500F1EC80FEF7B6FF401B022883
:10150000F6D920E16169D6F89400002900F08C80BA
:1015100040F00100C6F89400FEF7A6FF054600BFA4
:10152000D6F8940080073FF556AFFEF79DFF401BAD
:101530000228F5D907E100BF306880037FF544AF8A
:10154000606800287FF440AF3CE000BFB06D10F051
:10155000805808D1B06D40F08050B065B06D00F09B
:1015600080500190019847F20007C4F200073868E4
:10157000C0052BD4386840F480703860FEF774FFE3
:10158000054600BF3868C00520D4FEF76DFF401B3C
:101590000228F7D9D7E000BF3068400501D5E068E0
:1015A00080B17068216920F0FE4040EA01607060FF
:1015B00040F20000C2F200000068FEF779FF002848
:1015C0003FF405AF012002B0BDE8F081A06801281A
:1015D00008D0052840F09A80D6F8900040F004002A
:1015E000C6F89000D6F8900040F00100C6F89000D0
:1015F0009AE000BFA169D6F89800002970D040F0A9
:101600000100C6F89800FEF72FFF0546D6F89800AF
:1016100080073FF5E8AEFEF727FF401B02284FF09A
:101620000300F3D917E100BF20F00100C6F89400D1
:10163000FEF71AFF054600BFD6F8940080077FF535
:10164000CAAEFEF711FF401B0228F5D97BE000BFB0
:101650003168002821F480313160316821F4802123
:10166000316000F08F80FEF7FFFE05463068800392
:101670003FF5AAAEFEF7F8FE401B6428F6D962E0FB
:1016800020F480703060FEF7EFFE054630684005BC
:101690007FF59DAEFEF7E8FE401B02284FF00300E9
:1016A000F4D9D8E03168022821F0807131604FD13F
:1016B000FEF7DAFE054600BF3068800140F18E80FB
:1016C000FEF7D2FE401B02284FF00300F4D9C2E01F
:1016D0007068216920F0FE4040EA0160706076E6A3
:1016E00020F00100C6F89800FEF7BEFE054600BFD8
:1016F000D6F8980080077FF576AEFEF7B5FE401B62
:1017000002284FF00300F3D9A5E000BFD6F89010EF
:10171000002821F00101C6F89010D6F8901021F0B1
:101720000401C6F890103DD0FEF79EFE054641F23A
:10173000883700BFD6F89000800745D4FEF794FEA6
:10174000401BB842F6D9032002B0BDE8F08100BFCB
:10175000F0684FF6FF7120F00300F060F068CFF6FC
:10176000EE610840F060FEF77FFE044630688001BD
:101770007FF57DAEFEF778FE001B02284FF00300D8
:10178000F4D968E0FEF770FE054600BF30688003BC
:101790007FF51AAEFEF768FE401B64284FF0030089
:1017A000F4D958E0FEF760FE054641F2883700BFE5
:1017B000D6F89000800707D5FEF756FE401BB842CA
:1017C0004FF00300F4D946E0B8F1000F7FF407AE04
:1017D000B06D20F08050B06501E600BFF06848F2BF
:1017E0000C01C0F29F1104F1200700EA010C8ECF1A
:1017F0006FF00F00D4E90C5400EB02100022CFF67A
:10180000E07241EA0C0102EA05520843A2F5001217
:101810004FF07E4540EA032005EA0465104305F1D8
:101820007E4540EAC7602843F060306840F0807031
:101830003060F06840F08070F060FEF715FE0446FE
:10184000306880013FF513AEFEF70EFE001B022844
:101850004FF00300F4D902B0BDE8F081411E002032
:10186000B0EB116F1CBF012070474EF21002CEF298
:10187000000251604EF62351CEF20001F0230B70AE
:101880000721906011607047FEE7000081B041F2CF
:101890004C00C4F20200016841F0040101600168DB
:1018A00001F0040100910099016841F020010160FC
:1018B000016801F0200100910099016841F00101E7
:1018C0000160016801F0010100910099016841F097
:1018D00002010160006800F002000090009801B071
:1018E0007047000010B540F2180041F2000CC2F23F
:1018F0000000CAF2000C0222012300214FF0160E54
:101900004FF4E064C0E900C2C0E90231C0E904E478
:10191000C0E906310162FEF7F5FF002808BF10BDDF
:10192000BDE81040FEF79CBCFEE70000FEE70000AB
:10193000704700002DE9F04FD1F824C0B2F1406F9C
:1019400018BFBCF1000F35D18B69D1F820E0D3B3BB
:10195000BEF1000F66D0D0F800908868D1E9048409
:10196000CD69C9F81C00D1E90BB04F6B002D4FEACF
:10197000844477D0D1F800A0CE68B2F1406F46EA37
:101980000A0640EA060040EA0B0040EA070040EA87
:10199000040040EA080040EA020040EA0C0040EA85
:1019A000030040EA0E0040EA0500C9F8140034D1F3
:1019B000BDE8F08F8B6A0768013B3B618B69D1F80A
:1019C00020E0002BC4D1BEF1000F5DD0D0F8009014
:1019D0008B68D1E90487CC69C9F81C30D1E90B5375
:1019E0004E6B002C4FEA87476AD0C868B2F1406F4F
:1019F00040EA030040EA050040EA060040EA07002A
:101A000040EA080040EA020040EA0C0040EA0E000A
:101A100040EA0400C9F81400CAD04868C9F81800A0
:101A2000BDE8F08F4C69CD69D1E90B96D1F834E06F
:101A3000002D4FEA844453D0D1F80080CF6800686D
:101A400047EA08073E4346EA090646EA0E072743E7
:101A5000174347EA0C073B432B43B2F1406F436106
:101A6000A6D029E00968084340EA0B003843204328
:101A700040EA0800104340EA0C00184340EA0E0018
:101A8000C9F81400BDE8F08FCB69CBB3D1E90B5492
:101A90004F6B4E692C43D1F80CE03C4344EA86443A
:101AA00044EA0E07174347EA0C0700683B43B2F1CC
:101AB000406F43613FF47CAF49688161BDE8F08FBE
:101AC00045EA03003043384340EA0800104340EA47
:101AD0000C0040EA0E00C9F81400BDE8F08F00BF0A
:101AE00009680068314341EA090141EA0E012143D6
:101AF000114341EA0C0119434161BDE8F08F00BF79
:101B0000BCF1000F08BFBDE8F08FD1E90B764B693F
:101B1000496B3743394341EA83411143006841EA45
:101B20000C014161BDE8F08F70470000FEF7A2BCD8
:101B30004EF68850CEF20000016841F47001016059
:101B400070470000FEE700002DE9F04F8FB00DF167
:101B5000040840F20C0940F2180508F104070024BB
:101B6000C2F200094FF0050A4FF0010BC2F2000566
:101B70000DF1030624E000BF4FF44070CDE90704E7
:101B80004FF04070CDF804A00994C7E90044C7E9BC
:101B900002443C610A902846414641F28832CDF821
:101BA0002CB00C940D940E94FEF72EFE2846314670
:101BB00041F28832FEF77CFF9DF80300C00715D084
:101BC00099F800008DF803400528D5D14FF48070B6
:101BD000CDF804A0CDE907040994C7E90044C7E99A
:101BE00002443C614FF08070D4E700BF0FB0BDE805
:101BF000F08F000070B594B040F20C05C2F2000501
:101C0000044628784FF4807104284FF0060008BF7E
:101C10004FF44071069040F218000C910026C2F279
:101C2000000006A941F28832CDE90D660F960B96A9
:101C3000CDE911661396FEF7E7FD88B1FFF784FF43
:101C40002878052830D1202006904FF480700C9021
:101C50004FF40050079409904FF480602FE000BFCC
:101C60000220CDE9000001200390102002904FF4E3
:101C7000800005900520069028784FF0807104962A
:101C8000042808BF4FF0407140F218000F91C2F2D3
:101C9000000006A96A4641F28833FEF723FDFFF7EC
:101CA00053FF28780528CED0202006904FF44070AE
:101CB0000C904FF4005009904FF4406007940D9041
:101CC000002008900A900B900E900F9010901190A9
:101CD0001290139040F21800C2F2000006A941F2DF
:101CE0008832FEF791FD0028044608BFFFF72CFF5D
:101CF000002C18BF0124204614B070BD2DE9F0411E
:101D000094B040F20C07C2F20007804638780E46C5
:101D10004FF4807104284FF0060008BF4FF4407163
:101D2000069040F2180015460C910024C2F2000003
:101D300006A941F28832CDE90D440F940B94CDE908
:101D400011441394FEF760FD70B1387805282DD149
:101D5000322006904FF480700C904FF4005007969C
:101D600009904FF480602CE00220CDE900000120B2
:101D70000390102002904FF48000059005200690FB
:101D800038784FF080710494042808BF4FF04071F8
:101D900040F218000F91C2F2000006A96A4641F213
:101DA0008833FEF79FFC38780528D1D002200690B2
:101DB0004FF440700C904FF4005009904FF4406085
:101DC00007960D90002008900A900E900B904FF00F
:101DD000407111901290139040F218000F91C2F2CE
:101DE000000006A941F288321095FEF70DFD18B1EA
:101DF000012014B0BDE8F08140F21800C2F20000EA
:101E0000414641F28832FEF71DFF18B114B0BDE81B
:101E1000F08100BFFFF798FE002014B0BDE8F0810C
:101E2000B0B58EB0054640F20C00C2F2000000785A
:101E30004FF4807304284FF0040008BF4FF4407340
:101E400008BF0620CDE905034FF4406007904FF42A
:101E5000005003904FF440400890FF20EB24029084
:101E60000020CDE9004104904FF04071CDE90B0016
:101E70000D9040F21800CDE90912C2F20000694647
:101E800041F28832FEF7C0FC10B10EB0B0BD00BF09
:101E900040F21800C2F20000294641F28832FEF7F3
:101EA00007FE0EB0B0BD0000F0B581B00646C8B266
:101EB000C0F58070904228BF104687B21446304665
:101EC0003A460D46FFF71AFFA74210D0E41B3E44E6
:101ED0003D442746B4F5807F28BF4FF480773046D5
:101EE00029463A46FFF70AFFB4F5807FEED801B0E5
:101EF000F0BD000080B540F60000C4F600004FF4CD
:101F00000051FEF79DFA0138B0FA80F0400980BD1B
:101F100080B586B0002041F24C01CDE90400C4F246
:101F200002010A6842F004020A60096801F0040133
:101F3000009100994FF40051CDE901100220039067
:101F400040F60000C4F6000001A9FEF7A3F906B0B0
:101F500080BD000070B586B0002541F24C000595AB
:101F6000C4F20200016840F6000441F0040101607F
:101F70000068C4F6000400F00400009000982046B9
:101F8000402100224026FEF769FA0120CDE9020532
:101F900001A9204601960495FEF77CF906B070BDB4
:101FA00040F60000C4F600004021FEF74FBA0000E2
:101FB00094B0FEF76DFA00244FF400700C94CDE954
:101FC0000A44CDE90844FEF7EFFA012006904FF4E9
:101FD000803007900220032544210D90CDE90E505A
:101FE000CDE91010CDE9120006A8FFF7DFF928B1FE
:101FF000EFF3108072B600BFFEE700BF0F20CDE9FF
:10200000010501A80421CDE903440594FFF744F834
:1020100020B1EFF3108072B6FEE700BFFFF736FC89
:10202000FFF776FFFFF796FFFEF71EFA0446FEF76E
:102030001BFA02F031F801F0B5FE0020FFF7DAFDDF
:1020400041F26D001F21C2F2000000BFA1F11F0389
:10205000421802F81F3CA1F11E0302F81E3CA1F138
:102060001D0302F81D3CA1F11C0302F81C3CA1F168
:102070001B0302F81B3CA1F11A0302F81A3CA1F160
:10208000190302F8193CA1F1180302F8183CA1F158
:10209000170302F8173CA1F1160302F8163CA1F150
:1020A000150302F8153CA1F1140302F8143CA1F148
:1020B000130302F8133CA1F1120302F8123CA1F140
:1020C000110302F8113CA1F1100302F8103CA1F138
:1020D0000F0302F80F3CA1F10E0302F80E3CA1F130
:1020E0000D0302F80D3CA1F10C0302F80C3CA1F128
:1020F0000B0302F80B3CA1F10A0302F80A3CA1F120
:10210000090302F8093CA1F1080302F8083CCB1FBF
:1021100002F8073C8B1F02F8063C4B1F02F8053CF7
:102120000B1F02F8043CCB1E02F8033C8B1E02F886
:10213000023C4B1E4154FF2901F1200102F8013CF1
:1021400084D10021421841F0010382F8013141F0AD
:10215000020382F8023141F0030382F8033141F0B7
:10216000040382F8043141F0050382F8053141F09F
:10217000060382F8063141F0070382F8073141F087
:10218000080382F8083141F0090382F8093141F06F
:102190000A0382F80A3141F00B0382F80B3141F057
:1021A0000C0382F80C3141F00D0382F80D3141F03F
:1021B0000E0382F80E3141F00F0382F80F3141F027
:1021C000100382F8103141F0110382F8113141F00F
:1021D000120382F8123141F0130382F8133141F0F7
:1021E000140382F8143141F0150382F8153141F0DF
:1021F000160382F8163141F0170382F8173141F0C7
:10220000180382F8183141F0190382F8193141F0AE
:102210001A0382F81A3141F01B0382F81B3141F096
:102220001C0382F81C3141F01D0382F81D3141F07E
:102230001E0382F8001182F81E3141F01F03203185
:10224000B1F5807F82F81F317FF47CAF002100BFA1
:10225000421841F0010382F8013241F0020382F892
:10226000023241F0030382F8033241F0040382F8A2
:10227000043241F0050382F8053241F0060382F88A
:10228000063241F0070382F8073241F0080382F872
:10229000083241F0090382F8093241F00A0382F85A
:1022A0000A3241F00B0382F80B3241F00C0382F842
:1022B0000C3241F00D0382F80D3241F00E0382F82A
:1022C0000E3241F00F0382F80F3241F0100382F812
:1022D000103241F0110382F8113241F0120382F8FA
:1022E000123241F0130382F8133241F0140382F8E2
:1022F000143241F0150382F8153241F0160382F8CA
:10230000163241F0170382F8173241F0180382F8B1
:10231000183241F0190382F8193241F01A0382F899
:102320001A3241F01B0382F81B3241F01C0382F881
:102330001C3241F01D0382F81D3241F01E0382F869
:10234000001282F81E3241F01F032031B1F5807F68
:1023500082F81F327FF47CAF002100BF421841F0A9
:10236000010382F8013341F0020382F8023341F0A5
:10237000030382F8033341F0040382F8043341F08D
:10238000050382F8053341F0060382F8063341F075
:10239000070382F8073341F0080382F8083341F05D
:1023A000090382F8093341F00A0382F80A3341F045
:1023B0000B0382F80B3341F00C0382F80C3341F02D
:1023C0000D0382F80D3341F00E0382F80E3341F015
:1023D0000F0382F80F3341F0100382F8103341F0FD
:1023E000110382F8113341F0120382F8123341F0E5
:1023F000130382F8133341F0140382F8143341F0CD
:10240000150382F8153341F0160382F8163341F0B4
:10241000170382F8173341F0180382F8183341F09C
:10242000190382F8193341F01A0382F81A3341F084
:102430001B0382F81B3341F01C0382F81C3341F06C
:102440001D0382F81D3341F01E0382F8001382F849
:102450001E3341F01F032031B1F5807F82F81F3316
:102460007FF47CAF002100BF421841F0010382F8E5
:10247000013441F0020382F8023441F0030382F890
:10248000033441F0040382F8043441F0050382F878
:10249000053441F0060382F8063441F0070382F860
:1024A000073441F0080382F8083441F0090382F848
:1024B000093441F00A0382F80A3441F00B0382F830
:1024C0000B3441F00C0382F80C3441F00D0382F818
:1024D0000D3441F00E0382F80E3441F00F0382F800
:1024E0000F3441F0100382F8103441F0110382F8E8
:1024F000113441F0120382F8123441F0130382F8D0
:10250000133441F0140382F8143441F0150382F8B7
:10251000153441F0160382F8163441F0170382F89F
:10252000173441F0180382F8183441F0190382F887
:10253000193441F01A0382F81A3441F01B0382F86F
:102540001B3441F01C0382F81C3441F01D0382F857
:102550001D3441F01E0382F8001482F81E3441F04D
:102560001F032031B1F5807F82F81F347FF47CAFE8
:10257000002100BF421841F0010382F8013541F00B
:10258000020382F8023541F0030382F8033541F07B
:10259000040382F8043541F0050382F8053541F063
:1025A000060382F8063541F0070382F8073541F04B
:1025B000080382F8083541F0090382F8093541F033
:1025C0000A0382F80A3541F00B0382F80B3541F01B
:1025D0000C0382F80C3541F00D0382F80D3541F003
:1025E0000E0382F80E3541F00F0382F80F3541F0EB
:1025F000100382F8103541F0110382F8113541F0D3
:10260000120382F8123541F0130382F8133541F0BA
:10261000140382F8143541F0150382F8153541F0A2
:10262000160382F8163541F0170382F8173541F08A
:10263000180382F8183541F0190382F8193541F072
:102640001A0382F81A3541F01B0382F81B3541F05A
:102650001C0382F81C3541F01D0382F81D3541F042
:102660001E0382F8001582F81E3541F01F03203149
:10267000B1F5807F82F81F357FF47CAF002100BF69
:10268000421841F0010382F8013641F0020382F85A
:10269000023641F0030382F8033641F0040382F866
:1026A000043641F0050382F8053641F0060382F84E
:1026B000063641F0070382F8073641F0080382F836
:1026C000083641F0090382F8093641F00A0382F81E
:1026D0000A3641F00B0382F80B3641F00C0382F806
:1026E0000C3641F00D0382F80D3641F00E0382F8EE
:1026F0000E3641F00F0382F80F3641F0100382F8D6
:10270000103641F0110382F8113641F0120382F8BD
:10271000123641F0130382F8133641F0140382F8A5
:10272000143641F0150382F8153641F0160382F88D
:10273000163641F0170382F8173641F0180382F875
:10274000183641F0190382F8193641F01A0382F85D
:102750001A3641F01B0382F81B3641F01C0382F845
:102760001C3641F01D0382F81D3641F01E0382F82D
:10277000001682F81E3641F01F032031B1F5807F2C
:1027800082F81F367FF47CAF002100BF421841F071
:10279000010382F8013741F0020382F8023741F069
:1027A000030382F8033741F0040382F8043741F051
:1027B000050382F8053741F0060382F8063741F039
:1027C000070382F8073741F0080382F8083741F021
:1027D000090382F8093741F00A0382F80A3741F009
:1027E0000B0382F80B3741F00C0382F80C3741F0F1
:1027F0000D0382F80D3741F00E0382F80E3741F0D9
:102800000F0382F80F3741F0100382F8103741F0C0
:10281000110382F8113741F0120382F8123741F0A8
:10282000130382F8133741F0140382F8143741F090
:10283000150382F8153741F0160382F8163741F078
:10284000170382F8173741F0180382F8183741F060
:10285000190382F8193741F01A0382F81A3741F048
:102860001B0382F81B3741F01C0382F81C3741F030
:102870001D0382F81D3741F01E0382F8001782F80D
:102880001E3741F01F032031B1F5807F82F81F37DA
:102890007FF47CAF002100BF421841F0010382F8B1
:1028A000013841F0020382F8023841F0030382F854
:1028B000033841F0040382F8043841F0050382F83C
:1028C000053841F0060382F8063841F0070382F824
:1028D000073841F0080382F8083841F0090382F80C
:1028E000093841F00A0382F80A3841F00B0382F8F4
:1028F0000B3841F00C0382F80C3841F00D0382F8DC
:102900000D3841F00E0382F80E3841F00F0382F8C3
:102910000F3841F0100382F8103841F0110382F8AB
:10292000113841F0120382F8123841F0130382F893
:10293000133841F0140382F8143841F0150382F87B
:10294000153841F0160382F8163841F0170382F863
:10295000173841F0180382F8183841F0190382F84B
:10296000193841F01A0382F81A3841F01B0382F833
:102970001B3841F01C0382F81C3841F01D0382F81B
:102980001D3841F01E0382F8001882F81E3841F00D
:102990001F032031B1F5807F82F81F387FF47CAFB0
:1029A000002100BF421841F0010382F8013941F0D3
:1029B000020382F8023941F0030382F8033941F03F
:1029C000040382F8043941F0050382F8053941F027
:1029D000060382F8063941F0070382F8073941F00F
:1029E000080382F8083941F0090382F8093941F0F7
:1029F0000A0382F80A3941F00B0382F80B3941F0DF
:102A00000C0382F80C3941F00D0382F80D3941F0C6
:102A10000E0382F80E3941F00F0382F80F3941F0AE
:102A2000100382F8103941F0110382F8113941F096
:102A3000120382F8123941F0130382F8133941F07E
:102A4000140382F8143941F0150382F8153941F066
:102A5000160382F8163941F0170382F8173941F04E
:102A6000180382F8183941F0190382F8193941F036
:102A70001A0382F81A3941F01B0382F81B3941F01E
:102A80001C0382F81C3941F01D0382F81D3941F006
:102A90001E0382F8001982F81E3941F01F0320310D
:102AA000B1F5807F82F81F397FF47CAF002100BF31
:102AB000421841F0010382F8013A41F0020382F822
:102AC000023A41F0030382F8033A41F0040382F82A
:102AD000043A41F0050382F8053A41F0060382F812
:102AE000063A41F0070382F8073A41F0080382F8FA
:102AF000083A41F0090382F8093A41F00A0382F8E2
:102B00000A3A41F00B0382F80B3A41F00C0382F8C9
:102B10000C3A41F00D0382F80D3A41F00E0382F8B1
:102B20000E3A41F00F0382F80F3A41F0100382F899
:102B3000103A41F0110382F8113A41F0120382F881
:102B4000123A41F0130382F8133A41F0140382F869
:102B5000143A41F0150382F8153A41F0160382F851
:102B6000163A41F0170382F8173A41F0180382F839
:102B7000183A41F0190382F8193A41F01A0382F821
:102B80001A3A41F01B0382F81B3A41F01C0382F809
:102B90001C3A41F01D0382F81D3A41F01E0382F8F1
:102BA000001A82F81E3A41F01F032031B1F5807FF0
:102BB00082F81F3A7FF47CAF002100BF421841F039
:102BC000010382F8013B41F0020382F8023B41F02D
:102BD000030382F8033B41F0040382F8043B41F015
:102BE000050382F8053B41F0060382F8063B41F0FD
:102BF000070382F8073B41F0080382F8083B41F0E5
:102C0000090382F8093B41F00A0382F80A3B41F0CC
:102C10000B0382F80B3B41F00C0382F80C3B41F0B4
:102C20000D0382F80D3B41F00E0382F80E3B41F09C
:102C30000F0382F80F3B41F0100382F8103B41F084
:102C4000110382F8113B41F0120382F8123B41F06C
:102C5000130382F8133B41F0140382F8143B41F054
:102C6000150382F8153B41F0160382F8163B41F03C
:102C7000170382F8173B41F0180382F8183B41F024
:102C8000190382F8193B41F01A0382F81A3B41F00C
:102C90001B0382F81B3B41F01C0382F81C3B41F0F4
:102CA0001D0382F81D3B41F01E0382F8001B82F8D1
:102CB0001E3B41F01F032031B1F5807F82F81F3B9E
:102CC0007FF47CAF002100BF421841F0010382F87D
:102CD000013C41F0020382F8023C41F0030382F818
:102CE000033C41F0040382F8043C41F0050382F800
:102CF000053C41F0060382F8063C41F0070382F8E8
:102D0000073C41F0080382F8083C41F0090382F8CF
:102D1000093C41F00A0382F80A3C41F00B0382F8B7
:102D20000B3C41F00C0382F80C3C41F00D0382F89F
:102D30000D3C41F00E0382F80E3C41F00F0382F887
:102D40000F3C41F0100382F8103C41F0110382F86F
:102D5000113C41F0120382F8123C41F0130382F857
:102D6000133C41F0140382F8143C41F0150382F83F
:102D7000153C41F0160382F8163C41F0170382F827
:102D8000173C41F0180382F8183C41F0190382F80F
:102D9000193C41F01A0382F81A3C41F01B0382F8F7
:102DA0001B3C41F01C0382F81C3C41F01D0382F8DF
:102DB0001D3C41F01E0382F8001C82F81E3C41F0CD
:102DC0001F032031B1F5807F82F81F3C7FF47CAF78
:102DD000002100BF421841F0010382F8013D41F09B
:102DE000020382F8023D41F0030382F8033D41F003
:102DF000040382F8043D41F0050382F8053D41F0EB
:102E0000060382F8063D41F0070382F8073D41F0D2
:102E1000080382F8083D41F0090382F8093D41F0BA
:102E20000A0382F80A3D41F00B0382F80B3D41F0A2
:102E30000C0382F80C3D41F00D0382F80D3D41F08A
:102E40000E0382F80E3D41F00F0382F80F3D41F072
:102E5000100382F8103D41F0110382F8113D41F05A
:102E6000120382F8123D41F0130382F8133D41F042
:102E7000140382F8143D41F0150382F8153D41F02A
:102E8000160382F8163D41F0170382F8173D41F012
:102E9000180382F8183D41F0190382F8193D41F0FA
:102EA0001A0382F81A3D41F01B0382F81B3D41F0E2
:102EB0001C0382F81C3D41F01D0382F81D3D41F0CA
:102EC0001E0382F8001D82F81E3D41F01F032031D1
:102ED000B1F5807F82F81F3D7FF47CAF002100BFF9
:102EE000421841F0010382F8013E41F0020382F8EA
:102EF000023E41F0030382F8033E41F0040382F8EE
:102F0000043E41F0050382F8053E41F0060382F8D5
:102F1000063E41F0070382F8073E41F0080382F8BD
:102F2000083E41F0090382F8093E41F00A0382F8A5
:102F30000A3E41F00B0382F80B3E41F00C0382F88D
:102F40000C3E41F00D0382F80D3E41F00E0382F875
:102F50000E3E41F00F0382F80F3E41F0100382F85D
:102F6000103E41F0110382F8113E41F0120382F845
:102F7000123E41F0130382F8133E41F0140382F82D
:102F8000143E41F0150382F8153E41F0160382F815
:102F9000163E41F0170382F8173E41F0180382F8FD
:102FA000183E41F0190382F8193E41F01A0382F8E5
:102FB0001A3E41F01B0382F81B3E41F01C0382F8CD
:102FC0001C3E41F01D0382F81D3E41F01E0382F8B5
:102FD000001E82F81E3E41F01F032031B1F5807FB4
:102FE00082F81F3E7FF47CAF002100BF421841F001
:102FF000010382F8013F41F0020382F8023F41F0F1
:10300000030382F8033F41F0040382F8043F41F0D8
:10301000050382F8053F41F0060382F8063F41F0C0
:10302000070382F8073F41F0080382F8083F41F0A8
:10303000090382F8093F41F00A0382F80A3F41F090
:103040000B0382F80B3F41F00C0382F80C3F41F078
:103050000D0382F80D3F41F00E0382F80E3F41F060
:103060000F0382F80F3F41F0100382F8103F41F048
:10307000110382F8113F41F0120382F8123F41F030
:10308000130382F8133F41F0140382F8143F41F018
:10309000150382F8153F41F0160382F8163F41F000
:1030A000170382F8173F41F0180382F8183F41F0E8
:1030B000190382F8193F41F01A0382F81A3F41F0D0
:1030C0001B0382F81B3F41F01C0382F81C3F41F0B8
:1030D0001D0382F81D3F41F01E0382F8001F82F895
:1030E0001E3F41F01F032031B1F5807F82F81F3F62
:1030F0007FF47CAF41F26D00C2F2000000214FF47A
:10310000805204F1C8050026FEF7CEFE40F26404AA
:10311000C2F20004204600214FF48052FEF780FEE8
:10312000A05D864240F03886A0194278711C914219
:1031300040F0328682780131914240F02D86C2788B
:103140000131914240F0288602790131914240F0EC
:10315000238642790131914240F01E868279013105
:10316000914240F01986C2790131914240F01486B3
:10317000027A0131914240F00F86427A0131914248
:1031800040F00A86827A0131914240F00586C27A87
:103190000131914240F00086027B0131914240F0C2
:1031A000FB85427B0131914240F0F685827B013103
:1031B000914240F0F185C27B481C904240F0EC8582
:1031C000461CB6F5807FABD10021601890F8002135
:1031D000914240F0E18590F801210131914240F0A7
:1031E000DB8590F802210131914240F0D58590F8BD
:1031F00003210131914240F0CF8590F80421013143
:10320000914240F0C98590F805210131914240F08A
:10321000C38590F806210131914240F0BD8590F8B8
:1032200007210131914240F0B78590F80821013122
:10323000914240F0B18590F809210131914240F06E
:10324000AB8590F80A210131914240F0A58590F8B4
:103250000B210131914240F09F8590F80C21013102
:10326000914240F0998590F80D210131914240F052
:10327000938590F80E210131914240F08D8590F8B0
:103280000F21481C904240F08785411CB1F5807F9A
:103290009BD10021601890F80022914240F07C857B
:1032A00090F801220131914240F0768590F8022297
:1032B0000131914240F0708590F803220131914232
:1032C00040F06A8590F804220131914240F0648513
:1032D00090F805220131914240F05E8590F8062277
:1032E0000131914240F0588590F807220131914216
:1032F00040F0528590F808220131914240F04C850F
:1033000090F809220131914240F0468590F80A2256
:103310000131914240F0408590F80B2201319142F9
:1033200040F03A8590F80C220131914240F034850A
:1033300090F80D220131914240F02E8590F80E2236
:103340000131914240F0288590F80F22481C9042AC
:1033500040F02285411CB1F5807F9BD1002160188F
:1033600090F80023914240F0178590F80123013135
:10337000914240F0118590F802230131914240F0D2
:103380000B8590F803230131914240F0058590F8B8
:1033900004230131914240F0FF8490F8052301316C
:1033A000914240F0F98490F806230131914240F0B7
:1033B000F38490F807230131914240F0ED8490F8B6
:1033C00008230131914240F0E78490F8092301314C
:1033D000914240F0E18490F80A230131914240F09B
:1033E000DB8490F80B230131914240F0D58490F8B2
:1033F0000C230131914240F0CF8490F80D2301312C
:10340000914240F0C98490F80E230131914240F07E
:10341000C38490F80F23481C904240F0BD84411CA7
:10342000B1F5807F9BD10021601890F80024914273
:1034300040F0B28490F801240131914240F0AC8414
:1034400090F802240131914240F0A68490F80324C0
:103450000131914240F0A08490F80424013191425E
:1034600040F09A8490F805240131914240F0948410
:1034700090F806240131914240F08E8490F80724A0
:103480000131914240F0888490F808240131914242
:1034900040F0828490F809240131914240F07C840C
:1034A00090F80A240131914240F0768490F80B2480
:1034B0000131914240F0708490F80C240131914226
:1034C00040F06A8490F80D240131914240F0648408
:1034D00090F80E240131914240F05E8490F80F2460
:1034E000481C904240F05884411CB1F5807F9BD12C
:1034F0000021601890F80025914240F04D8490F82A
:1035000001250131914240F0478490F802250131B4
:10351000914240F0418490F803250131914240F0FE
:103520003B8490F804250131914240F0358490F8B5
:1035300005250131914240F02F8490F80625013194
:10354000914240F0298490F807250131914240F0E2
:10355000238490F808250131914240F01D8490F8B1
:1035600009250131914240F0178490F80A25013174
:10357000914240F0118490F80B250131914240F0C6
:103580000B8490F80C250131914240F0058490F8AD
:103590000D250131914240F0FF8390F80E25013155
:1035A000914240F0F98390F80F25481C904240F07A
:1035B000F383411CB1F5807F9BD10021601890F806
:1035C0000026914240F0E88390F8012601319142B3
:1035D00040F0E28390F802260131914240F0DC8312
:1035E00090F803260131914240F0D68390F80426EA
:1035F0000131914240F0D08390F80526013191428B
:1036000040F0CA8390F806260131914240F0C4830D
:1036100090F807260131914240F0BE8390F80826C9
:103620000131914240F0B88390F80926013191426E
:1036300040F0B28390F80A260131914240F0AC8309
:1036400090F80B260131914240F0A68390F80C26A9
:103650000131914240F0A08390F80D260131914252
:1036600040F09A8390F80E260131914240F0948305
:1036700090F80F26481C904240F08E83411CB1F513
:10368000807F9BD10021601890F80027914240F084
:10369000838390F801270131914240F07D8390F8B7
:1036A00002270131914240F0778390F803270131DE
:1036B000914240F0718390F804270131914240F02B
:1036C0006B8390F805270131914240F0658390F8B3
:1036D00006270131914240F05F8390F807270131BE
:1036E000914240F0598390F808270131914240F00F
:1036F000538390F809270131914240F04D8390F8AF
:103700000A270131914240F0478390F80B2701319D
:10371000914240F0418390F80C270131914240F0F2
:103720003B8390F80D270131914240F0358390F8AA
:103730000E270131914240F02F8390F80F27481C4B
:10374000904240F02983411CB1F5807F9BD100213C
:10375000601890F80028914240F01E8390F80128EC
:103760000131914240F0188390F8022801319142D2
:1037700040F0128390F803280131914240F00C830D
:1037800090F804280131914240F0068390F8052812
:103790000131914240F0008390F8062801319142B6
:1037A00040F0FA8290F807280131914240F0F4820B
:1037B00090F808280131914240F0EE8290F80928F3
:1037C0000131914240F0E88290F80A28013191429B
:1037D00040F0E28290F80B280131914240F0DC8207
:1037E00090F80C280131914240F0D68290F80D28D3
:1037F0000131914240F0D08290F80E28013191427F
:1038000040F0CA8290F80F28481C904240F0C482D1
:10381000411CB1F5807F9BD10021601890F80029F0
:10382000914240F0B98290F801290131914240F073
:10383000B38290F802290131914240F0AD8290F8B4
:1038400003290131914240F0A78290F80429013107
:10385000914240F0A18290F805290131914240F057
:103860009B8290F806290131914240F0958290F8B0
:1038700007290131914240F08F8290F808290131E7
:10388000914240F0898290F809290131914240F03B
:10389000838290F80A290131914240F07D8290F8AC
:1038A0000B290131914240F0778290F80C290131C7
:1038B000914240F0718290F80D290131914240F01F
:1038C0006B8290F80E290131914240F0658290F8A8
:1038D0000F29481C904240F05F82411CB1F5807F67
:1038E0009BD10021601890F8002A914240F0548248
:1038F00090F8012A0131914240F04E8290F8022A5C
:103900000131914240F0488290F8032A01319142FE
:1039100040F0428290F8042A0131914240F03C820A
:1039200090F8052A0131914240F0368290F8062A3B
:103930000131914240F0308290F8072A01319142E2
:1039400040F02A8290F8082A0131914240F0248206
:1039500090F8092A0131914240F01E8290F80A2A1B
:103960000131914240F0188290F80B2A01319142C6
:1039700040F0128290F80C2A0131914240F00C8202
:1039800090F80D2A0131914240F0068290F80E2AFB
:103990000131914240F0008290F80F2A481C904279
:1039A00040F0FA81411CB1F5807F9BD10021601865
:1039B00090F8002B914240F0EF8190F8012B0131FB
:1039C000914240F0E98190F8022B0131914240F0A0
:1039D000E38190F8032B0131914240F0DD8190F8B2
:1039E000042B0131914240F0D78190F8052B013131
:1039F000914240F0D18190F8062B0131914240F084
:103A0000CB8190F8072B0131914240F0C58190F8AD
:103A1000082B0131914240F0BF8190F8092B013110
:103A2000914240F0B98190F80A2B0131914240F067
:103A3000B38190F80B2B0131914240F0AD8190F8A9
:103A40000C2B0131914240F0A78190F80D2B0131F0
:103A5000914240F0A18190F80E2B0131914240F04B
:103A60009B8190F80F2B481C904240F09581411C9F
:103A7000B1F5807F9BD10021601890F8002C914215
:103A800040F08A8190F8012C0131914240F084810C
:103A900090F8022C0131914240F07E8190F8032C85
:103AA0000131914240F0788190F8042C013191422B
:103AB00040F0728190F8052C0131914240F06C8108
:103AC00090F8062C0131914240F0668190F8072C65
:103AD0000131914240F0608190F8082C013191420F
:103AE00040F05A8190F8092C0131914240F0548104
:103AF00090F80A2C0131914240F04E8190F80B2C45
:103B00000131914240F0488190F80C2C01319142F2
:103B100040F0428190F80D2C0131914240F03C81FF
:103B200090F80E2C0131914240F0368190F80F2C24
:103B3000481C904240F03081411CB1F5807F9BD100
:103B40000021601890F8002D914240F0258190F8F6
:103B5000012D0131914240F01F8190F8022D013179
:103B6000914240F0198190F8032D0131914240F0CB
:103B7000138190F8042D0131914240F00D8190F8AD
:103B8000052D0131914240F0078190F8062D013159
:103B9000914240F0018190F8072D0131914240F0AF
:103BA000FB8090F8082D0131914240F0F58090F8AB
:103BB000092D0131914240F0EF8090F80A2D01313A
:103BC000914240F0E98090F80B2D0131914240F094
:103BD000E38090F80C2D0131914240F0DD8090F8A7
:103BE0000D2D0131914240F0D78090F80E2D01311A
:103BF000914240F0D18090F80F2D481C904240F047
:103C0000CB80411CB1F5807F9BD10021601890F8DA
:103C1000002E914240F0C08090F8012E0131914277
:103C200040F0BA8090F8022E0131914240F0B48009
:103C300090F8032E0131914240F0AE8090F8042EAE
:103C40000131914240F0A88090F8052E0131914257
:103C500040F0A28090F8062E0131914240F09C8005
:103C600090F8072E0131914240F0968090F8082E8E
:103C70000131914240F0908090F8092E013191423B
:103C800040F08A8090F80A2E0131914240F0848001
:103C900090F80B2E013191427ED190F80C2E01311B
:103CA000914279D190F80D2E0131914274D190F862
:103CB0000E2E013191426FD190F80F2E481C904288
:103CC0006AD1411CB1F5807FA0D10021601890F825
:103CD000002F914260D190F8012F013191425BD1C8
:103CE00090F8022F0131914256D190F8032F013103
:103CF000914251D190F8042F013191424CD190F86A
:103D0000052F0131914247D190F8062F01319142A0
:103D100042D190F8072F013191423DD190F8082F00
:103D20000131914238D190F8092F0131914233D1BC
:103D300090F80A2F013191422ED190F80B2F0131CA
:103D4000914229D190F80C2F0131914224D190F861
:103D50000D2F013191421FD190F80E2F0131914268
:103D60001AD190F80F2F481C904215D1411CB1F583
:103D7000807FABD1FCF778FB0446FEF7BBF8AC4282
:103D8000F8D300284FF0C80008BF4FF4FA70251888
:103D9000FEF706F9EEE700BFFEF702F95020FCF748
:103DA00065FAF9E7F0B595B040F20C06C2F20006EC
:103DB0003178002005294FF035018DF804000DD130
:103DC00007914FF48071CDE90E00CDE90800CDE9EF
:103DD0000A00CDE90C014FF080710CE007914FF41F
:103DE0004071CDE90C014FF04071CDE90E00CDE9F5
:103DF0000800CDE90A00109101211290139014904F
:103E000040F218001191C2F2000007A941F2883275
:103E1000FCF7FAFC40F21800C2F2000001A941F2DE
:103E20008832FCF745FE9DF80440A0077AD430782C
:103E30004FF4807104284FF0060008BF4FF4407122
:103E4000079040F218000D910025C2F2000007A96A
:103E500041F28832CDE90E5510950C95CDE91255F9
:103E60001495FCF7D1FCF0B90220CDE90100012046
:103E70000490102003904FF48000069005200790D6
:103E800030784FF080710595042808BF4FF04071DD
:103E900040F218001091C2F2000007A901AA41F2F5
:103EA0008833FCF71FFC307844F0020105284FF0FE
:103EB00031008DF804100FD107904FF480700D90F1
:103EC0000020CDE90E00CDE90800CDE90A000C90F4
:103ED0004FF080710EE000BF07904FF440700D90DE
:103EE00000204FF04071CDE90E00CDE90800CDE98A
:103EF0000A000C901091012112901390149040F23E
:103F000018001191C2F2000007A941F28832FCF7B3
:103F10007BFC40F21800C2F2000001A941F2883295
:103F2000FCF790FE382040F2180407904FF48070A0
:103F3000C2F200040D90002707A9204641F2883202
:103F4000CDE90877CDE90A770C97CDE90E77CDE971
:103F50001077CDE912771497FCF756FC30784FF4C0
:103F6000407105284FF0407008BF4FF4807108BFC2
:103F70004FF08070109010200D91052103904FF4A8
:103F80008000CDE907170125069007A901AA204660
:103F900041F288330A97CDE90E770C97CDE9127775
:103FA00014970197029505970495FCF79BFB18B1B0
:103FB000284615B0F0BD00BF04203070082008214D
:103FC00000F096F90546284615B0F0BD10B58EB044
:103FD00040F20C00C2F200000078052822D19420A3
:103FE00000904FF480704FF4005106900020039130
:103FF0004FF44061019002900490CDE90710062132
:104000004FF04072CDE90B000D9040F21800059181
:10401000CDE90921C2F20000694641F28832FCF77D
:10402000F3FB21E0902000904FF440704FF40051DA
:104030000690002003914FF44061CDE907104FF046
:1040400040710991062101900290CDE90400CDE96B
:104050000A10CDE90C0040F21800C2F200006946D7
:1040600041F28832FCF7D0FB40F2100440F2180015
:10407000C2F20004C2F20000214641F28832FCF78D
:1040800017FD218800280ABA4FF0010108BF110C62
:1040900008460EB010BD000080B58EB00520FCF7BC
:1040A000E5F8FDF71FFC4FF4807006906620009045
:1040B0000020CDE9070009900590CDE90B000D9097
:1040C00040F21800C2F20000694641F28832FCF763
:1040D0009BFB28BB9920009040F21800C2F2000020
:1040E000694641F28832FCF78FFBC8B94FF4407043
:1040F00006906620009040F21800C2F20000694667
:1041000041F28832FCF780FB50B99920009040F2D0
:104110001800C2F20000694641F28832FCF774FBD5
:104120000020FCF7A3F8FFF751FF41F26801C2F24B
:104130000001088000F002F80EB080BDB0B590B06C
:1041400040F20C05C2F200052978002005294FF045
:1041500005018DF807000DD102914FF48071CDE972
:104160000900CDE90300CDE90500CDE907014FF0D5
:1041700080710CE002914FF44071CDE907014FF0DE
:104180004071CDE90900CDE90300CDE905000B91AF
:1041900001210D900E900F9040F218000C91C2F288
:1041A000000002A941F28832FCF72EFB40F2180011
:1041B000C2F200000DF1070141F28832FCF778FCF1
:1041C0009DF8070041F26A042978C2F200042070C9
:1041D000002005294FF035018DF807000ED102911E
:1041E0004FF48071CDE90900CDE90300CDE9050068
:1041F000CDE907014FF080710DE000BF02914FF44F
:104200004071CDE907014FF04071CDE90900CDE9DA
:104210000300CDE905000B9101210D900E900F9048
:1042200040F218000C91C2F2000002A941F288325B
:10423000FCF7EAFA40F21800C2F200000DF10701A3
:1042400041F28832FCF734FC9DF807002978607051
:10425000002005294FF015018DF807001CD10291AF
:104260004FF48071CDE907014FF080710B9101216E
:10427000CDE90900CDE90300CDE90500CDE90C1039
:10428000CDE90E0040F21800C2F2000002A941F28E
:104290008832FCF7B9FA1BE002914FF44071CDE986
:1042A00007014FF040710B910121CDE90900CDE9E3
:1042B0000300CDE90500CDE90C10CDE90E0040F278
:1042C0001800C2F2000002A941F28832FCF79CFA01
:1042D00040F21800C2F200000DF1070141F28832ED
:1042E000FCF7E6FB9DF807100020A17010B0B0BDF0
:1042F000B0B596B04FF0FF3202EBD10100F01E00D6
:1043000001F0030141EAC00040F20C051038C2F28E
:1043100000058DF8070028784FF4807104284FF0CD
:10432000060008BF4FF44071089040F218000E914B
:104330000024C2F2000008A941F28832CDE90F44FE
:1043400011940D94CDE913441594FCF75DFAF0B97E
:104350000220CDE9020001200590102004904FF4C6
:10436000800007900520089028784FF0807106940F
:10437000042808BF4FF0407140F218001191C2F2BA
:10438000000008A902AA41F28833FCF7ABF9C0206B
:1043900008904FF44070CDE90D404FF040701190FF
:1043A0000120CDE90F44CDE90944CDE90B44CDE925
:1043B0001204CDE9144440F21804C2F2000408A922
:1043C000204641F28832FCF71FFA0DF10701204622
:1043D00041F28832FCF736FC16B0B0BD02E008C8E6
:1043E000121F08C1002AFAD170477047002001E06F
:1043F00001C1121F002AFBD170470000000000001D
:104400000000010203040607080900003044000808
:104410000000002010000000DC43000840440008B9
:104420001000002060240000EC43000800000000A1
:1044300010000000010000000024F400050000004E
:04000005080001D915
:00000001FF
