:020000040800F2
:10000000E81F0020ED010008392E0008C12C00086F
:10001000352E000859030008794D00080000000043
:10002000000000000000000000000000412E000859
:10003000E9030008000000003D2E0008452E0008DE
:10004000070200080702000807020008070200086C
:10005000070200080702000807020008070200085C
:10006000070200080702000807020008070200084C
:10007000070200080702000807020008070200083C
:10008000070200080702000807020008070200082C
:10009000354C0008070200080702000807020008A4
:1000A000070200080702000807020008070200080C
:1000B00007020008070200080702000807020008FC
:1000C00007020008070200080702000807020008EC
:1000D00007020008070200080702000807020008DC
:1000E00007020008070200080702000807020008CC
:1000F00007020008070200080702000807020008BC
:1001000007020008070200080702000807020008AB
:10011000070200080702000807020008070200089B
:10012000070200080702000807020008070200088B
:10013000070200080702000807020008070200087B
:10014000070200080702000807020008070200086B
:10015000070200080702000807020008070200085B
:10016000070200080702000807020008070200084B
:10017000070200080702000807020008070200083B
:10018000070200080702000807020008070200082B
:10019000070200080000000007020008070200082C
:1001A000070200080702000807020008070200080B
:1001B00007020008070200080702000807020008FB
:1001C00007020008070200080702000807020008EB
:1001D0000702000807020008DFF80CD000F040F822
:1001E00000480047394E0008E81F002006488047B5
:1001F00006480047FEE7FEE7FEE7FEE7FEE7FEE70C
:10020000FEE7FEE7FEE7FEE7B52E0008D90100088D
:10021000D2B201E000F8012B491EFBD27047002248
:10022000F6E710B513460A4604461946FFF7F0FFF5
:10023000204610BD30B50B46014600202022012487
:1002400009E021FA02F59D4205D303FA02F5491BA4
:1002500004FA02F52844151EA2F10102F1DC30BDBA
:10026000064C074D06E0E06840F0010394E8070003
:1002700098471034AC42F6D3FFF7B2FF3053000872
:100280005053000870B58C1810F8015B15F0070387
:1002900001D110F8013B2A1106D110F8012B03E01F
:1002A00010F8016B01F8016B5B1EF9D12B0705D427
:1002B0000023521E0DD401F8013BFAE710F8013B70
:1002C000CB1A921C03E013F8015B01F8015B521E8C
:1002D000F9D5A142D8D3002070BD0000B0B50168A7
:1002E00004468A688868C0074FF0000031D012F0D9
:1002F000020218BFB0BD886800F00D0001281FD1B0
:1003000088684FF6C072C7F6FF72104002308860EE
:100310000320086000F0F0FE21688968C90704BF67
:100320000020B0BD054602E08068C00712D000F092
:10033000E3FE411B20680329F6D38168C907F3D087
:10034000E06D40F01000E065206E40F00100206696
:100350000120B0BD0020B0BDFEE7000000207047C6
:100360000020704710B541F2AC54C2F2000440F6D0
:10037000AC51C2F200012046002202F0DDFF40F243
:10038000AC51C2F20001204602F0CCFF002010BDAB
:1003900010B541F2AC54C2F200040146204602F00E
:1003A000C1FF204602F0EAFE002010BD0020704789
:1003B00010B541F2AC52C2F20002D2F8BC22D2F81F
:1003C0001432002B1CBF012010BD41F2AC54C2F20C
:1003D00000040A460146204602F0AEFF2046BDE872
:1003E000104003F02DB8000070470000EFF31080BC
:1003F00072B600BFFEE70000B0B582B00446002030
:10040000019094F85800012802D1022002B0B0BD3A
:10041000012084F8580020460D46FFF75FFFE16D8C
:1004200010B141F010014BE041F202129143023150
:10043000E16521684FF6C073D1F808C0C3F6FF73B9
:1004400003EA0C0305F080454DF601622B44C0F22F
:10045000040203F100438B608B68B3F1FF3F2BDC98
:10046000019B01330193019B93421DD88B68B3F12B
:10047000FF3F21DC019B01330193019B934213D881
:100480008B68B3F1FF3F17DC019B01330193019BA4
:10049000934209D88B68B3F1FF3F0DDC019B013318
:1004A0000193019B9342D7D9E06D40F0100020F0FA
:1004B0000201012004E000BFE16D012262F30101AD
:1004C000E165002184F8581002B0B0BDF0B581B0EC
:1004D0000022009290F85820012A03D102210846F8
:1004E00001B0F0BD0123076880F85830BB685B0796
:1004F00036D4D1E900531F26C3F3012407EB84044B
:10050000226B03F01F039E40B243C5F3846606FAD4
:1005100003F31A432263BA68BB6802F0040203F0D3
:100520000803D21840F0BD800A6807F114030426BE
:10053000C2F34064D1F808E006EAD25C53F82440E4
:10054000C2F304550722AA40BEF1004F24EA020478
:100550000CD143F80C401A6842F000430EE000BF93
:10056000C16D41F02001C165012199E10EFA05F24A
:10057000224343F80C201A6822F000437B61D1E942
:100580000435FC68042B5FD13A6E3A6E0B68C2F3F7
:10059000846293FAA3F6C3F3846C6FF3DF43B6FA75
:1005A00086F5002B2C464FF6FF7E08BF6446A2421C
:1005B000C0F2070E0CD13A6E22F000423A660A6889
:1005C00002EA0E03C2F3846C92FAA2F2B2FA82F546
:1005D0007A6E7A6E002BC2F384622C4608BF6446A2
:1005E000A2420CD17A6E22F000427A660A6802EAD0
:1005F0000E03C2F3846C92FAA2F2B2FA82F5BA6EDA
:10060000BA6E002BC2F384622C4608BF6446A24235
:100610000CD1BA6E22F00042BA660A6802EA0E03F2
:10062000C2F3846C92FAA2F2B2FA82F5FA6EFA6E12
:10063000002BC2F3846208BF6546AA4231D1FA6E2C
:1006400022F00042FA662CE0062202EA940205FA41
:1006500002FC0E6807F1600555F823404FF20002D6
:10066000C0F2FF3206F0F846224046EA0C0632435A
:1006700042F0004245F823200A698B6955F8226050
:1006800026F08076334345F822300A690B7F55F80F
:100690002260012B26F0007608BF06F1007645F8AF
:1006A0002260BA68D2074CD10D68CA6800262B4672
:1006B000C4F27F06B2426FF3DF4319D1D7F8B020FE
:1006C00042EA0302C7F8B020C3B195FAA5F2B2FA24
:1006D00082F2013202F01E03092B02F01F0316D82A
:1006E00001229A4003EB430342EA03531BE000BF9D
:1006F000D7F8B0209A43C7F8B02022E0012202EBDD
:10070000956202F01E030A2B02F01F03E8D30122B8
:1007100000269A4003EB4303CFF6206606EB035313
:100720001A4342F00073C3F3406607EB86068A68FB
:100730007569C3F3045307249C40A5439A402A4398
:1007400072610B680021C8F208010B4266D040F2CA
:10075000003EC5F2000EAEF500710EF580648F42CA
:1007600004BF40F20034C5F200042146B7F1A04FA7
:1007700004BF40F20031C5F200018D680022CCF2C6
:100780002132934205F0E07C04D01022C9F2C0026D
:10079000934245D12A0261D440F20062C5F20002C0
:1007A000974202D0B7F1A04F5AD18A6822F0E07286
:1007B00042EA0C0242F400028A6040F22801C2F2CE
:1007C0000001096842F663528909C0F23E52A1FB5A
:1007D0000212910901EB41010C2202EB810100910F
:1007E0000099002948D00099013900910099002909
:1007F00044D00099013900910099002940D0009916
:1008000001390091009900293CD0009901390091EB
:10081000009900294FF00001E5D141E000213FE0BF
:100820000022CCF25272934208BF15F0807219D0A8
:100830000021CCF684318B424FF0000108BF15F443
:1008400080022DD1B7F1A04F1FD040F20011C5F2A8
:1008500000018F4218D1002122E000BF00211FE0DB
:1008600000211DE08A6822F0E07242EA0C0242F0A8
:1008700080728A60002113E0002111E000210FE066
:1008800000210DE000210BE0A646DEF8081021F063
:10089000E07141EA0C0141F48001CEF8081000211A
:1008A000002280F85820084601B0F0BDC06D7047A6
:1008B0000068006C70470000B0B582B004460020AC
:1008C00001904CB1E06D58B121688868800012D465
:1008D0008868C00019D54CE0012002B0B0BD00BF4F
:1008E000204600F02BF90020206684F8580021688B
:1008F00088688000ECD588684FF6C072C5F6FF7234
:10090000104088608868C00033D44FF6C072886891
:10091000C5F6FF7202F18052104000F180508860ED
:1009200040F22800C2F20000006842F663528009DB
:10093000C0F23E52A0FB02029009022202EB4000EC
:1009400001900198A8B100BF019801380190019869
:1009500078B1019801380190019850B1019801389F
:100960000190019828B10198013801900198002860
:10097000EAD18868C00009D4E06D40F01000E0655D
:10098000206E40F001002066012000E000208A680F
:10099000E36D02F0040203F01003D218E26D40F0A0
:1009A000858022F481720232E2658A68D20729D1F9
:1009B00040F2001341F48072C5F2000340F2080CCB
:1009C0009A42C5F2000C77D1DCF80030DCF8002147
:1009D0001A43D20716D10CF1F8024FF4E063D4F8B1
:1009E00004E0914208BF4FF44073B1F1A04F08BF3B
:1009F0004FF440735CF8032022F47C1242EA0E02AA
:100A00004CF80320627FE36B43EA4232D4E902C32D
:100A10001A4394F8243042EA0C02012B42EA0342C2
:100A200007D1D4F828C00023CFF6FE7303EB4C4364
:100A30001A43E36A33B1D4F830C003F4787343EA5D
:100A40000C031A43D1F80CC044F20703CFF6F0733D
:100A500003EA0C031A43CA600A69636B22F040621E
:100A60001A430A618A688B6802F0040203F00803E3
:100A7000D21852D194F83820237F520042EA833CA6
:100A8000CB6844F2020223EA020242EA0C02CA6084
:100A900022690B69F2B143F480330B61D1F8C0C015
:100AA00043F6FF732CEA03031A431BE042F01001E4
:100AB0000120E16502B0B0BDDCF800E4DCF80025FF
:100AC000DCF8003642EA0E021A43D2073FF483AF45
:100AD00098E700BF23F480320A61D1F8C02043F6C2
:100AE000FF739A43C1F8C02094F840300A69012B83
:100AF00010D140F2FD7322EA030CD4E91132D4E99B
:100B000013E543EA0C031A4342EA0E022A4342F079
:100B1000010201E022F001020A6162690B6B012A05
:100B200023F00F0202D1236A013B1A430A63E16DED
:100B3000012262F30101E16502B0B0BD10B59CB0C5
:100B400004460020CDE91A0002A804305021FFF726
:100B500066FB206840F20011C5F20001884201D016
:100B60001CB010BD4FF4004002904FF000501390A5
:100B700002A801F041FB002818BFFFF737FC41F243
:100B80004C00C4F20200016841F4005101600168A8
:100B900001F4005101910199016841F002010160E5
:100BA000006817A900F00200019001980420179036
:100BB000032018900020199040F20040C4F6000075
:100BC00000F0B0F91CB010BD2DE9F04740F200482C
:100BD0000446C5F2000800680D46A8F540724FF4BF
:100BE0004271D4F81890904208BF6FF0F701B0F14D
:100BF000A04F08BF6FF0F70151F80820B9F1080FB6
:100C000002F01F0A02D1082711E000BFBAF1090F54
:100C100000F29480012202FA0AF240F221231A42E1
:100C200000F08C80C068C00740F08E80042700F080
:100C300063FA21680A683A422AD0E06D40F40070F5
:100C4000E065C86810F4406F0FD1607F68B908682C
:100C500000070AD5E06D20F48070E065E06DC00407
:100C600003D4E06D40F00100E06540F20010C5F2F1
:100C7000000081423ED040F20052C5F20002914293
:100C80000A4647D142468A420A4638D142E000BF6E
:100C90000646681C29D065B900F02EFA216808685C
:100CA00038420FD008683842F6D0C6E708683842A4
:100CB000C3D100F021FA801B2168A842F6D9086848
:100CC0003842F3D1E06D40F00400E065002084F884
:100CD00058000320BDE8F08708683842ADD10868A5
:100CE0003842AAD108683842A7D108683842F3D000
:100CF000A3E700BF4FF0A0428A420A460AD0BAF1E9
:100D0000090F29D8012202FA0AF240F221231A42DD
:100D10000A4621D0D068B9F1080F05D10820086033
:100D20000020BDE8F08700BF400444BF0020BDE8BC
:100D3000F0870C2008600020BDE8F08758F801001B
:100D400010F4604F3FF472AFE06D40F02000E065BA
:100D50000120BDE8F08700BF814209D040F2005079
:100D6000C5F200000A46814208BF4246D2E700BFF2
:100D70004FF0A042CEE700002DE9F04140F20046DE
:100D8000C5F2000601680446A6F540704FF44272B1
:100D9000814208BF6FF0F702B1F1A04F08BF6FF0BA
:100DA000F70297598868400703D494F8580001283F
:100DB00002D10220BDE8F081012084F85800886843
:100DC0004FF6C078C007C7F6FF7837D1886808F1BA
:100DD0007F0210420ED0E06D40F01000E065206E02
:100DE00040F001002066002084F858000120BDE892
:100DF000F08100BF886800EA080040F001008860C8
:100E000000F07AF921680A68D20717D1054602E096
:100E10000868C00712D18868C00705D1886800EA51
:100E2000080040F00100886000F066F9401B21686E
:100E30000328EDD30868C007EAD1CCE7E06D40F69F
:100E40000172904300F5807040F20012E065C5F237
:100E5000000240F2005007F01F039142C5F200006B
:100E600008D081420CD137468F4218BF002B07D0E3
:100E70000AE000BF4FF0A0478F4218BF002B03D1FC
:100E8000E76D27F48017E765E56D0027ED044FF067
:100E9000000544BF256E25F0060525661C259142F8
:100EA0000D6084F8587005D0814210D137468F42CA
:100EB00004D10CE04FF0A0478F4208D0092B17D87F
:100EC000012707FA03F340F221273B4210D0C868FC
:100ED000800104D5E06D012262F30D30E065886881
:100EE00000EA080040F0040088600020BDE8F081BE
:100EF000E36D914243F48013E36503D0814208BF60
:100F0000314601E04FF0A041C86880015CBF00207D
:100F1000BDE8F081E06D012161F30D30E065002056
:100F2000BDE8F0812DE9F04F82B00D68002D00F092
:100F3000CB8041F2004400F13847C4F60004062299
:100F40004FEAB726A04208BF0522052E38BF4FEA58
:100F5000B722002401274FF0000E0026009209E07E
:100F60000D68013635FA06F20EF1040E04F10204A2
:100F700000F0AA8007FA06FB15EA0B08F0D0D1F8BA
:100F800004A003220AF0030CACF10105A240012DDC
:100F90006FEA020910D88268CD6802EA0902A5400A
:100FA0002A4382604268CAF3001522EA0B02B54068
:100FB0002A43426006E000BFBCF1030F02D14FF0AC
:100FC000030C21E0C2688D6802EA0902A5402A43A9
:100FD000BCF1020FC26017D16FF0030202EA5602A1
:100FE00002440EF01C030F25D2F820C005FA03FAC4
:100FF0000D692CEA0A0C05FA03F343EA0C031362A9
:10100000D1F804A00AF0030C02680CFA04F302EA17
:1010100009021A431AF4403F0260A1D041F2600372
:10102000C4F202031A6840F2004942F001021A6059
:101030001A68C4F2010902F001020192019A26F035
:1010400003024FF6084A4A44CFF6FF7A52F80AC024
:101050000EF00C050F23009FAB402CEA030307FAA8
:1010600005F52B4342F80A30D9F808C04B684CEA22
:101070000805DA0258BF2CEA080540F20C4CC9F802
:101080000850C4F2010CDCF800209F0242EA080577
:1010900058BF22EA0805CCF80050D9F804209D0377
:1010A00042EA080758BF22EA0807C9F80470D9F8CD
:1010B0000020DB0342EA080758BF22EA0807C9F804
:1010C000007001274CE700BF02B0BDE8F08F0000C0
:1010D0000069084018BF012070470000426902EA19
:1010E0000103914341EA0341816170471823002ABB
:1010F00008BF2823C150704741F6E030C2F200001B
:101100000068704740F2000041F6E031C2F2000092
:10111000C2F2000140680A6810440860704700008D
:1011200080B5032000F08CF80F2000F009F80028AB
:101130001CBF012080BD00F029F8002080BD000008
:1011400070B540F20006C2F200067168E1B10446D3
:1011500040F22800C2F200004FF47A720068B2FB3D
:10116000F1F1B0FBF1F001F095FD0F2C4FF001050E
:1011700008D838B94FF0FF3021460022002500F092
:1011800033F83460284670BD012070BD82B041F252
:101190005800C4F20200816841F001018160816859
:1011A00001F0010101910199016841F08051016054
:1011B000006800F080500090009802B001F012B872
:1011C000002848BF7047C1B200F01F00012202FA98
:1011D00000F04EF20012CEF2000242EAD10121F0FC
:1011E000030108607047000010B54EF60C5CCEF2AB
:1011F000000CDCF80030C3F3022E8EF00704042C40
:1012000028BF0424BEF103034FF0FF3E0EFA04F49E
:1012100038BF0023A14399400EFA03F39A431143C8
:1012200000F00F0200F160430901043A03F5644342
:101230006244002848BF02F10C03197010BD000081
:101240004EF60C51CEF200010A684FF6FF031A4029
:1012500060F30A2242F0806040F0FD700860704741
:1012600001220168C0F8E822002280F8E022B1F8EB
:10127000540040F00100A1F85400B1F8540040F0CF
:1012800002020020A1F854207047000010B5012987
:10129000044613D011BBA06948B101F0D5FD4EF64C
:1012A0001050CEF20000016821F006010160D4F870
:1012B000F002BDE8104002F021BB00BFD4F8F002FC
:1012C00002F0A2FBA069002808BF10BD4EF6105026
:1012D000CEF20000016841F00601016010BD00007F
:1012E00080B501F0070C0CEB8C0C00EBCC0C01EB87
:1012F000810E0CF1280C00EBCE00090658BF00F55A
:10130000B47C0020002A19BFCCF808300121ACF8C9
:10131000063000218CF80C1080BD000001EB81022A
:10132000D0F8F03200EBC200C26B184602F0A4B94C
:1013300001EB8102D0F8F03200EBC200D0F87C2142
:10134000184602F0EDB9000010B5044648B2B0F1FD
:10135000FF3F01F0070000EB800104EBC10205DD57
:1013600002F5B471002382F8693104E0012302F12F
:10137000280182F8293094F8A8220870012A04BFB5
:10138000022010BD2068012284F8A82202F03EFF4E
:10139000002084F8A80210BDB0B50446406801F0F2
:1013A0000F02824284BF0120B0BD48B2B0F1FF3FBE
:1013B00001F0070000EB800104EBC10206DD02F53D
:1013C000B471002382F8693105E000BF012302F106
:1013D000280182F8293094F8A8220025012A8D706E
:1013E000087004BF0220B0BD2068012284F8A82242
:1013F00002F0A0FF284684F8A852B0BD01F0070112
:1014000001EB810100EBC100D0F8840170470000BE
:1014100070B5064648B2B0F1FF3F01F0070000EB9F
:10142000800107DD06EBC10404F5B471002584F8E2
:10143000695106E006EBC10C01240CF128018CF87F
:1014400029404D780870002D0A61CB7018BFC88103
:10145000022B04BF0020087196F8A802012804BFDF
:10146000022070BD3068012286F8A82202F0BAFD81
:10147000002086F8A80270BD10B501F0070C0CEB37
:101480008C0100EBC10E00680EF5B4710024CEF89B
:101490007C21CEF88031CEF884418EF869418EF8F7
:1014A00068C102F09FFF002010BD000010B5426827
:1014B000044601F00700904284BF012010BD4AB2EB
:1014C000B2F1FF3F0ADD01EB810104EBC10202F53D
:1014D000B471002382F8693109E000BF00EB80019C
:1014E00004EBC102012302F1280182F8293094F8AB
:1014F000A8320122012B8A70087004BF022010BD9F
:10150000206884F8A82202F053FF002084F8A80283
:1015100010BD000080B501F0070C0CEB8C0100EB56
:10152000C10101F828CF00684FF0010C01F1140748
:1015300081F824C04FF0000E87E80C400B6281F860
:1015400001C002F04FFF002080BD00002DE9F04FE8
:1015500081B00446006803F073FB010420D4410508
:1015600000F1F683410400F10584810400F11C843C
:10157000C10400F12384010500F14684010600F155
:101580005984810500F16684C00540F1EF8320682D
:10159000B0F8441021F48071A0F84410E6E300BFD5
:1015A0002068B0F94410B1F1FF3F00F3DF8304F588
:1015B0002C7140F60F7B009123E000BFB0F8501073
:1015C00094F86821014401EBC201B1F80634B4F883
:1015D0006E2100996FF39F23C4F8843103F034FB2C
:1015E0002068018801EA0B0180310180204600F06B
:1015F00033FD00BF2068B0F94410B1F1FF3F00F3A4
:10160000B583B0F8442012F00F090DD030F929103D
:101610004FEA490AB1F1FF3F1FFA81F832DD5FEA74
:101620000860E7D55AE100BF0188D2066CD401EA10
:101630000B0101F500410180B0F8501094F828200A
:10164000084400EBC200B0F80204E16B6FF39F2086
:1016500060640844E06320460021FFF75FFE94F8D1
:1016600024000028C6D0206C0028C3D194F82400A0
:10167000216840F08000C0B2A1F84C00002084F83E
:101680002400B7E730F81A1040F60F7C01EA0B018E
:10169000803120F81A1009EB890104EBC10B9BF88B
:1016A00074110BF5B476002978D09BF86B110229E0
:1016B00040F08680B0F850703178DBF88031074414
:1016C0000BF5C0725FEA484507EBC10700F1928055
:1016D000B7F8067400256FF39F27DB1B38BF2B4636
:1016E000136040F29D805FEA486200F1A98030F803
:1016F000212048F2C00302EA0C021A4320F82120FC
:10170000002F40F09E80C3E00A053FF557AF09B2B5
:10171000B1F1FF3F3FF76EAF018801EA0B01803165
:101720000180B0F8501094F86821014401EBC20127
:10173000B1F806346FF39F23C4F8843193B1D4F821
:101740007C1179B1B4F86E2103F07EFAD4F87C01F3
:10175000D4F884110844C4F87C0120460021FFF726
:10176000E7FD2068018809053FF544AFB0F8501047
:10177000D4F8783100F206423F2BC0F00D825F09A9
:10178000DE064FF0FF3608BF06EB531748F20003A2
:10179000CFF6FF7343EA87237CE200BFB0F8501016
:1017A0003278014401EBC201B1F806746FF39F2750
:1017B000002F6DD0DBF87C11BBF86E2163E000BF19
:1017C000327848F2C00330F8221001EA0C011943C4
:1017D00020F8221030F82230B0F8501000EBC2028E
:1017E0005B04114416D4B1F806746FF39F2747BB0E
:1017F0004EE000BFB7F8027400256FF39F27DB1B94
:1018000038BF2B46136021D95FEA48622DD4B7BB9D
:101810003EE000BFB1F802746FF39F277FBB37E053
:1018200030F8212043F60F731A404CF28003A3F5E1
:1018300000535A4020F821205FEA48627FF557AFF5
:1018400037B3DBF87C11BBF872211CE030F82120A3
:1018500043F60F731A404CF28003A3F500535A402D
:1018600020F821205FEA4862D1D530F8212048F2E3
:10187000C00302EA0C021A4320F8212047B1DBF82A
:101880007C11BBF870213B4603F0DEF901E000BF9C
:101890000027DBF88411DBE95F0239443844CBF8D8
:1018A0008411CBF87C011AB1DBF87801B8420BD96E
:1018B00031782046FFF73CFD40F60F7B5FEA086079
:1018C0007FF598AE0AE000BF2068314602F08AFD3D
:1018D00040F60F7B5FEA08607FF58CAE206809EB6D
:1018E000890130F81A2004EBC10502EA0B0101F569
:1018F000004120F81A1095F82B1005F1280902294B
:1019000020D15FEAC85143D4B0F8502099F80010B4
:10191000024402EBC102B2F802242B6C6FF39F2247
:101920009B1A4FF0000738BF3B462B6440F23081D2
:10193000E96B6B6C1144E96399186964494602F0DC
:1019400051FD57E695F8341000294FF00001296445
:1019500000F01C815FEA486168D495F829100129DC
:1019600000F0FE80002940F01181B0F8501099F885
:101970000020084400EBC200B0F8061421F4F8413E
:10198000A0F80614B0F8061441F40041F0E000BFDE
:10199000B0F8507099F800102A4652F8406F5FEA8C
:1019A000486300EBC10C5BD40CF2064E3EF80770A6
:1019B00000236FF39F27F61B38BF1E46166040F2C8
:1019C00087805FEA484208D430F821204CF2800337
:1019D00002EA0B021A4320F821202A4612F84C1F73
:1019E000012940F0A4812B4653F8488F53E904C1E4
:1019F00053F8046C39443E44E04543F80C1C43F86A
:101A0000046C80F00181B8F1000F00F055810027CF
:101A1000C4461F60177095F82920012A40F0FC8009
:101A2000B0F850202EF802C06EE100BF95F82910E2
:101A3000012900F0A180002940F0A880B0F85010E2
:101A400099F80020084400EBC200B0F8021421F419
:101A5000F841A0F80214B0F8021441F4004193E0F8
:101A60000CF2024E3EF8077000236FF39F27F61B1F
:101A700038BF1E4616604FD95FEA484208D530F895
:101A800021204CF2800302EA0B021A4320F82120A5
:101A90002B4613F84C1F012940F049812A4652F881
:101AA00048CF52E9046152F8048C3944B844B44533
:101AB00042F80C1C42F8048C80F0C4804FF00008FF
:101AC000BCF1000F83F8008040F0BF80BC46BEE050
:101AD00095F82920012A67D0002A6FD1B0F850204C
:101AE0006244B2F8023423F4F843A2F80234B2F8A4
:101AF000023443F40043A2F80234B0F850003EF838
:101B0000002022F4F8422EF800203EF8002042F493
:101B100000422EF8002051E095F82920012A55D0E6
:101B2000002A5DD1B0F850203EF8027027F4F84743
:101B30002EF802703EF8027047F400472EF802704B
:101B4000B0F850006044B0F8062422F4F842A0F83F
:101B50000624B0F8062442F40042A0F806243FE030
:101B6000B0F8501099F80020084400EBC2000021A2
:101B7000A0F806140AE000BFB0F8501099F8002051
:101B8000084400EBC2000021A0F8021499F80010EC
:101B90002046FFF7C3FB2DE5002B71D003F00107B2
:101BA00007EB53039B0275E0B0F85020002362441A
:101BB000A2F80234B0F850002EF800302046FFF7AB
:101BC000ADFB5FEA484012D5B1E000BFB0F850204D
:101BD00000232EF80230B0F850006044A0F806341C
:101BE0002046FFF79BFB5FEA484040F1A080206859
:101BF00099F800104CF2800330F8212002EA0B0221
:101C00001A4320F8212092E0A8EB0C021A6095F804
:101C10002920012A3FF404AF002A75D1B0F8507092
:101C2000BCF13F0F50D35FEACC634FEA5C124FF038
:101C3000FF3308BF03EB5C124FF4004343EA8222F8
:101C400060E000BFACEB0608B446C2F8008095F82F
:101C50002920012A2AD0002A64D1B0F85070BCF1A2
:101C60003F0F3BD35FEACC634FEA5C124FF0FF3388
:101C700008BF03EB5C124FF4004343EA82224FE0BB
:101C80008B5A48F2000723F4F8438B528B5ACFF655
:101C9000FF773B438B52018843F60F7211404CF2A1
:101CA0008002A2F5805251400180A3E4B0F8502098
:101CB0002EF802C036E000BF00231370BC4695F832
:101CC0002920012AA8D1ABE6BCF1000F10D00CF0FE
:101CD000010202EB5C02920214E000BFBCF1000FB3
:101CE00014D00CF0010202EB5C02920218E000BF7B
:101CF00037F80E2022F4F84227F80E2037F80E208D
:101D000042F4004227F80E206A8E0CE037F80E20CD
:101D100022F4F84227F80E2037F80E2042F4004251
:101D200027F80E202A8E1FFA8CF302F0E3FF2068BA
:101D300099F8001040F63F7330F821201A4048F21D
:101D4000C003103B5A4020F82120FFF753BC00BFCE
:101D50002068B0F8441021F48061A0F844102046B7
:101D600000F03CF994F8A80201280DD101B0BDE8BB
:101D7000F08F00BF2068B0F8441021F48041A0F833
:101D8000441001B0BDE8F08F0120002584F8A802BE
:101D900084F824502068002102F0A4FF84F8A8529F
:101DA00001B0BDE8F08F00BF2068B0F8441021F406
:101DB0000051A0F8441001B0BDE8F08F2068B0F8E1
:101DC000401021F00401A0F84010B0F8401021F0BC
:101DD0000801A0F8401094F8E002012806D1002084
:101DE00084F8E00220460021FFF750FA204600F078
:101DF00007F92068B0F8441021F48051A0F844108D
:101E000001B0BDE8F08F00BF2168B1F8400040F09C
:101E10000800A1F84000B1F8440020F40060A1F8E7
:101E20004400B1F8400040F004022046A1F84020F0
:101E30000BE000BF2068B0F8441021F08001A0F84A
:101E4000441094F8E01299B1204601B0BDE8F04F7B
:101E500000F020B92168B1F8440020F40072204657
:101E6000A1F8442001B0BDE8F04F00F0DDB800BF9C
:101E7000B0F8401041F00401A0F84010B0F8401054
:101E800041F00801A0F84010012184F8E012B0F8F8
:101E900054003C2101EA900220460121C4F8E422CA
:101EA00001B0BDE8F04FFFF7F1B90000F0B585B023
:101EB00000285BD0054690F8A90228B9002085F8D3
:101EC000A802284600F056F8032085F8A9022868E1
:101ED00002F026FA696869B300204FF0010C002275
:101EE000002300BF02EB820205EBC20484F8283015
:101EF000DAB20133E286DAB2914284F829C084F87A
:101F00002B00C4E90E002064ECD80020002300223E
:101F100003EB830305EBC30484F868210132D3B2D9
:101F2000994284F8690184F86B01C4E95E00C4F841
:101F30008001EDD805F1080E28689EE81C50D5E90F
:101F400007678DE81050CDE9036702F0DBF9002048
:101F5000012185F8240085F8A912E969012903D136
:101F60002846FFF77DF9002005B0F0BD012005B03F
:101F7000F0BD000010B596B0044601A80430502111
:101F8000FEF74DF9206845F60041C4F20001884291
:101F900002D016B010BD00BF4FF40050019001A850
:101FA00000F02AF9002818BFFEF720FA41F2580085
:101FB000C4F202000168002241F4000101600068DF
:101FC000002100F40000009000981420FFF70CF9A5
:101FD0001420FFF7F5F816B010BD000010B5044648
:101FE0008068022818BFFEF701FAD4F8F002012138
:101FF00001F09EFCD4F8F002BDE8104001F04ABCAC
:1020000010B50446806948B14EF61050CEF200007B
:10201000016821F00601016000F016FFD4F8F0021B
:10202000BDE8104001F06ABCD0F8F00201F070BCCD
:1020300010B5044690F8A802012804BF022010BD84
:10204000012084F8A80284F82410206802F04AFED7
:10205000002084F8A80210BDD0F8F02200F52C7101
:10206000104601F07BBC000010B5044690F8A802B1
:10207000012804BF022010BD2068012184F8A812A5
:1020800002F0CEFD206802F033F9002084F8A802A7
:1020900010BD000010B50446D0F8F00201F0B4FC09
:1020A000A069002808BF10BD4EF61050CEF2000007
:1020B000016841F00601016010BD0000B0F5007F2D
:1020C00042D0002840F0808047F21400C4F20000A3
:1020D00050F8141CC26E01F4C06122F48072B1F594
:1020E000806FC2662ED150F8141C012262F34A217F
:1020F00040F8141C40F22801C2F2000109683222A3
:1021000051434DF68362C4F21B32A1FB0212910CC3
:102110000268520511D54A1C0FD0026852050CD531
:1021200059B10268520508D5012906D00268520546
:1021300003D50229A1F10401EAD10068400544BF9A
:10214000032070470020704747F21400C4F20000DB
:1021500050F8141CC26E01F4C06142F48072B1F5F3
:10216000806FC266EED150F8141C012262F34A213E
:1021700040F8141C40F22801C2F200010968322222
:1021800051434DF68362C4F21B32A1FB0212910C43
:102190000268520511D54A1C0FD0026852050CD5B1
:1021A00059B10268520508D5012906D002685205C6
:1021B00003D50229A1F10401EAD10068400544BF1A
:1021C00003207047BEE700BF47F21400C4F20000CE
:1021D00050F8141C022262F34A2140F8141C00201B
:1021E0007047000047F20800C4F20000016841F4A3
:1021F00080410160704700002DE9F04182B0044643
:10220000807841F288060007C4F2020602D400205A
:102210002FE000BF56F8300C10F080580BD156F864
:10222000300C40F0805046F8300C56F8300C00F07E
:1022300080500190019847F20007C4F20007386807
:1022400040F480703860FEF757FF05463868C005D7
:1022500000F10C81FEF750FF401B0228F6D9032045
:10226000B8F1000F05D156F8301C21F0805146F826
:10227000301C2168CA0717D18A071DD44A0723D406
:102280000A0729D4CA062FD48A0635D44A063BD475
:102290000A0641D4CA0547D48A034DD48A0553D4CB
:1022A0004A0559D467E000BF3268636822F0030230
:1022B0001A4332608A07E1D53268A36822F00C0223
:1022C0001A4332604A07DBD53268E36822F03002F5
:1022D0001A4332600A07D5D53268236922F0C0025A
:1022E0001A433260CA06CFD53268636922F440725D
:1022F0001A4332608A06C9D53268A36922F4406263
:102300001A4332604A06C3D53268E36922F4405268
:102310001A4332600A06BDD53268236A22F440426D
:102320001A433260CA05B7D53268636A22F4403274
:102330001A4332608A03B1D57269A36A22F003029C
:102340001A4372618A05ABD53268E36A22F44022EF
:102350001A4332604A050ED53268236B22F44012CC
:102360001A43B3F5801F326005D156F87C2C42F435
:10237000801246F87C2C0A050ED53268636B22F475
:1023800040021A43B3F5800F326005D156F87C2C19
:1023900042F4801246F87C2CCA040ED53268A36B36
:1023A00022F040721A43B3F1807F326005D156F8B3
:1023B0007C2C42F4801246F87C2C8A040ED53268BC
:1023C000E36B22F040621A43B3F1006F326005D133
:1023D00056F87C2C42F4801246F87C2C4A040ED528
:1023E0003268236C22F040621A43B3F1006F32600E
:1023F00005D156F87C2C42F4801246F87C2C0A0455
:102400000ED53268636C22F040521A43B3F1805FFC
:10241000326005D156F87C2C42F4803246F87C2C90
:10242000CA030ED53268A36C22F040421A43B3F1BE
:10243000804F326005D156F87C2C42F4803246F849
:102440007C2C49030ED57169E26C21F440111143D3
:10245000B2F5001F716105D156F87C1C41F4801162
:1024600046F87C1C02B0BDE8F08100BFB06810F4F3
:10247000407010D0216D88420BD0B068B16820F454
:10248000407041F48031B160B16821F48031B160B5
:10249000B060C0070CD1B068216D20F440700843D3
:1024A000B0600020B8F1000F7FF4E3AEDBE600BFC0
:1024B000FEF722FE054641F2883700BFB06880076C
:1024C000E9D4FEF719FE401BB842F7D9C7E6000071
:1024D0002DE9F04700286DD042F2000AC4F2020A4A
:1024E0000446DAF800000D4600F00F0088420CD2D6
:1024F000DAF8000020F00F002843CAF80000DAF8EC
:10250000000000F00F00A84254D1216841F20808F1
:10251000C807C4F2020803D1880740F1D880BDE0A3
:10252000606802283AD0032840D158F8082C92015C
:1025300040D5D8F80420D8F8043042F20046C3F35E
:10254000031302F00302D8F804700133C0F2F4065A
:10255000032A04BF41F20026C0F27A06B6FBF3F26A
:10256000D8F80430C7F306277A43C3F34163022740
:1025700007EB4303B2FBF3F24BF20043C0F2C44358
:102580009A4261D9D8F8002012F0F00F51D0890793
:102590005AD5A168002957D14BE000BF58F8081C54
:1025A00089035CBF0120BDE8F08707E058F8081CEC
:1025B000490503D40120BDE8F08700BFD8F800101A
:1025C00001F00C0104293FD0D8F8001001F00C01F3
:1025D000082939D0D8F8001001F00C010C2933D1AA
:1025E000D8F80410D8F8042042F20047C2F30312CE
:1025F00001F00301D8F804300132C0F2F4070329D6
:1026000004BF41F20027C0F27A07B7FBF2F1D8F815
:102610000420C3F306235943C2F34162022303EBB0
:102620004202B1FBF2F14BF20042C0F2C4429142CD
:102630000AD9D8F80010082262F307114FF00109F7
:10264000C8F8001002E000BF4FF00009D8F80010F1
:1026500021F003010843C8F80000FEF74DFD0646CF
:1026600041F28837D8F80000616800F00C00B0EB48
:10267000810F07D0FEF740FD801BB842F2D903203E
:10268000BDE8F0872168880708D4B9F1000F1ED093
:10269000D8F8000020F0F00017E000BF480705D58B
:1026A000D8F8000040F4E060C8F80000080706D53C
:1026B000D8F80000072262F30D20C8F80000D8F80F
:1026C0000000A26820F0F0001043C8F80000DAF81B
:1026D000000000F00F00A8421BD9DAF8000020F03B
:1026E0000F002843CAF80000FEF706FD064641F237
:1026F000883700BFDAF8000000F00F00A84207D0CA
:10270000FEF7FAFC801BB842F4D90320BDE8F0873D
:102710002168480707D5D8F80000E26820F4E06097
:102720001043C8F80000080708D5D8F80000216950
:1027300020F4605040EAC100C8F80000D8F800005A
:1027400042F20041C0F2F40100F00C0004280846F7
:102750002DD0D8F8000000F00C00082841F200202D
:10276000C0F27A0023D0D8F8002002F00C020C2A24
:102770001CD1D8F80420D8F8043002F00302C3F3C7
:102780000313D8F804700133032A08BF0146B1FBD4
:10279000F3F0D8F80410C7F30627C1F34161022211
:1027A000784302EB4101B0FBF1F000E00020D8F8E3
:1027B000001045F22032C1F30311C0F60002515C53
:1027C00040F2280201F01F0120FA01F140F200005E
:1027D000C2F200000068C2F200021160BDE8F047DA
:1027E000FEF7AEBC2DE9F04182B0002800F0068172
:1027F0000446007841F20006C007C4F2020655D133
:102800002078800774D42078000700F19780207822
:10281000400700F1B7802078800600F10781E06969
:10282000002840D0B16801F00C010C2940F056811D
:10283000012800F0E380F068216A00F003028A4278
:1028400040F0DC80626A6FF00F0300F0F00103EBF0
:102850000212914240F0D280A16A00F4FE42B2EB33
:10286000012F40F0CB80E16A00F07842B2EBC16FFB
:1028700040F0C480226B0023CFF6E07303EA0252DB
:1028800000F4C001A2F50012914240F0B780616BE4
:102890004FF07E4202EA016100F0C06001F17E412A
:1028A000884240F0AB800020F1E100BFB06800F04A
:1028B0000C01F06808295BD0032281F00C0122EAA8
:1028C00000000844B0FA80F0400951D16068B0F5CA
:1028D000803F07D0B0F5A02F40F0D680306840F49C
:1028E00080203060306840F480303060D7E000BF36
:1028F000B068F16800F00C00042869D001F0030111
:1029000080F00C0081F002010844B0FA80F0400928
:102910005ED1E1683068002900F0CE8040F480701C
:102920003060FEF7E9FB05463068400500F1EC80B9
:10293000FEF7E2FB401B0228F6D920E16169D6F8D8
:102940009400002900F08C8040F00100C6F894004B
:10295000FEF7D2FB054600BFD6F8940080073FF58E
:1029600056AFFEF7C9FB401B0228F5D907E100BFAF
:10297000306880037FF544AF606800287FF440AF83
:102980003CE000BFB06D10F0805808D1B06D40F051
:102990008050B065B06D00F080500190019847F212
:1029A0000007C4F200073868C0052BD4386840F42B
:1029B00080703860FEF7A0FB054600BF3868C00590
:1029C00020D4FEF799FB401B0228F7D9D7E000BFBF
:1029D0003068400501D5E06880B17068216920F059
:1029E000FE4040EA0160706040F20000C2F2000068
:1029F0000068FEF7A5FB00283FF405AF012002B0F8
:102A0000BDE8F081A068012808D0052840F09A8030
:102A1000D6F8900040F00400C6F89000D6F8900078
:102A200040F00100C6F890009AE000BFA169D6F816
:102A30009800002970D040F00100C6F89800FEF719
:102A40005BFB0546D6F8980080073FF5E8AEFEF739
:102A500053FB401B02284FF00300F3D917E100BFDE
:102A600020F00100C6F89400FEF746FB054600BFC3
:102A7000D6F8940080077FF5CAAEFEF73DFB401BF9
:102A80000228F5D97BE000BF3168002821F48031AD
:102A90003160316821F48021316000F08F80FEF7D1
:102AA0002BFB0546306880033FF5AAAEFEF724FBFA
:102AB000401B6428F6D962E020F480703060FEF795
:102AC0001BFB0546306840057FF59DAEFEF714FB05
:102AD000401B02284FF00300F4D9D8E031680228E7
:102AE00021F0807131604FD1FEF706FB054600BF33
:102AF0003068800140F18E80FEF7FEFA401B02280C
:102B00004FF00300F4D9C2E07068216920F0FE4064
:102B100040EA0160706076E620F00100C6F8980097
:102B2000FEF7EAFA054600BFD6F8980080077FF561
:102B300076AEFEF7E1FA401B02284FF00300F3D90E
:102B4000A5E000BFD6F89010002821F00101C6F8DA
:102B50009010D6F8901021F00401C6F890103DD0E6
:102B6000FEF7CAFA054641F2883700BFD6F8900052
:102B7000800745D4FEF7C0FA401BB842F6D90320BF
:102B800002B0BDE8F08100BFF0684FF6FF7120F0A1
:102B90000300F060F068CFF6EE610840F060FEF7E9
:102BA000ABFA0446306880017FF57DAEFEF7A4FAEB
:102BB000001B02284FF00300F4D968E0FEF79CFAEE
:102BC000054600BF306880037FF51AAEFEF794FA21
:102BD000401B64284FF00300F4D958E0FEF78CFA4C
:102BE000054641F2883700BFD6F89000800707D528
:102BF000FEF782FA401BB8424FF00300F4D946E0DA
:102C0000B8F1000F7FF407AEB06D20F08050B065D2
:102C100001E600BFF06848F20C01C0F29F1104F118
:102C2000200700EA010C8ECF6FF00F00D4E90C549E
:102C300000EB02100022CFF6E07241EA0C0102EA3A
:102C400005520843A2F500124FF07E4540EA0320EA
:102C500005EA0465104305F17E4540EAC760284354
:102C6000F060306840F080703060F06840F0807054
:102C7000F060FEF741FA0446306880013FF513AE7C
:102C8000FEF73AFA001B02284FF00300F4D902B015
:102C9000BDE8F081411E0020B0EB116F1CBF012088
:102CA00070474EF21002CEF2000251604EF62351F0
:102CB000CEF20001F0230B70072190601160704785
:102CC000FEE70000B0B588B041F67C0040F200118C
:102CD000C2F20000C5F200014FF4002200240425D6
:102CE00080E816000121182200F1440CCDE90644C9
:102CF000CDE90444CDE90244CDE90044C0E90344F0
:102D0000C0E905458483016280F82440C0E90B4492
:102D100080F83840C46380F8401060238CE81C00C1
:102D20000165FDF7C9FD002818BFFDF75FFB41F203
:102D30000000C3F2602000900620CDE901007F2052
:102D4000CDE903054FF08070069041F67C00C2F299
:102D5000000069460594FDF7B9FB002818BFFDF790
:102D600045FB08B0B0BD000081B041F24C00C4F298
:102D70000200016841F004010160016801F00401F2
:102D800000910099016841F020010160016801F0A3
:102D9000200100910099016841F002010160016881
:102DA00001F0020100910099016841F00101016008
:102DB000006800F001000090009801B0704700002A
:102DC00080B541F2AC5040F20801C2F20000C2F2FC
:102DD0000001002200F016FC002818BFFDF706FBDA
:102DE00041F2AC5040F22C01C2F20000C2F20001EC
:102DF00000F032FE002818BFFDF7F8FA41F2AC509F
:102E000040F25011C2F20000C2F2000100F0CCF911
:102E1000002818BFFDF7EAFA41F2AC50C2F20000F8
:102E200000F03AFE002808BF80BDBDE88040FDF7F5
:102E3000DDBA0000FEE70000FEE70000704700007A
:102E400070470000FEF75EB9B0B594B000240020D2
:102E5000CDE90A44CDE90844FFF730F92120069076
:102E60004FF48030079001200C900220032555215B
:102E70000D90CDE90E50CDE91010CDE9120006A855
:102E8000FFF7B0FC20B1EFF3108072B6FEE700BF91
:102E90000F20CDE9010501A80421CDE903440594E3
:102EA000FFF716FB20B1EFF3108072B6FEE700BF0C
:102EB00014B0B0BD4EF68850CEF20000016841F467
:102EC000700101607047000010B540F28C14C2F22E
:102ED00000040A4602A0214600F026FB204610BD51
:102EE00043444320436F6E666967000010B5D0F815
:102EF000BC323BB38E4601EB810100EB810151F8FE
:102F0000184F64B1D0F8C4C20EEB8E020CEBC202B3
:102F1000D2F838C0B4FBFCF202FB1C42A2B1002480
:102F2000C3F81442D0F8C002D0F810C0BCF1000FB2
:102F300006D0D3F8080203F504717246E047002476
:102F4000204610BD032010BD00240C6071460022F5
:102F5000002300F063FD204610BD0000B0B5D0F89E
:102F6000BC527DB1044600F013FCD4F8C02205F534
:102F70000371D368D5F80422C5F80C0210469847AF
:102F80000020B0BD0320B0BDB0B58121044600F0E3
:102F900061FB002520460121258700F05BFB2046D0
:102FA0008221A4F8785100F055FBD4F8BC02E56406
:102FB00048B1D4F8C00240688047D4F8BC0201F0A0
:102FC00009F8C4F8BC520020B0BD000040F2EC008B
:102FD0001222C2F200000A807047000010B5D0F83B
:102FE000BC428CB1D0F8C01281B194F80002FF2825
:102FF0000CD08B6894F8012221469847FF2084F872
:103000000002002010BD00BF032010BD002010BD35
:10301000014640F200100A22C2F200000A80704706
:10302000014640F264004322C2F200000A80704769
:10303000014640F2A8004322C2F200000A80704715
:10304000014640F20C104322C2F200000A80704791
:10305000F0B581B004464FF4077000F0BDFFE8B34F
:103060000546C4F8BC02207C4026002808BF4FF467
:103070000076204681210222334600F0E5FB01273D
:103080002046012102223346278700F0DDFB102075
:10309000A4F84E002046822103220823A4F8787168
:1030A00000F0D2FBD4F8C002A4F84C70006880474E
:1030B0000020C5F81402C5F81802207CD5F80422B7
:1030C000002820464FF001010CBF4FF4007340234D
:1030D00000F0CEFB002001B0F0BD00BF0020C4F81E
:1030E000BC02022001B0F0BD10B540F28C14C2F257
:1030F00000040A4602A0214600F016FA204610BD40
:1031000043444320496E7465726661636500000044
:1031100040F264100422C2F200000A8070470000EE
:1031200010B540F28C14C2F200040A4602A02146F7
:1031300000F0FAF9204610BD53544D6963726F6573
:103140006C656374726F6E696373000010B540F252
:103150008C14C2F200040A4602A0214600F0E4F9F1
:10316000204610BD53544D33322056697274756138
:103170006C20436F6D506F727400000080B5D0F802
:10318000BC1279B190F810C0D1F80422402301217B
:10319000BCF1000F08BF4FF4007300F069FB002082
:1031A00080BD00BF032080BD00290EBF0320C0F8F2
:1031B000C012002070470000B0B547F29050C1F631
:1031C000FF70026883684FF01A0C9B18A1F800C0CA
:1031D00000F0A3804FF0370C1A0F0CEB137140680E
:1031E000B3F1204F38BF02F1300140F26812C2F251
:1031F0000002917019014FF0000E0CEB117582F86E
:1032000003E0C3F30364B1F1204F38BF04F130058C
:10321000190215710CEB117582F805E0C3F3035424
:10322000B1F1204F38BF04F13005190395710CEB53
:10323000117582F807E0C3F30344B1F1204F38BFA2
:1032400004F13005190415720CEB117582F809E0D0
:10325000C3F30334B1F1204F38BF04F13005190531
:1032600095720CEB117582F80BE0C3F30324B1F1F6
:10327000204F38BF04F1300519061573C3F303144A
:103280000CEB1175B1F1204F4FEA037103F00F03FE
:1032900082F80DE038BF04F1300503F1370495736F
:1032A00082F80FE0B1F1204F38BF03F13004010F75
:1032B0000CEB1073147482F811E0B0F1204F38BF9A
:1032C00001F1300301010CEB1174937482F813E0E7
:1032D000C0F30363B1F1204F38BF03F130040102A2
:1032E0001475C0F303530CEB1174B1F1204F4FEA86
:1032F000003182F815E038BF03F130040CEB117394
:10330000947582F817E0C0F30340B1F1204F38BF45
:1033100000F13003137682F819E040F26810C2F22F
:103320000000B0BDD0F8BC0200280EBF0320C0F8DA
:103330000412002070470000D0F8BC0200280FBF24
:103340000320C0F80812C0F81022002070470000C7
:1033500070B582B0D0F8BC62044600208DF807003A
:10336000ADF80400C6B108780D4610F0600117D022
:1033700020295DD1EA88002A2AD040B2B0F1FF3F6F
:1033800032DD6878314686F80002204686F8012250
:1033900000F096F8002617E00326304602B070BD14
:1033A00068780B2844D80026DFE800F0060E424279
:1033B0004242424242422C3A94F89C02032837D1BE
:1033C00001A92046022225E0304602B070BD00BFB0
:1033D000D4F8C002294683686878002200269847FE
:1033E000304602B070BD00BFD4F8C00231468368D9
:1033F00068789847EA8820463146072A28BF07227E
:1034000008E000BF94F89C02032811D10DF10701D8
:103410002046012200F06EF80026304602B070BD52
:1034200094F89C02032803D10026304602B070BDF8
:103430002046294600F038F80326304602B070BD19
:1034400080B5D0F8BC223AB1D2F8141200294FF05E
:10345000010103D0084680BD032080BDC2F81412CC
:10346000D2F81032D2F808228121C36200F0D6FAD5
:103470000021084680BD000080B5D0F8B8220AB10E
:1034800052689047002080BD80B513460A4600214F
:1034900000F0EEF9002080BD80B513460A460021F9
:1034A00000F0BCFA002080BD10B58021044600F079
:1034B00087FA20460021BDE8104000F081BA0000E4
:1034C00080B513460A460321C0F894120021C0E9D2
:1034D000563300F0CDF9002080BD000080B50521F5
:1034E000C0F8941200210022002300F0C1F900204E
:1034F00080BD000080B513460A460221C0F8941230
:103500000021C0E9063300F089FA002080BD0000E8
:1035100080B50421C0F8941200210022002300F09D
:103520007DFA002080BD000010B5002868D0037827
:10353000B3B100F1020E4FF0000C00BF1EF8013CC9
:1035400093B19EF800309BB19EF80130A3B19EF874
:1035500002300CF1040C002B0EF1040EEED10DE044
:103560004FF0000C0AE000BF4CF0010C06E000BF79
:103570004CF0020C02E000BF4CF0030C5FFA8CFC34
:10358000022303EB4C03138003220B704A7090F864
:1035900000E0BEF1000F33D0841C02224FF0000C7B
:1035A0001AE000BF101DC0B20B5440F0010001F83A
:1035B00000C06378002B08BF10BD901DC0B20B5433
:1035C00040F0010001F800C094F802E00832BEF1BA
:1035D000000F04F1040413D0D3B201F803E043F068
:1035E000010301F803C014F8013C4BB1901CC0B2B8
:1035F0000B5440F0010001F800C02378002BD1D11A
:1036000010BD0000002804BF032070470023C0F84D
:10361000B832C0F8C0320029C0F8CC3218BFC0F8A8
:10362000B412012180F89C12027000F0B5B80000BD
:1036300080B5D0F8C402FDF7AFFE40F20032C10001
:10364000C0F2013222FA01F1032888BF0321C8B277
:1036500080BD000080B5D0F8C402FDF775FE40F2D1
:103660000032C100C0F2013222FA01F1032888BF02
:103670000321C8B280BD0000B0B5044671B194F812
:103680009C0203284AD1D4F8B8024269002A45D0E6
:1036900020469047002808BF0020B0BDD4F894020F
:1036A000022834D1D4E9070188420DD9431A2046B3
:1036B00011461A46E361FFF7EFFE20460021002283
:1036C000002300F0D5F822E010D1A16981420DD38A
:1036D000D4F89802814209D2204600210022002518
:1036E000FFF7DAFEC4F89852E7E700BF94F89C02AF
:1036F000032805D1D4F8B802C16809B1204688472B
:103700002046802100F05CF92046FFF7E7FE94F8A0
:10371000A002012804BF002084F8A0020020B0BD50
:1037200010B5044671B194F89C0203281DD1D4F859
:10373000B8028269CAB120469047002808BF00201D
:1037400010BD00BFD4F8940203280ED1D4E957036A
:1037500098420DD9C01AC4F85C01984238BF03469C
:10376000204611461A46FFF78FFE002010BD00BF0D
:1037700094F89C02032805D1D4F8B802016909B174
:10378000204688472046FFF7C3FE002010BD0000FA
:10379000D0F8C402FDF732BE10B5044641F6E80089
:1037A00045F60041C2F20000C4F2000108220223E3
:1037B00080E80E000021C0F8F042C4F8C402C0E95D
:1037C0000431C0E906110162FEF770FB002818BF42
:1037D000FCF70CFED4F8C402002100221823FDF7E8
:1037E0007FFDD4F8C402802100225823FDF778FD24
:1037F000D4F8C40281210022C023FDF771FDD4F862
:10380000C402012100224FF48873FDF769FDD4F84A
:10381000C402822100224FF48073FDF761FD002075
:1038200010BD00004AB2D0F8C40201F07F0101EBE4
:10383000810100EBC10000F5B571002A48BF00F11D
:103840002A0108787047000080B59446D0F8C40279
:103850001A466346FDF7DCFD40F20032C100C0F2BB
:10386000013222FA01F1032888BF0321C8B280BDCA
:1038700080B5D0F8C402FDF7FFFD40F20032C10070
:10388000C0F2013222FA01F1032888BF0321C8B235
:1038900080BD0000F0B581B004460120002184F80D
:1038A0009C02C4F89412D4F8B8026160C4F8A4125F
:1038B00000B3D4F8BC1221B1426812B120460021F5
:1038C0009047204600210022402300254026FFF794
:1038D000BBFF01272046802100224023A4F8647109
:1038E000C4F86061FFF7B0FFA7842662284601B0E4
:1038F000F0BD00BF0325284601B0F0BD90F89C1232
:10390000042904BF90F89D1280F89C120020704793
:1039100080B5D0F8B81249B190F89C22032A02D1A0
:10392000C96901B18847002080BD00BF032080BD68
:10393000024600201174704780B5D0F8C402FEF72B
:1039400077FB40F20032C100C0F2013222FA01F1ED
:10395000032888BF0321C8B280BD0000B0B500F2C3
:10396000AA250446284600F06BF80120C4F894020A
:1039700094F8AA02B4F8B02200F01F010229C4F89A
:10398000982209D001290DD091B920462946BDE8D9
:10399000B04000F083B800BF20462946BDE8B040E3
:1039A00000F036BA20462946BDE8B04000F0D4BA4F
:1039B00000F080012046BDE8B04000F001B80000F2
:1039C00080B5D0F8C402FDF771FD40F20032C100AD
:1039D000C0F2013222FA01F1032888BF0321C8B2E4
:1039E00080BD000080B5D0F8C402FEF73DFB40F278
:1039F0000032C100C0F2013222FA01F1032888BF6F
:103A00000321C8B280BD0000014690F89C02042248
:103A100081F89D02002081F89C22704780B5D0F883
:103A2000C402FDF777FD40F20032C100C0F201325E
:103A300022FA01F1032888BF0321C8B280BD00002B
:103A40000A7802704A7842704A8842808A88828066
:103A5000C988C1807047000010B582B004460020BC
:103A6000ADF8060061B1CA6AC4F8B81222B10DF10E
:103A700006009047C4F8CC02002002B010BD00BF81
:103A8000032002B010BD0000D0F8B822002A04BF05
:103A90000320704712681047FFF7A4BFB0B582B08B
:103AA0000D460978044611F060010DD0402901D07F
:103AB00020292FD1D4F8B80229468268204602B0C6
:103AC000BDE8B040104700BF6878092800F2D680F2
:103AD000DFE810F00A002C00D4003E00D4004600BD
:103AE0006600D4008000940094F89C0201380228FB
:103AF00000F2C480E888022840F0C080D4F8A40214
:103B00000322002808BF0122214641F80C2F20463D
:103B1000022203E120468021FFF752FF20460021C8
:103B20000025FFF74DFF284602B0B0BD94F89C0277
:103B30000138022800F2A280688800250128F2D10D
:103B40002046C4F8A452FFF7E3FC284602B0B0BDFB
:103B50006888012840F068800120C4F8A40211E1BF
:103B6000A888002840F08A80E888002840F08680F5
:103B700068887F2800F2828094F89C12032900F064
:103B80007D80C5B284F89E0220462946FFF7D4FE08
:103B90002046FFF7BDFC002D0CBF012002201DE1D7
:103BA00068884FF0FF3101EB102100220E29ADF89B
:103BB000062000F2B980DFE801F0096D7BB7B78716
:103BC00091B7B7B7B7B7B7B79D0000BFD4F8B40285
:103BD000026893E0E888012850D194F89C02411EC5
:103BE000022945D20025214641F8085F20460122DE
:103BF000FFF780FC284602B0B0BD00BF688840F2E5
:103C00008815C2F2000510F0FE0F287010D0204673
:103C10008021FFF7D5FE20460021FFF7D1FE0325C6
:103C2000284602B0B0BD00BF0025284602B0B0BD96
:103C300094F89C22C1B2032A00F08280022A40F04C
:103C4000A980002900F09E8020466160FFF71CFFDC
:103C5000002800F0BF80054620468021FFF7B0FE17
:103C600020460021FFF7ACFE284602B0B0BD00BFE1
:103C7000032803D1211D204601224FE02046802148
:103C8000FFF79EFE204600210025FFF799FE2846FB
:103C900002B0B0BD217CD4F8B80200290CBF816A03
:103CA000C16A0DF1060088470146022020E000BFEE
:103CB000C0B2052838D8DFE800F003979B9FA3A780
:103CC000D4F8B402426818E0207C68BBD4F8B8028B
:103CD000416B0DF10600884714E000BF207C18BB43
:103CE000D4F8B802016B0DF10600884701460720A1
:103CF000487008E0D4F8B402C269AAB1207C0DF182
:103D0000060190470146EA88E2B3BDF8060058B1C3
:103D1000904238BF02462046ADF80620FFF7EAFB86
:103D20000025284602B0B0BD20468021FFF748FE9E
:103D300020460021FFF744FE0025284602B0B0BD12
:103D4000C1B3606888421DD0C1B22046FFF794FB22
:103D5000297820466160FFF797FE98B10546204616
:103D60008021FFF72DFE20460021FFF729FE217953
:103D70002046FFF781FB022084F89C02284602B00F
:103D8000B0BD00BF2046FFF7C3FB0025284602B0A8
:103D9000B0BD00BF20468021FFF712FE2046002163
:103DA000FFF70EFE29782046FFF766FB032528461D
:103DB00002B0B0BD022084F89C0261602046002160
:103DC0000025FFF759FB2046FFF7A2FB284602B06B
:103DD000B0BD00BF2046FFF79BFB032084F89C0288
:103DE0000025284602B0B0BDD4F8B402826884E74A
:103DF000D4F8B402C26880E7D4F8B40202697CE760
:103E0000D4F8B402426978E7D4F8B402826974E75E
:103E1000B0B50D460978044611F060010CD0402978
:103E200001D0202922D1D4F8B80229468268204640
:103E3000BDE8B040104700BF6878297900B3012879
:103E400036D0032868D194F89C02032834D16888BE
:103E500038B911F07F0004D0E88810B92046FFF788
:103E6000AFFD2046FFF754FB0020B0BD2046802167
:103E7000FFF7A6FD20460021FFF7A2FD0020B0BD00
:103E800094F89C02032825D0022808BF5FEA41600D
:103E900042D111F0800004F114014FF0140004BF6E
:103EA0004FF4AA7004F5AA710022225020464DE07A
:103EB00094F89C02032839D002282DD148062BD033
:103EC0002046FFF77DFD20468021FFF779FD002089
:103ED000B0BD00BF01F00F0000EB8000802904EBB3
:103EE00080002CBF808CB0F86401A8B101F07F0085
:103EF00000EB800004EB800000F11405802938BF3E
:103F000000F5AA7548061DD02046FFF78BFC002857
:103F100018BF012017E000BF20468021FFF750FDA9
:103F200020460021FFF74CFD0020B0BD6888002826
:103F3000A4D1480602D02046FFF77AFB2046FFF7BF
:103F4000E7FA70E700202860204629460222FFF7A2
:103F5000D1FA0020B0BD0000B0B50D460978044686
:103F600011F0600118BF402914D194F89C02013867
:103F7000022803D8A88810F0FE0F17D02046802111
:103F8000FFF71EFD204600210025FFF719FD2846FA
:103F9000B0BD00BF2029E8D020468021FFF710FDEA
:103FA000204600210025FFF70BFD0BE0D4F8B802F6
:103FB0002946826820469047E9880546002908BFBF
:103FC000002D01D02846B0BD2046FFF7A1FA002001
:103FD000B0BD00007047000040F28C30C2F200001B
:103FE00070470000F0B50C78024691F803E000EB52
:103FF000840730F8240047F27063BEF1030F20EA13
:10400000030309D80020DFE80EF00309100D00BFFC
:1040100043F4007308E000BF012006E043F480632E
:1040200002E000BF43F4C063002048F28006CFF6F0
:10403000FF7633433B803B8840F60F752B4023438C
:1040400033433B800B7B48F2800C002B4AD03B88EB
:1040500040F60F652B4048F28005BEF1020F08BF05
:1040600005F580752B433B80B2F850300D8902EB8B
:10407000C404234425F00105A3F80054B2F85020ED
:104080004B89224423F00103A2F8043449783A888A
:10409000002902F480414BD039B1398840F60F72C3
:1040A00011400CF58042114339803988490607D503
:1040B000398840F60F7211400CF1400211433980EB
:1040C000398840F63F7211400CF120024A40BEF19F
:1040D000010F08BF41EA0C023A80398843F60F729B
:1040E00045E000BF4D78B2F85030E600CC88002D96
:1040F00024F0010440D091191944A1F800443988F2
:10410000490607D5398840F60F7211400CF140027C
:1041100011433980398840F63F72BEF1010F01EA40
:10412000020125D00CF1200251403980F0BD00BFC2
:1041300039B1398840F60F7211400CF580421143B5
:1041400039803988490607D5398840F60F72114001
:104150000CF1400211433980398843F60F72114047
:104160000CF5405251403980398840F63F72114079
:1041700041EA0C013980F0BD16443344A3F80444ED
:10418000B2F850200B6906F206413F2B22D35E099C
:104190004FF0FF35DC0608BF05EB531648F200036D
:1041A000CFF6FF7343EA862353523988490407D573
:1041B000398840F60F7211400CF580421143398066
:1041C000398843F60F7211400CF540525140398046
:1041D000F0BD00BF53B103F0010606EB53039B0291
:1041E000535239884904EBD5E2E700BF535A48F2ED
:1041F000000623F4F8435352535ACFF6FF76334365
:10420000535239884904DBD5D2E70000B0B50C78A9
:104210004B78097B024630F824004CF2800C4CF2BB
:10422000800500294FEA44013AD0002B00F4804079
:1042300040D040B132F8110040F60F73184040EA08
:104240000C0022F8110032F8110043F60F7E4006F0
:1042500040F63F7009D532F8113040F60F74234014
:10426000ACF57F54234322F8113032F8113040F678
:104270000F7423402B43ACF5804522F8113032F8FF
:1042800011301840284322F8110032F81100ACF523
:10429000804300EA0E000343002022F81130B0BD35
:1042A000F3B1400640F63F7EEFD5ACF57F5540F6C2
:1042B0000F70E4E740B132F8110040F60F73184078
:1042C00040EA0C0022F8110032F81100ACF57F55DD
:1042D000400640F63F7E43F60F70BCD4C5E700BFF2
:1042E000400443F60F7ED0D540F60F70C7E70000BC
:1042F0000146B0F8580040F400420020A1F85820D0
:104300007047000001460120A1F840000022002073
:10431000A1F84020A1F84420A1F8502070470000E7
:104320000146B0F8400044F27F0202400020A1F8AC
:104330004020704780B50A7B12B1002080BD00BFCD
:104340000A784B7830F822C04FEA4202B3B15FEAF4
:104350004C6348F2A00E0BD530F812C040F60F7334
:104360000CEA030C0EF1200343EA0C0320F8123090
:10437000C9780129E1D040F63F7110E05FEA4C4175
:104380004BF2800E09D530F8121040F60F73194029
:104390000EF58053194320F8121043F60F7130F8D0
:1043A0001230194081EA0E0120F81210002080BD61
:1043B00002460B78487832F823C040F63F71002857
:1043C00048F2900008BF43F60F71CFF6FF7008BFA8
:1043D00000F57F6001EA0C014140002022F8231023
:1043E000704700002DE9F04F82B04A78012A5DD174
:1043F0008B690A690F7B934228BF1346002F7BD03D
:10440000CF780C6A022F40F0B9800D7840F60F6625
:1044100030F825704FEA450E944206EA070648F246
:10442000B00C40F2138148F2B007CFF6FF77D037D7
:104430003E43A4EB030A20F81E60C1F820A030F828
:104440001E70B0F85060ED007F0600EB050800F12B
:10445000518108EB0604A4F80234D1F814B09DB2DF
:10446000002D00F015830E89064406F580696E1C48
:104470004FF0FF3505EB5604C6F34105002D4FEA1A
:10448000560700F029825E46CDE9004836F8028BD7
:104490005C46CB46012D2BF8028B40F02182D94699
:1044A000DDF80480A346009C013FE0E20B7B002B7B
:1044B00046D0CB78012B00F09780022B40F0B680DD
:1044C000002A40F07C81B0F850300F690A7803442C
:1044D0003E2F03F2024340F261817E094FF0FF3527
:1044E000FC0608BF05EB571648F20007CFF6FF772A
:1044F00047EA86275AE100BF1A0400F0B581CA884E
:10450000D1F814E0024402F58068012212FA83F225
:104510004FF0FF37C2F3410407EB520C002C4FEA77
:10452000520200F08E81774637F8025B4646012C36
:1045300026F8025B40F00C81013ABE46B04680E1AD
:104540008A690B69D71A3CBF002713468F61B0F800
:1045500050700A7807443F2B07F206476AD35E097A
:104560004FF0FF35DC0608BF05EB53164FF4004350
:1045700043EA862327F832304DE100BFE21A0F7874
:104580000A6230F82720B0F85040FD00520605447A
:104590004FEA470E9AB248F2B00C2C4400F18880E2
:1045A000002AA4F8023400F0ED800B890132496939
:1045B00003444FF0FF34C2F3410503F5806304EB7D
:1045C0005208002D4FEA520200F0ED810E4636F8F7
:1045D000024B1F46012D27F8024B40F05F81013A44
:1045E00031463B46DFE100BF0B698F69FE1A3CBFD5
:1045F00000263B46002A8E6140F00D81B0F85070D5
:104600000A7807443E2B07F2024740F2F3805E0926
:104610004FF0FF35DC0608BF05EB531648F20003E8
:10462000CFF6FF7343EA8623ECE000BF012002B01F
:10463000BDE8F08F002B00F0978003F0010606EB39
:1046400053039B0227F83230E5E000BF48F2B00286
:10465000CFF6FF72303A324320F81E20B0F85020D7
:1046600000EBC5031A442304A2F8024400F08E8034
:104670000A894969024402F58063012212FA84F230
:104680004FF0FF34C2F3410504EB5208002D4FEA0E
:10469000520200F0A8810E4636F8024B1F46012D4B
:1046A00027F8024B40F00481013A31463B469AE13B
:1046B000002AA4F806346DD04B89013249690344BD
:1046C0004FF0FF34C2F3410503F5806304EB520859
:1046D000002D4FEA520200F0A6810E4636F8024B3A
:1046E0001F46012D27F8024B40F0EC80013A31467D
:1046F0003B4698E108EB0605A5F80634D1F814B05E
:104700009DB2002D00F018824E89064406F580699E
:104710006E1C4FF0FF3505EB5604C6F34105002D26
:104720004FEA560700F0DA805E46CDE9004836F8D9
:10473000028B5C46CB46012D2BF8028B40F0E080CB
:10474000D946DDF80480A346009C013FE3E100BFA9
:10475000BEF80250022CA8F8025069D108F10408F2
:104760000EF1040E023A6CE037F8323023F4F843CD
:1047700027F8323037F8323043F4004327F832302C
:1047800049E000BF40F63F717CE000BF40F63F715A
:1047900078E000BF40F63F7174E000BF002F00F0EA
:1047A000BF8007F0010606EB5707BF0223F83270FF
:1047B000B0F85030034403EBC202A2F80674CA6991
:1047C0004AB30A7844F2400730F822303B40BB42FB
:1047D00000D003BB520030F8123040F60F773B4058
:1047E00048F2B007CFF6FF773B43103320F8123082
:1047F00011E000BF002B00F0B58003F0010606EBCE
:1048000053039B0227F83230B0F85070074407EB8F
:10481000C202A2F8063409784FEA410E42F6D0717E
:10482000A1F5E041A1F5756C43F60F712AE000BFD8
:10483000BEF804400EF1060EA8F8044008F1060880
:10484000033ABCF1030F0FD3AEF10807A8F1080635
:1048500037F8085F043A26F8085F7D887580BD88C0
:10486000B580FD88F580F3D1B0F850200978024476
:1048700002EBC10248F2B00CA2F802344FEA410E3A
:1048800040F63F7130F81E20114081EA0C0120F8FB
:104890001E10002002B0BDE8F08F00BF4C88022D32
:1048A0005C8040F07B8004330431023A7BE000BF3F
:1048B0004C88022D5C8040F0918004330431023A30
:1048C00091E000BF4C88022D5C8040F0A78004334B
:1048D0000431023AA7E000BF5E46C8E05E461AE136
:1048E0006688A346A9F80260DDF80480009C022DCA
:1048F00040F0B48009F104090BF10406023FB6E070
:104900006688A346A9F80260DDF80480009C022DA9
:1049100040F0F88009F104090BF10406023FFAE0C7
:1049200033F8327027F4F84723F8327033F83270D6
:1049300047F4004723F83270B0F85030034403EBDB
:10494000C202B2F8063423F4F843A2F80634B2F8EF
:10495000063443F40043A2F80634CA69002A7FF4FF
:1049600030AF58E737F8323023F4F84327F83230C5
:1049700037F8323043F4004327F83230B0F8503083
:10498000034403EBC202B2F8063423F4F843A2F85E
:104990000634B2F8063443F400433AE78C88063113
:1049A0009C800633033AB8F1030F03D240F63F71FF
:1049B00068E700BFA1F10804083B00BF34F8081FF6
:1049C000043A23F8081F61885980A1889980E188FA
:1049D000D98040F63F71F1D154E700BF8C88063191
:1049E0009C800633033AB8F1030F03D240F63F71BF
:1049F00048E700BFA1F10804083B00BF34F8081FD6
:104A0000043A23F8081F61885980A1889980E188B9
:104A1000D98040F63F71F1D134E700BF8C88063170
:104A20009C800633033AB8F1030F03D240F63F717E
:104A300028E700BFA1F10804083B00BF34F8081FB5
:104A4000043A23F8081F61885980A1889980E18879
:104A5000D98040F63F71F1D114E700BFBBF8045094
:104A60000BF10606A9F8045009F10609033F032CCF
:104A70000ED3083EA9F1080536F8084F043F25F883
:104A8000084F74886C80B488AC80F488EC80F3D1D3
:104A90000BEB030600244E61924588BFAAEB03048A
:104AA0000C62B0F8502088BF9A4608EB02031FFA48
:104AB0008AF2A3F806A4CAB14989013201444FF031
:104AC000FF33C2F3410401F5806103EB5203002C74
:104AD0004FEA52026DD036F8027B0D46012C25F8C4
:104AE000027B07D1013A294663E000BF40F63F71DF
:104AF000C8E600BF36F8025B022C4D8054D1043169
:104B0000023A56E0BBF804500BF10606A9F804502F
:104B100009F10609033F032C0ED3083EA9F108054D
:104B200036F8084F043F25F8084F74886C80B48825
:104B3000AC80F488EC80F3D10BEB030600244E61CB
:104B4000924588BFAAEB03040C62B0F8502088BFDE
:104B50009A4608EB02031FFA8AF2A3F802A4BAB13C
:104B60000989013201444FF0FF33C2F3410401F5DA
:104B7000806103EB52034FEA5202C4B336F8027B62
:104B80000D46012C25F8027B06D1013A29462EE07C
:104B900040F63F7176E600BF36F8025B022C4D808E
:104BA00020D10431023A22E036F8024B033A8C80DD
:104BB0000631032B02D240F63F7163E6A6F10803EB
:104BC000A1F1080433F8081F043A24F8081F598893
:104BD00061809988A180D988E18040F63F71F1D148
:104BE00050E600BF36F8024B033A8C800631032BA7
:104BF00002D240F63F7145E6A6F10803A1F1080490
:104C000033F8081F043A24F8081F598861809988EE
:104C1000A180D988E18040F63F71F1D132E60000F1
:104C200001460020A1F844004BF680720020A1F854
:104C30004020704741F6E800C2F20000FCF786BC55
:104C4000B0F844007047000070B51044022B00F526
:104C5000806440D34FF0FF32C3F34105580802EBA4
:104C6000530C4DB1224632F8026B8E46012D2EF8C0
:104C7000026B07D1013815E02246BCF1030F144640
:104C80002AD315E06288022D4A8005D1221D01F148
:104C9000040E023806E000BFA688A21D01F1060E30
:104CA00003388E807146BCF1030F144614D300BF45
:104CB00032F8086B043821F8086B32F8066C21F8DA
:104CC000066C32F8046C21F8046C32F8026C21F89E
:104CD000026CEDD114468E46D8071CBF20888EF892
:104CE000000070BD002904BF8021A0F84C100020F6
:104CF00070470000B0B5002B3CD0104400F5806E2A
:104D0000581C4FF0FF32C0F3410302EB500C4FEA46
:104D10005000E3B10A4632F8025B7446012B24F8D6
:104D2000025B03D101381146A64610E04A88022BE7
:104D3000AEF8022004D10EF1040E0431023806E070
:104D40008A880631AEF804200EF1060E0338BCF155
:104D5000030F38BFB0BD0839AEF1080231F8083F83
:104D6000043822F8083F4B8853808B889380CB8887
:104D7000D380F3D1B0BD0000FEE7000080B540F65F
:104D80000000C4F600004FF40051FCF7A1F901380F
:104D9000B0FA80F0400980BD80B586B0002041F2B5
:104DA0004C01CDE90400C4F202010A6842F0040299
:104DB0000A60096801F00401009100994FF4005164
:104DC000CDE901100220039040F60000C4F6000077
:104DD00001A9FCF7A7F806B080BD000070B586B049
:104DE000002541F24C000595C4F20200016840F62E
:104DF000000441F0040101600068C4F6000400F002
:104E00000400009000982046402100224026FCF734
:104E10006DF90120CDE9020501A92046019604950E
:104E2000FCF780F806B070BD40F60000C4F6000044
:104E30004021FCF753B9000094B0FCF771F900244D
:104E40000020CDE90A44CDE90844FDF737F92120D7
:104E500006904FF48030079001200C90022003252B
:104E600055210D90CDE90E50CDE91010CDE912007D
:104E700006A8FDF7B7FC28B1EFF3108072B600BFAB
:104E8000FEE700BF0F20CDE9010501A80421CDE90F
:104E900003440594FDF71CFB20B1EFF3108072B6BC
:104EA000FEE700BFFDF760FFFDF70CFFFDF788FF91
:104EB000FFF772FFFFF792FFFCF71EF900F1C8063B
:104EC000FCF71AF941F67C04C2F2000420467F2167
:104ED000FBF792FA41F6DC35C2F2000540F6E449F0
:104EE0000FF28C080DF1180A02E000BFB7420DD294
:104EF000FCF702F90746FFF741FF0028F6D0B7425A
:104F0000F6D307F1C806FFF78FFFF1E72046FBF75E
:104F100033FF08BB20460A21FBF756FE10BB204694
:104F2000FBF7C4FC800503D52046FBF7C1FC2860D5
:104F300028682968020901FB09F0030C5046414624
:104F400007F5FA7600F022F881B25046FBF730FA06
:104F5000FFF76AFFCCE700BFEFF3108072B600BF27
:104F6000FEE700BFEFF3108072B600BFFEE700BFA0
:104F7000504232206164632076616C75653A202569
:104F8000642025646D560D0A000000000FB4084B24
:104F900010B504A902AA039800F01CF8044602A95F
:104FA000002000F0B8F9204610BC5DF814FB0000AA
:104FB0001753000802E008C8121F08C1002AFAD1DE
:104FC00070477047002001E001C1121F002AFBD189
:104FD000704700002DE9FF4F8BB08846054600263C
:104FE00006E025280BD0DDE90D1290476D1C761CDC
:104FF00028780028F5D10FB03046BDE8F08F0024A6
:10500000A146A2460122AE4900E0044315F8013F43
:10501000203B02FA03F00842F7D128782A2810D062
:105020006FF02F022878A0F13001092915D809EB7B
:10503000890102EB410144F0020400EB01096D1CFF
:10504000F0E758F8041B5FEA010903D544F4005463
:10505000C9F1000944F002046D1C28782E2817D1EC
:1050600015F8010F44F004042A280ED06FF02F0227
:105070002878A0F1300109290AD80AEB8A0102EB4D
:10508000410100EB010A6D1CF2E758F804AB6D1CFE
:1050900028786C280FD006DC4C2817D068280DD053
:1050A0006A2814D104E0742810D07A280FD10DE0BA
:1050B00044F400140AE044F4801401E044F4401481
:1050C0006978814202D104F580146D1C6D1C28782A
:1050D000692865D006DC00288DD0632827D0642895
:1050E00006D15DE06E2808D073282AD0752877D0C5
:1050F000DDE90D129047761CE0E0C4F3025002286F
:1051000009D003280DD0D8F8001004280DD00E6067
:1051100008F10408D2E0D8F80010F217C1E90062E3
:10512000F6E7D8F800100E80F2E70E70F0E718F8F6
:10513000041B8DF8001000208DF80100EB460120C3
:1051400003E058F804BB4FF0FF3061074FF0000751
:1051500001D40AE07F1C57450DDA8742FADB1BF8C1
:1051600007100029F6D106E07F1C8742FCDB1BF804
:1051700007100029F8D1DDE90D23A9EB07008146CE
:10518000214600F0B1F83044C61904E0DDE90D1203
:105190001BF8010B90477F1EF8D22146484688E055
:1051A00058F8040BC4F302514FF00A0B032900D145
:1051B00000B2042900D140B2002802DA40422D2179
:1051C00002E0210505D52B218DF82410012104E0F2
:1051D00006E0E10710D02021F6E708AF089113E0C0
:1051E00058F8040BC4F302514FF00A0B032900D105
:1051F00080B2042900D1C0B20021EEE75946FBF786
:1052000019F8303107F8011D0028F7D1ADEB070080
:1052100000F1200B600702D524F4803401E04FF048
:10522000010ADA4502DDAAEB0B0000E0002082460D
:1052300000EB0B0108980144A9EB01000A90E00380
:1052400006D4DDE90D2321460A9800F04DF8064406
:105250004FF0000908E009A911F80900DDE90D1275
:10526000904709F10109761C08998945F3DBE003B1
:105270000CD5DDE90D2321460A9800F035F80644E7
:1052800004E0DDE90D1230209047761CBAF10001F0
:10529000AAF1010AF5DC05E0DDE90D1217F8010BB2
:1052A0009047761CBBF10001ABF1010BF4DC0A98CE
:1052B0002146DDE90D2300F005F806446D1C97E654
:1052C000092801002DE9F041044600251E46174635
:1052D000880404D405E039462020B0476D1C641EC4
:1052E000F9D52846BDE8F0812DE9F04104460025B6
:1052F0001E469046C80301D5302700E020278804C9
:1053000004D505E041463846B0476D1C641EF9D50A
:105310002846BDE8F0810A68531C0B601070704786
:105320000000000000000000010203040607080955
:10533000505300080000002088010000840200088B
:105340001854000888010020601E0000C44F0008A7
:105350003210320113CD2F140811311B0821041A09
:105360004D041AB90413C92E1408E9305208132445
:10537000F41A510C1A89284B5133141ADD0C1AED0A
:10538000241A5D08C11A31281A21041A41041A117D
:1053900004140902431302011DC03209046D1A02EC
:1053A0000B13052416100105240110090104240221
:1053B00002052406170107058203081510090401D8
:1053C00033020A2E0705010240072A810711093717
:1053D00044113A02441907111A12171302021E400F
:1053E000830440574D1B0203F92B0A061A111A4079
:1053F0000B112B0907640A3B04A81365031B086102
:10540000041A5D041A91041AAD04071E040309046A
:085410001A0300000000000077
:04000005080001D915
:00000001FF
