:020000040800F2
:10000000E81F0020ED010008692E0008F12C00080F
:10001000652E000865030008554D0008000000002B
:10002000000000000000000000000000712E000829
:10003000F5030008000000006D2E0008752E000872
:10004000070200080702000807020008070200086C
:10005000070200080702000807020008070200085C
:10006000070200080702000807020008070200084C
:10007000070200080702000807020008070200083C
:10008000070200080702000807020008070200082C
:10009000FD4B0008070200080702000807020008DD
:1000A000070200080702000807020008070200080C
:1000B00007020008070200080702000807020008FC
:1000C00007020008070200080702000807020008EC
:1000D00007020008070200080702000807020008DC
:1000E00007020008070200080702000807020008CC
:1000F00007020008070200080702000807020008BC
:1001000007020008070200080702000807020008AB
:10011000070200080702000807020008070200089B
:10012000070200080702000807020008070200088B
:10013000070200080702000807020008070200087B
:10014000070200080702000807020008070200086B
:10015000070200080702000807020008070200085B
:10016000070200080702000807020008070200084B
:10017000070200080702000807020008070200083B
:10018000070200080702000807020008070200082B
:10019000070200080000000007020008070200082C
:1001A000070200080702000807020008070200080B
:1001B00007020008070200080702000807020008FB
:1001C00007020008070200080702000807020008EB
:1001D0000702000807020008DFF80CD000F040F822
:1001E00000480047114E0008E81F002006488047DD
:1001F00006480047FEE7FEE7FEE7FEE7FEE7FEE70C
:10020000FEE7FEE7FEE7FEE7E52E0008D90100085D
:10021000D2B201E000F8012B491EFBD27047002248
:10022000F6E710B513460A4604461946FFF7F0FFF5
:10023000204610BD30B50B46014600202022012487
:1002400009E021FA02F59D4205D303FA02F5491BA4
:1002500004FA02F52844151EA2F10102F1DC30BDBA
:100260001CB509480090094801900546009C06E02D
:10027000E06840F0010394E8070098471034AC426E
:10028000F6D3FFF7ADFF000008530008285300081D
:1002900070B58C1810F8015B15F0070301D110F848
:1002A000013B2A1106D110F8012B03E010F8016B75
:1002B00001F8016B5B1EF9D12B0705D40023521EF8
:1002C0000DD401F8013BFAE710F8013BCB1A921C60
:1002D00003E013F8015B01F8015B521EF9D5A1425E
:1002E000D8D3002070BD0000B0B5016804468A680C
:1002F0008868C0074FF0000031D012F0020218BF2A
:10030000B0BD886800F00D0001281FD188684FF645
:10031000C072C7F6FF721040023088600320086088
:1003200000F0F0FE21688968C90704BF0020B0BD55
:10033000054602E08068C00712D000F0E3FE411BD2
:1003400020680329F6D38168C907F3D0E06D40F037
:100350001000E065206E40F0010020660120B0BD75
:100360000020B0BDFEE7000000207047002070476D
:1003700010B541F2AC54C2F2000440F6AC51C2F2E6
:1003800000012046002202F0EFFF40F2AC51C2F221
:100390000001204602F0DEFF002010BD10B541F242
:1003A000AC54C2F200040146204602F0D3FF2046BE
:1003B00002F0FAFE002010BD0020704741F2AC525E
:1003C000C2F20002D2F8BC22D2F81432002B1CBFB9
:1003D0000120704710B541F2AC54C2F200040A4645
:1003E0000146204602F0C0FF2046BDE8104003F061
:1003F00039B8000070470000EFF3108072B600BFFC
:10040000FEE70000B0B582B004460020019094F8E9
:100410005800012802D1022002B0B0BD012084F8AA
:10042000580020460D46FFF75FFFE16D10B141F027
:1004300010014BE041F2021291430231E165216863
:100440004FF6C073D1F808C0C3F6FF7303EA0C037C
:1004500005F080454DF601622B44C0F2040203F121
:1004600000438B608B68B3F1FF3F2BDC019B0133B2
:100470000193019B93421DD88B68B3F1FF3F21DCB0
:10048000019B01330193019B934213D88B68B3F115
:10049000FF3F17DC019B01330193019B934209D875
:1004A0008B68B3F1FF3F0DDC019B01330193019B8E
:1004B0009342D7D9E06D40F0100020F002010120F6
:1004C00004E000BFE16D012262F30101E16500215A
:1004D00084F8581002B0B0BDF0B581B0002200928F
:1004E00090F85820012A03D10221084601B0F0BD3E
:1004F0000123076880F85830BB685B0734D4D1E922
:1005000000351F26C5F3012407EB8404226B05F098
:100510001F05AE40C3F38463B243AB401A4322636A
:10052000BA68BB6802F0040203F00803D21840F076
:100530008F800A6807F114030426C2F34064D1F8DF
:1005400008E006EAD25C53F82440C2F304550722BF
:10055000AA40BEF1004F24EA02040BD143F80C403C
:100560001A6842F000430DE0C16D41F02001C16501
:10057000012198E10EFA05F2224343F80C201A6893
:1005800022F000437B61D1E90435FC68042B40F084
:10059000D5803A6E3A6E0B68C2F3846293FAA3F682
:1005A000C3F3846C6FF3DF43B6FA86F5002B2C4659
:1005B0004FF6FF7E08BF6446A242C0F2070E0CD180
:1005C0003A6E22F000423A660A6802EA0E03C2F36B
:1005D000846C92FAA2F2B2FA82F57A6E7A6E002BED
:1005E000C2F384622C4608BF6446A2420CD17A6EE4
:1005F00022F000427A660A6802EA0E03C2F3846CB3
:1006000092FAA2F2B2FA82F5BA6EBA6E002BC2F377
:1006100084622C4608BF6446A2420CD1BA6E22F016
:100620000042BA660A6802EA0E03C2F3846C92FAC8
:10063000A2F2B2FA82F5FA6EFA6E002BC2F384626D
:1006400008BF6546AA4203D1FA6E22F00042FA665C
:10065000BA680D68D20700F0A3800021C8F2080133
:100660000D4200F01F8140F2001CC5F2000C4FF457
:10067000C161674508BF4FF40271B7F1A04F08BFD1
:100680004FF4027151F80C400022CCF22132954215
:1006900004F0E07E05D01022C9F2C002954240F07D
:1006A000AF80220200F1FE8040F20062C5F200023B
:1006B000974203D0B7F1A04F40F0F4805CF80120DE
:1006C00022F0E07242EA0E0242F400024CF80120ED
:1006D00040F22801C2F20001096842F6635289091A
:1006E000C0F23E52A1FB0212910901EB41010C2222
:1006F00002EB810100910099002900F0D38000995C
:10070000013900910099002900F0CC80009901394D
:1007100000910099002900F0C580009901390091ED
:100720000099002900F0BE800099013900910099DC
:1007300000294FF00001E2D1B5E000BF062202EA35
:10074000940205FA02FC0E6807F1600555F8234093
:100750004FF20002C0F2FF3206F0F846224046EAAD
:100760000C06324342F0004245F823200A698B69A7
:1007700055F8226026F08076334345F822300A6926
:100780000B7F55F82260012B26F0007608BF06F19A
:10079000007645F82260BA680D68D2077FF45DAF35
:1007A000CA6800262B46C4F27F06B2426FF3DF43CD
:1007B0001AD1D7F8B020002B42EA0302C7F8B020C4
:1007C00046D095FAA5F2B2FA82F2013202F01E0387
:1007D000092B02F01F0344D801229A4003EB430384
:1007E00042EA035349E000BFD7F8B0109943C7F875
:1007F000B0100021C8F208010D427FF434AF51E07F
:100800000022CCF2527295420ED10022B2EB1E6F42
:100810000AD15CF8012022F0E07242EA0E0242F0B6
:1008200080724CF801203DE00021CCF684318D42ED
:100830004FF0000108BF14F4800234D1B7F1A04F8B
:1008400038D067452FD0674534D00CF5C06133E010
:10085000012202EB956202F01E030A2B02F01F0335
:10086000BAD3012200269A4003EB4303CFF6206659
:1008700006EB03531A4342F00073C3F3406607EBE1
:1008800086068A687569C3F3045307249C40A54310
:100890009A402A4372610D680021C8F208010D4296
:1008A0007FF4E1AE0021002280F85820084601B014
:1008B000F0BD00BF0CF500718A6822F0E07242EAD8
:1008C0000E0242F480028A60ECE70000C06D7047BF
:1008D0000068006C70470000B0B582B0044600208C
:1008E00001904CB1E06D58B121688868800012D445
:1008F0008868C00019D54CE0012002B0B0BD00BF2F
:10090000204600F02DF90020206684F85800216868
:1009100088688000ECD588684FF6C072C5F6FF7213
:10092000104088608868C00033D44FF6C072886871
:10093000C5F6FF7202F18052104000F180508860CD
:1009400040F22800C2F20000006842F663528009BB
:10095000C0F23E52A0FB02029009022202EB4000CC
:1009600001900198A8B100BF019801380190019849
:1009700078B1019801380190019850B1019801387F
:100980000190019828B10198013801900198002840
:10099000EAD18868C00009D4E06D40F01000E0653D
:1009A000206E40F001002066012000E000208A68EF
:1009B000E36D02F0040203F01003D218E26D40F080
:1009C000878022F481720232E2658A68D20729D1D7
:1009D00040F2001341F48072C5F2000340F2080CAB
:1009E0009A42C5F2000C79D1DCF80030DCF8002125
:1009F0001A43D20716D10CF1F8024FF4E063D4F891
:100A000004E0914208BF4FF44073B1F1A04F08BF1A
:100A10004FF440735CF8032022F47C1242EA0E0289
:100A20004CF8032094F81DE0E36BD4E902C243EADA
:100A30004E331A4394F8243042EA0C02012B42EA66
:100A4000034207D1D4F828C00023CFF6FE7303EB8E
:100A50004C431A43E36A33B1D4F830C003F47873DB
:100A600043EA0C031A43D1F80CC044F20703CFF653
:100A7000F07303EA0C031A43CA600A69636B22F03D
:100A800040621A430A618A688B6802F0040203F02C
:100A90000803D21853D194F83820237F520042EA39
:100AA000833CCB6844F2020223EA020242EA0C02CF
:100AB000CA6022690B69FAB143F480330B61D1F843
:100AC000C0C043F6FF732CEA03031A431CE000BFC7
:100AD00042F010010120E16502B0B0BDDCF800E495
:100AE000DCF80025DCF8003642EA0E021A43D20791
:100AF0003FF481AF96E700BF23F480320A61D1F85A
:100B0000C02043F6FF739A43C1F8C02094F84030E8
:100B10000A69012B10D140F2FD7322EA030CD4E9DB
:100B20001132D4E913E543EA0C031A4342EA0E02F8
:100B30002A4342F0010201E022F001020A616269E7
:100B40000B6B012A23F00F0202D1236A013B1A43E7
:100B50000A63E16D012262F30101E16502B0B0BDFB
:100B600010B59CB004460020CDE91A0002A804305C
:100B70005021FFF754FB206840F20011C5F200013C
:100B8000884201D01CB010BD4FF4004002904FF0DD
:100B90000050139002A801F035FB002818BFFFF7A2
:100BA0002BFC41F24C00C4F20200016841F40051F8
:100BB0000160016801F4005101910199016841F05F
:100BC00002010160006817A900F00200019001987D
:100BD00004201790032018900020199040F2004044
:100BE000C4F6000000F0AAF91CB010BD2DE9F047D2
:100BF00040F200480446C5F2000800680D46A8F51A
:100C000040724FF44271D4F81890904208BF6FF0D0
:100C1000F701B0F1A04F08BF6FF0F70151F80820BD
:100C2000B9F1080F02F01F0A02D1082711E000BF36
:100C3000BAF1090F00F28E80012202FA0AF240F2A4
:100C400021231A4200F08680C068C00740F08880E7
:100C5000042700F057FA21680A683A422AD0E06D6A
:100C600040F40070E065C86810F4406F0FD1607FF9
:100C700068B9086800070AD5E06D20F48070E06567
:100C8000E06DC00403D4E06D40F00100E06540F287
:100C90000010C5F2000081423ED040F20052C5F281
:100CA000000291420A4647D142468A420A4638D15A
:100CB00042E000BF0646681C29D065B900F022FA60
:100CC0002168086838420FD008683842F6D0C6E775
:100CD00008683842C3D100F015FA801B2168A84289
:100CE000F6D908683842F3D1E06D40F00400E065C1
:100CF000002084F858000320BDE8F08708683842D7
:100D0000ADD108683842AAD108683842A7D108682E
:100D10003842F3D0A3E700BF4FF0A0428A420A4610
:100D20000AD0BAF1090F23D8012202FA0AF240F2DE
:100D300021231A420A461BD0D068B9F1080F01D10D
:100D4000082002E0400401D40C2008600020BDE827
:100D5000F08700BF58F8010010F4604F3FF478AFFF
:100D6000E06D40F02000E0650120BDE8F08700BFA5
:100D7000814209D040F20050C5F200000A4681428B
:100D800008BF4246D8E700BF4FF0A042D4E70000BA
:100D90002DE9F04140F20046C5F200060168044624
:100DA000A6F540704FF44272814208BF6FF0F7021F
:100DB000B1F1A04F08BF6FF0F7029759886840075C
:100DC00003D494F85800012802D10220BDE8F08134
:100DD000012084F8580088684FF6C078C007C7F62D
:100DE000FF7837D1886808F17F0210420ED0E06D9D
:100DF00040F01000E065206E40F001002066002009
:100E000084F858000120BDE8F08100BF886800EA3E
:100E1000080040F00100886000F074F921680A6859
:100E2000D20717D1054602E00868C00712D18868CA
:100E3000C00705D1886800EA080040F0010088601A
:100E400000F060F9401B21680328EDD30868C00753
:100E5000EAD1CCE7E06D40F60172904300F5807076
:100E600040F20012E065C5F2000240F2005007F0C7
:100E70001F039142C5F2000008D081420CD13746D1
:100E80008F4218BF002B07D00AE000BF4FF0A047E9
:100E90008F4218BF002B03D1E76D27F48017E76559
:100EA000E56D0027ED044FF0000544BF256E25F0E9
:100EB000060525661C2591420D6084F8587005D002
:100EC000814210D137468F4204D10CE04FF0A04749
:100ED0008F4208D0092B17D8012707FA03F340F2F5
:100EE00021273B4210D0C868800104D5E06D012263
:100EF00062F30D30E065886800EA080040F0040005
:100F000088600020BDE8F081E36D914243F48013D6
:100F1000E36503D0814208BF314601E04FF0A041B4
:100F2000C86880015CBF0020BDE8F081E06D012150
:100F300061F30D30E0650020BDE8F0812DE9F04F50
:100F400082B00D68002D00F0C58000F1384786059D
:100F500046EA972741F20046C4F60006062240F210
:100F6000004EB04208BF0522C4F2010E052F38BF63
:100F70003A464FF0000C012400270026009209E0B9
:100F80000D68013635FA06F207F102070CF1040C80
:100F900000F0A08004FA06FB15EA0B08F0D0D1F8A7
:100FA00004A003230AF003056A1EBB40012A6FEA6E
:100FB00003090FD88268CB6802EA0902BB401A43D2
:100FC00082604268CAF3001322EA0B02B3401A435C
:100FD000426003E0032D01D103251FE0C2688B6846
:100FE00002EA0902BB401A43022DC26016D16FF01B
:100FF000030202EA560202440CF01C050F23D2F849
:1010000020A003FA05FB0B692AEA0B0AAB4043EA6E
:101010000A031362D1F804A00AF00305026805FA76
:1010200007F302EA09021A431AF4403F0260A7D00C
:1010300041F26003C4F202031A684FF6084A42F014
:1010400001021A601A68CFF6FF7A02F001020192DB
:10105000019A26F00302724452F80A900CF00C0533
:101060000F23009CAB4029EA030304FA05F52B4348
:1010700042F80A30DEF808204B6842EA080540F2E0
:101080000C49DC0258BF22EA0805CEF80850C4F229
:101090000109D9F800209D0242EA080458BF22EA5B
:1010A0000804C9F80040DEF804209D0342EA080461
:1010B00058BF22EA0804CEF80440DEF80020DB0323
:1010C00042EA080458BF22EA0804CEF8004001248E
:1010D00056E700BF02B0BDE8F08F0000006908408D
:1010E00018BF012070470000426902EA01039143E2
:1010F00041EA0341816170471823002A08BF282371
:10110000C150704741F6E030C2F2000000687047FD
:1011100040F2000041F6E031C2F20000C2F20001EC
:1011200040680A68104408607047000080B50320DA
:1011300000F08AF80F2000F009F800281CBF0120F9
:1011400080BD00F029F8002080BD000070B540F29D
:101150000006C2F200067168E1B1044640F22800C0
:10116000C2F200004FF47A720068B2FBF1F1B0FBFA
:10117000F1F001F0A7FD0F2C4FF0010508D838B9A8
:101180004FF0FF3021460022002500F031F8346096
:10119000284670BD012070BD82B041F25800C4F2F3
:1011A0000200816841F001018160816801F0010164
:1011B00001910199016841F080510160006800F0DF
:1011C00080500090009802B001F012B8002848BF8B
:1011D000704700F01F01012202FA01F11C2202EA0D
:1011E000D0004EF20012CEF2000281507047000093
:1011F00010B54EF60C5CCEF2000CDCF80030C3F3F8
:10120000022E8EF00704042C28BF0424BEF1030331
:101210004FF0FF3E0EFA04F438BF0023A14399407B
:101220000EFA03F39A43114300F00F0200F16043FA
:101230000901043A03F564436244002848BF02F1FF
:101240000C03197010BD00004EF60C51CEF20001D7
:101250000A684FF6FF031A4060F30A2242F08060EA
:1012600040F0FD700860704701220168C0F8E82274
:10127000002280F8E022B1F8540040F00100A1F80B
:101280005400B1F8540040F002020020A1F85420AC
:101290007047000010B50129044613D011BBA069A6
:1012A00048B101F0E9FD4EF61050CEF200000168A1
:1012B00021F006010160D4F8F002BDE8104002F010
:1012C0002FBB00BFD4F8F00202F0B2FBA0690028E7
:1012D00008BF10BD4EF61050CEF20000016841F07C
:1012E0000601016010BD000080B501F0070C0CEB99
:1012F0008C0C00EBCC0C01EB810E0CF1280C00EBFC
:10130000CE00090658BF00F5B47C0020002A19BFA2
:10131000CCF808300121ACF8063000218CF80C1014
:1013200080BD000001EB8102D0F8F03200EBC2007A
:10133000C26B184602F0B2B901EB8102D0F8F0326C
:1013400000EBC200D0F87C21184602F0FBB9000087
:1013500010B5044648B2B0F1FF3F01F0070000EBC2
:10136000800104EBC10205DD02F5B471002382F8AF
:10137000693104E0012302F1280182F8293094F850
:10138000A8220870012A04BF022010BD2068012293
:1013900084F8A82202F040FF002084F8A80210BDC3
:1013A000B0B50446406801F00F02824284BF0120BC
:1013B000B0BD48B2B0F1FF3F01F0070000EB800183
:1013C00004EBC10206DD02F5B471002382F8693135
:1013D00005E000BF012302F1280182F8293094F8CA
:1013E000A8220025012A8D70087004BF0220B0BD1C
:1013F0002068012284F8A82202F0A2FF284684F87F
:10140000A852B0BD01F0070101EB810100EBC10062
:10141000D0F884017047000070B5064648B2B0F1BC
:10142000FF3F01F0070000EB800107DD06EBC10480
:1014300004F5B471002584F8695106E006EBC10C8F
:1014400001240CF128018CF829404D780870002DFA
:101450000A61CB7018BFC881022B04BF002008713D
:1014600096F8A802012804BF022070BD306801224E
:1014700086F8A82202F09CFD002086F8A80270BD24
:1014800010B501F0070C0CEB8C0100EBC10E0068ED
:101490000EF5B4710024CEF87C21CEF88031CEF860
:1014A00084418EF869418EF868C102F0A3FF0020E4
:1014B00010BD000010B54268044601F007009042DC
:1014C00084BF012010BD4AB2B2F1FF3F0ADD01EB3B
:1014D000810104EBC10202F5B471002382F8693185
:1014E00009E000BF00EB800104EBC102012302F11F
:1014F000280182F8293094F8A8320122012B8A7041
:10150000087004BF022010BD206884F8A82202F0F1
:1015100057FF002084F8A80210BD000080B501F03C
:10152000070C0CEB8C0100EBC10101F828CF00681F
:101530004FF0010C01F1140781F824C04FF0000EA8
:1015400087E80C400B6281F801C002F053FF0020D5
:1015500080BD00002DE9F04F81B00446006803F023
:1015600053FB010422D4410500F1F683410400F14C
:101570000584810400F11C84C10400F12384010569
:1015800000F14684010600F15D84810500F16A8462
:10159000C00540F1EF832068B0F8441021F4807159
:1015A000A0F8441001B0BDE8F08F00BF2068B0F98A
:1015B0004410B1F1FF3F00F3DD8304F52C7140F6D8
:1015C0000F7B009123E000BFB0F8501094F8682121
:1015D000014401EBC201B1F80634B4F86E21009960
:1015E0006FF39F23C4F8843103F012FB2068018855
:1015F00001EA0B0180310180204600F033FD00BF7D
:101600002068B0F94410B1F1FF3F00F3B383B0F8A4
:10161000442012F00F090DD030F929104FEA490A81
:10162000B1F1FF3F1FFA81F832DD5FEA0860E7D5CC
:101630005AE100BF0188D2066CD401EA0B0101F522
:1016400000410180B0F8501094F82820084400EBC5
:10165000C200B0F80204E16B6FF39F20606408449D
:10166000E06320460021FFF75DFE94F82400002887
:10167000C6D0206C0028C3D194F82400216840F023
:101680008000C0B2A1F84C00002084F82400B7E725
:1016900030F81A1040F60F7C01EA0B01803120F877
:1016A0001A1009EB890104EBC10B9BF874110BF5BF
:1016B000B476002978D09BF86B11022940F086801F
:1016C000B0F850703178DBF8803107440BF5C07208
:1016D0005FEA484507EBC10700F19280B7F806744E
:1016E00000256FF39F27DB1B38BF2B46136040F2AA
:1016F0009D805FEA486200F1A98030F8212048F21D
:10170000C00302EA0C021A4320F82120002F40F007
:101710009E80C3E00A053FF557AF09B2B1F1FF3F24
:101720003FF76EAF018801EA0B0180310180B0F80C
:10173000501094F86821014401EBC201B1F806345D
:101740006FF39F23C4F8843193B1D4F87C1179B13D
:10175000B4F86E2103F05CFAD4F87C01D4F884115B
:101760000844C4F87C0120460021FFF7E5FD20680D
:10177000018809053FF544AFB0F85010D4F878312E
:1017800000F206423F2BC0F00D825F09DE064FF0EB
:10179000FF3608BF06EB531748F20003CFF6FF737E
:1017A00043EA87237AE200BFB0F850103278014450
:1017B00001EBC201B1F806746FF39F27002F6DD0C3
:1017C000DBF87C11BBF86E2163E000BF327848F291
:1017D000C00330F8221001EA0C01194320F822104E
:1017E00030F82230B0F8501000EBC2025B04114414
:1017F00016D4B1F806746FF39F2747BB4EE000BFC5
:10180000B7F8027400256FF39F27DB1B38BF2B4608
:10181000136021D95FEA48622DD4B7BB3EE000BF18
:10182000B1F802746FF39F277FBB37E030F82120B7
:1018300043F60F731A404CF28003A3F500535A404D
:1018400020F821205FEA48627FF557AF37B3DBF815
:101850007C11BBF872211CE030F8212043F60F7395
:101860001A404CF28003A3F500535A4020F821207F
:101870005FEA4862D1D530F8212048F2C00302EA7D
:101880000C021A4320F8212047B1DBF87C11BBF889
:1018900070213B4603F0BCF901E000BF0027DBF8F4
:1018A0008411DBE95F0239443844CBF88411CBF86A
:1018B0007C011AB1DBF87801B8420BD931782046A7
:1018C000FFF73AFD40F60F7B5FEA08607FF598AEC0
:1018D0000AE000BF2068314602F08CFD40F60F7B25
:1018E0005FEA08607FF58CAE206809EB890130F86B
:1018F0001A2004EBC10502EA0B0101F5004120F8B2
:101900001A1095F82B1005F12809022920D15FEA59
:10191000C85143D4B0F8502099F80010024402EBAB
:10192000C102B2F802242B6C6FF39F229B1A4FF076
:10193000000738BF3B462B6440F23081E96B6B6C8B
:101940001144E96399186964494602F053FD57E66A
:1019500095F8341000294FF00001296400F01C8133
:101960005FEA486168D495F82910012900F0FE80EB
:10197000002940F01181B0F8501099F80020084477
:1019800000EBC200B0F8061421F4F841A0F80614E8
:10199000B0F8061441F40041F0E000BFB0F8507018
:1019A00099F800102A4652F8406F5FEA486300EB4E
:1019B000C10C5BD40CF2064E3EF8077000236FF3A7
:1019C0009F27F61B38BF1E46166040F287805FEAED
:1019D000484208D430F821204CF2800302EA0B027E
:1019E0001A4320F821202A4612F84C1F012940F002
:1019F000A2812B4653F8488F53E904C153F8046C75
:101A000039443E44E04543F80C1C43F8046C80F034
:101A1000FF80B8F1000F00F053810027C4461F601B
:101A2000177095F82920012A40F0FA80B0F850206C
:101A30002EF802C06CE100BF95F82910012900F0D2
:101A4000A180002940F0A880B0F8501099F800203B
:101A5000084400EBC200B0F8021421F4F841A0F8E9
:101A60000214B0F8021441F4004193E00CF2024E6B
:101A70003EF8077000236FF39F27F61B38BF1E4602
:101A800016604FD95FEA484208D530F821204CF261
:101A9000800302EA0B021A4320F821202B4613F898
:101AA0004C1F012940F047812A4652F848CF52E99D
:101AB000046152F8048C3944B844B44542F80C1C13
:101AC00042F8048C80F0C2804FF00008BCF1000F97
:101AD00083F8008040F0BD80BC46BCE095F829202A
:101AE000012A67D0002A6ED1B0F850206244B2F8C3
:101AF000023423F4F843A2F80234B2F8023443F477
:101B00000043A2F80234B0F850003EF8002022F45E
:101B1000F8422EF800203EF8002042F400422EF851
:101B2000002050E095F82920012A53D0002A5AD1EC
:101B3000B0F850203EF8027027F4F8472EF80270F3
:101B40003EF8027047F400472EF80270B0F85000DB
:101B50006044B0F8062422F4F842A0F80624B0F855
:101B6000062442F40042A0F806243CE0B0F85010ED
:101B700099F80020084400EBC2000021A0F80614E8
:101B80000AE000BFB0F8501099F80020084400EBBC
:101B9000C2000021A0F8021499F800102046FFF7B7
:101BA000C1FB2DE5002B6FD003F0010707EB5303BA
:101BB0009B0273E0B0F850206244A2F80234B0F8FF
:101BC00050002EF800302046FFF7ACFB5FEA48409B
:101BD00010D5B0E0B0F850202EF80230B0F8500028
:101BE0006044A0F806342046FFF79CFB5FEA4840BB
:101BF00040F1A180206899F800104CF2800330F881
:101C0000212002EA0B021A4320F8212093E000BFB2
:101C1000A8EB0C021A6095F82920012A3FF406AFC0
:101C2000002A75D1B0F85070BCF13F0F50D35FEA75
:101C3000CC634FEA5C124FF0FF3308BF03EB5C123A
:101C40004FF4004343EA822260E000BFACEB060899
:101C5000B446C2F8008095F82920012A2AD0002A2B
:101C600064D1B0F85070BCF13F0F3BD35FEACC6356
:101C70004FEA5C124FF0FF3308BF03EB5C124FF4E6
:101C8000004343EA82224FE08B5A48F2000723F4D4
:101C9000F8438B528B5ACFF6FF773B438B52018828
:101CA00043F60F7211404CF28002A2F5805251406F
:101CB0000180A5E4B0F850202EF802C036E000BF45
:101CC00000231370BC4695F82920012AA8D1ADE65F
:101CD000BCF1000F10D00CF0010202EB5C0292028A
:101CE00014E000BFBCF1000F14D00CF0010202EBB5
:101CF0005C02920218E000BF3EF8072022F4F8428E
:101D00002EF807203EF8072042F400422EF8072064
:101D10006A8E0CE03EF8072022F4F8422EF80720E5
:101D20003EF8072042F400422EF807202A8E1FFAC0
:101D30008CF302F0C3FF206899F8001040F63F735F
:101D400030F821201A4048F2C003103B5A4020F8D6
:101D50002120FFF755BC00BF2068B0F8441021F4E3
:101D60008061A0F84410204600F03EF994F8A802E3
:101D700001280DD101B0BDE8F08F00BF2068B0F898
:101D8000441021F48041A0F8441001B0BDE8F08F68
:101D90000120002584F8A80284F82450206800213E
:101DA00002F084FF84F8A85201B0BDE8F08F00BFB4
:101DB0002068B0F8441021F40051A0F8441001B09C
:101DC000BDE8F08F2068B0F8401021F00401A0F8C1
:101DD0004010B0F8401021F00801A0F8401094F82D
:101DE000E002012806D1002084F8E002204600210C
:101DF000FFF750FA204600F009F92068B0F84410C7
:101E000021F48051A0F8441001B0BDE8F08F00BF6C
:101E10002168B1F8400040F00800A1F84000B1F896
:101E2000440020F40060A1F84400B1F8400040F004
:101E300004022046A1F8402001B0BDE8F04F00F0B8
:101E40002FB900BF2068B0F8441021F08001A0F83D
:101E5000441094F8E01299B1204601B0BDE8F04F6B
:101E600000F01EB92168B1F8440020F40072204649
:101E7000A1F8442001B0BDE8F04F00F0DBB800BF8E
:101E8000B0F8401041F00401A0F84010B0F8401044
:101E900041F00801A0F84010012184F8E012B0F8E8
:101EA00054003C2101EA900220460121C4F8E422BA
:101EB00001B0BDE8F04FFFF7EDB90000002804BF06
:101EC00001207047F0B585B0054690F8A90228B901
:101ED000002085F8A802284600F052F8032085F873
:101EE000A902286802F022FA696869B300204FF05D
:101EF000010C0022002300BF02EB820205EBC204AA
:101F000084F82830DAB20133E286DAB2914284F8FA
:101F100029C084F82B00C4E90E002064ECD800200E
:101F20000023002203EB830305EBC30484F868213C
:101F30000132D3B2994284F8690184F86B01C4E993
:101F40005E00C4F88001EDD805F1080E28689EE80F
:101F50001C50D5E907678DE81050CDE9036702F002
:101F6000D7F90020012185F8240085F8A912E96934
:101F7000012903D12846FFF777F9002005B0F0BD0D
:101F800010B596B0044601A804305021FEF747F979
:101F9000206845F60041C4F20001884202D016B024
:101FA00010BD00BF4FF40050019001A800F02AF9C5
:101FB000002818BFFEF720FA41F25800C4F20200D0
:101FC0000168002241F4000101600068002100F472
:101FD0000000009000981420FFF70AF91420FFF782
:101FE000F5F816B010BD000010B504468068022850
:101FF00018BFFEF701FAD4F8F002012101F0ACFCA1
:10200000D4F8F002BDE8104001F056BC10B504460B
:10201000806948B14EF61050CEF20000016821F000
:102020000601016000F028FFD4F8F002BDE810407E
:1020300001F076BCD0F8F00201F07CBC10B504468B
:1020400090F8A802012804BF022010BD012084F8E6
:10205000A80284F82410206802F028FE002084F8EA
:10206000A80210BDD0F8F02200F52C71104601F046
:1020700089BC000010B5044690F8A802012804BFEE
:10208000022010BD2068012184F8A81202F0ACFDE6
:10209000206802F033F9002084F8A80210BD000087
:1020A00010B50446D0F8F00201F0C2FCA069002887
:1020B00008BF10BD4EF61050CEF20000016841F08E
:1020C0000601016010BD0000B0F5007F42D000287D
:1020D00040F0808047F21400C4F2000050F8141C55
:1020E000C26E01F4C06122F48072B1F5806FC266E5
:1020F0002ED150F8141C012262F34A2140F8141C1E
:1021000040F22801C2F200010968322251434DF623
:102110008362C4F21B32A1FB0212910C02685205C9
:1021200011D54A1C0FD0026852050CD559B102686E
:10213000520508D5012906D00268520503D50229A7
:10214000A1F10401EAD10068400544BF03207047B3
:102150000020704747F21400C4F2000050F8141C2D
:10216000C26E01F4C06142F48072B1F5806FC26644
:10217000EED150F8141C012262F34A2140F8141CDD
:1021800040F22801C2F200010968322251434DF6A3
:102190008362C4F21B32A1FB0212910C0268520549
:1021A00011D54A1C0FD0026852050CD559B10268EE
:1021B000520508D5012906D00268520503D5022927
:1021C000A1F10401EAD10068400544BF0320704733
:1021D000BEE700BF47F21400C4F2000050F8141C20
:1021E000022262F34A2140F8141C002070470000CC
:1021F00047F20800C4F20000016841F48041016028
:10220000704700002DE9F04182B00446807841F229
:1022100088060007C4F2020602D400202FE000BFA7
:1022200056F8300C5FEAC0080BD456F8300C40F07A
:10223000805046F8300C56F8300C00F08050019079
:10224000019847F20007C4F20007386840F4807034
:102250003860FEF757FF05463868C00500F10C816D
:10226000FEF750FF401B0228F6D90320B8F1000FFB
:1022700005D456F8301C21F0805146F8301C2168F6
:10228000CA0717D18A071DD44A0723D40A0729D4BD
:10229000CA062FD48A0635D44A063BD40A0641D44E
:1022A000CA0547D48A034DD48A0553D44A0559D464
:1022B00067E000BF3268636822F003021A433260AD
:1022C0008A07E1D53268A36822F00C021A43326013
:1022D0004A07DBD53268E36822F030021A433260E5
:1022E0000A07D5D53268236922F0C0021A4332604A
:1022F000CA06CFD53268636922F440721A4332604D
:102300008A06C9D53268A36922F440621A43326052
:102310004A06C3D53268E36922F440521A43326058
:102320000A06BDD53268236A22F440421A4332605D
:10233000CA05B7D53268636A22F440321A43326064
:102340008A03B1D57269A36A22F003021A4372614B
:102350008A05ABD53268E36A22F440221A43326020
:102360004A050ED53268236B22F440121A43B3F5A6
:10237000801F326005D156F87C2C42F4801246F85A
:102380007C2C0A050ED53268636B22F440021A4396
:10239000B3F5800F326005D156F87C2C42F48012E0
:1023A00046F87C2CCA040ED53268A36B22F040722A
:1023B0001A43B3F1807F326005D156F87C2C42F489
:1023C000801246F87C2C8A040ED53268E36B22F02A
:1023D00040621A43B3F1006F326005D156F87C2C8D
:1023E00042F4801246F87C2C4A040ED53268236CE5
:1023F00022F040621A43B3F1006F326005D156F803
:102400007C2C42F4801246F87C2C0A040ED53268EB
:10241000636C22F040521A43B3F1805F326005D101
:1024200056F87C2C42F4803246F87C2CCA030ED538
:102430003268A36C22F040421A43B3F1804F3260FD
:1024400005D156F87C2C42F4803246F87C2C4903A6
:102450000ED57169E26C21F440111143B2F5001FF1
:10246000716105D156F87C1C41F4801146F87C1C42
:1024700002B0BDE8F08100BFB06810F4407010D029
:10248000216D88420BD0B068B16820F4407041F4EF
:102490008031B160B16821F48031B160B060C007B3
:1024A0000CD1B068216D20F440700843B06000206A
:1024B000B8F1000F3FF5E3AEDBE600BFFEF722FE0A
:1024C000054641F2883700BFB0688007E9D4FEF7BF
:1024D00019FE401BB842F7D9C7E600002DE9F047C6
:1024E000002865D042F2000AC4F2020A0446DAF873
:1024F00000000D4600F00F0088420CD2DAF8000010
:1025000020F00F002843CAF80000DAF8000000F0BD
:102510000F00A8424CD1216841F20808C807C4F254
:10252000020803D1880740F1D480B9E0606802282E
:102530003AD0032840D158F8082C920138D5D8F861
:102540000420D8F8043042F20046C3F3031302F02B
:102550000302D8F804700133C0F2F406032A04BF62
:1025600041F20026C0F27A06B6FBF3F2D8F8043046
:10257000C7F306277A43C3F34163022707EB4303FC
:10258000B2FBF3F24BF20043C0F2C4439A425DD96E
:10259000D8F8002012F0F00F4DD0890756D5A16869
:1025A000002953D147E000BF58F8081C890307D41D
:1025B0000120BDE8F08700BF58F8081C4905F7D591
:1025C000D8F8001001F00C0104293FD0D8F8001011
:1025D00001F00C01082939D0D8F8001001F00C01E5
:1025E0000C2933D1D8F80410D8F8042042F200475F
:1025F000C2F3031201F00301D8F804300132C0F233
:10260000F407032904BF41F20027C0F27A07B7FBA1
:10261000F2F1D8F80420C3F306235943C2F3416210
:10262000022303EB4202B1FBF2F14BF20042C0F293
:10263000C44291420AD9D8F80010082262F3071167
:102640004FF00109C8F8001002E000BF4FF0000988
:10265000D8F8001021F003010843C8F80000FEF785
:1026600051FD064641F28837D8F80000616800F055
:102670000C00B0EB810F07D0FEF744FD801BB84281
:10268000F2D90320BDE8F0872168880708D4B9F1A2
:10269000000F1ED0D8F8000020F0F00017E000BFB7
:1026A000480705D5D8F8000040F4E060C8F80000FD
:1026B000080706D5D8F80000072262F30D20C8F8F5
:1026C0000000D8F80000A26820F0F0001043C8F81D
:1026D0000000DAF8000000F00F00A8421BD9DAF879
:1026E000000020F00F002843CAF80000FEF70AFDA2
:1026F000064641F2883700BFDAF8000000F00F000C
:10270000A84207D0FEF7FEFC801BB842F4D9032094
:10271000BDE8F0872168480707D5D8F80000E268CF
:1027200020F4E0601043C8F80000080708D5D8F886
:102730000000216920F4605040EAC100C8F80000A0
:10274000D8F8000042F20041C0F2F40100F00C00A1
:10275000042808462DD0D8F8000000F00C00082806
:1027600041F20020C0F27A0023D0D8F8002002F015
:102770000C020C2A1CD1D8F80420D8F8043002F03E
:102780000302C3F30313D8F804700133032A08BF0C
:102790000146B1FBF3F0D8F80410C7F30627C1F3E4
:1027A00041610222784302EB4101B0FBF1F000E00D
:1027B0000020D8F8001045F2F822C1F30311C0F64A
:1027C0000002515C40F2280201F01F0120FA01F1E1
:1027D00040F20000C2F200000068C2F20002116084
:1027E000BDE8F047FEF7B2BC002804BF01207047E7
:1027F0002DE9F04182B00446007841F20006C0079E
:10280000C4F202061ED1207880073DD4207800074C
:1028100064D42078400700F187802078800600F19A
:10282000D980E069002800F0C581B16801F00C0191
:102830000C2940F03181012840F08481012002B050
:10284000BDE8F081B06800F00C01F068082961D0A3
:10285000032281F00C0122EA00000844B0FA80F063
:10286000400957D16068B0F5803F07D0B0F5A02F80
:1028700040F0E480306840F480203060306840F4FC
:1028800080303060E5E000BFB068F16800F00C0017
:10289000042871D001F0030180F00C0081F00201E6
:1028A0000844B0FA80F0400966D1E1683068002938
:1028B00000F0E08040F480703060FEF723FC0546B5
:1028C0003068400500F1FE80FEF71CFC401B02282A
:1028D000F6D9032002B0BDE8F08100BF6169D6F8E7
:1028E0009400002900F0948040F00100C6F89400A4
:1028F000FEF708FC054600BFD6F8940080073FF5B8
:1029000088AFFEF7FFFB401B0228F5D9032002B079
:10291000BDE8F081306880037FF575AF60680028FE
:102920007FF471AF3EE000BFB06D5FEAC00808D42D
:10293000B06D40F08050B065B06D00F080500190F7
:10294000019847F20007C4F200073868C0052DD48B
:10295000386840F480703860FEF7D4FB054600BF4D
:102960003868C00522D4FEF7CDFB401B0228F7D9FA
:10297000032002B0BDE8F0813068400501D5E06871
:1029800080B17068216920F0FE4040EA016070600B
:1029900040F20000C2F200000068FEF7D7FB0028FA
:1029A0003FF434AF012002B0BDE8F081A0680128F7
:1029B00008D0052840F0A480D6F8900040F004002C
:1029C000C6F89000D6F8900040F00100C6F89000DC
:1029D000A4E000BFA169D6F89800002900F07A8031
:1029E00040F00100C6F89800FEF78CFB054600BFDA
:1029F000D6F8980080073FF514AFFEF783FB401B25
:102A000002284FF00300F3D902B0BDE8F08100BF07
:102A100020F00100C6F89400FEF774FB054600BFE5
:102A2000D6F8940080077FF5F4AEFEF76BFB401BF1
:102A30000228F5D9032002B0BDE8F08131680028F2
:102A400021F480313160316821F48021316000F05F
:102A5000CF80FEF757FB0546306880033FF5D3AEC5
:102A6000FEF750FB401B6428F6D9032002B0BDE8F6
:102A7000F08100BF20F480703060FEF743FB054614
:102A8000306840057FF5C2AEFEF73CFB401B0228D4
:102A90004FF00300F4D9B7E73168022821F08071C4
:102AA000316040F08B80FEF72DFB054630688001D9
:102AB00040F1CA80FEF726FB401B02284FF00300BE
:102AC000F4D9A1E77068216920F0FE4040EA016076
:102AD00070609BE620F00100C6F89800FEF712FB3C
:102AE000054600BFD6F8980080077FF59AAEFEF73E
:102AF00009FB401B02284FF00300F3D984E700BF15
:102B0000D6F89010002821F00101C6F89010D6F8F0
:102B1000901021F00401C6F8901079D0FEF7F2FA77
:102B2000054641F2883700BFD6F89000800700F1D3
:102B30008180FEF7E7FA401BB842F5D9032002B0C6
:102B4000BDE8F081F068216A00F003028A427FF458
:102B500029AF626A6FF00F0300F0F00103EB02127D
:102B600091427FF41FAFA16A00F4FE42B2EB012F45
:102B70007FF418AFE16A00F07842B2EBC16F7FF4E6
:102B800011AF226B0023CFF6E07303EA025200F488
:102B9000C001A2F5001291427FF404AF616B4FF0C7
:102BA0007E4202EA016100F0C06001F17E4188428C
:102BB0007FF4F8AE002002B0BDE8F081F0684FF677
:102BC000FF7120F00300F060F068CFF6EE6108407E
:102BD000F060FEF797FA044630688001EAD5FEF708
:102BE00091FA001B02284FF00300F5D90CE700BF53
:102BF000FEF788FA054600BF306880037FF503AE14
:102C0000FEF780FA401B64284FF00300F4D9FBE67E
:102C1000FEF778FA054641F2883700BFD6F89000F3
:102C2000800707D5FEF76EFA401BB8424FF003004D
:102C3000F4D9E9E6B8F1000F3FF5EFADB06D20F043
:102C40008050B065E9E500BFF06848F20C01C0F2C1
:102C50009F1104F1200700EA010C8ECF6FF00F00E6
:102C6000D4E90C5400EB02100022CFF6E07241EAE6
:102C70000C0102EA05520843A2F500124FF07E450E
:102C800040EA032005EA0465104305F17E4540EA69
:102C9000C7602843F060306840F080703060F068B2
:102CA00040F08070F060FEF72DFA04463068800135
:102CB0003FF580AFFEF726FA001B02284FF0030015
:102CC000F4D9A1E6411E0020B0EB116F1CBF01201A
:102CD00070474EF21002CEF2000251604EF62351C0
:102CE000CEF20001F0230B70072190601160704755
:102CF000FEE70000B0B588B041F67C0040F200115C
:102D0000C2F20000C5F200014FF4002200240425A5
:102D100080E816000121182200F1440CCDE9064498
:102D2000CDE90444CDE90244CDE90044C0E90344BF
:102D3000C0E905458483016280F82440C0E90B4462
:102D400080F83840C46380F8401060238CE81C0091
:102D50000165FDF7C1FD002818BFFDF74DFB41F2ED
:102D60000000C3F2602000900620CDE901007F2022
:102D7000CDE903054FF08070069041F67C00C2F269
:102D8000000069460594FDF7A7FB002818BFFDF772
:102D900033FB08B0B0BD000081B041F24C00C4F27A
:102DA0000200016841F004010160016801F00401C2
:102DB00000910099016841F020010160016801F073
:102DC000200100910099016841F002010160016851
:102DD00001F0020100910099016841F001010160D8
:102DE000006800F001000090009801B070470000FA
:102DF00080B541F2AC5040F20801C2F20000C2F2CC
:102E00000001002200F010FC002818BFFDF7F4FAC2
:102E100041F2AC5040F22C01C2F20000C2F20001BB
:102E200000F02EFE002818BFFDF7E6FA41F2AC5084
:102E300040F25011C2F20000C2F2000100F0CAF9E3
:102E4000002818BFFDF7D8FA41F2AC50C2F20000DA
:102E500000F036FE002808BF80BDBDE88040FDF7C9
:102E6000CBBA0000FEE70000FEE70000704700005C
:102E700070470000FEF74CB9B0B594B000240020B4
:102E8000CDE90A44CDE90844FFF71EF92120069058
:102E90004FF48030079001200C900220032555212B
:102EA0000D90CDE90E50CDE91010CDE9120006A825
:102EB000FFF79AFC20B1EFF3108072B6FEE700BF77
:102EC0000F20CDE9010501A80421CDE903440594B3
:102ED000FFF704FB20B1EFF3108072B6FEE700BFEE
:102EE00014B0B0BD4EF68850CEF20000016841F437
:102EF000700101607047000010B540F28C14C2F2FE
:102F000000040A4602A0214600F024FB204610BD22
:102F100043444320436F6E666967000010B5D0F8E4
:102F2000BC323BB38E4601EB810100EB810151F8CD
:102F3000184F64B1D0F8C4C20EEB8E020CEBC20283
:102F4000D2F838C0B4FBFCF202FB1C42A2B1002450
:102F5000C3F81442D0F8C002D0F810C0BCF1000F82
:102F600006D0D3F8080203F504717246E047002446
:102F7000204610BD032010BD00240C6071460022C5
:102F8000002300F05FFD204610BD0000B0B5D0F872
:102F9000BC527DB1044600F00DFCD4F8C02205F50A
:102FA0000371D368D5F80422C5F80C02104698477F
:102FB0000020B0BD0320B0BDB0B58121044600F0B3
:102FC0005BFB002520460121258700F055FB2046AC
:102FD0008221A4F8785100F04FFBD4F8BC02E564DC
:102FE00048B1D4F8C00240688047D4F8BC0200F071
:102FF000D7FFC4F8BC520020B0BD000040F2EC0086
:103000001222C2F200000A807047000010B5D0F80A
:10301000BC428CB1D0F8C01259B194F80002FF281C
:1030200007D08B6894F8012221469847FF2084F846
:103030000002002010BD00BF032010BD014640F279
:1030400000100A22C2F200000A807047014640F2D6
:1030500064004322C2F200000A807047014640F239
:10306000A8004322C2F200000A807047014640F2E5
:103070000C104322C2F200000A807047F0B581B004
:1030800004464FF4077000F08DFFE8B30546C4F81E
:10309000BC02207C4026002808BF4FF40076204662
:1030A00081210222334600F0E1FB01272046012165
:1030B00002223346278700F0D9FB1020A4F84E00E7
:1030C0002046822103220823A4F8787100F0CEFB69
:1030D000D4F8C002A4F84C70006880470020C5F8FE
:1030E0001402C5F81802207CD5F8042200282046D6
:1030F0004FF0010114BF40234FF4007300F0CAFBEE
:10310000002001B0F0BD00BF0020C4F8BC020220C6
:1031100001B0F0BD10B540F28C14C2F200040A46B2
:1031200002A0214600F016FA204610BD4344432079
:10313000496E7465726661636500000040F2641058
:103140000422C2F200000A807047000010B540F26D
:103150008C14C2F200040A4602A0214600F0FAF9DB
:10316000204610BD53544D6963726F656C6563747E
:10317000726F6E696373000010B540F28C14C2F276
:1031800000040A4602A0214600F0E4F9204610BDE2
:1031900053544D3332205669727475616C20436FFD
:1031A0006D506F7274000000D0F8BC12002904BF8B
:1031B0000320704780B590F810C0D1F80422402356
:1031C0000121BCF1000F08BF4FF4007300F062FB57
:1031D000002080BD00290EBF0320C0F8C0120020CF
:1031E0007047000047F29050C1F6FF700268836894
:1031F0004FF01A0C9B18A1F800C000F0A680B0B5E3
:103200004FF0370C1A0F0CEB13714068B3F1204FDD
:1032100038BF02F1300140F26812C2F20002917030
:1032200019014FF0000E0CEB117582F803E0C3F3A7
:103230000364B1F1204F38BF04F130051902157154
:103240000CEB117582F805E0C3F30354B1F1204F84
:1032500038BF04F13005190395710CEB117582F834
:1032600007E0C3F30344B1F1204F38BF04F1300548
:10327000190415720CEB117582F809E0C3F30334DD
:10328000B1F1204F38BF04F13005190595720CEBF0
:10329000117582F80BE0C3F30324B1F1204F38BF5E
:1032A00004F1300519061573C3F303140CEB117503
:1032B000B1F1204F4FEA037103F00F0382F80DE0E4
:1032C00038BF04F1300503F13704957382F80FE03D
:1032D000B1F1204F38BF03F13004010F0CEB107334
:1032E000147482F811E0B0F1204F38BF01F13003BF
:1032F00001010CEB1174937482F813E0C0F30363C3
:10330000B1F1204F38BF03F1300401021475C0F34E
:1033100003530CEB1174B1F1204F4FEA003182F8E6
:1033200015E038BF03F130040CEB1173947582F88B
:1033300017E0C0F30340B1F1204F38BF00F1300374
:10334000137682F819E0BDE8B04040F26810C2F28E
:1033500000007047D0F8BC0200280EBF0320C0F860
:103360000412002070470000D0F8BC0200280FBFF4
:103370000320C0F80812C0F8102200207047000097
:1033800070B582B0D0F8BC6204460020002E8DF8E3
:103390000700ADF8040061D008780D4610F0600118
:1033A00016D0202956D1EA88002A27D040B2B0F1A1
:1033B000FF3F2FDD6878314686F80002204686F808
:1033C000012200F093F80026304602B070BD00BF25
:1033D00068780B283ED80026DFE800F008063C3C61
:1033E0003C3C3C3C3C3C2A38EEE700BF94F89C0255
:1033F00003282FD101A92046022221E0D4F8C002DF
:10340000294683686878002200269847304602B033
:1034100070BD00BFD4F8C002314683686878984711
:10342000EA882046072A28BF0722314608E000BF65
:1034300094F89C0203280DD10DF1070120460122CA
:1034400000F06EF80026304602B070BD94F89C0281
:103450000328B9D02046294600F03CF80326304620
:1034600002B070BDD0F8BC22002A04BF0320704710
:10347000D2F8141200294FF0010101D0084670471C
:1034800080B5C2F81412D2F81032D2F80822812185
:10349000C36200F0D7FA0021BDE8804008467047BB
:1034A000D0F8B82222B180B552689047BDE880407C
:1034B0000020704780B513460A46002100F0EAF963
:1034C000002080BD80B513460A46002100F0BAFAFC
:1034D000002080BD10B58021044600F085FA20460A
:1034E0000021BDE8104000F07FBA000080B513460F
:1034F0000A460321C0F894120021C0E9563300F0B7
:10350000C9F9002080BD000080B50521C0F89412E3
:1035100000210022002300F0BDF9002080BD000042
:1035200080B513460A460221C0F894120021C0E972
:10353000063300F087FA002080BD000080B504212A
:10354000C0F8941200210022002300F07BFA002032
:1035500080BD0000002808BF704710B50378ABB1EC
:1035600000F1020E4FF0000C1EF8013C93B19EF8E2
:1035700000309BB19EF80130A3B19EF802300CF1EF
:10358000040C002B0EF1040EEED10DE04FF0000CF8
:103590000AE000BF4CF0010C06E000BF4CF0020C4A
:1035A00002E000BF4CF0030C5FFA8CFC022303EB3B
:1035B0004C03138003220B704A7090F800E0BEF1B8
:1035C000000F2ED0841C02224FF0000CD3B201F861
:1035D00003E043F0010301F803C014F8013C03B316
:1035E000901CC0B20B5440F0010001F800C02378D9
:1035F000BBB1101DC0B20B5440F0010001F800C077
:10360000637873B1901DC0B20B5440F0010001F813
:1036100000C094F802E00832BEF1000F04F1040487
:10362000D4D1BDE810407047002804BF0320704784
:103630000023C0F8B832C0F8C0320029C0F8CC323C
:1036400018BFC0F8B412012180F89C12027000F07B
:10365000B5B8000080B5D0F8C402FDF7A1FE40F275
:103660000032C100C0F2013222FA01F1032888BF02
:103670000321C8B280BD000080B5D0F8C402FDF7B8
:1036800067FE40F20032C100C0F2013222FA01F1BD
:10369000032888BF0321C8B280BD0000B0B504462E
:1036A00071B194F89C0203284AD1D4F8B802426957
:1036B000002A45D020469047002808BF0020B0BD12
:1036C000D4F89402022834D1D4E9070188420DD9F4
:1036D000431A204611461A46E361FFF7F3FE2046DF
:1036E00000210022002300F0D5F822E010D1A169CA
:1036F00081420DD3D4F89802814209D2204600219C
:1037000000220025FFF7DEFEC4F89852E7E700BF6D
:1037100094F89C02032805D1D4F8B802C16809B115
:10372000204688472046802100F05EF92046FFF7BA
:10373000EBFE94F8A002012804BF002084F8A00248
:103740000020B0BD10B5044671B194F89C02032866
:103750001DD1D4F8B8028269CAB12046904700282A
:1037600008BF002010BD00BFD4F8940203280ED17A
:10377000D4E9570398420DD9C01AC4F85C019842A5
:1037800038BF0346204611461A46FFF793FE002035
:1037900010BD00BF94F89C02032805D1D4F8B802EC
:1037A000016909B1204688472046FFF7C7FE00207F
:1037B00010BD0000D0F8C402FDF724BE10B50446C9
:1037C00041F6E80045F60041C2F20000C4F20001F3
:1037D0000822022380E80E000021C0F8F042C4F85D
:1037E000C402C0E90431C0E906110162FEF766FBBC
:1037F000002818BFFCF700FED4F8C4020021002204
:103800001823FDF771FDD4F8C4028021002258234B
:10381000FDF76AFDD4F8C40281210022C023FDF720
:1038200063FDD4F8C402012100224FF48873FDF730
:103830005BFDD4F8C402822100224FF48073FDF7AF
:1038400053FD002010BD00004AB2D0F8C40201F0C0
:103850007F0101EB810100EBC10000F5B571002A89
:1038600048BF00F12A0108787047000080B59446EF
:10387000D0F8C4021A466346FDF7CEFD40F200328E
:10388000C100C0F2013222FA01F1032888BF0321EE
:10389000C8B280BD80B5D0F8C402FDF7F1FD40F29A
:1038A0000032C100C0F2013222FA01F1032888BFC0
:1038B0000321C8B280BD0000F0B581B004460120EC
:1038C000002184F89C02C4F89412D4F8B802616014
:1038D000C4F8A41200B3D4F8BC1221B1426812B1EA
:1038E0002046002190472046002100224023002549
:1038F0004026FFF7BBFF01272046802100224023FE
:10390000A4F86471C4F86061FFF7B0FFA784266271
:10391000284601B0F0BD00BF0325284601B0F0BD28
:1039200090F89C12042904BF90F89D1280F89C1214
:1039300000207047D0F8B812002904BF0320704758
:1039400090F89C22032A05D1C96919B180B588472E
:10395000002080BD0020704702460020117470478F
:1039600080B5D0F8C402FEF769FB40F20032C10016
:10397000C0F2013222FA01F1032888BF0321C8B244
:1039800080BD0000B0B500F2AA250446284600F02C
:103990006BF80120C4F8940294F8AA02B4F8B0229B
:1039A00000F01F010229C4F8982209D001290DD086
:1039B00091B920462946BDE8B04000F083B800BF69
:1039C00020462946BDE8B04000F01CBA20462946F2
:1039D000BDE8B04000F0B0BA00F080012046BDE87C
:1039E000B04000F001B8000080B5D0F8C402FDF787
:1039F00061FD40F20032C100C0F2013222FA01F151
:103A0000032888BF0321C8B280BD000080B5D0F86C
:103A1000C402FEF72FFB40F20032C100C0F20132B7
:103A200022FA01F1032888BF0321C8B280BD00003B
:103A3000014690F89C02042281F89D02002081F842
:103A40009C22704780B5D0F8C402FDF767FD40F2B4
:103A50000032C100C0F2013222FA01F1032888BF0E
:103A60000321C8B280BD00000A7802704A78427013
:103A70004A8842808A888280C988C1807047000055
:103A800010B582B004460020ADF8060061B1CA6AE4
:103A9000C4F8B8122AB10DF106009047C4F8CC0260
:103AA000002002B010BD00BF032002B010BD000016
:103AB000D0F8B822002A04BF0320704712681047CC
:103AC000FFF7A4BFB0B582B00D460978044611F0E7
:103AD00060010DD0402902D0202940F0CF80D4F8D9
:103AE000B80229468268204602B0BDE8B0401047BF
:103AF0006878092800F2C280DFE800F0061CC030B8
:103B0000C06480C0384E00BF94F89C02013802287F
:103B100000F2B480E888022840F0B080D4F8A40213
:103B20000322002808BF0122214641F80C2F20461D
:103B30000222F3E094F89C020138022800F29E80F1
:103B400068880025012840F0A280C4F8A4522046CD
:103B5000FFF7F4FC284602B0B0BD00BF688801281A
:103B600040F066800120C4F8A4020BE1E888012837
:103B700040F0848094F89C02411E022980F07880F5
:103B80000025214641F8085F20460122FFF7C8FCC6
:103B9000284602B0B0BD00BF688840F28815C2F266
:103BA000000510F0FE0F287046D020468021FFF758
:103BB0001BFF20460021FFF717FF0325284602B010
:103BC000B0BD00BFA888002858D1E888002855D18A
:103BD00068887F2852D894F89C1203294ED0C5B229
:103BE00084F89E0220462946FFF7BAFE2046FFF7DA
:103BF000A5FC002D14BF02200120E9E068884FF0E9
:103C0000FF3101EB102100220E29ADF8062000F251
:103C10008B80DFE801F009553F8989636D898989C7
:103C2000898989894B0000BFD4F8B402026841E059
:103C30000025284602B0B0BD94F89C22C1B2032AE8
:103C400000F07E80022A40F0A580002900F09A80D2
:103C500020466160FFF72CFF002800F0B580054684
:103C600020468021FFF7C0FE204600210DE000BF66
:103C7000032803D1211D204601224FE02046802148
:103C8000FFF7B2FE204600210025FFF7ADFE2846D3
:103C900002B0B0BDC0B2052846D8DFE800F0039FEF
:103CA000A3A7ABAFD4F8B402426802E0D4F8B402E0
:103CB000C269CAB3207C0DF106019047014622E09B
:103CC000217CD4F8B80200290CBF816AC16A0DF1C9
:103CD000060088470146022014E000BF207C18BB84
:103CE000D4F8B802416B0DF10600884701460AE09E
:103CF000207CC8B9D4F8B802016B0DF106008847E2
:103D0000014607204870EA88E2B3BDF8060058B1C2
:103D1000904238BF0246ADF806202046FFF700FC6F
:103D20000025284602B0B0BD20468021FFF75CFE8A
:103D300020460021FFF758FE0025284602B0B0BDFE
:103D4000C1B3606888421DD0C1B22046FFF7A8FB0E
:103D5000297820466160FFF7ABFE98B10546204602
:103D60008021FFF741FE20460021FFF73DFE21792B
:103D70002046FFF795FB022084F89C02284602B0FB
:103D8000B0BD00BF2046FFF7D9FB0025284602B092
:103D9000B0BD00BF20468021FFF726FE204600214F
:103DA000FFF722FE29782046FFF77AFB03252846F5
:103DB00002B0B0BD022084F89C0261602046002160
:103DC0000025FFF76DFBC2E62046FFF7B7FB032097
:103DD00084F89C020025284602B0B0BDD4F8B40295
:103DE000826866E7D4F8B402C26862E7D4F8B40225
:103DF00002695EE7D4F8B40242695AE7D4F8B40223
:103E0000826956E7B0B50D460978044611F06001A5
:103E10000CD0402901D020296ED1D4F8B80229460F
:103E200082682046BDE8B040104700BF6878297915
:103E3000B0B101282CD003285ED194F89C0203284D
:103E40002AD1688838B911F07F0004D0E88810B909
:103E50002046FFF7C9FD2046FFF770FB0020B0BDEC
:103E600094F89C02032825D0022808BF5FEA41602D
:103E700042D111F0800004F114014FF0140004BF8E
:103E80004FF4AA7004F5AA710022225020464DE09A
:103E900094F89C02032839D002282DD148062BD053
:103EA0002046FFF7A1FD20468021FFF79DFD002061
:103EB000B0BD00BF01F00F0000EB8000802904EBD3
:103EC00080002CBF808CB0F86401A8B101F07F00A5
:103ED00000EB800004EB800000F11405802938BF5E
:103EE00000F5AA7548061DD02046FFF7ADFC002856
:103EF00018BF012017E000BF20468021FFF774FDA6
:103F000020460021FFF770FD0020B0BD688880B911
:103F1000480602D02046FFF79DFB2046FFF70EFB28
:103F20007BE700BF00202860204629460222FFF7D9
:103F3000F7FA0020B0BD0000B0B50D460978044680
:103F400011F0600118BF402916D194F89C02013885
:103F5000022813D8A88810F0FE0F0FD1D4F8B802A9
:103F60002946826820469047E9880546002908BF0F
:103F7000002D0FD02846B0BD2029E6D02046802154
:103F8000FFF732FD204600210025FFF72DFD2846D2
:103F9000B0BD00BF2046FFF7D1FA0020B0BD000041
:103FA0007047000040F28C30C2F200007047000001
:103FB000F0B50C78024691F803E030F8240047F29F
:103FC00070636700BEF1030F20EA030308D80020E6
:103FD000DFE80EF002080E0C43F4007308E000BFA7
:103FE000012005E043F4806302E000BF43F4C063B6
:103FF00048F28006CFF6FF76334322F8173032F8C6
:10400000173040F60F752B402343334322F8173007
:104010000B7B48F2800C002B54D032F8173040F65E
:104020000F652B4048F28005BEF1020F08BF05F571
:1040300080752B4322F81730B2F850300D8902EB0F
:10404000C404234425F00105A3F80054B2F850300D
:104050004D89234425F00104A3F804444B7832F839
:104060001710002B58D0490409D532F8171040F624
:104070000F7319400CF58043194322F8171032F8DA
:104080001710490609D532F8171040F60F7319407A
:104090000CF14003194322F8171032F8171040F6BC
:1040A0003F7319400CF120034B40BEF1010F08BFD4
:1040B00041EA0C0322F8173032F8171043F60F7359
:1040C00052E000BF4D78B2F85030E600CC88002DA9
:1040D00024F001044ED091191944A1F8004432F89B
:1040E0001710490609D532F8171040F60F7319401A
:1040F0000CF14003194322F8171032F8171040F65C
:104100003F73BEF1010F01EA03012ED00CF1200331
:10411000594022F81710F0BD490409D532F817109C
:1041200040F60F7319400CF58043194322F817101D
:1041300032F81710490609D532F8171040F60F73F8
:1041400019400CF14003194322F8171032F81710E8
:1041500043F60F7319400CF54053594022F81710DD
:1041600032F8171040F63F73194041EA0C0122F86B
:104170001710F0BD16443344A3F80444B2F850308D
:104180000C6906F206413F2C14D3E50648F20005FF
:104190004FEA5416CFF6FF754FF0FF3E08BF0EEB07
:1041A000541645EA8624CC5232F8171049040CD430
:1041B00015E000BFF4B104F0010606EB5406B402AA
:1041C000CC5232F81710490409D532F8171040F6CE
:1041D0000F7319400CF58043194322F8171032F879
:1041E000171043F60F7319400CF54053594022F84D
:1041F0001710F0BD5E5A48F2000526F4F8465E52EC
:104200005E5ACFF6FF7546EA0504CC5232F8171015
:104210004904DAD4E3E70000B0B50C784B78097BA9
:10422000024630F824004CF2800C4CF28005002944
:104230004FEA44013AD0002B42D0400408D532F86E
:10424000110040F60F73184040EA0C0022F81100EC
:1042500032F8110043F60F7E400640F63F7009D554
:1042600032F8113040F60F742340ACF57F542343ED
:1042700022F8113032F8113040F60F7423402B43EE
:10428000ACF5804522F8113032F81130184028433F
:1042900022F8110032F81100ACF5804300EA0E005C
:1042A0000343002022F81130B0BD00BFF3B1400637
:1042B00040F63F7EEED5ACF57F5540F60F70E3E754
:1042C000400408D532F8110040F60F73184040EA58
:1042D0000C0022F8110032F81100ACF57F554006B1
:1042E00040F63F7E43F60F70BAD4C3E7400443F66E
:1042F0000F7ECFD540F60F70C6E700000146B0F83C
:10430000580040F400420020A1F8582070470000F7
:1043100001460120A1F8400000220020A1F8402021
:10432000A1F84420A1F85020704700000146B0F8E1
:10433000400044F27F0202400020A1F84020704774
:104340000A7B0AB10020704780B50A784B7830F8B4
:1043500022C04FEA4202BBB15FEA4C6348F2A00EB2
:104360000BD530F812C040F60F730CEA030C0EF1B7
:10437000200343EA0C0320F81230C97801291BD02E
:1043800040F63F7111E000BF5FEA4C414BF2800EF6
:1043900009D530F8121040F60F7319400EF580530E
:1043A000194320F8121043F60F7130F812301940FB
:1043B00081EA0E0120F81210BDE88040002070470D
:1043C00002460B78487832F823C040F63F71002847
:1043D00048F2900008BF43F60F71CFF6FF7008BF98
:1043E00000F57F6001EA0C014140002022F8231013
:1043F000704700002DE9F04F82B04F78012F5FD158
:104400008B690A690F7B934228BF1346002F00F087
:104410008580CF780C6A022F40F0C0800D7840F67E
:104420000F6630F825704FEA450E944206EA0706FB
:1044300048F2B00C40F2208148F2B007CFF6FF7787
:10444000D0373E43A4EB030A20F81E60C1F820A039
:1044500030F81E60B0F85070ED0076069EB200EBAA
:10446000050800F15F8108EB0704A4F80234D1F8D5
:1044700014B0002E00F0E6820D890136054405F5E2
:1044800080694FF0FF3505EB5604C6F34105002D5A
:104490004FEA560700F0EA815E46CDE9004836F85B
:1044A000028B5C46CB46012D2BF8028B40F0E2815B
:1044B000D946DDF80480A346009C013FB1E200BF6D
:1044C0000A7B002A4ED0CA78012A00F09D80022A79
:1044D00040F0C4800A78002F40F00782B0F85030D6
:1044E0000E6903443E2E03F2024340F253817709E2
:1044F0004FF0FF35F40608BF05EB561748F20006EB
:10450000CFF6FF7646EA872723F83270B0F85030AE
:10451000034403EBC203A3F80674E6E11A0400F0B7
:104520007781CA88D1F814E0024402F5806801223C
:1045300012FA83F24FF0FF37C2F3410407EB520C3B
:10454000002C4FEA520200F05081774637F8025BA8
:104550004646012C26F8025B40F01081013ABE4627
:10456000B04642E18A690B69D71A3CBF002713465F
:104570008F61B0F850700A78C1193F2B01F20641E3
:1045800070D35F094FF0FF36DD0608BF06EB531707
:104590004FF4004343EA8723D9E100BFE21A0F78C2
:1045A0000A6230F82720B0F85040FD00520605445A
:1045B0004FEA470E9AB248F2B00C2C4400F18E80BC
:1045C000002AA4F8023400F0ED820B890132496917
:1045D00003444FF0FF34C2F3410503F5806304EB5D
:1045E0005208002D4FEA520200F0C3810E4636F801
:1045F000024B1F46012D27F8024B40F01981013A6A
:1046000031463B46B5E100BF8A690B69D61A3CBF0B
:10461000002613460A78002F8E6140F09A81B0F888
:1046200050103E2B014401F2024140F2C5805F0967
:104630004FF0FF36DD0608BF06EB531748F20003C4
:10464000CFF6FF7343EA872321F83230B0F85010D9
:10465000014401EBC201A1F806347AE1012002B065
:10466000BDE8F08F002B00F0688103F0010707EB35
:1046700053039B026BE100BF48F2B002CFF6FF721A
:10468000303A324320F81E20B0F8502000EBC5032A
:104690001A442304A2F8024400F084820A8949697A
:1046A000024402F58063012212FA84F24FF0FF34D3
:1046B000C2F3410504EB5208002D4FEA520200F00C
:1046C00074810E4636F8024B1F46012D27F8024B27
:1046D00040F0B880013A31463B4666E1002AA4F832
:1046E000063400F05F824B890132496903444FF080
:1046F000FF34C2F3410503F5806304EB5208002D3B
:104700004FEA520200F06D810E4636F8024B1F460A
:10471000012D27F8024B40F09F80013A31463B467D
:104720005FE100BF08EB0705A5F80634D1F814B027
:10473000002E00F0DB814D890136054405F58069C6
:104740004FF0FF3505EB5604C6F34105002D4FEA47
:10475000560700F08D805E46CDE9004836F8028BA2
:104760005C46CB46012D2BF8028B40F09380D94656
:10477000DDF80480A346009C013FA6E1BEF802508C
:10478000022CA8F8025027D108F104080EF1040EFB
:10479000023A2AE0002E00F2064700F08B8006F075
:1047A000010505EB5606B60223F83260B0F850302A
:1047B0003B4423F8326098E0002B00F2064700F0FB
:1047C000AD8003F0010606EB53039B0221F8323063
:1047D000B0F850103944BAE0BEF804400EF1060EAD
:1047E000A8F8044008F10608033ABCF1030F0FD300
:1047F000AEF10807A8F1080637F8085F043A26F872
:10480000085F7D887580BD88B580FD88F580F3D10F
:10481000B0F850200978024402EBC10248F2B00C13
:10482000A2F802344FEA410E40F63F71BCE100BFEE
:104830004C88022D5C8040F0978004330431023AAA
:1048400097E000BF4C88022D5C8040F0A9800433C3
:104850000431023AA9E000BF4C88022D5C8040F090
:10486000BB8004330431023ABBE000BF5E46D8E0AF
:104870005E462AE16688A346A9F80260DDF8048056
:10488000009C022D40F0C48009F104090BF10406DC
:10489000023FC6E06688A346A9F80260DDF80480FE
:1048A000009C022D40F0088109F104090BF1040677
:1048B000023F0AE133F8326026F4F84623F832600A
:1048C00033F8326046F4004623F83260B0F85030D6
:1048D0003B4433F8327027F4F84723F8327033F84A
:1048E000327047F4004723F83270C96989B330F851
:1048F000221044F240031940994200D049BB5100B4
:1049000030F8113040F60F773B4048F2B007CFF651
:10491000FF773B43103320F811301AE031F8323082
:1049200023F4F84321F8323031F8323043F40043B5
:1049300021F83230B0F85010394431F8323023F4D5
:10494000F84321F8323031F8323043F4004321F893
:10495000323042F6D071A1F5E0414FEA420EA1F5A6
:10496000756C43F60F711FE18C8806319C8006330D
:10497000033AB8F1030FC0F01581A1F10804083B18
:1049800034F8081F043A23F8081F61885980A18869
:104990009980E188D98040F63F71F1D104E100BFF0
:1049A0008C8806319C800633033AB8F1030FC0F0BF
:1049B000F980A1F10804083B34F8081F043A23F8F1
:1049C000081F61885980A1889980E188D98040F6C4
:1049D0003F71F1D1E8E000BF8C8806319C8006333E
:1049E000033AB8F1030FC0F0DD80A1F10804083BE1
:1049F00034F8081F043A23F8081F61885980A188F9
:104A00009980E188D98040F63F71F1D1CCE000BFB8
:104A1000BBF804500BF10606A9F8045009F1060989
:104A2000033F032C0ED3083EA9F1080536F8084FC2
:104A3000043F25F8084F74886C80B488AC80F488F3
:104A4000EC80F3D10BEB030600244E61924588BF46
:104A5000AAEB03040C62B0F8502088BF9A4608EB1A
:104A600002031FFA8AF2002AA3F806A400F09A8033
:104A70004989013201444FF0FF33C2F3410401F58B
:104A8000806103EB5208002C4FEA52026BD035468E
:104A900035F8023B0F46012C27F8023B04D1013ABE
:104AA0002E4639465FE000BF7388022C4B8055D1FB
:104AB00004310436023A56E0BBF804500BF1060606
:104AC000A9F8045009F10609033F032C0ED3083E50
:104AD000A9F1080536F8084F043F25F8084F7488F7
:104AE0006C80B488AC80F488EC80F3D10BEB0306C7
:104AF00000244E61924588BFAAEB03040C62B0F813
:104B0000502088BF9A4608EB02031FFA8AF2002A57
:104B1000A3F802A446D00989013201444FF0FF33C3
:104B2000C2F3410401F5806103EB52084FEA5202DF
:104B3000ACB3354635F8023B0F46012C27F8023B53
:104B400004D1013A2E46394629E000BF7388022C71
:104B50004B801FD104310436023A20E0B388063678
:104B60008B800631033AB8F1030F1BD3A6F108037B
:104B7000A1F1080433F8081F043A24F8081F5988E3
:104B800061809988A180D988E18040F63F71F1D198
:104B90000AE000BFB38806368B800631033AB8F1CD
:104BA000030F0DD240F63F7130F81E20114081EA0C
:104BB0000C0120F81E10002002B0BDE8F08F00BFED
:104BC000A6F10803A1F1080433F8081F043A24F8F9
:104BD000081F598861809988A180D988E18040F6B2
:104BE0003F71F1D1E0E70000014600204BF68072F2
:104BF000A1F84400A1F840207047000041F6E80009
:104C0000C2F20000FCF7A6BCB0F8440070470000F8
:104C100070B51044022B00F5806440D34FF0FF3292
:104C2000C3F34105580802EB530C4DB1224632F84C
:104C3000026B8E46012D2EF8026B07D1013815E06C
:104C40002246BCF1030F144616D229E06288022DD9
:104C50004A8005D1221D01F1040E023806E000BF92
:104C6000A688A21D01F1060E03388E807146BCF1A4
:104C7000030F144614D300BF32F8086B043821F830
:104C8000086B32F8066C21F8066C32F8046C21F8D7
:104C9000046C32F8026C21F8026CEDD114468E4699
:104CA000D8071CBF20888EF8000070BD002904BF03
:104CB0008021A0F84C10002070470000002B08BF96
:104CC0007047B0B5104400F5806E581C4FF0FF32AD
:104CD000C0F3410302EB500C4FEA5000BBB10A464F
:104CE00032F8025B7446012B24F8025B06D10138CE
:104CF0001146A646BCF1030F0CD21BE04A88022BDA
:104D0000AEF802201AD10EF1040E04310238BCF1C3
:104D1000030F0FD30839AEF1080200BF31F8083F86
:104D2000043822F8083F4B8853808B889380CB88C7
:104D3000D380F3D1BDE8B040704700BF8A88063108
:104D4000AEF804200EF1060E0338BCF1030FE1D2D9
:104D5000F0E70000FEE7000080B540F60000C4F672
:104D600000004FF40051FCF7B9F90138B0FA80F0B7
:104D7000400980BD80B586B0002041F24C01CDE9EC
:104D80000400C4F202010A6842F004020A600968E1
:104D900001F00401009100994FF40051CDE9011098
:104DA0000220039040F60000C4F6000001A9FCF7C1
:104DB000C5F806B080BD0000B0B586B0002441F251
:104DC0004C000594C4F202000168002241F0010188
:104DD000016000684FF4807100F0010000900098BD
:104DE0004FF090404FF48075FCF786F90120CDE933
:104DF000020401A94FF0904001950494FCF79EF83D
:104E000006B0B0BD4FF090404FF48071FCF76CB924
:104E100094B0FCF78BF900240020CDE90A44CDE9D9
:104E20000844FDF751F9212006904FF48030079097
:104E300001200C900220032555210D90CDE90E5044
:104E4000CDE91010CDE9120006A8FDF7CDFC28B180
:104E5000EFF3108072B600BFFEE700BF0F20CDE970
:104E6000010501A80421CDE903440594FDF736FBB3
:104E700020B1EFF3108072B6FEE700BFFDF78CFFA4
:104E8000FDF738FFFDF7B4FFFFF774FFFFF794FF5E
:104E9000FCF738F900F1C806FCF734F941F67C0458
:104EA000C2F2000420467F21FBF7ACFA41F6DC3564
:104EB000C2F2000540F6E4490FF28C080DF1180A21
:104EC00002E000BFB7420DD2FCF71CF90746FFF71E
:104ED00043FF0028F6D0B742F6D307F1C806FFF724
:104EE00091FFF1E72046FBF753FF08BB20460A215C
:104EF000FBF77CFE10BB2046FBF7E8FC800503D5E2
:104F00002046FBF7E5FC286028682968020901FBB8
:104F100009F0030C5046414607F5FA7600F022F8F6
:104F200081B25046FBF74AFAFFF76CFFCCE700BFAF
:104F3000EFF3108072B600BFFEE700BFEFF3108002
:104F400072B600BFFEE700BF5042322061646320AA
:104F500076616C75653A2025642025646D560D0ACE
:104F6000000000000FB4084B10B504A902AA039872
:104F700000F01CF8044602A9002000F0B8F9204611
:104F800010BC5DF814FB0000EF52000802E008C8F6
:104F9000121F08C1002AFAD170477047002001E0B3
:104FA00001C1121F002AFBD1704700002DE9FF4FFD
:104FB0008BB088460546002606E025280BD0DDE9A3
:104FC0000D1290476D1C761C28780028F5D10FB083
:104FD0003046BDE8F08F0024A146A2460122AE492A
:104FE00000E0044315F8013F203B02FA03F00842B9
:104FF000F7D128782A2810D06FF02F022878A0F156
:105000003001092915D809EB890102EB410144F06F
:10501000020400EB01096D1CF0E758F8041B5FEA7D
:10502000010903D544F40054C9F1000944F0020415
:105030006D1C28782E2817D115F8010F44F00404B0
:105040002A280ED06FF02F022878A0F1300109290C
:105050000AD80AEB8A0102EB410100EB010A6D1C40
:10506000F2E758F804AB6D1C28786C280FD006DCEA
:105070004C2817D068280DD06A2814D104E0742871
:1050800010D07A280FD10DE044F400140AE044F463
:10509000801401E044F440146978814202D104F59F
:1050A00080146D1C6D1C2878692865D006DC0028EA
:1050B0008DD0632827D0642806D15DE06E2808D003
:1050C00073282AD0752877D0DDE90D129047761C19
:1050D000E0E0C4F30250022809D003280DD0D8F82C
:1050E000001004280DD00E6008F10408D2E0D8F8B2
:1050F0000010F217C1E90062F6E7D8F800100E8040
:10510000F2E70E70F0E718F8041B8DF8001000208D
:105110008DF80100EB46012003E058F804BB4FF086
:10512000FF3061074FF0000701D40AE07F1C5745AC
:105130000DDA8742FADB1BF807100029F6D106E0EA
:105140007F1C8742FCDB1BF807100029F8D1DDE942
:105150000D23A9EB07008146214600F0B1F8304449
:10516000C61904E0DDE90D121BF8010B90477F1E04
:10517000F8D22146484688E058F8040BC4F302519F
:105180004FF00A0B032900D100B2042900D140B22C
:10519000002802DA40422D2102E0210505D52B210D
:1051A0008DF82410012104E006E0E10710D0202151
:1051B000F6E708AF089113E058F8040BC4F3025166
:1051C0004FF00A0B032900D180B2042900D1C0B2EC
:1051D0000021EEE75946FBF72DF8303107F8011DA5
:1051E0000028F7D1ADEB070000F1200B600702D5D6
:1051F00024F4803401E04FF0010ADA4502DDAAEB25
:105200000B0000E00020824600EB0B0108980144EF
:10521000A9EB01000A90E00306D4DDE90D23214645
:105220000A9800F04DF806444FF0000908E009A97B
:1052300011F80900DDE90D12904709F10109761C0A
:1052400008998945F3DBE0030CD5DDE90D23214600
:105250000A9800F035F8064404E0DDE90D1230202C
:105260009047761CBAF10001AAF1010AF5DC05E0CD
:10527000DDE90D1217F8010B9047761CBBF1000118
:10528000ABF1010BF4DC0A982146DDE90D2300F0B7
:1052900005F806446D1C97E6092801002DE9F04148
:1052A000044600251E461746880404D405E0394606
:1052B0002020B0476D1C641EF9D52846BDE8F0815A
:1052C0002DE9F041044600251E469046C80301D54D
:1052D000302700E02027880404D505E04146384601
:1052E000B0476D1C641EF9D52846BDE8F0810A68F8
:1052F000531C0B601070704700000000000000009D
:1053000001020304060708092853000800000020D2
:105310008801000090020008F05300088801002076
:10532000601E00009C4F00083210320113FD2F1444
:10533000083D311B084D041A79041AE50413F92EAF
:105340001B081508511324F4137D301B08B9284B92
:105350008133141A0D101A1D101A8D04C11A5D180C
:105360001A4D041A6D041A3D041409024313020174
:105370001DC03209046D1A020B1305241610010515
:10538000240110090104240202052406170107055F
:10539000820308151009040133020A2E07050102D1
:1053A00040072A810711093744113A0244190711AD
:1053B0001A12171302021E40830440574D1B0203AA
:1053C000F92B0A061A111A400B112B0907640A3B24
:1053D00004A81B7103F819041A69041A9D041AB968
:1053E00004071E040309041A030000000000000063
:04000005080001D915
:00000001FF
